:1000000013000000130101F8232031002322110006
:10001000232421002326310023284100232A5100D4
:10002000232C6100232E71002320810223229102C0
:100030002324A1022326B1022328C102232AD102AC
:10004000232CE102232EF102232001052322110596
:10005000232421052326310523284105232A510580
:10006000232C6105232E710523208107232291076C
:100070002324A1072326B1072328C107232AD10758
:10008000232CE107232EF107130000000B4500028B
:10009000EF00506013000000130000001300000088
:1000A000832041008321C1000322010183224101F9
:1000B000032381018323C10103240102832441021C
:1000C000032581028325C102032601038326410300
:1000D000032781038327C1030328010483284104E4
:1000E000032981048329C104032A0105832A4105C8
:1000F000032B8105832BC105032C0106832C4106AC
:10010000032D8106832DC106032E0107832E41078F
:10011000032F8107832FC107130101080B00000083
:100120001300000013000000130000001300000083
:100130001300000013000000130000001300000073
:100140001300000013000000130000001300000063
:100150001300000013000000130000001300000053
:100160001300000013000000130000001300000043
:100170001300000013000000130000001300000033
:100180001300000013000000130000001300000023
:100190001300000013000000130000001300000013
:1001A0001300000013000000130000001300000003
:1001B00013000000130000001300000013000000F3
:1001C00013000000130000001300000013000000E3
:1001D00013000000130000001300000013000000D3
:1001E00013000000130000001300000013000000C3
:1001F00013000000130000001300000013000000B3
:10020000130500000B20050417610004130181F29F
:10021000170500041305C56C97350004938545F157
:100220006308B50023200500130545006FF05FFF4C
:1002300017050004130505DD970500049385456A3D
:1002400017D6000013060630630CB500832606009F
:100250002320D50013064600130545006FF0DFFE8E
:1002600017D500001305C52D1301C1FF97D5000058
:100270009385452D630EB5008326050013054500C3
:100280002320A100E7800600032501006FF01FFE78
:1002900013014100EF0010596F000000B717000470
:1002A00003C7578F930710046304F70067800000AB
:1002B00083270500371700040327C78F938797000C
:1002C000B387E7402320F50067800000B7170004DC
:1002D00003A6479063080600032706002320E500D5
:1002E00003A64790B717000483A5C78F1306C6005F
:1002F0001305A0006F00500F130101FF23202101FF
:100300003719000423229100832749908324050094
:100310002324810023261100130405001387040001
:100320009386070303A8070003A5470083A587005A
:1003300003A6C700232007012322A7002324B70018
:100340002326C7009387070113070701E39CD7FC07
:10035000930750002326F40023A6F400832704000B
:100360001385040023A0F400EFF05FF683A7440098
:10037000638A070483270400130504001387070317
:1003800003A8070083A5470003A6870083A6C7002C
:10039000232005012322B5002324C5002326D500F0
:1003A0009387070113050501E39CE7FC8320C10047
:1003B000032481008324410003290100130101016A
:1003C000678000009307600023A6F40003258400E3
:1003D00093858400EF0050138327499003A5C40040
:1003E0001386C40083A707008320C1000324810073
:1003F00023A0F40003290100832441009305A000F9
:10040000130101016F00407EB717000483C7578FA7
:10041000B716000403A7868F9387F7FB93B71700DF
:10042000B3E7E70023ACF68E13072004B7170004E8
:10043000238AE78E6780000013071004B7170004B3
:10044000A38AE78EB717000423AC078E67800000ED
:10045000130101F613050003232E11082328A10719
:100460002326B107232C8108232A91082328210958
:10047000232631092324410923225109232061091C
:10048000232E7107232C8107232A9107EF001043A5
:10049000B717000423A0A79013050003EF00104234
:1004A000B717000483A70790371D00042322AD90DF
:1004B0002320F500930720002324F500B7B50000A2
:1004C000930780022326F5001306F0019385C54AA1
:1004D0002322050013050501EF10003437C7000083
:1004E000930747A5032E47A503A3470083A88700CA
:1004F00003A8C70083A5070103A6470183A68701B8
:1005000003D7C70183C7E701B71D000437B5000053
:10051000231EE102230FF1021387CD929307A0005F
:1005200013050571232EF7642320C10323226102E2
:1005300023241103232601032328B102232AC10205
:10054000232CD102EF10004437B500001305C54C31
:10055000EF104043B7B7000013850771EF108042DA
:10056000B717000483A7078F6380076437B50000BF
:100570001305C54FEF100041B7B700001385077191
:10058000EF10404037B5000013058555EF10803F50
:10059000B7B7000013850771EF10C03E37B50000F4
:1005A0009305800C13050559EF10C03DEF00900F27
:1005B00037C90000832749A737CC0000832C4CA9FA
:1005C0002326F100B717000423A6A78EB73700042F
:1005D0009387C70393091000130949A72324F10047
:1005E000B7140004B71B000413042000EFF0DFE48D
:1005F000EFF09FE18347E90103264901032E4900FB
:10060000032389008328C90003280901832689015F
:100610000357C901832EC100230FF1049305010480
:100620009307100013050102232AC104232EF100B1
:10063000232A81002320D1052322C105232461041C
:100640002326110523280105232CD104231EE104B0
:10065000EF0080630326410113351500B71700042E
:1006600023ACA78E634AC40293172600B387C70042
:100670009387D7FF13050600930530001306810109
:10068000232CF100EF00405603264101130616000B
:10069000232AC100E35AC4FC83268101032581007B
:1006A0009385CD92130A3000EF00005503254D903D
:1006B000EFF09FC403C7448F9307000463FEE7086D
:1006C000930A10046F00400183C7448F938A1A0075
:1006D00093FAFA0F63E257099305300413850A0071
:1006E000EF0040588327C101E310F5FE9305C101D7
:1006F00013050000EF00406193074CA983A8470051
:1007000003A8870003A5C70083A5070103A6470127
:1007100083A6870103D7C70183C7E701938A1A001D
:1007200023209105230FF10483C7448F2322110551
:10073000232401052326A1042328B104232AC1046C
:10074000232CD104231EE10423AE3B8F93FAFA0F2E
:10075000138A0900E3F257F983274101032B810132
:1007600013054101330AFA0293891900B34A6A0357
:10077000232A5101EFF09FB29307900CE398F9E61A
:10078000EF004072371700042324A78E37B500000E
:100790001305055C2326E100EF10C01EB7B700006B
:1007A00013850771EF10001E37B500001305055DB6
:1007B000EF10401DB7B7000013850771EF10801CC4
:1007C00083A5CB8F37B500001305856037B40000D3
:1007D000EF10401B9305500013054462EF10801A80
:1007E000B717000483A5878F37B50000130505648C
:1007F000EF1040199305100013054462EF108018A4
:10080000B717000483C5578F37B500001305C565BA
:10081000EF10401737B900009305100413058967DE
:10082000EF10401683C5448F37B5000013054569A6
:10083000EF1040159305200413058967EF1080140D
:10084000B73700049387C79283A5077337B50000B5
:100850001305056BEF100013930570001305446238
:10086000EF104012B71700049387C79283A5C7659E
:1008700037B500001305C56CEF10C01037B5000088
:100880001305856EEF10001037B500001305457194
:10089000EF10400F83264D90B7B700001385077205
:1008A00083A506002324F10037BC0000EF10800D63
:1008B00037B500001305C573EF10C00C83264D90AB
:1008C00013050C77B7BB000083A54600B7B900003D
:1008D00037B90000EF10000B9305000013054462C8
:1008E000EF10400A83264D901385CB78B7BC0000EB
:1008F00083A58600330A6A41B7B40000EF10800870
:100900009305200013054462EF10C00783264D9025
:100910001385897AB71D000483A5C600EF108006F1
:100920009305100113054462EF10C00583254D9017
:100930001305497C93850501EF10C00413850C7ED7
:10094000EF10400437C5000013058581EF108003C8
:10095000B717000483A607908327810083A50600AC
:1009600013850772EF10000237C500001305C5821A
:10097000EF104001B717000483A7079013050C7709
:1009800083A54700EF1000009305000013054462A3
:10099000EF00507FB717000483A707901385CB782B
:1009A00083A58700EF00107E9305100013054462B5
:1009B000EF00507DB717000483A707901385897A4D
:1009C00083A5C700EF00107C930520011305446246
:1009D000EF00507BB717000483A507901305497CEF
:1009E00093850501EF00107A13850C7EEF00907956
:1009F0008325410137C500001305C586EF009078B7
:100A00009305500013054462EF00D07793173A0026
:100A1000B385474137C50000B38555411305858827
:100A2000EF0050769305D00013054462EF009075F7
:100A30008325810137C500001305458AEF009074B6
:100A40009305700013054462EF00D0738325C10144
:100A500037C500001305058CEF00D0729305100018
:100A600013054462EF00107237C5000093050102C0
:100A70001305C58DEF00107137C500001305858F74
:100A8000EF00507037C5000093050104130505936E
:100A9000EF00506F37C500001305C594EF00906E4E
:100AA00013850471EF00106E0327C1008327878E22
:100AB000371700048325C78EB385B74023A2BD8EA8
:100AC0009307301F63D0B71037C500001305C59DCD
:100AD000EF00506B03A54D8EB719000437190004C1
:100AE000EF90C066130A0500EF905009B7C70000E9
:100AF00003A6870783A6C70737C40000EFA000023C
:100B0000EFA0500EB7C7000023A0A98E03A50708C9
:100B100093050A00EF90402F232EA98C37C50000C3
:100B20001305C59EEF00106603A5098EEF90100512
:100B300013060500938605001305C4A1EF00906419
:100B400037C50000130545A2EF00D0630325C98D0A
:100B5000EF90D00213060500938605001305C4A18B
:100B6000EF00506213850471EF00D0618320C1094A
:100B70000324810983244109032901098329C10828
:100B8000032A8108832A4108032B0108832BC1070C
:100B9000032C8107832C4107032D0107832DC106F8
:100BA0001301010A6780000037B500001305855264
:100BB000EF00505DB7B7000013850771EF00905C40
:100BC0006FF05F9C37C5000013054598EF00905B00
:100BD00037C500001305C59BEF00D05A138504717B
:100BE000EF00505A6FF09FF813052500B305B500CC
:100BF0002320B60067800000130856009307800C7E
:100C0000B307F80213162600131728003305E50072
:100C10002320D5002322D500232C05073387C700C6
:100C20003387E50083260701232A0701232C0701C8
:100C3000938616002328D70037170000130707FAFA
:100C400083260500B387E700B385F500B385C500AB
:100C500013075000B717000423AAD50023AEE78E70
:100C6000678000001375F50F93F5F50F6306B50067
:100C70001305000067800000B7170004A38AA78E41
:100C80001305100067800000130101FF2324810079
:100C900023229100232611001304050093840500EC
:100CA00083C5340003452400EFF0DFFBE31A05FEA3
:100CB0009385040013050400EF0010526354A00252
:100CC0008320C1001307A000B7170004130510000C
:100CD000032481008324410023AEE78E1301010128
:100CE000678000008320C1001305000003248100F9
:100CF0008324410013010101678000001305E5FF13
:100D00001335150067800000130101FF23248100C3
:100D1000232291002326110013040500938405006B
:100D2000EFF0DFFD630E050223A08400930710009F
:100D30006300F4046306040413072000630EE40454
:100D4000930740006314F40023A0E4008320C10053
:100D50000324810083244100130101016780000006
:100D60009307300023A0F40093071000E314F4FC71
:100D7000B717000403A7C78F9307400663DAE7029B
:100D80008320C10023A004000324810083244100A8
:100D900013010101678000008320C10023A0F4003B
:100DA00003248100832441001301010167800000B6
:100DB0008320C1009307300023A0F40003248100A6
:100DC000832441001301010167800000B70710F080
:100DD00023A0A7F0678000001305000067800000D3
:100DE00013050000678000006FF09FFF13050000EF
:100DF000678000001305000067800000B71700043B
:100E00009305050003A5078C6F004010130101FF37
:100E10002324810023261100130405000345050047
:100E2000630A050013041400EFF05FFD034504009E
:100E3000E31A05FE8320C100032481001301010190
:100E400067800000130101FF23229100232021016C
:100E5000232611002324810013090600B384C50052
:100E6000630C0600138405000345040013041400FA
:100E7000EFF0DFF8E39A84FE8320C1001305090038
:100E8000032481008324410003290100130101018F
:100E90006780000067800000371500041305859007
:100EA0006F0000216FF05FFF2320B5006780000016
:100EB0008327050023A4B70067800000832705006F
:100EC0009385F5FF93960601B3E6D50013168600C9
:100ED00033E6C60023A6C70067800000832705000D
:100EE00003A54700135505011375F50F6780000032
:100EF000130101FF23261100EFF05FFE8320C100E4
:100F0000133515001301010167800000130101FF73
:100F100023248100232291002326110013040500BD
:100F20009384050013050400EFF09FFCE31C05FE0D
:100F3000832704008320C1000324810023A097009D
:100F4000832441001301010167800000832705000D
:100F500003A7470093874700639805001377E7FFCF
:100F600023A0E700678000001367170023A0E700B5
:100F7000678000008327050003A747009387470089
:100F8000639805001377D7FF23A0E7006780000070
:100F90001367270023A0E700678000008327050070
:100FA00023A0B700678000008327050023A2B700B5
:100FB000678000008327050023A4070067800000E6
:100FC000130101FF23261100232481002320B500F3
:100FD0009305000013040500EFF05FFC1305040007
:100FE0008320C10003248100130101016FF09FFCE5
:100FF00037150004130101FFB70501F01305C59073
:1010000023261100EFF05FEA8320C100B70502F04C
:10101000371500049385050413058590130101011C
:101020006FF01FFA130101FF23248100371400041D
:10103000130584909305F0FF23261100EFF0DFF6EF
:10104000B70501001305849093851500EFF01FF597
:10105000371400041305C49093056003EFF05FE5B7
:1010600093061000130600001305C490930580003A
:10107000EFF0DFE41305C49093050000EFF09FEF5D
:101080001305C49093050000EFF05FECEFF04FBC48
:1010900013052004EFF09FD38320C1001305000047
:1010A0000324810013010101678000006FF05FF4E9
:1010B0008327050003A5870067800000B717000499
:1010C0009305050003A5078D6F004001B7170004C5
:1010D0009305050003A5078D6F404076130101FDC0
:1010E00023229102232E310123261102232481027F
:1010F00023202103232C4101232A510123286101AC
:101100002326710123248101232291019384B500B8
:10111000930760019309050063FC971A93F484FF19
:1011200063C4042463E2B424EF0010019307701F2A
:1011300063FC976C93D79400930600081305000492
:101140009305F003639A0722370900041309090085
:1011500093962600B306D90003A44600938686FF23
:10116000638A8622832744001306F00093F7C7FFA3
:10117000338797406340E602635207220324C4008A
:10118000638A86208327440093F7C7FF33879740FD
:10119000E354E6FE93860500032409011308890041
:1011A00063020447832744001306F00093F7C7FF48
:1011B000338797406342E644232A09012328090123
:1011C0006354071E1307F01F6366F73C93D737007D
:1011D0001386170013163600032749003306C9008B
:1011E0000325060093D7274093051000B397F50019
:1011F000B3E7E700130786FF2326E4002324A400B7
:101200002322F900232086002326850013D72640B9
:10121000130610003316E60063E8C71A3377F600AA
:10122000631407021316160093F6C6FF3377F60011
:1012300093864600631A0700131616003377F600EC
:1012400093864600E30A07FE1305F00093983600E4
:10125000B3882801938508001383060003A4C50002
:10126000639A85006F00803A6354073C0324C400EE
:10127000638E85388327440093F7C7FF33879740F1
:10128000E354E5FE8327C4008326840013E614009C
:101290002322C40023A6F60023A4D700B30494009D
:1012A000232A9900232899009367170023A6040195
:1012B00023A4040123A2F400B384E40013850900ED
:1012C00023A0E400EF008067130584006F00800610
:1012D0009304000163EAB408EF000066930760001E
:1012E000930620003709000413090900939727008B
:1012F000B307F90003A44700138787FF6302E432B2
:10130000832744008326C4000326840093F7C7FF85
:10131000B307F40003A747002326D60023A4C60082
:10132000136717001385090023A2E700EF0000618F
:10133000130584008320C102032481028324410217
:10134000032901028329C101032A8101832A410162
:10135000032B0101832BC100032C8100832C41004E
:1013600013010103678000009307C00023A0F90068
:10137000130500006FF01FFC13074000636AF71E9F
:1013800093D5640013859503931615009385850303
:101390006FF09FDB930605006FF01FE08326C4000B
:1013A000032684006FF0DFF6B307F40003A74700BD
:1013B000138509001367170023A2E700EF00005808
:1013C000130584006FF01FF703248900832744006E
:1013D00093FAC7FF63E89A00B3879A401307F000B7
:1013E0006344F716B717000403A78791B71C0004DE
:1013F00083A64C8C3387E4009307F0FF330B540132
:10140000130A0701638CF600371A0000130AFA006A
:10141000330A470137F7FFFF337AEA0013050A0062
:10142000EF8080379307F0FF930B0500630EF524E0
:10143000636A6525373C0004130C4C1003270C002D
:101440003307EA002320EC0063087B3383A64C8C2F
:101450009307F0FF6386F634338B6B413307EB0061
:101460002320EC0013F77B00B7170000630A070086
:10147000B38BEB4093878700938B8B00B387E74058
:10148000371700001307F7FF338A4B01337AEA005E
:10149000338A474113050A00EF8000309307F0FFBD
:1014A000630AF52EB3077541B387470193E7170029
:1014B00003270C002324790123A2FB003307EA0051
:1014C0002320EC00630C24031306F000637E5625F2
:1014D0008326440093874AFF93F787FF93F616000D
:1014E000B3E6F6002322D40093055000B306F400BF
:1014F00023A2B60023A4B600636AF62AB717000435
:1015000083A6479163F4E60023AAE790B717000487
:1015100083A607910324890063F4E60023A8E790DB
:10152000032744001377C7FFB3079740636697000C
:101530001307F000634AF70013850900EF0000402D
:10154000130500006FF01FDF13E714002322E400EF
:10155000B30494002324990093E71700138509002E
:1015600023A2F400EF00803D130584006FF09FDCA0
:10157000130740016376F70E130740056368F716FB
:1015800093D5C4001385F506931615009385E506DB
:101590006FF09FBB13D7970013064000637AE60CE9
:1015A00013064001636CE61A9305C7051306B705D9
:1015B0009395150093952500B305B90003A7050081
:1015C000938585FF6382E514032647001376C6FFE3
:1015D00063F6C70003278700E398E5FE8325C7006D
:1015E000832749002326B4002324E40023A4850094
:1015F000232687006FF09FC193E714002322F40095
:101600006FF0DFC9832749006FF05FC01303130039
:101610009377330093858500E39207C46F008008B9
:1016200003A4C70093862600E38887B66FF05FCDDA
:10163000B307F40003A747008326C40003268400F1
:101640001367170023A2E7002326D600138509009D
:1016500023A4C600EF00802E130584006FF09FCDF9
:101660001385C7059385B705931615006FF0DFAD99
:1016700013D667009305960393951500130686030A
:101680006FF05FF3E30824DB0324890003274400A1
:101690001377C7FF6FF05FE983A788009386F6FF93
:1016A0006390F81693F73600938888FFE39607FE59
:1016B000832749001347F6FFB377F7002322F90089
:1016C00013161600E3E2C7D0E30006D03377F60026
:1016D00093060300E31C07B6131616003377F600D3
:1016E00093864600E30A07FE6FF05FB613074015C6
:1016F0006362F70493D5F4001385850793161500EC
:10170000938575076FF05FA48327490013071000C6
:10171000135626403316C700B367F6002322F9009C
:10172000138705006FF01FEC9307100023A2FB0046
:101730006FF09FE0130740559306E00F1305F00785
:101740009305E007E362F7A093D524011385D5073D
:10175000931615009385C5076FF01F9F130640056C
:101760006360E60613D6C7009305F6069395150049
:101770001306E6066FF01FE493174B01E39807CCBE
:1017800083268900B3874A0193E7170023A2F60056
:101790006FF0DFD693071000130A00006FF05FD1DF
:1017A000B717000423A2778D6FF0DFCB9305840079
:1017B00013850900EF40800803270C006FF01FD449
:1017C00013064015636CE60013D6F70093058607F1
:1017D00093951500130676076FF0DFDD130540556E
:1017E0009305E00F1306E007E366E5DC13D6270157
:1017F0009305D607939515001306C6076FF09FDB78
:10180000832749006FF0DFEB93D6340093871600EF
:10181000939717006FF01FADB3C7A50093F737007C
:10182000B308C5006392070E9307300063FEC70E2E
:1018300093773500639A070413F8C8FF930708FEEF
:10184000130705006366F5069386050093070700F6
:101850006378070303A60600938747009386460034
:1018600023AEC7FEE3E807FF9347F7FF338807017E
:101870001378C8FF1308480033070701B385050133
:1018800063681709678000001307050083C6050019
:101890001307170093773700A30FD7FE9385150022
:1018A000E39607FE13F8C8FF930708FEE37EF7F8F8
:1018B00083A3050083A2450083AF850003AFC50065
:1018C00083AE050103AE450103A3850103A6C5014F
:1018D000938545021307470283A6C5FF232E77FC95
:1018E000232057FE2322F7FF2324E7FF2326D7FFD9
:1018F0002328C7FF232A67FE232CC7FE232ED7FEEB
:10190000E368F7FA6FF05FF41307050063741503DB
:1019100083C705001307170093851500A30FF7FE73
:10192000E36817FF6780000013070500E36215FFF7
:101930006FF05FF56780000067800000678000003F
:10194000130101FC2324C1022326D102232AF10220
:101950002328E102232C0103232E11031386050003
:10196000832585009307810293860700232E1100AB
:101970002326F100EF0080178320C1011301010429
:1019800067800000371300040323038D130101FC5B
:101990002324C1022326D102232AF1022322B102E9
:1019A0002328E102232C0103232E11038325830026
:1019B00093074102130605009386070013050300F1
:1019C000232E11002326F100EF0040128320C101D5
:1019D00013010104678000003367B5009303F0FF33
:1019E000137737006310070C378E7F7F130EFEF7D7
:1019F0000326050083A60500B372C6013363C60142
:101A0000B382C201B3E262006392720C6316D60421
:101A10000326450083A64500B372C6013363C601A1
:101A2000B382C201B3E26200639E72086316D602FB
:101A30000326850083A68500B372C6013363C60101
:101A4000B382C201B3E26200639872081305C50055
:101A50009385C500E30ED6F8131706019397060188
:101A6000631EF7001357060193D706013305F740AD
:101A70009375F50F63900502678000001357070107
:101A800093D707013305F7409375F50F639405006D
:101A9000678000001377F70F93F7F70F3305F740D0
:101AA000678000000346050083C605001305150086
:101AB000938515006314D600E31606FE3305D64061
:101AC000678000001305450093854500E31CD6FCA4
:101AD00013050000678000001305850093858500CD
:101AE000E312D6FC1305000067800000130101EC2F
:101AF000232E1112232C8112232C81112328A111B2
:101B0000138C0500130406002324D102232A91120A
:101B10002328211323263113232441132322511375
:101B200023206113232E7111232A91112326B11131
:101B3000130D0500EF4040208327050013850700A3
:101B40002328F104EF508075232AA10463060D00B9
:101B500083278D036384072C8316CC00939706019B
:101B600093D70701139727016346070203268C06C4
:101B7000B727000037E7FFFFB3E7F6001307F7FFCB
:101B80003377E6002316FC00939707012324EC0625
:101B900093D7070113F78700630E071A03270C0179
:101BA000630A071A93F7A7011307A0006386E71CCF
:101BB000B7C70000938747AB2326F102B7C70000E1
:101BC000938B87C1B7C70000930A010C37C9000087
:101BD000938787C723265109232A01082328010850
:101BE000232E0102232201042324010413830A006B
:101BF00023260104232C0104232E0100130989C28A
:101C0000232EF1049304040083C704006384076C4B
:101C100013075002138404006396E7006F00400529
:101C20006388E7001304140083470400E39A07FE67
:101C3000B3099440638E09020327410983270109F0
:101C400023209300330737019387170023223301A2
:101C5000232AE1082328F1081307700013038300E7
:101C6000634CF7128327C101B3873701232EF1009C
:101C700083470400638007149307F0FF9304140064
:101C8000A30701069305000013050000232CF100B3
:101C900013070000930900009306800513069000C7
:101CA0001308A00203CA04009384140093070AFED9
:101CB000E3E6F6208328C10293972700B387170134
:101CC00083A707006780070093E909016FF09FFD74
:101CD0008327810203A70700938747002324F1028B
:101CE000E35207FC3307E04093E949006FF09FFBA4
:101CF000930700032308F10693078007A308F10662
:101D000003268101832781022322E102A307010622
:101D10001387470093E6290083A70700E34C061CBE
:101D200093F9F9F72324E10293E92900E39C0716CC
:101D3000B7C700009387C7C52326F104130A80079D
:101D400083278101130600006388077E9307000044
:101D50006F00007493050C0013050D00EF10103494
:101D6000630405006F10003E8357CC001307A000EA
:101D700093F7A701E39EE7E28317EC00E3CA07E2CB
:101D8000832681021306040093050C0013050D0041
:101D9000EF10D0246F00C0041306C10893050C0097
:101DA00013050D00EF5000676312050213830A004C
:101DB0006FF05FEB83274109638A07001306C108B0
:101DC00093050C0013050D00EF50C0648357CC0041
:101DD00093F70704638407006F10C0360325C10121
:101DE0008320C11303248113832441130329011386
:101DF0008329C112032A8112832A4112032B011263
:101E0000832BC111032C8111832C4111032D01114E
:101E1000832DC110130101146780000013050D000C
:101E2000EF30900C6FF05FD3930510001305B002F4
:101E30006FF05FE72322E102638405006F109016C4
:101E400093F7090163840756A307010683278102DC
:101E5000832681011387470083A7070063C80656BE
:101E60002324E10293F9F9F76398075603278101C8
:101E70001306000093070000631407006F10403A38
:101E800013840A0013F777001304F4FF1307070302
:101E90002300E40093D73700E39607FE93F7190079
:101EA0006380074A93070003630CF7481307F4FFA6
:101EB000A30FF4FEB387EA402320F10213040700C6
:101EC0006F00804803CA04009384140063140A015D
:101ED0006F109003130E0AFD930700006374C60190
:101EE0006F10005C9384140003CAF4FF93981700EA
:101EF00093973700B387F800B387C701130E0AFD25
:101F0000E372C6FF63D407006F10803E232CF100FC
:101F10006FF0DFD993E909086FF0DFD8E31405D833
:101F200093051000130500026FF0DFD793E9190045
:101F30006FF05FD7832781022322E102A307010606
:101F400003A40700138B4700832781016314040057
:101F50006F10003B232A610063D407006F10003725
:101F6000138607009305000013050400EF309078F6
:101F700003234101631405006F10C045B30785407A
:101F80002320F10263D407006F1000360346F106E8
:101F9000232AF10023246103232C0100232C0102B6
:101FA000630806008327410193871700232AF10065
:101FB00093F729002328F102638807008327410152
:101FC00093872700232AF10093F74908232AF10277
:101FD000639E07768327410203274101B38DE740C3
:101FE0006356B07713080001232071058327410948
:101FF000032701096350B807930C0800130B700006
:102000006F00C000938D0DFF63D6BC059387070159
:10201000130717002320730123229301232AF108B9
:102020002328E10813038300E35EEBFC1306C108D9
:1020300093050C0013050D00EF50C03DE31805D8C3
:10204000938D0DFF832741090327010913830A009C
:10205000E3CEBCFB83260104B387FD001307170002
:102060002320D3002322B301232AF1082328E108E7
:1020700093067000E3CAE6320346F10613038300B9
:10208000630A0602032701099306F1062320D30001
:102090009387170093061000130717002322D3001D
:1020A000232AF1082328E108930670001303830014
:1020B000E3C0E61E03270103630A070203270109A1
:1020C000930601072320D30093872700930620005F
:1020D000130717002322D300232AF1082328E1083D
:1020E0009306700013038300E3C4E61C83264103B8
:1020F00013070008E38AE60603278101832601020D
:10210000B30CD7406358900B930D00012328210393
:102110000327010963DE9D05130B70006F00C000EB
:10212000938C0CFF63D69D05938707011307170057
:10213000232023012322B301232AF1082328E108C5
:1021400013038300E35EEBFC1306C10893050C0048
:1021500013050D00EF50002CE31A05C6938C0CFFFD
:10216000832741090327010913830A00E3CE9DFB5E
:1021700083260103B3879701130717002320D30099
:1021800023229301232AF1082328E10893067000F3
:102190001303830063D0E6021306C10893050C0005
:1021A00013050D00EF500027E31205C283274109F4
:1021B00013830A0013F70910631E076883260102C0
:1021C0000327010923208300B387D70013071700D3
:1021D0002322D300232AF1082328E1089306700064
:1021E00063CAE6641303830093F94900638C090A08
:1021F00003274102832641013304D7406354800AF8
:1022000093090001232071050327010963DE890476
:10221000130A70006F00C000130404FF63D6890422
:10222000938707011307170023207301232233012B
:10223000232AF1082328E10813038300E35EEAFC64
:102240001306C10893050C0013050D00EF50801C08
:10225000E31E05B6130404FF832741090327010980
:1022600013830A00E3CE89FA83260104B38787002B
:10227000130717002320D30023228300232AF10809
:102280002328E1089306700063DEE6001306C10808
:1022900093050C0013050D00EF50C017E31805B2AD
:1022A0008327410903274102832641016354D70054
:1022B000138706008326C1013387E600232EE10041
:1022C000639C077A83C704002328010813830A004C
:1022D000E3900794138404006FF09F992322E10296
:1022E000638405006F10804B93F709016386071024
:1022F000A3070106832781028326810113874700F4
:1023000083A7070063CA06102324E10293F9F9F7B3
:1023100013060000638E07201307900013840A0041
:102320009306A000E372F71433F7D7021304F4FF07
:10233000B3D7D702130707032300E400E39607FE91
:10234000B3878A402320F1020327010283268101FB
:10235000930707006354D70093870600232AF100F0
:10236000232C01026FF0DFC313070000130E0AFDD8
:102370009384140003CAF4FF931717001317370050
:102380003387E7003307EE00130E0AFDE372C6FF42
:102390006FF0DF912322E102638405006F10403F5C
:1023A00093E9090193F70901E39007AA93F7090458
:1023B000A3070106E38C07A88327810283268101F6
:1023C0001387470083D70700E3DC06A82324E10234
:1023D0001306000063820734130600006FF05FAA43
:1023E0002322E102638405006F10C03993E90901DB
:1023F00093F70901E39E07EE93F70904A30701068B
:10240000E38A07EE83278102832681011387470031
:1024100083D70700E3DA06EE2324E1021306000067
:10242000E39C07EE930710006F00002F2322E102C8
:10243000638405006F108034B7C70000938787C49A
:102440002326F10493F70901638007120327810211
:1024500083270700130747002324E10213F719001D
:1024600063080766E38C073C83268101130700039A
:102470002308E106A3084107A307010613E7290083
:10248000E3CC066E93F9F9F793E9290013060000EF
:102490008326C10413840A0013F7F7003387E6008C
:1024A000034707001304F4FF93D747002300E40019
:1024B000E39407FE6FF0DFE82322E10203278102A5
:1024C00093061000232AD10083270700A3070106E3
:1024D00013060000230CF108930747002324F102A0
:1024E0002320D102232C0100232C01021304810993
:1024F0006FF01FAC2322E102638405006F10002BF4
:1025000093F70901638007140327810283270700DB
:10251000130747002324E102E3C4071403278101C2
:102520000346F106E34E07EE93F9F9F7E39607DE6B
:102530008327810163980772232C01002320010265
:1025400013840A006FF05FE02322E1026384050038
:102550006F10C026B7C700009387C7C52326F104B4
:1025600093F70901E39407EE93F709040327810227
:10257000E386072A83570700130747002324E10255
:102580006FF0DFED2322E102638405006F108022EB
:1025900093F78900E38007268327810293877700DA
:1025A00093F787FF138787002324E10203A707001F
:1025B00083A747002322E1042324F104832C410450
:1025C000032B8104232A610013850C0093050B0063
:1025D000EF40902E1304100003234101E312850AFB
:1025E00013850C0093050B001306000093060000F2
:1025F000EF80503203234101E34805580346F106BA
:1026000093077004E3DC473737C400001304C4C3E6
:1026100093073000232AF10093F9F9F72320F10200
:10262000232C0100232C01026FF09F972322E1024B
:10263000638405006F10C00F93E9090193F7090146
:10264000E39407EC93F7090403278102E380071E54
:1026500083170700130747002324E1026FF0DFEB25
:1026600093E989006FF00FE4638405006F10001098
:1026700093F70901639E070A93F90904638A090A1B
:102680000327810283270700130747002324E10261
:102690000357C1012390E7006FF00FD793E90904B6
:1026A0006FF04FE037C700001307C7C513060000DF
:1026B0002326E104130A80076FF09FDD2322E10245
:1026C000638405006F10000A63060AEE930710008A
:1026D000232AF100230C4109A30701061306000079
:1026E0002320F102232C0100232C01021304810971
:1026F0006FF01F8C2324E10237C700001307C7C502
:10270000938906002326E104130A8007639C073C93
:102710001306000093072000130710006384E7549A
:10272000130720006384E7E2930700006FF04FF582
:102730000327810283270700130747002324E102B0
:102740000327C10123A0E7006FF00FCC83274109C5
:102750006FF01F938326C1031307100093871700A0
:102760006354D72C032A0109130710002322E30026
:10277000130A1A0023208300232AF1082328410981
:102780001307700013038300634047670327410565
:1027900083260105130A1A00B307F7002322E3007A
:1027A0002320D300232AF1082328410913077000AE
:1027B000930C830063424769032541048325810408
:1027C0001306000093060000232CF100EF80D014C4
:1027D000832781010327C103630A053E1307F7FF1F
:1027E000B387E70013041400130A1A0023A2EC00B5
:1027F00023A08C00232AF108232841091307700025
:10280000634A4725938C8C00832681051307C107F3
:10281000130A1A00B387F60023A0EC0023A2DC0001
:10282000232AF108232841091307700013838C0021
:10283000E35C479B1306C10893050C0013050D00CC
:10284000EF40503D631405D88327410913830A00E4
:102850006FF09F9913075006E35E47EF032541048D
:1028600083258104130600009306000023206102E3
:10287000232CF100EF80900A8327810103230102BA
:1028800063160526032701098326C10593871700D0
:10289000130717002320D300930610002322D30030
:1028A000232AF1082328E10893067000130383000C
:1028B00063C0E67A032741078326C1036346D70036
:1028C00013F71900E3020792032701058326410548
:1028D00013038300232CE3FE03270109B387D700EA
:1028E000232ED3FE13071700232AF1082328E1081B
:1028F00093067000E3CAE6140327C1031304F7FF2D
:10290000E354808E130A00012328210303270109C1
:1029100063568A32930C70006F00C000130404FFEA
:10292000635E8A3093870701130717002320230172
:1029300023224301232AF1082328E10813038300FB
:10294000E3DEECFC1306C10893050C0013050D0033
:10295000EF40502C631C05C683274109032701095A
:1029600013830A006FF09FFB032741028326410176
:10297000B30CD740635290F9930D00012328210333
:102980000327010963DE9D05130B70006F00C00073
:10299000938C0CFF63D69D059387070113071700DF
:1029A000232023012322B301232AF1082328E1084D
:1029B00013038300E35EEBFC1306C10893050C00D0
:1029C00013050D00EF401025631205C0938C0CFF1A
:1029D000832741090327010913830A00E3CE9DFBE6
:1029E00083260103B3879701130717002320D30021
:1029F00023229301232AF1082328E108930670007B
:102A00001303830063DAE6EE1306C10893050C0096
:102A100013050D00EF401020631A05BA8327410902
:102A200013830A006FF04FEDB3F6E900E39C06D282
:102A3000032A01092322E30023208300130A1A003A
:102A4000232AF1082328410913077000930C8300FF
:102A5000E35C47DB1306C10893050C0013050D006A
:102A6000EF40501B631405B683274109032A01096F
:102A7000938C0A006FF05FD91306C10893050C0010
:102A800013050D00EF401019E30E05826FF00FB42F
:102A90001306C10893050C0013050D00EF409017B5
:102AA000631605B28327410913830A006FF08FE094
:102AB0001306C10893050C0013050D00EF40901597
:102AC000631605B08327410913830A006FF00FE2F4
:102AD00003278101A3070106E34A07C293F9F9F727
:102AE000638007A6130600006FF09F9A032A410730
:102AF00063524059032781038326C103130A070049
:102B000063D4E600138A06006356400303270109D5
:102B1000B3874701232083001307170023224301B3
:102B2000232AF1082328E108930670001303830089
:102B300063CCE66463420A7C03278103330A47417E
:102B4000635E4017930C000123282103032701092A
:102B500063D44C13930D70006F00C000130A0AFF7A
:102B600063DC4C119387070113071700232023010F
:102B700023229301232AF1082328E1081303830069
:102B8000E3DEEDFC1306C10893050C0013050D00F0
:102B9000EF405008631C05A2832741090327010960
:102BA00013830A006FF09FFB1306C10893050C0006
:102BB00013050D00EF401006631A05A00346F10649
:102BC0008327410913830A006FF08FCB1304F7FFAB
:102BD000E35C80C2930D00012328210363DA8D2278
:102BE000130770006F00C000130404FF63D28D222E
:102BF00093870701130A1A0023A02C0123A2BC010A
:102C0000232AF10823284109938C8C00E35E47FDB9
:102C10001306C10893050C0013050D00232CE100D9
:102C2000EF40407F6314059A83274109032A010975
:102C3000938C0A00032781016FF01FFB8326010399
:102C4000B3878700232283002320D30013071700B4
:102C5000232AF1082328E1089306700063D4E6D8FC
:102C60006FF05FBD93070000938707031304F10B18
:102C7000A30FF10A6FF0CFEC83260103B38747015E
:102C8000130717002320D30023224301232AF1082E
:102C90002328E108930670001303830063D0E60243
:102CA0001306C10893050C0013050D00EF40807654
:102CB000631E05908327410913830A00832681033D
:102CC00003274107330AD4008326C1036342D70C8C
:102CD00093F61900639E060A8326C1033304D400C9
:102CE0003387E640330444416354870013040700EC
:102CF0006356800283260109B3878700232043019E
:102D00009386160023228300232AF1082328D10862
:102D100013067000130383006346D64A634C0462B3
:102D200033048740635280CC130A00012328210317
:102D300003270109E3548AF0930C70006F00C00070
:102D4000130404FFE35C8AEE93870701130717005F
:102D50002320230123224301232AF1082328E10809
:102D600013038300E3DEECFC1306C10893050C009B
:102D700013050D00EF40006A630405006FF00F8536
:102D8000832741090327010913830A006FF05FFBC2
:102D9000832601050326410513038300232CD3FE5C
:102DA00083260109B387C700232EC3FE938616002E
:102DB000232AF1082328D10813067000E35ED6F019
:102DC0001306C10893050C0013050D00EF40806445
:102DD000630405006FE09FFF032741078327410934
:102DE00013830A006FF05FEF1306C10893050C0010
:102DF00013050D00EF400062630405006FE01FFD46
:102E000083274109032A010913830A006FF01F98E1
:102E100003270103B3878700130A1A0023A0EC00DD
:102E200023A28C00232AF1082328410913077000EC
:102E3000E35A479D6FF01FC21306C10893050C00AB
:102E400013050D00EF40005D630405006FE01FF8FF
:102E500083274109032A0109938C0A006FF0DF954B
:102E60001307D002A307E10603278101B307F0404F
:102E70006342074C93F9F9F71306D0026FF0CFC9FC
:102E80000325410483258104232A6100EF40C022E9
:102E900003234101630C052A032781019307F0FFF7
:102EA000137BFAFD6302F760930770046302FB5E15
:102EB0008327810413E709102328E102832C4104AE
:102EC00063C60764938D0700232A010093076006F9
:102ED0006302FA5E93076004630CFA708327810132
:102EE000130EBBFB133E1E00338EC7019307410830
:102EF0002320F10013860C0093070E0093860D002B
:102F000093088107130841071307200013050D00DC
:102F1000232A61022320C103EF00504C930770065F
:102F200013040500032E0102032341036306FA463E
:102F3000930770043308C501E306FA0013850C00FB
:102F400093850D001306000093060000232A6102FA
:102F500023200103EF80801C032801020323410387
:102F600093070800630205028327410863FE0701F7
:102F700093060003138717002322E1082380D7005C
:102F800083274108E3E807FFB3878740232EF10238
:102F900093077004630CFB409307500663D0477D92
:102FA000930760066300FA5C83274107232CF10234
:102FB000032781038326C103930707006344D75681
:102FC00093F91900639209586346077A032781032E
:102FD000130A70062320E10203274101631007381A
:102FE0000346F106232AF10083290103232C010063
:102FF0006FE01FFB832781029387770093F787FF9A
:1030000003A70700938787002322E10403A7C7FFD4
:103010002324F1022324E1046FF04FDA8327070011
:10302000130747002324E1026FF04FC383270700F3
:10303000130747002324E1026FF00FCE832781019D
:10304000A307010663C607EC93F9F9F76FE05FCFBA
:103050001306C10893050C0013050D00EF40803BDB
:10306000630405006FE09FD68327410913830A009C
:103070006FF05F84032701098326C105938717003A
:10308000130717002320D300930610002322D30038
:10309000232AF1082328E108930670001303830014
:1030A00063CAE61463040A10032701058326410559
:1030B00013038300232CE3FE03270109B387F600E3
:1030C000232ED3FE13071700232AF1082328E10833
:1030D0009306700063C8E638330A4041635E401DC2
:1030E000930C00012328210363D24C19930D700027
:1030F0006F00C000130A0AFF63DA4C1793870701B9
:10310000130717002320230123229301232AF10808
:103110002328E10813038300E3DEEDFC1306C10856
:1031200093050C0013050D00EF40C02E630405004D
:103130006FE0DFC9832741090327010913830A00D0
:103140006FF05FFB1305F0FF6FE09FC993077004FA
:1031500063CC472737C40000130404C4930730002E
:10316000232AF10093F9F9F70346F1062320F1022F
:10317000232C0100232C01026FE09FE237C40000E2
:10318000130484C36FF0CFC81306C10893050C0065
:1031900013050D00EF400028630405006FE01FC316
:1031A0008327410913830A006FF0DF980327C103C7
:1031B000E31C07EE13F71900631407006FF0CF82CA
:1031C0006FF09FEE1306C10893050C0013050D0068
:1031D000EF404024630405006FE05FBF0327410711
:1031E0008326C1038327410913830A003387E640FE
:1031F0006FF0DFB21306C10893050C0013050D0034
:10320000EF404021630405006FE05FBC032A4107E3
:103210008327410913830A00E3180AE86FF01FF9B6
:1032200093F7190013060700638A0700930700034A
:103230001304F10BA30FF10A6FF08F90232001020A
:1032400013840A006FF04F901306C10893050C0019
:1032500013050D00EF40001C630405006FE01FB76D
:103260008327410913830A006FF00FE983260103C6
:10327000B3874701130717002320D30023224301FC
:10328000232AF1082328E108930670001303830022
:1032900063D4E6021306C10893050C0013050D0064
:1032A000EF404017630405006FE05FB283274109D8
:1032B0000327010913830A008326C103130717009C
:1032C00023208300B387F6006FE09FF0130504000E
:1032D000EF30D07C2320A102930705000323410196
:1032E000634405006FE09FCA930700006FE01FCAA8
:1032F0009307F0FF6FE09FC1130A00006FF0DF83B8
:10330000130760006374F700930707002320F1029E
:1033100063C6073837C40000232AF1002324610361
:1033200013060000232C0100232C0102130404C700
:103330006FE01FC81306D002130710009306100099
:103340006314D7006FE05FFD930620006302D794FB
:103350006FE01FB3130400006FF09F9C1307D002AF
:10336000A307E106232AF100832901031306D002F3
:10337000232C01006FE01FC3930907001306000010
:10338000130720006FF09FFB9307D002A307F106FD
:103390001306D0026FF0CFA693F719003308C501CA
:1033A000E39E07B8832741086FF01FBE83274107BC
:1033B0001307D0FF63C0E70403278101634CF702C2
:1033C000232CF1026FF0DFBE37C40000130444C4A5
:1033D0006FF0DFD8832781010346F10623246103C0
:1033E000232AF1002320F102232C0100232C0102C7
:1033F0006FE01FBB130AEAFF9387F7FF232AF1064A
:10340000230E410763CC072C1307B002A30EE1067D
:1034100013069000634AF616938707031307000309
:10342000A30FF106230FE106930701081307C10755
:10343000B387E7400327C103232CF104B387E700D8
:103440002320F1029307100063D2E72A83270102A9
:10345000938717002320F10263C4072A232C01025B
:103460006FF09FB71306C10893050C0013050D00FC
:10347000EF30507A630405006FE05F95032A41073F
:10348000832741090327010913830A006FF0DFC472
:1034900083278101E39E07A0232C81006FF05FA1A9
:1034A000232C01006FE09F8093076000232CF10024
:1034B0006FF01FA0930741082320F10083278101AB
:1034C0001308410713860C0093860D0093088107AB
:1034D0001307300013050D0023206102EF00007078
:1034E0008327810103230102130405003308F5003B
:1034F000138E07000347040093070003630EF714BD
:10350000032E41073308C8016FF05FA3032781042E
:10351000B7070080B34DF7009307D002232AF100CC
:103520006FF0DF9A03278103930710006352E01ABC
:103530000327C103B387E7002320F10263CE07000E
:10354000130A70066FF05FA9832781039387170022
:103550002320F102E3D607FE93070000130A70064A
:103560006FF09FA783274107232CF102635CF012C1
:10357000032781016312070C93F91900639E090A5E
:103580002320F1026FF05FA59305B10813870500B2
:103590001305A000B3E6A7021307F7FFB3C7A702FE
:1035A000938606032300D700E346F6FE93870703BE
:1035B00093F7F70F9306F7FFA30FF7FE63F0B61824
:1035C0001306E1076F00800083C70600130616008C
:1035D00093861600A30FF6FEE398B6FE9307C10884
:1035E000B387E7401307E107B307F7006FF01FE465
:1035F000930741082320F1008327810113860C00E3
:1036000093860D00930881071308410713073000C4
:1036100013050D0023206102EF00405C032E8101A1
:103620000323010213040500930760043308C40157
:10363000E302FAEC6FF09F90832781010327810357
:1036400093871700B307F7002320F102E3D607980A
:10365000930700006FF05F9813850C0093850D00B1
:103660001306000093060000232C6102232A0103A5
:103670002320C103EF70502A032841030323810351
:10368000E30005E8032E010293071000338EC741C3
:10369000232AC1073308C8016FF05F8A930700002F
:1036A0006FF05FC783278101639A070093071000BB
:1036B000B3F9F9002320F102E38009928327810105
:1036C000938727002320F102E3D807906FF05FF87B
:1036D00093072000B387E7406FF09FE51307D00200
:1036E000B307F040A30EE1066FF09FD2B3F9F900E3
:1036F000E39E09D40327010293070700E35007D68E
:10370000930700006FF09FD58327810283A80700ED
:10371000938747002324F102232C110163C408007E
:103720006FE04FD89307F0FF232CF1006FE08FD7A5
:10373000A307A10693E909016FE05FF09307E10792
:103740006FF0DFCE93F71900E39007EE832741086F
:10375000B3878740232EF102E30A4BC58327410735
:103760006FF09FC9A307A1066FE01FF6A307A1068C
:103770006FE01FF0930700006FF05F85A307A106BD
:103780006FE09FCBA307A10693E909016FE05FC635
:10379000A307A10693E909016FE0DFC0A307A10613
:1037A0006FE09FB4A307A1066FE08FE9A307A1060E
:1037B0006FE01FD5A307A1066FE09FDDA307A10659
:1037C0006FE05FD9B7170004930606001386050063
:1037D0009305050003A5078D6FE04FB183D7C500A2
:1037E00003AE850603D3E50083A8C50103A84502FF
:1037F000130101B893F7D7FF13070040232C81462C
:103800002316F100138405009307010793050100B7
:10381000232A914623282147232E11461309050008
:103820002324C10723176100232E11012322010342
:103830002320F1002328F1002324E100232AE100C2
:10384000232C0100EFE08FAA93040500634A0500D2
:103850009305010013050900EF10102D631C0502EC
:103860008357C10093F70704638807008357C40098
:1038700093E707042316F4008320C147138504004F
:103880000324814783244147032901471301014849
:10389000678000009304F0FF6FF09FFCB7170004EF
:1038A00083A7078D130101FF2324810023229100A8
:1038B0002326110093040500138405006386070086
:1038C00003A78703630C070C0317C40093170701B2
:1038D00093D7070193F687006382060483260401C9
:1038E0006382060613F717006310070893F7270093
:1038F0001307000063940700032744012324E40016
:1039000013050000638E06068320C1000324810096
:1039100083244100130101016780000093F6070131
:10392000638E060A93F74700639007088326040115
:10393000936787002316F4009397070193D7070135
:10394000E39206FA13F7072813060020E30CC7F8E2
:103950009305040013850400EF20C0408357C40082
:10396000832604016FF01FF88327440123240400F9
:1039700013050000B307F040232CF400E39606F88B
:103980008317C40013F70708E30007F893E7070459
:103990002316F4001305F0FF6FF01FF713850700DF
:1039A000EF1090546FF05FF283250403638E0500DF
:1039B000930704046388F50013850400EF10106872
:1039C0000317C40023280402832604011377B7FDDC
:1039D000232204002320D4006FF09FF5930790006A
:1039E00023A0F400136707042316E4001305F0FF77
:1039F0006FF09FF1130101FE2328210183270501A8
:103A000003A90501232E1100232C8100232A9100F4
:103A100023263101232441012322510163CC271B9A
:103A20001309F9FF131F290013844501B309E401A9
:103A3000130A4501330FEA0183A7090083240F000D
:103A400093871700B3D4F402638E040A370301008E
:103A5000930E0400130E0A00130600001307000063
:103A60001303F3FF938E4E0003A8CEFF83260E00B0
:103A7000130E4E00B3786800B388980213580801FB
:103A8000B3F7660093D6060133089802B388C800DE
:103A900013D60801B3F8680033071741B307F700DE
:103AA00013D70741B3F767003306C80033786600C1
:103AB000B38606413387E60093160701B3E6F600A6
:103AC000232EDEFE1356060113570741E3FCD9F9F6
:103AD00083270F00639807029307CFFF6372FA02F0
:103AE0000327CFFF630807006F00800103A70700CB
:103AF000631807009387C7FF1309F9FFE368FAFE0D
:103B000023282501930A0500EF2050656340050A2C
:103B1000B70501009384140013060A009307000000
:103B20009385F5FF130444008326C4FF0327060092
:103B30001306460033F8B600B38707413378B70061
:103B4000B387070193D60601135707013307D74000
:103B500093D60741B306D7001398060133F7B70091
:103B60003367E800232EE6FE93D70641E3FC89FA8B
:103B7000131729003307EA00832707006398070219
:103B80009307C7FF6372FA020327C7FF63080700A2
:103B90006F00800103A70700631807009387C7FF22
:103BA0001309F9FFE368FAFE23A82A01138504002C
:103BB0008320C101032481018324410103290101E0
:103BC0008329C100032A8100832A410013010102D5
:103BD00067800000130500006FF09FFD03230504BC
:103BE000130101F6232C81082328210923244109EC
:103BF000232A9107232E1108232A9108232631090D
:103C00002322510923206109232E7107232C8107C8
:103C10002328A1072326B107232601012320C10061
:103C20002322D10013040500130A0700938C070018
:103C30001389080063020302032745049307100059
:103C400093050300B397E7002322E3002324F30046
:103C5000EF20C04F232004048324410063C2040EDC
:103C600023200900B707F07F33F7F4006306F70855
:103C70000329010083294100130600009306000078
:103C80001305090093850900EF704049631A050C7C
:103C90000327C100930710002320F7008327010AA0
:103CA000638E07620327010AB7C70000938797C78F
:103CB000B7C400002320F700138584C78320C109FF
:103CC0000324810983244109032901098329C108A7
:103CD000032A8108832A4108032B0108832BC1078B
:103CE000032C8107832C4107032D0107832DC10677
:103CF0001301010A678000000327C100B7270000F5
:103D00009387F7702320F70083270100638A075801
:103D100037C50000930485C88327010AE38E075E38
:103D200003C734009387340063040700938784003B
:103D30000327010A138504002320F7006FF01FF802
:103D400083274100B704008093C4F4FFB3F4F40068
:103D5000930710002320F900232291006FF09FF0B9
:103D60001307C1059307810513060900938609000F
:103D700013050400EF20907E232CA10013D74401EB
:103D8000631A0752032981058329C105930700029D
:103D9000B309390113872943E3DAE71093070004D5
:103DA0003387E7408327010013852941B394E4005A
:103DB00033D5A70033659500EF70C047B70710FEF5
:103DC000B385B700930710009389F9FF2326F1020A
:103DD000B7C7000003A6870883A6C708EF60504E48
:103DE000B7C7000003A6070983A64709EF60105371
:103DF000B7C7000003A6870983A6C709EF6050472D
:103E0000130B050013850900938B0500EF704036F6
:103E1000B7C7000003A6070A83A6470AEF60105041
:103E2000130605009386050013050B0093850B0010
:103E3000EF601044130D0500938D0500EF700048EE
:103E4000930B0500130600009306000013050D00F8
:103E500093850D00EF70002C6346057293071000E8
:103E60002320F1029307600163EA770337C700005C
:103E700093973B00130707CBB387E70003A5070021
:103E800083A547000326010083264100EF708022AE
:103E9000E35AA000938BFBFF23200102B3093941B1
:103EA0009389F9FF130D000063C0094463C40B6CD0
:103EB000B389790123227103130C0000930790004A
:103EC00063EA4743930750001308100063D6470185
:103ED000130ACAFF1308000093073000E30CFA4EE0
:103EE000E3DE474593074000E304FA3093071000F0
:103EF000232EF10093075000E318FA44B3879B0187
:103F0000138B17002324F10213060B0013090B0077
:103F1000E3506043232204049307700193050000DB
:103F200063F2C7021307100093074000939717002E
:103F3000938647019305070013071700E378D6FE21
:103F40002322B4041305040023280101EF20C01527
:103F50002320A4049307E0009304050063E4273DB5
:103F6000032801016300083C03250100832541006B
:103F70002320A1042322B104E35C705513F7FB0056
:103F80009316370037C7000093DA4B40130707CB6F
:103F90003387E60093F60A010328070083284700C9
:103FA00013092000638A060237C70000032607DCD6
:103FB000832647DC23280101232A1101EF60505C8E
:103FC000032801018328410193FAFA002320A1006C
:103FD0002322B1001309300063800A0437C70000B0
:103FE000930D07DA93F61A001305080093DA1A40C6
:103FF00093850800638E060003A60D0083A64D007E
:1040000013091900EF60903113080500938805002B
:10401000938D8D00E3980AFC032501008325410060
:104020001306080093860800EF6090552328A1002E
:10403000232AB1008327010263820702B7C7000069
:1040400003A6870A83A6C70A032501018325410128
:10405000EF70400C635405006F00507113050900A8
:10406000EF7000110326010183264101EF60102B40
:10407000B7C7000003A6870B83A6C70BEF60501FCE
:10408000B707C0FC13080500B388B700E3000B387E
:104090002324710513030B008327C101E382075218
:1040A0009307F3FF37C70000130707CB9397370039
:1040B000B387E70003A6070083A64700B7C7000041
:1040C00003A5870C83A5C70C2328610223200101C7
:1040D00023221101EF60D04A032801008328410008
:1040E000938D14001306080093860800EF60501D9E
:1040F0002320A1002322B1000325010183254101D2
:10410000EF70C01B13090500EF7080061306050051
:10411000938605000325010183254101EF60501AB4
:104120001306050093860500130709032328A10041
:10413000232AB10003250100832541001379F70FDD
:1041400023802401EF6010776342A012B7CA0000F9
:10415000032601018326410103A58A0A83A5CA0A11
:10416000EF60101613060500938605000325010075
:1041700083254100EF6010746354A0006F00906BC2
:104180000323010313071000E35A673237C7000007
:104190008327470B0327070B232AF1022328E10279
:1041A00083A7CA0A03A78A0AB38A6400232EF102EE
:1041B000232CE1026F004002032581038325C10304
:1041C000EF6010100326010083264100EF60907419
:1041D000E3420566E3845D2F032601038326410342
:1041E0000325010083254100938D1D00EF6010130E
:1041F000B7C7000003A6070B83A6470B2320A10027
:104200002322B1000325010183254101EF60101134
:10421000232AB1002328A100EF70400A13090500EA
:10422000EF60107503280101832841011306050082
:10423000938605001305080093850800EF60500879
:104240001307090303260100832641001379F70FA2
:10425000A38F2DFF2328A100232AB100EF60906BCC
:104260000326010183264101E35805F4832B8104D1
:104270008325810113050400938B1B00EF10106D43
:104280008327C10023800D0023A077018327010A23
:10429000E384070823A0B701138504006FF01FA271
:1042A0009397C400E39607A637C500009304C5C7DB
:1042B0006FF09FA6B70710009387F7FFB3F7F900D9
:1042C000B706F03F13050900B3E5D700930917C0FF
:1042D00003298105232601026FF09FAFB7C40000B8
:1042E000138584C76FF09F9D330D30419309000003
:1042F0006FF0DFBB232204049305000013050400C4
:10430000EF10905A130BF0FF930710009304050071
:104310002320A40423246103930C0000130A00004B
:10432000232EF1008327C10563C8071E1307E00091
:104330006344771F37C70000130707CB93973B00F1
:10434000B387E70003A7070083A747002328E100FE
:10435000232AF10063CE0C6A03290100832941005E
:10436000032A0101832A41011305090013060A00EB
:1043700093860A0093850900EF609020EF60107427
:10438000130C0500EF60D05E13060A0093860A0046
:10439000EF60C07813060500938605001305090039
:1043A00093850900EF60C07193070C032380F4002C
:1043B000130710001308050093880500938D14005F
:1043C000630CEB0C37C700000326070B8326470B53
:1043D0002320E100EF6080741306000093060000C4
:1043E000130A0500938A0500EF605053032701006C
:1043F000E30005E88327470B0327070B13892400F5
:104400002322F1002320E100338B64016F0040027E
:10441000EF60C0701306000093060000130A050049
:10442000938A050013091900EF60504FE30205E479
:10443000832D4101032D010113050A0093860D0010
:1044400013060D0093850A00EF609013EF6010676C
:10445000130C0500EF60D05193860D0013060D007C
:10446000EF60C06B130605009386050013050A0074
:1044700093850A00EF60C06493070C03A30FF9FE55
:1044800013080500938805000326010083264100D8
:10449000930D0900E31E2BF713060800938608000E
:1044A0001305080093850800EF60805C1309050080
:1044B0009389050013060500938605000325010175
:1044C00083254101EF601045634205020325010188
:1044D000832541011306090093860900EF6010440B
:1044E000E31805D8137C1C00E3040CD803C9FDFFB6
:1044F000130690036F000001E38A960603C9F6FFD6
:10450000938D06009386FDFFE308C9FE130719008B
:104510002380E6006FF0DFD50327C1016308070899
:1045200013071000635047551307FBFFB30DEC4012
:10453000635EEC0083274102330C8741930D00003A
:10454000B38787012322F102130C07002328A1015E
:1045500093070B00E3440B1E9305100013050400A2
:10456000330DFD00B389F900EF109074930A050034
:104570006F008004330D7D41330C70412322010212
:104580006FF0DF9313850B00EF60903E130605007C
:104590009386050013050D0093850D00EF60D0375D
:1045A0003335A000B38BAB406FF05F8B930D0C00E5
:1045B0002328A101930A00000327010193070700A4
:1045C00063000702635E300163CEE93C032701010B
:1045D000330DFD40B389F9403307F7402328E1004C
:1045E00003298101635280078327C101638807681B
:1045F00063820D0493850A0013860D0013050400E1
:10460000EF20400D0326810193050500930A050064
:1046100013050400EF10106D8325810113090500B7
:10462000330CBC4113050400EF105032630E0C0034
:10463000232C21018325810113060C00130504009E
:10464000EF2040091309050093051000130504002D
:10465000EF10106683274102130C050063800706E4
:10466000138607009305050013050400EF2080065C
:1046700093071000130C050063DA4733930D000015
:1046800083270C019387370093972700B307FC001B
:1046900003A54700EF10104F930700023385A74092
:1046A0006F00C002232001026FF04FFFB384E74088
:1046B00083270100339597006FF00FF093071000E8
:1046C00063DC4743930D000013850700B3073501F2
:1046D00093F7F701638A071A130700023307F740BD
:1046E00093064000E3DEE6181307C001B307F74066
:1046F00003270101330DFD00B389F9003307F700EB
:104700002328E100635CA0019305090013060D0056
:1047100013050400EF20800F13090500635C3001CE
:1047200093050C001386090013050400EF20000E0A
:10473000130C050083270102639C0714635E60432A
:104740008327C101638C071883270101635CF00094
:1047500093850A001386070013050400EF20000B61
:10476000930A0500138D0A00639C0D60B3876401F2
:10477000232EF100832701009389140093F717007B
:104780002328F10093050C0013050900EFF08FA614
:10479000930D050093850A0013050900EF20001C06
:1047A000130B050013060D0093050C001305040000
:1047B000EF20C0208326C5001387F9FF232CE100DA
:1047C00093070500938C0D0313071000639E0600EA
:1047D000930505002320A10013050900EF20001810
:1047E00083270100130705009385070013050400C4
:1047F0002320E100EF10901503270100B367470164
:104800006396070083270101638A0726634E0B28FE
:10481000336B4B0163160B00832701016386072866
:104820006340E0708327C101A38F99FF938D090036
:104830006380377193050900930600001306A000FA
:1048400013050400EF10D0121309050093060000B1
:104850001306A00093850A00130504006384AA2BA5
:10486000EF10101193050D00930A05009306000048
:104870001306A00013050400EF10900F130D0500A0
:10488000938919006FF01FF09307C0016FF05FE686
:1048900093050C0013050900EF20400CE35005EAD6
:1048A00093050900930600001306A00013050400F9
:1048B000EF10100C8327C10113090500938BFBFF38
:1048C0006396077883278102138B07006348F00003
:1048D0009307200063CE477B032B8102938904005A
:1048E0006F00C000EF10D0081309050093050C00FD
:1048F00013050900EFF00F9093891900930C05033D
:10490000A38F99FFB3879940930600001306A00078
:104910009305090013050400E3C667FD635860634F
:10492000B38D64019309000093050900130610007C
:1049300013050400EF10906D93050C00232CA100CB
:10494000EF20C0016358A03483C6FDFF1306900317
:104950006F000001630897268346F7FF930D070059
:104960001387FDFFE388C6FE938616002300D70059
:1049700093050C0013050400EF10407DE38A0A8EB6
:10498000638A0900638859019385090013050400AF
:10499000EF10C07B93850A0013050400EF10007B25
:1049A0006FF01F8D938709006FF05FC283270100AE
:1049B000E39607CC83264100930D00001397C600B1
:1049C00063100702B707F07FB3F7D700638A0700C9
:1049D00093071000130D1D0093891900938D070094
:1049E0008327410213051000E38207CE6FF05FC9F1
:1049F00093071000232EF1006354901313860C00CC
:104A000013890C0023249103138B0C006FF08FD0BB
:104A1000E3446095631E0B24B7C7000003A6070C90
:104A200083A6470C0325010183254101130C0000D7
:104A3000930A0000EF60800E0326010083264100E8
:104A4000EF6040616346051693CBFCFF938D040035
:104A500093050C0013050400EF10406FE38A0A80F1
:104A60006FF05FF30327C1026306074E9387374356
:104A7000930D0C002328A1016FF01FAE9307900344
:104A8000638AFC0463546001938C1D0383278101B6
:104A900093890A00232C2101938D1700238097010D
:104AA000930A0D006FF0DFECE352E0FE930509007E
:104AB0001306100013050400EF10505593050C0069
:104AC00013090500EF109069635AA05693079003ED
:104AD000E39CFCFA832781011307900393890A0062
:104AE000938D17002380E700930A0D00232C2101EA
:104AF000930690036FF09FE503270100E31407BCC2
:104B00006FF05FEBEF10C066930A0500130D050010
:104B1000938919006FF01FC7138504006FF00F9A77
:104B20001309100023242103130B0900930C09001F
:104B300023220404930500006FF0CFC0232E010050
:104B400093072000E30AFAEA2322040493050000F5
:104B500013050400EF104055130BF0FF93071000EE
:104B6000930405002320A40423246103930C000074
:104B7000232EF1006FF00FFB93072000E3D247BD17
:104B8000631E0B4493050C009306000013065000AF
:104B900013050400EF10C05D93050500130C05001C
:104BA00013050900EF10905B232C2101E35EA0E8C0
:104BB00013071003938D14002380E400938B1B00D4
:104BC0006FF01FE913071003938B1B002380E40091
:104BD0006FF01FDA232E01006FF04FB213050900AA
:104BE000EF6000590326010183264101EF50107345
:104BF000B7C7000003A6870B83A6C70BEF5050670B
:104C0000B707C0FC13080500B388B700B7C700009A
:104C100003A6070C83A6470C032501018325410148
:104C20002320010123221101EF5090690328010084
:104C3000832841002328A10013060800938608005A
:104C4000232AB100EF6000476346A02C032801002F
:104C5000832841000325010183254101B707008016
:104C600013060800B3C61701EF60C04A6358050475
:104C7000130C0000930A00006FF01FDD930509007C
:104C800013060C0013050400EF10D02413090500CF
:104C90006FF09F9B6316050093FC1C00E3960CCA03
:104CA000130600036F008000938D060003C7FDFF0D
:104CB0009386FDFFE30AC7FE6FF09FCB0327010435
:104CC000832741042320E1002322F1006FF08FE5C8
:104CD0000325010483254104B30770412328A10063
:104CE000232AB10013092000638607B413F7F700E5
:104CF000B7C60000938606CB131737003307D700DB
:104D0000032607008326470093D747402320F1005E
:104D1000EF50D060832701002328A100232AB1008F
:104D2000638A07B037C70000930D07DA93F61700C0
:104D30000325010193D717408325410163820602B1
:104D400003A60D0083A64D002320F10013091900CE
:104D5000EF50D05C832701002328A100232AB10053
:104D6000938D8D00E39407FC6FF0CFAC1307000325
:104D70002380E400938B1B0003C9FDFF6FF00FF944
:104D800083A54A0013050400EF10003203A60A01B0
:104D9000930905009385CA00130626001316260002
:104DA0001305C500EFC05FA7130610009385090027
:104DB00013050400EF109025130D05006FF01F9BE5
:104DC0009307F3FF37C70000130707CB2326F1042F
:104DD00093973700B387E70003A5070083A5470033
:104DE000130608009386080023206100EF5010533B
:104DF000232CA102232EB1020325010183254101A9
:104E0000938D1400EF60804B13090500EF6040366E
:104E10001306050093860500032501018325410142
:104E200013090903EF50D049032301002380240113
:104E300013071000130E0500938E05006306E308A8
:104E400037C700008327470B0327070B13890D0083
:104E5000232AF102B38764002328E1022328F1000A
:104E6000032601038326410313050E0093850E00DC
:104E7000EF50D04A2322B1002320A100EF6000446C
:104E8000930A0500EF60C02E032E0100832E41001F
:104E9000130605009386050013050E0093850E008A
:104EA000EF501042832701011309190013880A03E8
:104EB000A30F09FF130E0500938E0500E39227FB55
:104EC0008327C104B38DFD0037C900000326890C78
:104ED0008326C90C032581038325C1032320C10137
:104EE0002322D101EF50D038032E0100832E410040
:104EF00013060E0093860E00EF60C021032E010002
:104F0000832E41006350050E03C9FDFF832B8104EE
:104F10006FF00FDE130C0000930A00006FF05FC902
:104F200093079003E388FCBA938C1C006FF01FB6C4
:104F300093890A00930A0D006FF01F9FB3076D411C
:104F40002328F100930700006FF00FE1130B10000E
:104F50006FF01F9D8326810593076003930D0C005E
:104F6000B387D7402328A1016FF00FDFE3080BC6FA
:104F7000832A8102E35450D537C700000326070B6C
:104F80008326470B03250101832541019387FBFFFE
:104F90002324F104EF5090382328A10013051900B1
:104FA000232AB100EF60C01C0326010183264101C2
:104FB000EF50D036B7C7000003A6870B83A6C70BF8
:104FC00023205101EF50D02AB707C0FC1308050079
:104FD000B388B700032301006FF00F8C232C21014D
:104FE0006FF09FA6032681038326C1030325890C46
:104FF0008325C90C2320C1012322D101EF50502C5D
:10500000032E0100832E410013060E0093860E002E
:10501000EF60400A130600036346A0006FF01FCA4A
:10502000938D060003C7FDFF9386FDFFE30AC7FECD
:105030006FF0CFA3832B81046FF08FCBE31805A40F
:1050400093F71C00E38407A46FF05FA893850A0020
:10505000930600001306A00013050400EF10401192
:1050600083278102930A0500138B0700634EF0EC3F
:105070009307200063CE4701032B81026FF0CFEC32
:105080006302D7E81307C003B307F7406FF04FE69A
:10509000032B81026FF0DFAE8396C500130101FE82
:1050A000232C810013970601135707012326310192
:1050B000232E1100232A91002328210193778700B2
:1050C0001384050093090500639A0710B7170000C1
:1050D0009387078003A74500B3E7F6002396F50002
:1050E0006356E01C03288402630A080C93970701A7
:1050F00093D7070183A409001397370123A0090060
:10510000635C071A032604058326440593F74700CA
:105110006382070483274400832504033307F64092
:1051200093D7F7413335E600B386F6401306070000
:10513000B386A640638005028327C4033307F74084
:1051400093D7F741B335E600B386F6401306070060
:10515000B386B6408325C4011307000013850900F8
:10516000E70008009307F0FF6300F50E8356C400C4
:10517000B7F7FFFF9387F77F03270401B3F7F60024
:105180009397070193D707412320E4002316F400E7
:105190002322040013973701634407108325040377
:1051A00023A09900638C0500930704046386F5002F
:1051B00013850900EF00806823280402130500000E
:1051C0008320C101032481018324410103290101BA
:1051D0008329C100130101026780000003A90501B2
:1051E000E30E09FC83A405001377370023A02501F3
:1051F000B3842441930700006314070083A745018B
:105200002324F400634890006FF05FFB3309A9008A
:10521000E35690FA832744028325C4019386040051
:105220001306090013850900E7800700B384A44032
:10523000E34EA0FC8357C4001305F0FF93E7070477
:105240002316F4006FF0DFF7E392A5F203A709003D
:105250009307D001E3E0E7FEB707402093871700EC
:10526000B3D7E70093F71700E38607FC0356C400A3
:10527000B7F7FFFF9387F77F83260401B377F60024
:105280009397070193D707412320D4002316F400F6
:105290002322040093963701E3D206F0E31007F0CF
:1052A0002328A404232AB4046FF05FEF03A7C503E7
:1052B000E34AE0E26FF09FF08325C401130600008B
:1052C000930600001307100013850900E70008008B
:1052D0009307F0FF13060500938605006308F500A9
:1052E0008357C400032884026FF05FE2E39AA5FEAF
:1052F00083A70900E38607FE1307D0016386E70052
:10530000130760016398E70023A0990013050000CC
:105310006FF01FEB8357C4001385050093E7070464
:105320002316F4006FF0DFE9130101FE232C810046
:10533000232E11001304050063060500832785034F
:10534000638A07028397C500639C07008320C1011D
:10535000130500000324810113010102678000008E
:10536000130504008320C1010324810113010102FC
:105370006FF09FD22326B100EF0000378325C100D4
:105380006FF05FFC9305050063080500B717000484
:1053900003A5078D6FF05FF9B717000403A5C78C4D
:1053A000B7550000938585326F00D00213050000C9
:1053B00067800000B78500009385455E6F0090010F
:1053C000130101FEB7570000232E1100232C81008A
:1053D000232A91000324450023282101232631019B
:1053E0002324410123225101232061019387473B5C
:1053F000232EF5021307052F930730002324E52EF3
:105400002322F52E2320052E9307400013090500C3
:105410002316F400130680009305000023200400E7
:105420002322040023240400232404062317040059
:1054300023280400232A0400232C04001305040657
:10544000EF00D038377B000083248900B77A000052
:10545000377A0000B7790000130BCB12938A0A1B2E
:10546000130A8A229389492923206403232254039F
:105470002324440323263403232E8400930790001F
:105480002396F400930710002397F400130680007E
:105490009305000023A0040023A2040023A4040019
:1054A00023A4040623A8040023AA040023AC0400B8
:1054B00013850406EF0090310324C90093072001EF
:1054C00023A0640323A2540323A4440323A6340388
:1054D00023AE94002316F400930720002317F40052
:1054E0002320040023220400232404002324040690
:1054F00023280400232A0400232C04001305040697
:105500001306800093050000EF00502C8320C1019A
:105510002320640323225403232444032326340337
:10552000232E840093071000232CF9020324810109
:1055300083244101032901018329C100032A810039
:10554000832A4100032B0100130101026780000040
:105550001305000067800000130101FF9387F5FF2A
:105560002324810013944700939777003384874066
:1055700023202101138905009305040823229100AB
:1055800023261100EFB09FB59304050063000502C8
:105590001305050123A0040023A2240123A4A400D1
:1055A0001306040793050000EF0050228320C1007A
:1055B0001385040003248100832441000329010092
:1055C0001301010167800000130101FEB7170004F9
:1055D0002328210103A9C78C23263101232E110082
:1055E00083278903232C8100232A91009309050036
:1055F0006396070013050900EFF09FDC1309092EDD
:105600009304F0FF83274900032489009387F7FF61
:1056100063DA07006F0040089387F7FF130404075D
:10562000638C97060317C400E31807FE9307F0FF87
:105630002317F400930710002316F4002324040614
:105640002320040023240400232204002328040030
:10565000232A0400232C0400130680009305000075
:1056600013050406EF009016130504002328040216
:10567000232A040223220404232404048320C101D6
:105680000324810183244101032901018329C100ED
:105690001301010267800000832709006386070069
:1056A000138907006FF01FF693054000138509006A
:1056B000EFF09FEA2320A900630605001309050007
:1056C0006FF05FF49307C00023A0F90013050000FA
:1056D0006FF0DFFAB717000403A5C78CB785000089
:1056E0009385455E6F00004F832785036384070021
:1056F000678000006FF0DFCC6780000067800000EB
:105700006780000067800000B717000403A5078DBD
:10571000B7550000938505556F00C040B7170004CA
:1057200003A5078DB75500009385C53A6F00803FEC
:10573000130101FE2328210137090004232C8100D5
:10574000232A91001384050023263101232E110002
:105750009309050013090900EFC00F9E0327890074
:10576000B71700009385F7FE8324470093F4C4FF26
:10577000338484403304B4001354C4001304F4FF8E
:105780001314C400634CF40013050000EF40C00084
:1057900083278900B38797006306F5021385090004
:1057A000EFC0CF99130500008320C10103248101BC
:1057B00083244101032901018329C100130101024E
:1057C0006780000033058040EF30107D9307F0FFC5
:1057D000630AF502373700048327471083268900C0
:1057E000B384844093E41400338487401385090014
:1057F00023A2960023228710EFC04F9413051000B8
:105800006FF09FFA13050000EF301079032789002D
:105810009306F000B307E540E3D2F6F8B7160004AC
:1058200083A6468C93E717002322F7003305D54063
:10583000B736000423A2A6106FF05FF6638E050E44
:10584000130101FF2324810023229100138405000A
:105850009304050023261100EFC00F8E0325C4FF1B
:10586000930684FFB70500049377E5FF3386F600BF
:10587000938505000327460003A885001377C7FF1B
:10588000630606152322E60013751500631605024C
:10589000032584FFB386A64003A88600B387A7002C
:1058A0003705000413058500630CA81603A5C60080
:1058B0002326A800232405013305E600032545001F
:1058C00013751500630A050C13E7170023A2E60001
:1058D0003387F6002320F7001307F01F6360F706F5
:1058E00093D73700138717001317370003A6450017
:1058F0003387E5000328070093D7274013051000DE
:10590000B317F500B3E7C700130687FF23A6C60049
:1059100023A4060123A2F5002320D7002326D800C4
:10592000138504008320C1000324810083244100E7
:10593000130101016FC08F806780000013D79700AB
:1059400013064000636AE61013D767001305970338
:105950001306870313151500131525003385A500BD
:1059600003270500130585FF6304E51003264700A0
:105970001376C6FF63F6C70003278700E318E5FE2A
:105980000325C70023A6A60023A4E6002324D500F0
:105990002326D7006FF0DFF803258600B387E700E2
:1059A00037070004130787006304E50E0328C600C9
:1059B00013E617003387F600232605012324A800E9
:1059C00023A2C6002320F7006FF01FF11375150006
:1059D000B387E70063100502032584FFB386A64062
:1059E00003A7C60003A68600B387A7002326E60008
:1059F0002324C7003717000413E617000327878CFA
:105A000023A2C60023A4D500E3ECE7F0B7170004F7
:105A100083A5879113850400EFF09FD16FF05FF0AD
:105A2000B305E60083A5450093F515006392050EC6
:105A3000832586000326C600B307F70013E7170087
:105A400023A6C5002324B60023A2E600B386F600F1
:105A500023A0F6006FF0DFEC13064001636CE60450
:105A60001305C7051306B705131515006FF0DFEE14
:105A700083A7450013572640130610003317E6008E
:105A8000B367F70023A2F500130705006FF09FEF3F
:105A900023AAD50023A8D50013E7170023A6A60044
:105AA00023A4A60023A2E600B386F60023A0F600F6
:105AB0006FF01FE713064005636CE60013D7C700BD
:105AC0001305F7061306E706131515006FF0DFE858
:105AD00013064015636CE60013D7F700130587071C
:105AE00013067707131515006FF01FE713084055CD
:105AF0001305E00F1306E007E360E8E613D727017C
:105B00001305D7071306C707131515006FF0DFE459
:105B100013E7170023A2E600B386F60023A0F600E1
:105B20006FF01FE0130101FE23225101232E11000B
:105B3000232C8100232A91002328210123263101CF
:105B40002324410123206101930A052E63800A0862
:105B5000138B0500130A0000930910001309F0FFCE
:105B600083A44A0003A48A009384F4FF63C604025A
:105B70008357C4009384F4FF63FCF9008317E400A7
:105B80001305040063862701E7000B00336AAA00AF
:105B900013040407E39E24FD83AA0A00E3920AFC8F
:105BA0008320C10113050A000324810183244101DC
:105BB000032901018329C100032A8100832A4100AE
:105BC000032B01001301010267800000130A00008B
:105BD0006FF01FFD130101FD23286101232611022F
:105BE000232481022322910223202103232E310129
:105BF000232C4101232A510123267101130B052E69
:105C000063060B08938B0500930A0500130A000036
:105C1000930910001309F0FF83244B0003248B0029
:105C20009384F4FF63C804028357C4009384F4FF91
:105C300063FEF9008317E4009305040013850A004E
:105C400063862701E7800B00336AAA001304040768
:105C5000E39C24FD032B0B00E3100BFC8320C1020B
:105C600013050A000324810283244102032901024F
:105C70008329C101032A8101832A4101032B0101E8
:105C8000832BC1001301010367800000130A000089
:105C90006FF0DFFC130101FF232291002326110086
:105CA00023248100B7C4000063000602B7C50000CA
:105CB000938505C91305060013040600EFB0DFD174
:105CC000B7C40000631E05001385C4C88320C1004B
:105CD0000324810083244100130101016780000037
:105CE0009385C4C813050400EFB01FCFE30E05FC75
:105CF000B7B500009385C57613050400EFB0DFCD7E
:105D0000E30405FC130500006FF05FFC3715000489
:105D10001305858467800000B717000403A5478D2D
:105D20006780000037150004130585866780000032
:105D300013050000678000003715000413058588EF
:105D400067800000B717000413860500930505005F
:105D500003A5078D6FF01FF4371500041305858820
:105D6000678000008397C500130101F72322910883
:105D70009394070193D40401232611082324810856
:105D800023202109232E310713F724006310070E67
:105D9000130905000395E50013840500634C050411
:105DA00093050100EFB04F83634005040327010111
:105DB000B7F70000B7E9FFFFB377F700B389370102
:105DC0003787000093B91900638EE70A0357C400B0
:105DD000B717000093870780B367F7002316F40016
:105DE000930400406F0040038317C400939407019D
:105DF00093D40401939484013717000093D4F441A1
:105E00001307078093F404C4B3E7E70093840440C6
:105E10002316F4009309000093850400130509007C
:105E2000EFB0CFAB6302050A8357C40037570000B9
:105E30001307473B232EE90293E707082316F400D4
:105E40002320A4002328A400232A94006390090699
:105E50008320C10803248108832441080329010801
:105E60008329C10713010109678000009387350466
:105E700023A0F50023A8F5009307100023AAF5003E
:105E80006FF01FFD03278402B777000093878722F6
:105E9000E31EF7F28357C4009304004023269404C2
:105EA000B3E797002316F4006FF01FF70315E40023
:105EB000EFA01FF3E30E05F88357C40093E7170024
:105EC0002316F4006FF0DFF88317C40013F70720E0
:105ED000E31007F893E72700130734042316F400B0
:105EE000930710002320E4002328E400232AF40071
:105EF0006FF01FF69377350093F6F50F6382070C6A
:105F00009307F6FF6300060603470500631CD700EE
:105F10006F00800B63880704034705009387F7FF32
:105F20006304D7041305150013773500E31407FE47
:105F300013063000636CF602638607020347050010
:105F40006304D70213071500B307F5006F000001C3
:105F5000130717000346F7FF6308D6001305070071
:105F6000E398E7FE130500006780000093F5F50F46
:105F7000139785003367B70013130701B708FFFEB7
:105F800037888080336367009388F8EF1308080828
:105F900093050600032705003347E3003306170186
:105FA0001347F7FF3377E60033770701E31807F865
:105FB0009387C7FF13054500E3EEF5FC6FF0DFF7AD
:105FC000930706006FF0DFF6678000001308F0000B
:105FD00013070500637EC8029377F7006390070AF2
:105FE00063920508937606FF1376F600B386E60003
:105FF0002320B7002322B7002324B7002326B700AD
:1060000013070701E366D7FE6314060067800000EC
:10601000B306C8409396260097020000B386560048
:106020006780C6002307B700A306B7002306B700A2
:10603000A305B7002305B700A304B7002304B700E6
:10604000A303B7002303B700A302B7002302B700DE
:10605000A301B7002301B700A300B7002300B700D6
:106060006780000093F5F50F93968500B3E5D500A2
:1060700093960501B3E5D5006FF0DFF69396270000
:1060800097020000B386560093820000E78006FA6C
:1060900093800200938707FF3307F7403306F6002B
:1060A000E378C8F66FF0DFF38327C504130101FF1F
:1060B0002324810023229100232611002320210183
:1060C0001304050093840500638E070213952400D2
:1060D000B387A70003A5070063060504032705008F
:1060E00023A0E70023280500232605008320C10004
:1060F00003248100832441000329010013010101CD
:10610000678000001306100293054000EF20404214
:106110002326A40493070500E31A05FA13050000DB
:106120006FF0DFFC930510003399950013065900BA
:106130001316260013050400EF20803FE30005FE40
:1061400023229500232425016FF0DFF963800502E7
:1061500083A745000327C50493972700B307F700DB
:1061600003A7070023A0E50023A0B7006780000075
:10617000130101FD3708010023248102232291022B
:10618000232021039384050003A4050113090500BE
:1061900023261102232E31019385450113050000AA
:1061A0001308F8FF83A70500938545001305150024
:1061B00033F707013307C70293D70701B387C70235
:1061C0003307D7009356070133770701B386D7000B
:1061D000939706013387E70023AEE5FE93D60601C9
:1061E000E34285FC6382060283A78400635EF402B7
:1061F0009307440093972700B387F40023A2D700A6
:106200001304140023A884008320C1021385040012
:106210000324810283244102032901028329C1014D
:10622000130101036780000083A5440013050900E2
:106230002326D10093851500EFF01FE703A6040184
:10624000930905009385C400130626001305C500B5
:1062500013162600EFB04FDC03A744008327C904C0
:106260008326C10013172700B387E70003A70700A1
:1062700023A0E40023A09700938409006FF05FF748
:10628000130101FE938786002326310193890600BE
:1062900093069000B3C6D702232C8100232A9100D5
:1062A0002328210123244101232E110023225101FF
:1062B000930710001384050013090500130A060054
:1062C000930407009305000063D8D7009397170045
:1062D00093851500E3CCD7FE13050900EFF0DFDC52
:1062E000930710002328F500232A950093079000B8
:1062F00063D44709B30AF40093840A0033044401C9
:106300009384140083C6F4FF930505001306A000D0
:10631000938606FD13050900EFF09FE5E39284FEE6
:1063200033844A01130484FF63563A03B38449411A
:10633000B3049400130414008346F4FF930505008E
:106340001306A000938606FD13050900EFF05FE237
:10635000E39284FE8320C10103248101832441014F
:10636000032901018329C100032A8100832A4100F6
:1063700013010102678000001304A400138A0700C0
:106380006FF09FFAB706FFFFB376D50093070500BD
:106390001307000063960600931705011307000119
:1063A000B70600FFB3F6D700639606001307870011
:1063B00093978700B70600F0B3F6D7006396060000
:1063C0001307470093974700B70600C0B3F6D700FE
:1063D00063960600130727009397270063CE0700F4
:1063E000939617001305000263C40600678000003F
:1063F0001305170067800000130507006780000081
:10640000832705009306050013F77700630407024E
:1064100013F71700130500006312070813F727008E
:106420006310070893D7270023A0F6001305200068
:10643000678000001396070113560601130700003A
:106440006316060093D707011307000113F6F70F31
:10645000631606001307870093D7870013F6F7002B
:10646000631606001307470093D7470013F637005B
:10647000631606001307270093D7270013F61700AB
:10648000631A060093D717001305000263880700FC
:106490001307170023A0F60013050700678000000C
:1064A00093D7170023A0F6001305100067800000A3
:1064B000130101FF232481001384050093051000BC
:1064C00023261100EFF05FBE8320C10013071000E8
:1064D000232A85002328E5000324810013010101FC
:1064E00067800000130101FE2326310123244101AE
:1064F00083A90501032A0601232A910023282101EB
:10650000232E1100232C810013890500930406001B
:1065100063DC4901138709001309060093090A0087
:1065200093840500130A0700832789008325490007
:1065300033844901B3A78700B385F500EFF0DFB6D8
:106540001303450193182400B308130193070300B4
:106550006378130123A0070093874700E3EC17FF3C
:1065600013864401131E2A00930E49011398290033
:10657000B7050100330EC60133880E019385F5FF80
:106580006374C61183230600B3F4B300638A040660
:1065900093020300938F0E00930700006F008000AA
:1065A0009382030083A60F0003AF0200938342008F
:1065B00033F7B6003307970293D606013379BF004D
:1065C000135F0F01938F4F00B386960233072701A5
:1065D000B307F70013D70701B3F7B700B386E60197
:1065E0003387E60093160701B3E7F60023AEF3FE08
:1065F00093570701E3E60FFB23A2F2008323060073
:1066000093D30301638C03068327030093020300E3
:10661000938F0E00138F0700930600006F00800019
:106620009382040003A70F00135F0F01B3F7B700B5
:106630003377B7003307770293844200938F4F007C
:106640003307E701B306D70013970601B367F700D6
:1066500023AEF4FE03D7EFFF03AF420093D606014B
:1066600033077702B377BF00B307F700B387D700CC
:1066700093D60701E3E60FFB23A2F20013064600C0
:1066800013034300E360C6F16354800283A7C8FF8D
:106690009388C8FF638807006F00800183A7080004
:1066A000639807001304F4FF9388C8FFE31804FEFF
:1066B0008320C10123288500832441010324810113
:1066C000032901018329C100032A8100130101026A
:1066D00067800000130101FE232C81002328210183
:1066E00023263101232E1100232A910093773600AF
:1066F000130406009309050013890500639E070A29
:10670000135424406306040683A48904638A040C9A
:10671000937714006390070213541440630A04042F
:1067200003A504006306050693040500937714008F
:10673000E38407FE1386040093050900138509000E
:10674000EFF05FDA630609068327490003A7C9044F
:106750001354144093972700B307F70003A70700CB
:106760002320E90023A0270113090500E31A04FAF6
:106770008320C10113050900032481018324410101
:10678000032901018329C100130101026780000070
:10679000138604009385040013850900EFF09FD44D
:1067A00023A0A40023200500930405006FF01FF828
:1067B000130905006FF05FF69387F7FF37C70000F6
:1067C000130707CA93972700B307F70003A607002C
:1067D00093060000EFF0DF99130905006FF05FF2F8
:1067E0009305100013850900EFF01F8C9307102705
:1067F000232AF500930710002328F50023A4A904F9
:1068000093040500232005006FF09FF0130101FEA3
:106810002324410103AA0501232C810083A78500BD
:1068200013545640330A4401232A9100232821019E
:106830002326310123225101232E110093041A0033
:106840009389050013090600930A050083A54500F6
:1068500063D897009397170093851500E3CC97FEB4
:1068600013850A00EFF05F84930745016354800E9F
:10687000131724003387E7009387470023AE07FEF2
:10688000E39CE7FE83A80901938749011376F90188
:1068900093982800B38817016308060813030002C1
:1068A0003303C340930600006F0080001307080005
:1068B00083A507001308470093874700B395C500D9
:1068C000B3E6D500232ED8FE83A6C7FFB3D6660055
:1068D000E3EE17FD2322D7006384060093042A0009
:1068E00083A7490003A7CA049384F4FF9397270062
:1068F000B307F70003A707008320C10123289500F1
:1069000023A0E90023A0370103248101832441014E
:10691000032901018329C100032A8100832A410040
:1069200013010102678000009387470083A6C7FF19
:1069300013074700232ED7FEE3F417FB9387470086
:1069400083A6C7FF13074700232ED7FEE3EE17FDEC
:106950006FF01FF9138707006FF0DFF2832705013F
:1069600003A70501B387E7406392070413172700C5
:106970001305450193854501B307E500B385E5009F
:106980006F0080006378F5029387C7FF9385C5FF8A
:1069900003A7070083A60500E306D7FEB337D70099
:1069A000B307F04013E51700678000001385070068
:1069B00067800000130500006780000083A70501C1
:1069C00003270601130101FE23282101232631019B
:1069D000232E1100232C8100232A9100232441011E
:1069E000B387E740138905009309060063980704FD
:1069F000131727001388450113044601B307E80065
:106A00003307E4006F0080006372F8169387C7FFB6
:106A10001307C7FF83A5070083260700E386D5FE7B
:106A200063F2D5169307090093040800138909003F
:106A3000130A1000938907006F00400163CC07140C
:106A40009304460113844501130A0000832549007D
:106A5000EFF08FE5032E090103AF090137030100B1
:106A6000931E2E00131F2F0023264501B30ED401C1
:106A7000338FE40113084501930600001303F3FF6D
:106A80008325040083A804001308480033F665003A
:106A9000B306D60033F768003387E64093D5050187
:106AA00093D60801B385D54093560741B386D500E8
:106AB0009397060133776700B3E7E70093844400B8
:106AC000232EF8FE1304440093D60641E3EAE4FBC8
:106AD0006370D407370F0100130308009308040004
:106AE000130FFFFF83A5080013034300938848009A
:106AF00033F6E501B306D60013D7064193D5050159
:106B00003387E500B3F6E60193170701B3E7D70033
:106B1000232EF3FE93560741E3E6D8FD1344F4FF1A
:106B2000B30ED40193FECEFF938E4E003308D801EE
:106B30001308C8FF639A07001308C8FF83270800DB
:106B4000130EFEFFE38A07FE2328C5018320C1013F
:106B50000324810183244101032901018329C10008
:106B6000032A8100130101026780000093050000E1
:106B7000EFF08FD3930710002328F500232A050098
:106B80006FF0DFFC93040400130A000013040800F4
:106B90006FF0DFEB93070900930449011384490167
:106BA00013890900130A1000938907006FF01FEA88
:106BB000B707F07FB3F5F500B707C0FCB385F50064
:106BC000635CB000130700009387050013050700FE
:106BD0009385070067800000B305B04093D5454119
:106BE0009307300163D8B7029385C5FE1306E00111
:106BF00093070000930610006346B60093C5F5FFA7
:106C0000B396B600138706001305070093850700A7
:106C100067800000B706080013070000B3D7B6402E
:106C2000130507009385070067800000130101FE2C
:106C3000232C810003240501232A9100930445019C
:106C40001314240033848400232821010329C4FF62
:106C5000232631012324410113050900138A05006D
:106C6000232E1100EFF00FF2930700023387A740A5
:106C70002320EA001307A0009309C4FF634EA70472
:106C80009307B000B387A7403707F03FB355F9002B
:106C9000B3E6E5001307000063F63401032784FF21
:106CA0003357F700930755013315F9003366E500B4
:106CB0008320C1011305060093850600032481018A
:106CC00083244101032901018329C100032A810092
:106CD000130101026780000063F43405130755FFB8
:106CE000032584FF63020704B706F03FB387E7403C
:106CF0003319E9003369D9003358F500930584FF4F
:106D0000B366090163F6B404832544FF3315E50037
:106D1000B3D7F50033E5A700130605006FF05FF960
:106D2000130555FF631A0500B707F03FB366F90076
:106D3000130605006FF0DFF73315A900B707F03F22
:106D4000B366F50013050000130605006FF05FF64B
:106D50003315E500130605006FF09FF5130101FDE3
:106D6000930510002324810223229102138406003C
:106D700023202103232E3101232C4101232A5101F9
:106D80009389070023261102130A0700930A0600BD
:106D9000EFF08FB193141400B70710009386F7FF3C
:106DA00093D45401130905003374D40063840400A0
:106DB0003364F4002326810063840A0813058100EC
:106DC00023245101EFF0CFE3930705000327C1000F
:106DD0006316050A83268100232AD900133417007D
:106DE0009306200033848640232CE9002328890061
:106DF00063980406131724003307E90003250701ED
:106E00009387E7BC2320FA00EFF0CFD71314540088
:106E10003305A44023A0A9008320C1021305090063
:106E20000324810283244102032901028329C10131
:106E3000032A8101832A41011301010367800000B5
:106E40001305C100EFF0CFDB8327C100130410004E
:106E500023288900232AF90093070502E38C04F80C
:106E60009384D4BCB384F4001307500323209A0006
:106E7000B307F74023A0F9006FF01FFA9306000252
:106E800003268100B386A640B316D700B3E6C6003A
:106E90003357A700232AD9002326E1006FF01FF4FF
:106EA000130101FD232021031389050093058100AF
:106EB000232611022324810223229102232E310151
:106EC00093090500EFF09FD6130405009384050095
:106ED000130509009305C100EFF05FD503270901F1
:106EE00083A70901938605008325C100B387E74086
:106EF000139757008327810013060500B387B74017
:106F0000B307F700635CF00293974701B3859700DE
:106F1000938405001305040093850400EF30506648
:106F20008320C10203248102832441020329010238
:106F30008329C10113010103678000009397470172
:106F4000B388F640938608006FF0DFFC130101FF61
:106F50002324810023261100232221012320310133
:106F6000930770011304050063D4A704B7C700009A
:106F700003A5870A83A5C70AB7C7000003A9070BA3
:106F800083A9470B1304F4FF130609009386090035
:106F9000EF30D038E31804FE8320C10003248100C1
:106FA00003294100832901001301010167800000CA
:106FB000B7C7000013143500938707CA33848700CE
:106FC00003250401832544016FF01FFD03270601FB
:106FD0009385F5FF13D85540130818009307460111
:106FE0001317270013182800B386E700330805019C
:106FF00063F8D702130705009387470083A5C7FFEF
:1070000013074700232EB7FEE3E8D7FEB387C64039
:107010009387B7FE93F7C7FF938747003305F500C3
:107020006378050113054500232E05FEE36C05FF7B
:10703000678000008327050113D75540930645015B
:1070400063DAE70293972700B387F60063F2F60648
:1070500003A5C7FF9387C7FF631A050063F8F6040B
:107060009387C7FF03A70700E30A07FE1305100075
:10707000678000006356F7029317270093F5F50128
:10708000B387F600E38405FC03A607001305100090
:107090003357B600B315B700E30AB6FA67800000AD
:1070A00093172700B387F6006FF05FFA6780000040
:1070B000130500006780000033E7A5009307050073
:1070C0001305200063140700678000003707008065
:1070D0006388E5043707F0FF3387E500B706E07FF4
:1070E00013054000E362D7FE3707F07F3387E500E2
:1070F000E36CD7FC370700801347F7FFB3F5E500D3
:107100003707100013053000E3E0E5FC3707F07F98
:1071100013050000E39AE5FA13B517006780000035
:1071200013052000E39807FC678000000395E50045
:10713000130101FF23248100138405009305060039
:107140001386060023261100EF90DFCA634C050268
:1071500083270405832644051356F541B385A7000C
:107160008320C10033B7F500B387C600B307F7002B
:107170002328B404232AF404032481001301010109
:10718000678000000357C400B7F7FFFF8320C100EA
:107190009387F7FFB377F7002316F40003248100E9
:1071A00013010101678000001305000067800000E3
:1071B0000397C500130101FF2324810023229100BE
:1071C0002320210123261100937707101384050043
:1071D0009304060013890600638E07000395E500FB
:1071E000130720001306000093060000EF901FC055
:1071F0000317C400B7F7FFFF9387F7FFB377F700D4
:107200000315E4002316F400130609009385040017
:107210008320C1000324810083244100032901004D
:10722000130101016F901FC20395E500130101FFD7
:10723000232481002326110013840500EF901FBB37
:107240009307F0FF0357C4006304F5028320C100D5
:10725000B7170000B367F7002328A4042316F4002F
:10726000232AB40403248100130101016780000074
:10727000E39EA5FCB7F7FFFF8320C1009387F7FFCC
:10728000B377F7002316F4000324810013010101F2
:10729000678000000395E5006F901FB59377350078
:1072A00093050500639A0704B7867F7F9386F6F7F8
:1072B0001306F0FF130545008327C5FF33F7D700FA
:1072C0003307D700B3E7D700B367F700E384C7FEFF
:1072D0000347C5FFB307B5408346D5FF0346E5FF27
:1072E000630E0702638806021385F7FF630C06022C
:1072F00067800000E30A07FA8347050013051500BD
:1073000013773500E39807FE3305B5401305F5FF05
:10731000678000001385D7FF678000001385C7FFD3
:10732000678000001385E7FF6780000083A785065C
:10733000130101FD23286101232611022324810268
:107340002322910223202103232E3101232C4101EA
:10735000232A51012326710113972701130B0600DD
:107360006356070A83278600138A0500930A0500DF
:10737000832B06009309F0FF6386070803A94B00DF
:1073800083A40B001304000013592900631809009B
:107390006F00000693844400630A890483A50400F7
:1073A00013060A0013850A00EF10C04913041400E5
:1073B000E31235FF138509008320C10223240B004B
:1073C00023220B00032481028324410203290102AA
:1073D0008329C101032A8101832A4101032B010171
:1073E000832BC100130101036780000083278B00FA
:1073F00013192900B38727412324FB00938B8B00AB
:10740000E39E07F6130500006FF01FFBEF10004E20
:107410006FF09FFA03278600630407006FF01FF1E7
:10742000232206001305000067800000130101F10C
:107430002322910E232A510D2320A10D2326110E64
:107440002324810E2320210F232E310D232C410DC7
:107450002328610D2326710D2324810D2322910DF4
:10746000232EB10B2324D100930A0500138D0500B0
:10747000930406006306050083278503638A071EBD
:107480008316CD009397060193D707011397270121
:107490006346070203268D06B727000037E7FFFF84
:1074A000B3E7F6001307F7FF3377E6002316FD0076
:1074B000939707012324ED0693D7070113F787005D
:1074C000630C071203270D016308071293F7A70146
:1074D0001307A0006382E71437CC000093078CDC0D
:1074E000930C01072326F1009307F10637CE000025
:1074F000B7C80000B387FC40232E91032322010468
:1075000023200104232E010023220100130BCEF2BD
:10751000138CC8F32320F10213880C001384040099
:1075200083470400E384074C130750021309040047
:107530006396E7006F0040056388E70013091900B0
:1075400083470900E39A07FEB3048940638E04026F
:107550000327410483270104232088003387E400A4
:1075600093871700232298002322E1042320F104AB
:10757000930670001308880063C2F6068327410053
:10758000B38797002322F10083470900E3820706AF
:1075900093041900A30B01021305000093080000D7
:1075A0009306F0FF13090000930B000013068005FB
:1075B00093059000930EA00203C7040013841400E7
:1075C000930707FE636CF6680323C10093972700B7
:1075D000B387670083A7070067800700E314072EBF
:1075E0002320010413880C006FF05FF993EB0B016B
:1075F000930404006FF05FFC93050D0013850A00EF
:10760000EFC0CFA9E316054A8357CD001307A000AA
:1076100093F7A701E392E7EC8317ED00E3CE07EAC7
:10762000832681001386040093050D0013850A004C
:10763000EF0010648320C10E0324810E8324410EC9
:107640000329010E8329C10D032A810D832A410DCF
:10765000032B010D832BC10C032C810C832C410CBB
:10766000032D010C832DC10B1301010F6780000056
:10767000EFE08F876FF0DFE08327810003A9070029
:10768000938747002324F100E35409F6330920418E
:1076900093EB4B00930404006FF01FF29307000379
:1076A000230CF10293078007A30CF10283278100CA
:1076B000A30B010213E62B001387470083A70700E3
:1076C000E3C6062C13FEFBF72324E100936B2E0088
:1076D000E390072EB7CD00009387CDC5232EF10090
:1076E00013060000E39E061E93060000130A000026
:1076F000938D0C009389060063D4460193090A0018
:107700003336C000B389C90093FF2B0063840F0098
:107710009389290093F44B08639E045A3307394137
:10772000635AE05A9308000183274104E3DAE83EF4
:107730002326810203250104232C6101930270009A
:107740002322D1022324F103130407006F008001D8
:10775000130625001308880013850600130404FF90
:1077600063DC8802938707019306150023206801D4
:10777000232218012322F1042320D104E3DAD2FCCE
:10778000639E0750130404FF130500001306100046
:1077900013880C00E3C888FC130704008326410209
:1077A000832F81020324C10283258101B307F700DF
:1077B0002322E8002320B8002322F1042320C1045F
:1077C00013077000634EC77A0347710313088800DC
:1077D00093051600631A075063840F54130781033F
:1077E000938727002320E800130720002322E800C6
:1077F0002322F1042320B104130770006358B77CDF
:10780000E394070E13070008930510001306000009
:1078100013880C00639AE450B304394163569050C6
:10782000130F0001E35C9F3613070400232C810132
:1078300013840400930F70002322D10293040700E5
:107840006F00800113052600130888001306070047
:10785000130404FF635C8F0293870701130716006C
:10786000232088012322E8012322F1042320E104BC
:10787000E3DAEFFC639A076C130404FF13051000AE
:107880001306000013880C00E3488FFC8326410296
:1078900013870400930404001304070003278101E5
:1078A000B3879700232298002320E8002322F104C5
:1078B0002320A10413077000E34CA708B3844641BA
:1078C00013088800930515001306050063429046CF
:1078D000B307FA002320B801232248012322F10430
:1078E0002320B10413077000635AB75463960776D8
:1078F0002320010413FE4B0063060E00330A3941B6
:10790000E34C401B6354390113890900832741006C
:10791000B38727012322F1002320010413880C00E0
:107920006FF01FC0130510009308B0029304040009
:107930006FF09FC893EB0B08930404006FF0DFC750
:1079400013090000930707FD130414000347F4FF15
:10795000131319001319390033092301338927013F
:10796000930707FDE3F2F5FE6FF09FC5E310052ACC
:1079700093EB0B0193F70B016388077203278100D8
:1079800083270700130747002324E100E3C8070803
:107990000346710363C2066A93FBFBF7638E07100D
:1079A00013079000938D0C009305A000637AF710E5
:1079B00033F7B702938DFDFFB3D7B7021307070361
:1079C0002380ED00E39607FE338ABC416FF09FD21F
:1079D000E316052493EB0B0193F70B01638E076805
:1079E00083278100A30B01021387470083A70700A9
:1079F00063C2066A2324E10093FBFBF76392076AE4
:107A00001306000093070000E3820622938D0C000A
:107A100013F77700938DFDFF130707032380ED0015
:107A200093D73700E39607FE93F71B00E38E07F822
:107A300093070003E30AF7F81387FDFFA38FFDFE0A
:107A4000338AEC40930D07006FF0DFCAE31C051C7E
:107A500093F70B016396072213FE0B0463020E22B9
:107A60000327810083270700130747002324E10031
:107A7000035741002390E7006FF09FAAE314051815
:107A800093EB0B0193F70B01639A075893F70B04E1
:107A9000A30B0102638A07768327810013874700BF
:107AA00083D7070063C606582324E10093FBFBF746
:107AB00013060000E39607EEE38806C29307000072
:107AC00093870703A307F106032A0102930DF1062A
:107AD0006FF05FC2E39E08B0130510009308000228
:107AE000930404006FF05FAD93EB1B00930404005C
:107AF0006FF09FAC83278100A30B010283AD0700C9
:107B000093844700E3860D042328010163C2067CA9
:107B1000138606009305000013850D002324D10071
:107B2000EFE04FBD8326810003280101E30E050627
:107B3000330AB541034671032324910093060000E4
:107B40006FF05FBBE30005F4A30B11036FF09FF32D
:107B50000327810093091000A30B0102832707006C
:107B6000138A0900930D81042304F104930747004D
:107B70002324F100930600006FF01FB9E30C05DE2B
:107B8000A30B11036FF01FDFE31A0506B7CD00004A
:107B900093878DC4232EF10093F70B0163800706B2
:107BA0000326810083270600130646002324C10014
:107BB00013F61B006304064263960760A30B0102E1
:107BC00063C2065E93FBFBF76FF09FB1E30605E02F
:107BD000A30B11036FF05FE093EB0B04930404001D
:107BE0006FF09F9DE3180500B7CD00009387CDC5CA
:107BF000232EF10093F70B01E39407FA93F70B049C
:107C000003268100638A0764835706001306460033
:107C10002324C1006FF0DFF90347040013041400AC
:107C2000630AD77B930707FD93060000E3EAF59804
:107C3000130414000347F4FF1393160093963600C1
:107C4000B306D300B386F600930707FDE3F2F5FE13
:107C5000E3D806969306F0FF6FF09F96631C057AB3
:107C600063080718930910002304E104A30B010221
:107C7000138A0900930D8104930600006FF0DFA8BA
:107C80000327810083270700130747002324E1000F
:107C90000327410023A0E7006FF09F881306C1036C
:107CA00093050D0013850A00232A51002328110192
:107CB000EFF0CFE7631A051403250104832741047D
:107CC00013880C001306150083224101832801014B
:107CD0006FF0DFA8032601048327410493051600F3
:107CE00003477103E30A07AE13071000130671037D
:107CF000B387E7002320C8002322E8002322F104F1
:107D00002320B10413067000635EB6286396074013
:107D100063920F2A130600009305070013880C00D6
:107D200013070008E38AE4AEB3844641E35290BAF5
:107D300093080001232C810163DA9804130F70006B
:107D40006F008001930526001308880013060700C2
:107D5000938404FF63DC98029387070113071600DE
:107D600023208801232218012322F1042320E10487
:107D7000E35AEFFC63920704938404FF9305100019
:107D80001306000013880C00E3C898FC0327810148
:107D9000B3879700232298002320E8002322F104D0
:107DA0002320B10413077000634AB7061308880044
:107DB000938515006FF0DFB11306C10393050D0025
:107DC00013850A00232AE10123281101EFF00FD6C1
:107DD000631C0502032601048327410413880C0059
:107DE00093051600032F4101832801016FF05FF610
:107DF00083274104638A07001306C10393050D001E
:107E000013850A00EFF08FD28357CD0093F7070454
:107E10006390074A032541006FF0DF8163940734C4
:107E20001307100093070A002328B107232A4107EC
:107E3000232241052320E10413880C001308880045
:107E400013FE4B0063060E0A330A39416352400B9E
:107E50009308000163DC485383260104232C61014D
:107E6000938B0800930470006F0080011386260036
:107E70001308880093060700130A0AFF63DC4B030C
:107E800093870701138716002320680123227801B6
:107E90002322F1042320E104E3DAE4FC63920708DF
:107EA000130A0AFF130610009306000013880C0043
:107EB000E3C84BFD03278101B38747012322480113
:107EC0002320E8002322F1042320C10413077000BB
:107ED0006350C702E38807A21306C10393050D0090
:107EE00013850A00EFF08FC4E31005F283274104E5
:107EF000635439011389090003274100330727011F
:107F00002322E100E38A07A01306C10393050D00B5
:107F100013850A00EFF08FC1E30005A06FF0DFEEDC
:107F20001306C10393050D0013850A00EFF00FC07F
:107F3000E31C05EC832601048327410413880C000D
:107F4000138616006FF05FF31306C10393050D004F
:107F500013850A00232AF1012328E101EFF00FBD68
:107F6000E31405EA032601048327410413880C0067
:107F700013051600832F4101032F01016FF05F8D60
:107F8000639C072E034771036308072A93071000B9
:107F900013077103938507002328E106232AF106BE
:107FA00013880C00138605001308880093851500BC
:107FB0006FF09F8293072000130681032328C106D8
:107FC000232AF1069305070013880C001386050089
:107FD00013088800938515006FF09FD4A30B01024E
:107FE00063C0061C93FBFBF7638C07EE13060000CF
:107FF0008325C101938D0C0013F7F7003387E5004B
:1080000003470700938DFDFF93D747002380ED00C2
:10801000E39407FE338ABC416FF0CFED83278100E4
:10802000A30B01021387470083A70700E3DE06A620
:108030002324E10013060000E39407969307100041
:1080400013071000E38CE7A613072000638AE708F4
:10805000930700006FF09F9B1306C10393050D006B
:1080600013850A00EFF08FACE31005DA8327410493
:1080700013880C006FF0DFDC93F70B04A30B0102F5
:10808000638A0716832781001387470083D7070079
:10809000E3D206962324E10013060000E38207FAE8
:1080A000130600006FF09F9693F70B0403278100DF
:1080B000638C071A83170700130747002324E10086
:1080C0006FF0DF8C1306C10393050D0013850A00C2
:1080D000EFF0CFA5E31A05D213880C006FF00FCA9A
:1080E000930700006FF0DFF01306C10393050D0046
:1080F00013850A002328D100EFF04FA3E31605D023
:10810000032601048327410413880C0093051600FD
:10811000832601016FF0DFC01306C10393050D0034
:1081200013850A00232AF1012328D100EFF00FA0C4
:10813000E31C05CC032601048327410413880C00AB
:1081400093051600832F4101832601016FF0CFE8CC
:108150006390071A930510001306000013880C00A3
:108160006FF09FBC1306C10393050D0013850A0031
:10817000EFF0CF9BE31A05C8832501048327410450
:1081800013880C00938515006FF08FF4B7CD0000B5
:108190002324E1001387CDC5930B0600232EE100B5
:1081A000E39607E413060000930720006FF05FE9F1
:1081B000B7CD00001387CDC513060000232EE100C4
:1081C0006FF01FE313060003A30CE102230CC102AE
:1081D000A30B010213E72B0063CC061413FEFBF77D
:1081E000936B2E00130600006FF09FE0130904004C
:1081F0006FF08FB9832781001387470083A707009B
:1082000063DA06FE6FF01FE98327810013874700BA
:1082100083A70700E3DA06886FF09FE11307D00217
:10822000A30BE102B307F04063CA061493FBFBF70C
:108230001306D0026FF0CFF663840F089307200077
:10824000130781032328E106232AF1069305100072
:1082500013880C006FF09FD7832706001306460093
:108260002324C1006FF0DF94832707001307470022
:108270002324E1006FF08FF11306C10393050D0075
:1082800013850A00232AF1012328D100EFF00F8A79
:10829000E31C05B6032601048327410413880C0060
:1082A00093051600832F4101832601016FF05FA320
:1082B0001305F0FF6FF00FB813880C006FF05FB973
:1082C000130600009305100013880C006FF05FA5E3
:1082D00013850D00EFE09FFC130A050003467103B0
:1082E0002324910093060000032801016FF08FC042
:1082F0001306C10393050D0013850A002328D1003E
:10830000EFF0CF82E31205B0032601048327410476
:1083100013880C0093051600832601016FF0DFA07F
:1083200003260104232C6101130616006FF0CFC74A
:108330001306000093052000130510006380A508B4
:10834000130520006390A508930B07006FF05FCA28
:108350009307600063F4D70093860700138A060032
:108360009389060063C40606B7CE0000232491005B
:10837000938D0EC7930600006FF00FB913870B00A3
:108380001306D002930510006FF01FFB03260104B3
:10839000232C6101130616006FF0DFB11385050071
:1083A000232C81016FF08FCF138A060003467103DF
:1083B00023249100930600006FF0CFB3930B0700C6
:1083C0006FF00FDE930B07006FF04FE4930900008E
:1083D0006FF09FF98327810083A6070093874700EA
:1083E0002324F10063D606A09306F0FF9304040053
:1083F0006FF08F9CA30B11036FF00FFFA30B110302
:108400006FF0CFF8A30B11036FF08FE7A30B1103ED
:108410006FF00FD6A30B11036FF09F84A30B110312
:108420006FF04FDBA30B11036FF08FE293F71B008C
:1084300013860600638C070093070003A307F10669
:10844000032A0102930DF1066FF0CFAA130A000070
:10845000938D0C006FF00FAAB71700049306060067
:10846000138605009305050003A5078D6FE01FFC2B
:1084700083D7C50003AE850603D3E50083A8C501F5
:1084800003A84502130101B893F7D7FF1307004073
:10849000232C81462316F10013840500930701075E
:1084A00093050100232A914623282147232E1146B4
:1084B000130905002324C10723176100232E11018E
:1084C000232201032320F1002328F1002324E100CB
:1084D000232AE100232C0100EFE05FF5930405005F
:1084E000634A05009305010013050900EFC0DFE3AF
:1084F000631C05028357C10093F7070463880700D4
:108500008357C40093E707042316F4008320C14770
:10851000138504000324814783244147032901472D
:1085200013010148678000009304F0FF6FF09FFC87
:10853000B385C502130101FF232611002324810006
:10854000EF80DFB9630C05080326C5FF130740025F
:10855000130405001376C6FF1306C6FF636EC70437
:10856000930630019307050063F8C6022320050037
:10857000232205009307B00163FEC70423240500EE
:1085800023260500930705016318E600232805004C
:1085900093078501232A050023A0070023A20700D3
:1085A00023A40700130504008320C10003248100D5
:1085B000130101016780000093050000EFD01FA1A7
:1085C0008320C1001305040003248100130101016D
:1085D00067800000930785006FF01FFC1305000003
:1085E0006FF09FFC6384050E130101FF23248100BB
:1085F000232291002326110023202101930405004A
:108600001384050063060500832785036380070A3A
:108610008317C40013050000639E07008320C10078
:108620000324810083244100032901001301010177
:10863000678000009305040013850400EFC0DFA5E8
:108640008327C40213090500638A07008325C40138
:1086500013850400E7800700634E05048357C400B8
:1086600093F70708639C070483250403638C0500C4
:10867000930704046386F50013850400EFD00F9C74
:10868000232804028325440463880500138504001D
:10869000EFD0CF9A23220404EFD00F8623160400D4
:1086A000EFD0CF85130509006FF05FF7EFD0CF83D0
:1086B0006FF01FF61309F0FF6FF05FFA83250401D6
:1086C00013850400EFD08F976FF01FFA1305000099
:1086D00067800000B71700049305050003A5078D08
:1086E0006FF05FF0130101FD23248102232C41016F
:1086F000232A510123261102232291022320210340
:10870000232E310123286101930A0500138A0500F5
:1087100013040600EFD04FE0930710006300F5103C
:108720009304C1009306040613060A00938504000F
:1087300013850A00EF0010669307F0FF9309050008
:108740006308F508630C050E8345C100130900009A
:10875000130BA0006F008002832704002380B70062
:1087600083270400938717002320F40013091900BE
:10877000938414006374390D83C504008327840037
:108780009387F7FF2324F400E3D807FC0327840131
:1087900063CAE706832704002380B7008327040009
:1087A00003C7070093871700E31067FD1306040053
:1087B00093050B0013850A00EF0090461305150082
:1087C00013351500E30405FA1305F0FF6F000001EF
:1087D0008357C40093E707042316F4008320C102E3
:1087E0000324810283244102032901028329C10158
:1087F000032A8101832A4101032B01011301010393
:10880000678000001306040013850A00EF00504142
:1088100013051500133515006FF0DFFA9307FAFF03
:108820001307E00FE36EF7EE9375FA0F2306B1001E
:10883000930905009304C1006FF05FF113050A006E
:108840006FF0DFF98317C6003727000093962701E2
:1088500063CC060083268606B3E7E7002316F600FE
:1088600033E7E6002324E6066FF0DFE7130101FE9D
:10887000B7170004232C810003A4078D232A91003D
:10888000232E1100930405001386050063060400DF
:1088900083278403638207048317C60037270000F9
:1088A0009396270163CC060083268606B3E7E7008C
:1088B0002316F60033E7E6002324E606938504003A
:1088C000130504008320C101032481018324410195
:1088D000130101026FF01FE1130504002326B1000C
:1088E000EFC09FE00326C1006FF01FFB83278600C7
:1088F000638E071A03D7C500130101FD23248102EB
:10890000232C4101232A5101232611022322910203
:1089100023202103232E3101232861012326710105
:1089200023248101232291012320A1019377870031
:1089300013840500930A0500130A06006384070ADE
:1089400083A705016380070A9377270083240A0021
:10895000638C070A370B008093090000130900009D
:10896000134B0BC01386090013850A006308091214
:108970009306090063742B0193060B0083274402BE
:108980008325C401E78007006358A01683278A0067
:10899000B389A9003309A9403385A7402324AA003D
:1089A000E31205FC930700008320C1021385070032
:1089B0000324810283244102032901028329C10186
:1089C000032A8101832A4101032B0101832BC1006A
:1089D000032C8100832C4100032D010013010103AE
:1089E000678000009305040013850A00EFA01FEBC9
:1089F0009307F0FFE31A05FA0357C40083240A0023
:108A000093772700E39807F4937717006390071094
:108A1000370B0080930B000013090000134BFBFF82
:108A20006306090693770720832984006386070875
:108A3000636E392393770748639407260325040060
:108A4000138C090013060C0093850B00EF00803394
:108A5000832784000326040013050900B3893741E6
:108A600033068601232434012320C40083278A008F
:108A7000B38BAB003309A940B389A74023243A0143
:108A8000E38209F20357C400E31E09F883AB040034
:108A900003A94400938484006FF09FF883A9040025
:108AA00003A94400938484006FF0DFEB9307000078
:108AB0001385070067800000032504008327040155
:108AC00063EAA712832744016366F912930609003B
:108AD00063742B0193060B00B3C6F602032744020E
:108AE0008325C40113860B0013850A00B386F602A2
:108AF000E7000700E34CA0F68317C40093E70704E0
:108B00002316F4009307F0FF6FF01FEA93090000AB
:108B1000930C0000130C000013090000630C0906FD
:108B2000638E0C14938B090063743901930B090055
:108B30000325040083270401138B0B0083264401C3
:108B400063F8A700032D8400338DA601634E7D05D5
:108B500063CADB0E832744028325C40113060C007D
:108B600013850A00E7800700130B0500E356A0F801
:108B7000B38969416384090683278A00330C6C0139
:108B800033096941338B674123246A01E30C0BE00D
:108B9000E31809F803AC040003A94400930C000097
:108BA000938484006FF09FF793050C0013060D006B
:108BB000EF00401D832704009305040013850A007D
:108BC000B387A7012320F400EFC00FF6E31605F2E8
:108BD000130B0D00B3896941E39009FA9305040072
:108BE00013850A00EFC04FF4E31805F0930C000062
:108BF0006FF09FF863743901930909001386090027
:108C000093850B00EF0000188327840003270400DE
:108C1000B3873741330737012324F4002320E400CE
:108C200063860700138509006FF05FE49305040075
:108C300013850A00EFC04FEFE31005EC1385090020
:108C40006FF0DFE213860B0093050C00EF0080133A
:108C5000032784008327040033077741B38B770110
:108C60002324E400232074016FF09FF00325040007
:108C700093090900130C09006FF0DFDC13060900EB
:108C80009305A00013050C00EFD0CFA6630E050CD2
:108C900013051500B3098541930C10006FF09FE890
:108CA0008329440183250401032C040093971900B0
:108CB000B389370193D7F901330CBC40B38937012D
:108CC00093071C0093D91940B38727011386090025
:108CD00063F6F900938907001386070013770740AE
:108CE000630C07049305060013850A00EF800FBF8D
:108CF000930C0500630005088325040113060C008E
:108D0000EF809FB18357C40093F7F7B793E7070845
:108D10002316F40033858C01338C8941232A3401D6
:108D200023248401232894012320A400930909000B
:108D3000130C09006FF01FD113850A00EF00801695
:108D4000930C0500E31805FC8325040113850A0034
:108D5000EFC0DFAE8317C4001307C00023A0EA00F2
:108D600093F7F7F76FF09FD993091900930C100050
:108D70006FF05FDB9307C00023A0FA008317C400E5
:108D80006FF0DFD763F8A5023387C5006374E5028F
:108D9000B307C500B385C7406302060E1307F7FF8C
:108DA000834607009387F7FF2380D700E398F5FEFB
:108DB000678000009308F00063F4C80CB3E7A500D7
:108DC00093F737006394070C13870500930705009A
:108DD000930606000328070093870701130707017E
:108DE00023A807FF032847FF938606FF23AA07FF50
:108DF000032887FF23AC07FF0328C7FF23AE07FF25
:108E0000E3EAD8FC130706FF137707FF13070701F0
:108E1000137EF60013033000B307E500B385E500C9
:108E2000637CC307138805009386070013070E00B1
:108E3000130848008328C8FF938646001307C7FF1E
:108E400023AE16FFE366E3FE1307CEFF1377C7FFDB
:108E50001307470013763600B387E700B385E500B4
:108E6000630A06023386C7009385150003C7F5FF22
:108E700093871700A38FE7FEE398C7FE6780000083
:108E800093070500E31006FE6F00C000930705007E
:108E90006FF05FFD6780000013060E00E31406FC10
:108EA0006FF05FFF130101FD2322910223261102BF
:108EB0002324810223202103232E3101232C41016D
:108EC000232A5101232861012326710123248101D2
:108ED00093040600638A051C9389050013090500A5
:108EE000EF809FA583A7C9FF1384B4001307600117
:108EF000938A89FF13FAC7FF6372870C137484FF88
:108F000013070400634C0414636A9414635EEA0A52
:108F1000370B0004130B0B0083268B0033864A01AA
:108F20006300D6308326460093F5E6FFB305B6000E
:108F300083A5450093F51500638E050E93F7170082
:108F4000638207269385040013050900EF800F99BB
:108F5000930405006300054A83A7C9FF130785FF33
:108F600093F7E7FFB387FA006300F7421306CAFFDF
:108F70009307400263E8C73C130730016368C736B4
:108F800093070500138709008326070023A0D70055
:108F90008326470023A2D7000327870023A4E700E6
:108FA0009385090013050900EFC05F8913050900C7
:108FB000EF80DF98138504006F00C00413070001E1
:108FC000130407006FF05FF493840900B3078A402D
:108FD0001307F000636CF70883A74A0033874A0140
:108FE00093F7170033E6470123A2CA0083274700FF
:108FF00093E717002322F70013050900EF801F9461
:10900000138504008320C1020324810283244102CA
:10901000032901028329C101032A8101832A410115
:10902000032B0101832BC100032C810013010103D9
:109030006780000093F6C6FFB386460163C0E60A68
:109040008327C6000327860093840900138A06003D
:109050002326F70023A4E7006FF05FF79307C00013
:109060002320F900130500006FF0DFF903A74A0081
:10907000B3858A0093E617001377170033648700DF
:1090800023A28A0023A2D500B387F50003A74700D7
:1090900093858500130509001367170023A2E700D5
:1090A000EFC0CFF96FF05FF58320C1020324810286
:1090B00083244102032901028329C101032A81017A
:1090C000832A4101032B0101832BC100032C810062
:1090D00093050600130101036F804F8093F717007B
:1090E000E39207E683AB89FFB38B7A4183A74B00FA
:1090F00093F7C7FF338BF600634EEB0A8327C60056
:10910000032786001306CAFF93848B002326F700EB
:1091100023A4E70003A78B0083A7CB002326F70037
:1091200023A4E7009307400263E4C722130730013A
:10913000938704006376C70483A7090023A4FB0078
:1091400083A7490023A6FB009307B00163F8C72457
:1091500083A7890023A8FB0083A7C90023AAFB00DB
:10916000930740026318F60A03A7090193870B02CD
:109170009389890123ACEB0003A7C9FF23AEEB0061
:1091800003A70900130A0B00938A0B0023A0E70032
:1091900003A7490023A2E70003A7890023A4E7004F
:1091A0006FF0DFE283AB89FFB38B7A4183A74B007B
:1091B00093F7C7FF330BFA00E346EBD883A7CB0046
:1091C00003A78B001306CAFF930640022326F7006D
:1091D00023A4E70093848B0063ECC61613073001C9
:1091E00093870400E37EC7F883A7090023A4FB004C
:1091F00083A7490023A6FB009307B00163F0C71AB9
:1092000083A7890023A8FB0083A7C90023AAFB002A
:10921000E30CD6F493878B01938909016FF05FF615
:10922000832646001306040193F6C6FFB386460163
:1092300063D0C60E93F71700E39607D083AB89FF80
:10924000B38B7A4183A74B0093F7C7FF338CD700CA
:10925000E342CCF683A7CB0003A78B001306CAFF1B
:10926000930640022326F70023A4E70093848B0093
:1092700063EAC61413073001938704006372C702C0
:1092800083A7090023A4FB0083A7490023A6FB00B2
:109290009307B00163E0C71493870B01938989009A
:1092A00003A7090023A0E70003A7490023A2E700C2
:1092B00003A7890023A4E70033878B00B3078C4002
:1092C0002324EB0093E717002322F70083A74B002A
:1092D0001305090093F7170033E4870023A28B00DE
:1092E000EF80CFE5138504006FF0DFD103A70900FD
:1092F0002320E50003A749002322E5001307B0015E
:109300006364C70693078500138789006FF0DFC782
:10931000B38A8A00B387864023245B0193E7170052
:1093200023A2FA0083A7C9FF1305090093F71700CA
:1093300033E4870023AE89FEEF804FE013850900F8
:109340006FF05FCC93850900EFF0DFA36FF05FC58E
:109350009385090013850400EFF0DFA2130A0B00C8
:10936000938A0B006FF09FC603A789002324E500B2
:1093700003A7C9002326E5006308F6029307050149
:10938000138709016FF05FC08327C5FF938409002D
:1093900093F7C7FF330AFA006FF05FC393870B019F
:1093A000938989006FF0DFDD83A6090193078501AA
:1093B000138789012328D50083A64901232AD500D4
:1093C0006FF09FBC9385090013850400EFF09F9B0D
:1093D0006FF09FEE83A7890023A8FB0083A7C90035
:1093E00023AAFB006300D60293878B0193890901AE
:1093F0006FF01FEB13050900EF804FD41305000039
:109400006FF05FC003A7090193870B02938989015D
:1094100023ACEB0003A7C9FF23AEEB006FF05FE8BE
:10942000130101FE232C8100232A91002326310100
:10943000232E1100232821019304050093890500A0
:109440001304060063060500832785036382071261
:109450008316C4008327840113970601135707015D
:109460002324F400937787006382070E8327040187
:10947000638E070C1316270113F9F90F63560606BE
:109480000327040083264401B307F74063D6D708B7
:109490009387170083268400130617002320C40037
:1094A0009386F6FF2324D4002300370103274401C9
:1094B0006302F7088357C4001305090093F71700E8
:1094C000638607009307A0006306F9068320C101A5
:1094D0000324810183244101032901018329C1005F
:1094E00013010102678000008325840637E7FFFF30
:1094F0001307F7FF33F7E50037260000B3E6C60091
:109500002324E406032704002316D4008326440101
:10951000B307F740E3CED7F69305040013850400A4
:10952000EFB09FE0631A05040327040093071000BF
:109530006FF05FF69305040013850400EFB0DFDEE3
:10954000631C0502130509006FF05FF89305040022
:1095500013850400EFA08FB4631005028316C400C6
:109560008327040113970601135707016FF09FF03B
:10957000EFC08F976FF0DFED1305F0FF6FF01FF571
:10958000B7170004138605009305050003A5078D92
:109590006FF01FE9130101FD232291022320210313
:1095A0002326110223248102232E3101232C410181
:1095B000930405001389060063820506B7170004AB
:1095C00003AA878D1384050093090600EFC00FF4EA
:1095D000930605001307090013860900930504008C
:1095E00013850400E7000A009307F0FF6318F500F5
:1095F000232009009307A00823A0F4008320C102C0
:109600000324810283244102032901028329C10129
:10961000032A81011301010367800000B7170004CA
:1096200003A4878DEFC08FEE930605001307090092
:10963000130600009305410013850400E7000400B1
:109640006FF09FFA130101FD2322910223202103D1
:10965000B71700042326110223248102232E31018F
:10966000232C41011309060083A4078D630205061C
:10967000B717000403AA878D93890500130405001A
:10968000EFC0CFE893060500130709001386090011
:109690009305040013850400E7000A009307F0FF18
:1096A0006318F500232009009307A00823A0F40005
:1096B0008320C10203248102832441020329010281
:1096C0008329C101032A810113010103678000007E
:1096D000B717000403A4878DEFC04FE3930605007E
:1096E00013070900130600009305410013850400C9
:1096F000E70004006FF09FFA638C05009307F00FFA
:1097000063ECC7002380C5001305100067800000CC
:1097100013050000678000009307A0082320F500D0
:109720001305F0FF67800000130101FEB717000466
:10973000232C810003A4878D232E1100232A91005E
:10974000232821012326310123244101930405000C
:10975000138A06001389050093090600EFC00FDB8A
:1097600013070A00930605001386090093050900F4
:1097700013850400130304008320C1010324810125
:1097800083244101032901018329C100032A8100A7
:109790001301010267000300371700048327879233
:1097A000638A07003385A7002324A7921385070047
:1097B00067800000B7370004938707133385A7003D
:1097C0002324A792138507006780000083270500E4
:1097D000130710006374F70E83A60500637ED70C91
:1097E00013084000638C07156388060D13082000DA
:1097F000638606116382070D032E850083A785000B
:109800009306F001832EC5003308FE401353F84140
:10981000B3480301B388684003A3C50063D2160BA5
:1098200063CAC711138E0700930E0000032745007B
:1098300083A74500630AF70AB3876E4063040700F5
:10984000B307D34163CA0710232206002324C601AD
:109850002326F600B70500401387F7FF9385E5FF41
:1098600063E4E502032786001307F7FF93971700C9
:109870009386F7FF130507001307F7FFE3F8D5FEFC
:109880002326F6002324A600130730002320E60039
:109890001305060063D407020327860093D617003A
:1098A00093F71700B3E7F600130717002326F60017
:1098B0002324E60067800000138505006780000010
:1098C0006358000BB31617019386F6FFB3F66600D4
:1098D0003337D000335313013363E30083A74500CC
:1098E00003274500E31AF7F4B3876E002322E6004E
:1098F0002324C6012326F6006FF01FF9E390D7FC5E
:109900002320F600832745002322F6000327850045
:109910008326450083A745002324E6000327C500CE
:10992000B3F7F6002322F6002326E600130506000F
:1099300067800000130300006FF05FEFE390F6F81C
:109940000327450083A74500E30AF7F637C5000063
:109950001305C5F467800000B307F040130710003B
:109960002322E6002324C6012326F6006FF09FEE93
:10997000E30E08EA331817011308F8FF3378D8010B
:10998000B3D71E01B3360001330E1E01B3EED7006C
:109990006FF0DFE983270500130610008326C5005A
:1099A00083254500637AF608130740006380E708C3
:1099B000130720006382E704638006040327850001
:1099C000930720F8634CF70A9307F00763C0E70694
:1099D000B3F7F600130600046384C7089386F60302
:1099E00063C806081307F7079396260093D69600D8
:1099F0001377F70F6F00C0001307000093060000F5
:109A0000B70780009387F7FF37068080B3F7F6002B
:109A10001306F6FF13177701B3F7C7001395F50187
:109A2000B3E7E70033E5A700678000001307F00FF6
:109A3000930600006FF0DFFCB707400013D77600F5
:109A40009386F7FFB376D700B3E6F600B70780003A
:109A50009387F7FFB3F6F6001307F00F6FF05FFA86
:109A600093F70608E38E07F6B386C6006FF05FF73C
:109A700093D61600130707086FF01FF73387E740E8
:109A800093079001E3CAE7F6B317E6009387F7FF61
:109A9000B3F7D700B337F000B3D6E600B3E6F6006D
:109AA00013F7F607930700046312F70293F706080B
:109AB000639C07023707004033B7E6001396260081
:109AC00093569600134717006FF09FF39387F603A2
:109AD000370700409396270033B7E70093D69600E8
:109AE000134717006FF0DFF1938706046FF05FFEF6
:109AF00003572500834635000326050013577700DA
:109B000093D67600B70780009387F7FF1377F70F98
:109B100023A2D500B377F600631C07026380070613
:109B20001307300023A0E50093977700130710F880
:109B30003706004093971700930607001307F7FFB7
:109B4000E3EAC7FE23A4D50023A6F5006780000042
:109B50009306F00F630AD702130717F8939777005D
:109B6000B7060040B3E7D70023A4E5001307300091
:109B700023A0E50023A6F5006780000093072000DE
:109B800023A0F50067800000638607021397970003
:109B9000635807021307100023A0E5003707C0FF32
:109BA0001307F7FFB3F7E7009397770023A6F500B5
:109BB000678000009307400023A0F5006780000045
:109BC00023A005006FF09FFD130101FB2324A100DA
:109BD0002326B100130581009305010123261104FA
:109BE000EFF01FF1930501021305C100EFF05FF0E4
:109BF000130601039305010213050101EFF01FBDD8
:109C0000EFF05FD98320C1041301010567800000D4
:109C1000130101FB2324A1002326B10013058100B9
:109C20009305010123261104EFF09FEC9305010237
:109C30001305C100EFF0DFEB832741021306010398
:109C40009305010293C71700130501012322F102B6
:109C5000EFF0DFB7EFF01FD48320C104130101053B
:109C600067800000130101FB2324A1002326B1001B
:109C7000130581009305010123261104EFF05FE72E
:109C8000930501021305C100EFF09FE68327010150
:109C90009306100063F4F60E0327010263F8E60A48
:109CA000930640006388D70C630ED7089306200004
:109CB0006386D70C630CD7080327C1018325C10233
:109CC00083268102832781013336B70203284102AC
:109CD000B387D7008326410113852700232CA102D7
:109CE000B3860641B336D000232AD1023307B70228
:109CF00093060600635A060C937616009387370086
:109D00006388060013571700B70600803367D70033
:109D100093561600232CF10293F7F607130600045E
:109D20006382C70893073000232ED1022328F10253
:109D300013050103EFF01FC68320C10413010105C1
:109D40006780000013072000638AE70603274102AB
:109D50008327410113050102B387E740B337F000C1
:109D60002322F102EFF01FC38320C1041301010578
:109D700067800000930720006302F7040327410275
:109D80008327410113050101B387E740B337F00092
:109D9000232AF100EFF01FC08320C1041301010545
:109DA0006780000093F70608E39E07F6E30C07F6CA
:109DB000B386C60093F606F86FF0DFF637C50000ED
:109DC0001305C5F46FF01FF737060040E3F6C6F43D
:109DD000938717006F000001131717009387F7FF91
:109DE00063F0C6029396160093850700E35607FEBC
:109DF00093E61600131717009387F7FFE3E4C6FEF8
:109E0000232CB1026FF05FF1130101FC2324A100A8
:109E10002326B1001305810093050101232E1102B1
:109E2000EFF01FCD930501021305C100EFF05FCCE9
:109E3000832601019307100063F6D7080326010269
:109E400063F6C70E83254101032741029387E6FF8E
:109E500093F7D7FF33C7E500232AE100638E070697
:109E600093074000630AF60813072000630AE60A16
:109E700003278101832681028327C1010326C102B2
:109E80003307D740232CE10063E0C7061307F00136
:109E900093050000B70600401307F7FF63E6C7000D
:109EA000B3E5D500B387C74093D616009397170044
:109EB000E31407FE13F7F507930600046306D704BF
:109EC000232EB10013050101EFF0DFAC8320C103A5
:109ED0001301010467800000E396C6FE37C5000049
:109EE0001305C5F46FF05FFE1307F7FF9397170094
:109EF000232CE1006FF09FF9232E0100232C010099
:109F0000130501016FF05FFC13F70508E31A07FA68
:109F1000E38807FAB385D50093F505F86FF05FFA8B
:109F20002328F100130501016FF01FFA1305010248
:109F30006FF09FF903270500930710001306050033
:109F400063FEE70683A605001385070063F0D704C8
:109F5000930740006308F704638CF6029307200020
:109F60006302F7026382F6048327460003A74500D5
:109F7000638AE7043335F0003305A040136515000C
:109F8000678000006396E60013050000678000000C
:109F900003A54500133515003305A04013651500D2
:109FA00067800000638AE604032546003335A0007D
:109FB0003305A04013651500678000001385070076
:109FC000678000008326860003A78500E344D7FA54
:109FD00063CCE6008326C60003A7C500E36CD7F870
:109FE00013050000E3F4E6FA13B517003305A040AB
:109FF000136515006780000083A745000325460010
:10A000003385A74067800000130101FC2324A100D1
:10A010002326B1001305810093050101232E1102AF
:10A02000EFF01FAD930501021305C100EFF05FAC27
:10A030009305010213050101EFF0DFEF8320C10357
:10A040001301010467800000130101FC2324A10017
:10A050002326B1001305810093050101232E11026F
:10A06000EFF01FA91305C10093050102EFF05FA8EF
:10A0700003270101930710001305F0FF63FCE700BD
:10A080000327010263F8E7009305010213050101AC
:10A09000EFF05FEA8320C103130101046780000031
:10A0A0006FF09FFA130101FC2324A1002326B100C5
:10A0B0001305810093050101232E1102EFF05FA328
:10A0C0001305C10093050102EFF09FA28327010150
:10A0D00013051000637CF500832701026378F50007
:10A0E0009305010213050101EFF0DFE48320C103B2
:10A0F00013010104678000006FF0DFFA6FF09FFA30
:10A100006FF05FFA130101FC2324A1002326B100A4
:10A110001305810093050101232E1102EFF05F9DCD
:10A120001305C10093050102EFF09F9C83270101F5
:10A13000130510006376F500032501021335250091
:10A140008320C1031301010467800000130101FE95
:10A150009357F50113073000232E1100232C8100A3
:10A160002320E1002322F10063120502930720005F
:10A170002320F10013050100EFF0DF818320C101EE
:10A180000324810113010102678000009307E001AD
:10A190002324F1006348050213040500130504009D
:10A1A000EF10C0299307F5FF638C07021307E00146
:10A1B0003315F400B307F7402326A1002324F10050
:10A1C0006FF05FFBB70700806300F5023304A04027
:10A1D00013050400EF1080269307F5FFE39807FCB2
:10A1E000232681006FF01FF9B7C7000003A5070DF4
:10A1F0006FF0DFF8130101FE232E1100232C8100E4
:10A20000232A910023220100630A050493073000EA
:10A210009304E0012320F10013040500232491009E
:10A22000EF10C0219307F5FF63000504638C07045A
:10A230003314F400B384F4402326810023249100D6
:10A2400013050100EFF00FF58320C1010324810104
:10A25000832441011301010267800000930720005D
:10A260002320F1006FF0DFFD9377140013541400E6
:10A2700033E487009307F001232681002324F100B3
:10A280006FF01FFC232681006FF09FFB130101FD7F
:10A290002326A100930501011305C1002326110205
:10A2A000EFF01F858327010113072000637EF70469
:10A2B00013074000638AE7008327810163C6070410
:10A2C0001305E0016350F502832741013705008043
:10A2D000639407001345F5FF8320C10213010103B6
:10A2E000678000003305F5408327C10133D5A700FF
:10A2F00083274101E38207FE8320C1023305A0408A
:10A3000013010103678000008320C10213050000D0
:10A310001301010367800000130101FD2326A10042
:10A32000930501011305C10023261102EFF04FFC34
:10A33000832741011305010193B71700232AF10078
:10A34000EFF04FE58320C102130101036780000095
:10A35000130101FE2320A10013050100232E11008B
:10A360002322B1002324C1002326D100EFF08FE285
:10A370008320C1011301010267800000130101FD68
:10A380002326A100930501011305C1002326110214
:10A39000EFF00FF68327C1010326810183254101D8
:10A3A000032501011397E70193D72700EF108000E1
:10A3B0008320C10213010103678000008327050089
:10A3C0009306100063F2F61203A7050063FCE61083
:10A3D000930640006380D7246306D71093062000BD
:10A3E0006302D71C6380D710032E850083A68500E7
:10A3F00083280501032F45013308DE409357F841B8
:10A4000033C707013307F7409307F00303A30501A0
:10A4100083AE450163DCE70C63C8C61F138E0600DC
:10A4200093080000130F00000325450083A7450093
:10A430006308F5106300051CB3071341B336F3003E
:10A440003387EE41B306D74063C4061E23220600BD
:10A450002324C6012328F600232AD6001385F7FFFC
:10A460009385F6FF3337F5003307B700B7050010C3
:10A470006378B70E9385F5FF630EB7240325860036
:10A4800037030010130EF3FF1305F5FF930EE0FFE3
:10A490006F008000630CC71513D7F7019395160062
:10A4A00093971700B365B7001388F7FF9388F5FFFC
:10A4B0003337F8003307170193860500930805002A
:10A4C0001305F5FFE36867FC2328F60093073000C7
:10A4D000232AB600232416012320F60013050600C4
:10A4E000678000001385050067800000635A00192B
:10A4F000937707026382071693061000B3DFEE001E
:10A50000B396E60093020000130700009307F7FFDD
:10A5100033B7E7009386F6FF3307D700B3F767003A
:10A520003377D701B3E7E700B337F00033E3FF0039
:10A530000325450083A74500938E0200E31CF5EE3A
:10A54000B3876800B3B817013307DF01B386E800AB
:10A550002322A6002324C6012328F600232AD6009E
:10A56000130730002320E6003707002063E8E602E7
:10A57000032786001395F60193D51700B365B50040
:10A5800093F7170093D61600B3E7F50013071700EB
:10A590002328F600232AD6002324E600130506000C
:10A5A00067800000E392E7F42320F600832745004C
:10A5B0002322F600032785008326450083A7450054
:10A5C0002324E6000327C500B3F7F6002326E600A0
:10A5D000032705012328E600032745012322F6006F
:10A5E00013050600232AE60067800000E3F60EEB61
:10A5F0006FF09FEDB3876840B3B6F8003307DF41D3
:10A60000B306D7406FF05FE413030000930E000021
:10A610006FF09FE1E31AF7EC0327450083A745009D
:10A62000E304F7EC37C50000130505F6678000006A
:10A63000B307F0403337F000B306D040B386E640AE
:10A64000130710002322E6002324C6012328F60066
:10A65000232AD6006FF09FE09346F7FF93971E00E2
:10A66000B397D700B35FE30013081000B3D2EE0036
:10A67000B3EFF701930600003317E8006FF01FE90E
:10A68000E30408DA93770702330EEE0063820706CD
:10A690003358EF00930F00006394070493071000F2
:10A6A000930600003397E7009307F7FF33B7E700FF
:10A6B0009386F6FF3307D700B3F717013377E70127
:10A6C000B3E7E700B337F000B368F800138F0F006B
:10A6D0006FF09FD51307E0FFE372A7DA6FF05FE832
:10A6E00093061000B396E600130700006FF0DFFB3F
:10A6F00093171F009346F7FFB397D70033D8E800AE
:10A7000033E80701B35FEF006FF05FF983270500BF
:10A710009305100003260501032745018328450002
:10A7200063FAF50E13034000638E670C13032000D9
:10A7300063826706B367E600638E0704832785009C
:10A74000130520C063C0A7129305F03F63CCF50A40
:10A750009375F60F130500086388A50E9305F60799
:10A7600033B6C5003307E60013860500B7050020A1
:10A77000637EB7069387F73F9315870113568600CC
:10A780001317470033E6C5001358C70093F7F77F48
:10A790006F0000019307000013060000130800007B
:10A7A0003707100093050000B706F0FF1307F7FF07
:10A7B0003377E800B3F6B600B3E6E6001397470137
:10A7C000B70710809387F7FFB3F7F600B3E7E7000A
:10A7D000370700801347F7FF9396F801B3F7E700B8
:10A7E00013050600B3E5D700678000009316F70154
:10A7F0001356160033E6C600135717009387074019
:10A800006FF09FF79307F07F130600001308000016
:10A810006FF01FF9B7060800135887009387F6FFFB
:10A82000B377F80033E8D700B70710009387F7FF36
:10A8300013178701135686003378F8003366C70074
:10A840009307F07F6FF0DFF593760610E38006F252
:10A85000B306A60033B6C6003307E600138606002B
:10A860006FF0DFF0B307F54093068003E3C4F6F220
:10A8700093F607026386060A3358F700B395F5008E
:10A8800093060000930700001385F7FFB337F50028
:10A890009385F5FFB385B70033F7E500B377C500BF
:10A8A000B3E7E700B337F0003366F8001377F60F2D
:10A8B00093070008631AF702937706106396070858
:10A8C0001397460093978601135686001358C700C6
:10A8D0003707001033E6C7009307100063ECE60269
:10A8E00093F717006FF0DFEB9307F60733B6C70057
:10A8F000B306D6001397460013D6870093958601BA
:10A900001358C7003707001033E6C500930710003F
:10A91000E3F8E6FC9307000093F717006FF05FE899
:10A9200093C5F7FF93161700B396B6003358F60099
:10A930001305100033E8060193050000B356F70035
:10A94000B317F5006FF05FF4930706086FF01FFA76
:10A9500003477500835665000328450013567700AA
:10A9600093D64600B7071000032705009387F7FF2B
:10A9700093F6F67F23A2C500B377F800639C060424
:10A98000B366F7006386060893568701939787009E
:10A99000B3E7F6009306300023A0D5001317870015
:10A9A000930610C0370500101356F7019397170050
:10A9B000B367F60013171700138606009386F6FF99
:10A9C000E3E4A7FE23A4C50023A8E50023AAF5001D
:10A9D000678000001306F07F6382C6041356870168
:10A9E00093978700B367F600938616C0370600106A
:10A9F00013178700B3E7C70023A4D50093063000E0
:10AA000023A0D50023A8E50023AAF5006780000055
:10AA10009307200023A0F50067800000B366F700CD
:10AA2000638E06029396C70063D006049306100057
:10AA300023A0D500B706F8FF9386F6FFB3F7D7003B
:10AA40009397870093568701B3E7D70013178700C2
:10AA500023AAF50023A8E5006780000093074000C3
:10AA600023A0F5006780000023A005006FF09FFC85
:10AA7000130101F92324A1002326B100130581004D
:10AA80009305810123261106232AD1002328C10022
:10AA9000EFF01FEC9305010313050101EFF05FEBED
:10AAA000130681049305010313058101EFF01F9143
:10AAB000EFF0DFC58320C1061301010767800000A6
:10AAC000130101F92324A1002326B10013058100FD
:10AAD0009305810123261106232AD1002328C100D2
:10AAE000EFF01FE79305010313050101EFF05FE6A7
:10AAF00083274103130681049305010393C71700BD
:10AB000013058101232AF102EFF05F8BEFF01FC0E4
:10AB10008320C1061301010767800000130101F9BA
:10AB20002324A1002326B100130581009305810190
:10AB3000232AD100232611062328C100EFF05FE16C
:10AB40009305010313050101EFF09FE083278101C5
:10AB50009306100063FCF6160327010363F0E61466
:10AB6000930640006380D7166306D7129306200031
:10AB7000638ED7146304D712032581020328C10210
:10AB800003270104032341043306E802330FA30221
:10AB9000B30EE601333EA302B3B7CE003336E8026C
:10ABA0003306C6013386C700B305A702B30868029F
:10ABB0003335A702333368026360C615630CCE12C7
:10ABC0009307000013070000B386AE0063F4A600ED
:10ABD00093071000B308160133B8C800032581039A
:10ABE00003260102B387F800B3B817013305A600A6
:10ABF00033066800032341030328C1013306E6003E
:10AC00003387C80033086840333800011303450018
:10AC10002328610423260105B70E002013065500E2
:10AC2000B70F00806368D71113F817001315F701E9
:10AC300093D7170013571700139EF60113D315006F
:10AC400093D81600130F060063060800B3656E0064
:10AC5000B3E6F801B367F50013061600E376D7FDF7
:10AC60002328E10513F6F70F13050008630CA60867
:10AC7000232CF10493073000232EE1042324F10454
:10AC800013058104EFF09FA88320C106130101077B
:10AC900067800000130720006388E708032741034B
:10ACA0008327C10113050103B387E740B337F000E1
:10ACB000232AF102EFF09FA58320C10613010107AB
:10ACC00067800000930720006300F7060327410315
:10ACD0008327C10113058101B387E740B337F00033
:10ACE000232EF100EFF09FA28320C106130101077C
:10ACF00067800000E3F6EEED9307000013071000F5
:10AD00006FF09FEC13F60710E31406F6B3E6D500D8
:10AD1000E38006F6B386A700B3B7F6003387E700F3
:10AD200093F706F06FF0DFF437C50000130505F662
:10AD30006FF05FF5370E001013053500E374C7F3AD
:10AD400013D8F701131617003366C80093D8F5011E
:10AD500013981600130305009397170013070600B6
:10AD600063D4060093E7170093951500B3E6080136
:10AD70001305F5FFE366C6FD232861046FF09FEE1F
:10AD8000130101FB2320A1002322B10013050100C0
:10AD9000930501012324C100232611042326D10099
:10ADA000EFF01FBB9305810213058100EFF05FBA3E
:10ADB000032601019307100063FAC70E8326810260
:10ADC00063FED714832541010327C1029307E6FFE1
:10ADD00093F7D7FF33C7E500232AE1006382070E0C
:10ADE000930740006386F60E130720006382E61285
:10ADF0000327810103260103832741028328C1031E
:10AE00003306C740232CC10083260102832281031D
:10AE100063E617016390F80263FE560093D5F601CE
:10AE2000139717001306F6FFB3E7E5009396160095
:10AE3000232CC1001305D003930E0000130F000054
:10AE400013080000B7050010139EF50113531800F6
:10AE50001305F5FF63E417033387564033B6E60066
:10AE6000B38F17416394F80063EA56009306070016
:10AE7000B387CF40B3EE0E01336FBF0013D6F60198
:10AE80001397170033686E0093D51500B367E6007B
:10AE900093961600E31A05FA13F7FE0F130600083F
:10AEA0006306C7042320D1032322E1031305010114
:10AEB000EFF0DF858320C1041301010567800000E6
:10AEC000E316D6FE37C50000130505F66FF05FFEEA
:10AED00013070000930700002320E1022322F10260
:10AEE000232C0100130501016FF09FFC13F70E10D6
:10AEF000E31A07FAB3E7F600E38607FAB387CE0052
:10AF0000B3BED701338FEE0193FE07F06FF09FF9C8
:10AF10002328F100130501016FF09FF91305810249
:10AF20006FF01FF9032705009307100013060500B3
:10AF300063F2E70883A605001385070063F2D704D0
:10AF400093074000630CF7046380F6049307200026
:10AF5000630AF7026386F6048327460003A74500C9
:10AF6000638EE7043335F0003305A0401365150008
:10AF7000678000006394E600636AB606130500006C
:10AF800067800000E38CE6FE03A54500133515003D
:10AF90003305A04013651500678000006380E60656
:10AFA000032546003335A0003305A0401365150086
:10AFB00067800000138507006780000083268600F5
:10AFC00003A78500E340D7FA63C2E60203274601E0
:10AFD00083A645010326060183A50501E3E4E6F8FF
:10AFE0006314D700E3E0C5F8E376D7F813B517008C
:10AFF0003305A040136515006780000083A7450056
:10B00000032546003385A74067800000130101FB3C
:10B010002320A1002322B1001305010093050101A3
:10B02000232611042324C1002326D100EFF05F92D0
:10B030009305810213058100EFF09F919305810232
:10B0400013050101EFF01FEE8320C1041301010578
:10B0500067800000130101FB2320A1002322B1001F
:10B060001305010093050101232611042324C100C7
:10B070002326D100EFF0DF8D1305810093058102B7
:10B08000EFF01F8D03270101930710001305F0FF58
:10B0900063FCE7000327810263F8E7009305810260
:10B0A00013050101EFF01FE88320C104130101051E
:10B0B000678000006FF01FFA130101FB2320A1003D
:10B0C0002322B10013050100930501012326110479
:10B0D0002324C1002326D100EFF09F8713058100B0
:10B0E00093058102EFF0DF8683270101130510002D
:10B0F000637CF500832781026378F5009305810264
:10B1000013050101EFF01FE28320C10413010105C3
:10B11000678000006FF05FFA6FF01FFA6FF0DFF9E1
:10B12000130101FB2320A1002322B100130501001C
:10B1300093050101232611042324C1002326D100F5
:10B14000EFF01F811305810093058102EFF05F800E
:10B1500083270101130510006376F50003258102A2
:10B16000133525008320C104130101056780000009
:10B17000130101FD9357F501130730002326110237
:10B18000232481022324E1002326F1006312050217
:10B19000930720002324F10013058100EFF00FD75F
:10B1A0008320C10203248102130101036780000090
:10B1B000634C05021304050013050400EF0000288A
:10B1C0001305D50193770502638007043314A400A7
:10B1D000232E8100232C01009307C0033385A74051
:10B1E0002328A1006FF05FFBB7070080630CF50216
:10B1F0003304A04013050400EF0040241305D501DB
:10B2000093770502E39407FC935714001347F5FF67
:10B21000B3D7E7003314A400232EF100232C8100C0
:10B220006FF09FFBB7C7000003A5870D83A5C70D6F
:10B230006FF01FF7130101FD232611022324810261
:10B240002326010063060506930730002324F1003E
:10B2500013040500EF00801E1305D5019377050246
:10B26000638A07023314A400232E8100232C0100DB
:10B270009307C0033385A7402328A100130581004D
:10B28000EFF0CFC88320C102032481021301010320
:10B2900067800000935714001347F5FFB3D7E7000A
:10B2A0003314A400232EF100232C81006FF05FFCE7
:10B2B000930720002324F1006FF05FFC130101FDD0
:10B2C0002320A1002322B100130501009305810072
:10B2D00023261102EFF0CFE7832781001307200018
:10B2E0006374F70613074000638AE7000325010132
:10B2F000634C05049307E00163D0A7028327C100D4
:10B3000037050080639407001345F5FF8320C102D1
:10B3100013010103678000009307C003B387A740B0
:10B3200013F70702630A07020325C1013355F5002D
:10B330008327C100E38C07FC8320C1023305A040B2
:10B3400013010103678000008320C1021305000080
:10B3500013010103678000000327C1010325810158
:10B3600093C6F7FF131717003317D7003355F500AF
:10B370003365A7006FF0DFFB130101FD2320A1005F
:10B380002322B10013050100930581002326110239
:10B39000EFF00FDC8327C1001305810093B717007E
:10B3A0002326F100EFF08FB68320C10213010103C1
:10B3B00067800000130101FD2324A1001305810013
:10B3C000232611022326B1002328C100232CE100EB
:10B3D000232EF100EFF08FB38320C102130101038C
:10B3E00067800000130101FD2320A1002322B1008A
:10B3F000130501009305810023261102EFF04FD5BC
:10B40000032781018326C1019357E7019396260004
:10B41000B3E6F600931727006384070093E616004F
:10B42000032601018325C10003258100EFE05FF2BF
:10B430008320C1021301010367800000B7070100E8
:10B44000637CF5029306F00F1307800193078000D9
:10B4500063E6A60013070002930700003355F500CA
:10B46000B7C70000938787F7B307F50003C5070048
:10B470003305A74067800000B7060001130780006E
:10B4800093078001E37CD5FC1307000193070700B5
:10B490003355F500B7C70000938787F7B307F5006A
:10B4A00003C507003305A740678000004448525990
:10B4B00053544F4E452050524F4752414D2C20532C
:10B4C0004F4D4520535452494E470000446872790D
:10B4D00073746F6E652042656E63686D61726B2C6C
:10B4E0002056657273696F6E20322E3120284C61B0
:10B4F0006E67756167653A2043290A0050726F676D
:10B5000072616D20636F6D70696C6564207769741A
:10B510006820277265676973746572272061747487
:10B520007269627574650A0050726F6772616D208E
:10B53000636F6D70696C656420776974686F75748A
:10B54000202772656769737465722720617474724D
:10B5500069627574650A0000506C656173652067E7
:10B5600069766520746865206E756D626572206FFE
:10B57000662072756E73207468726F7567682074C8
:10B5800068652062656E63686D61726B3A200000C9
:10B59000457865637574696F6E2073746172747336
:10B5A0002C2025642072756E73207468726F756725
:10B5B00068204468727973746F6E650A0000000039
:10B5C000457865637574696F6E20656E64730A00F3
:10B5D00046696E616C2076616C756573206F6620BC
:10B5E000746865207661726961626C657320757339
:10B5F000656420696E207468652062656E63686D9D
:10B6000061726B3A0A000000496E745F476C6F62AA
:10B610003A20202020202020202020202025640ADD
:10B6200000000000202020202020202073686F755B
:10B630006C642062653A20202025640A0000000026
:10B64000426F6F6C5F476C6F623A20202020202091
:10B65000202020202025640A0000000043685F317C
:10B660005F476C6F623A202020202020202020207D
:10B670002025630A00000000202020202020202018
:10B6800073686F756C642062653A20202025630A18
:10B690000000000043685F325F476C6F623A202011
:10B6A00020202020202020202025630A00000000E8
:10B6B0004172725F315F476C6F625B385D3A202088
:10B6C000202020202025640A000000004172725FC3
:10B6D000325F476C6F625B385D5B375D3A202020DC
:10B6E0002025640A000000002020202020202020A7
:10B6F00073686F756C642062653A2020204E756D0A
:10B700006265725F4F665F52756E73202B20313019
:10B710000A0000005074725F476C6F622D3E0A0091
:10B7200020205074725F436F6D703A2020202020DB
:10B73000202020202025640A000000002020202056
:10B740002020202073686F756C642062653A202089
:10B750002028696D706C656D656E746174696F6EBB
:10B760002D646570656E64656E74290A00000000C2
:10B77000202044697363723A20202020202020205A
:10B78000202020202025640A000000002020456E93
:10B79000756D5F436F6D703A20202020202020209F
:10B7A0002025640A000000002020496E745F436F6A
:10B7B0006D703A2020202020202020202025640A9F
:10B7C0000000000020205374725F436F6D703A20B8
:10B7D00020202020202020202025730A00000000A7
:10B7E000202020202020202073686F756C64206248
:10B7F000653A2020204448525953544F4E4520501A
:10B80000524F4752414D2C20534F4D4520535452D7
:10B81000494E470A000000004E6578745F5074720C
:10B820005F476C6F622D3E0A000000002020202040
:10B830002020202073686F756C642062653A202098
:10B840002028696D706C656D656E746174696F6ECA
:10B850002D646570656E64656E74292C2073616D4E
:10B86000652061732061626F76650A00496E745FBE
:10B87000315F4C6F633A20202020202020202020A0
:10B880002025640A00000000496E745F325F4C6F2F
:10B89000633A202020202020202020202025640A18
:10B8A00000000000496E745F335F4C6F633A2020E4
:10B8B00020202020202020202025640A00000000D5
:10B8C000456E756D5F4C6F633A202020202020204C
:10B8D000202020202025640A000000005374725F9D
:10B8E000315F4C6F633A2020202020202020202030
:10B8F0002025730A00000000202020202020202086
:10B9000073686F756C642062653A20202044485249
:10B910005953544F4E452050524F4752414D2C20C1
:10B920003127535420535452494E470A0000000017
:10B930005374725F325F4C6F633A202020202020C6
:10B94000202020202025730A000000002020202035
:10B950002020202073686F756C642062653A202077
:10B96000204448525953544F4E452050524F47524D
:10B97000414D2C2032274E4420535452494E470A01
:10B98000000000004D656173757265642074696D17
:10B990006520746F6F20736D616C6C20746F206F05
:10B9A000627461696E206D65616E696E6766756C43
:10B9B00020726573756C74730A000000506C6561C9
:10B9C000736520696E637265617365206E756D6263
:10B9D0006572206F662072756E730A00557365720A
:10B9E0005F54696D653D2564200A00004D696372EE
:10B9F0006F7365636F6E647320666F72206F6E6520
:10BA00002072756E207468726F7567682044687262
:10BA10007973746F6E653A200000000025362E3170
:10BA200066200A004468727973746F6E65732070C3
:10BA30006572205365636F6E643A202020202020B9
:10BA400020202020202020202020202020202020F6
:10BA5000000000004448525953544F4E4520505264
:10BA60004F4752414D2C20312753542053545249B3
:10BA70004E4700004448525953544F4E45205052AF
:10BA80004F4752414D2C2032274E442053545249A7
:10BA90004E4700004448525953544F4E452050528F
:10BAA0004F4752414D2C2033275244205354524982
:10BAB0004E4700001C1F0000BC260000BC260000F2
:10BAC0002C1F0000BC260000BC260000BC26000085
:10BAD000BC260000BC260000BC260000D01C0000D4
:10BAE000281E0000BC260000E81C0000C41E000048
:10BAF000BC260000141F000068230000682300001B
:10BB00006823000068230000682300006823000009
:10BB1000682300006823000068230000BC260000A2
:10BB2000BC260000BC260000BC260000BC2600008D
:10BB3000BC260000BC260000BC260000BC2600007D
:10BB4000BC2600002C26000084250000BC26000036
:10BB500084250000BC260000BC260000BC26000096
:10BB6000BC26000060260000BC260000BC260000A9
:10BB700094230000BC260000BC260000BC26000068
:10BB8000BC260000BC260000E0230000BC2600000C
:10BB9000BC2600002C240000BC260000BC260000AF
:10BBA000BC260000BC260000BC260000BC2600000D
:10BBB000BC260000BC260000BC260000BC260000FD
:10BBC000B8240000F424000084250000842500002F
:10BBD000842500009C260000F4240000BC26000000
:10BBE000BC260000C81C0000BC260000682600001F
:10BBF000341E0000F01C0000C81C0000BC26000021
:10BC0000341F0000BC260000DC220000BC2600001F
:10BC1000BC260000482500002020202020202020D5
:10BC20002020202020202020303030303030303094
:10BC30003030303030303030494E4600696E66006A
:10BC40004E414E006E616E0030313233343536373E
:10BC50003839414243444546000000003031323318
:10BC60003435363738396162636465660000000038
:10BC7000286E756C6C29000030000000496E666902
:10BC80006E697479000000004E614E0043000000B0
:10BC9000504F5349580000002E00000000000000E3
:10BCA00005000000190000007D00000000000000F9
:10BCB000000000000000F03F0000000000002440F1
:10BCC00000000000000059400000000000408F40CC
:10BCD000000000000088C34000000000006AF84037
:10BCE0000000000080842E4100000000D01263415B
:10BCF0000000000084D797410000000065CDCD41D1
:10BD0000000000205FA00242000000E876483742B1
:10BD1000000000A2941A6D42000040E59C30A2424F
:10BD20000000901EC4BCD64200003426F56B0C43C4
:10BD30000080E03779C3414300A0D885573476436B
:10BD400000C84E676DC1AB43003D9160E458E143CC
:10BD5000408CB5781DAF154450EFE2D6E41A4B4441
:10BD600092D54D06CFF08044F64AE1C7022DB54486
:10BD7000B49DD9794378EA44BC89D897B2D29C3C27
:10BD800033A7A8D523F649393DA7F444FD0FA532C2
:10BD90009D978CCF08BA5B25436FAC642806C80A10
:10BDA0000080E03779C34143176E05B5B5B89346B7
:10BDB000F5F93FE9034F384D321D30F94877825A83
:10BDC0003CBF737FDD4F1575D47A00005C7C0000AA
:10BDD0005C7C0000E87A00005C7C00005C7C000079
:10BDE0005C7C00005C7C00005C7C00005C7C0000F3
:10BDF00078760000247900005C7C000090760000DA
:10BE0000187C00005C7C0000347900004079000060
:10BE1000407900004079000040790000407900003E
:10BE2000407900004079000040790000407900002E
:10BE30005C7C00005C7C00005C7C00005C7C0000A2
:10BE40005C7C00005C7C00005C7C00005C7C000092
:10BE50005C7C00005C7C00006C7900005C7C000075
:10BE60005C7C00005C7C00005C7C00005C7C000072
:10BE70005C7C00005C7C00005C7C00005C7C000062
:10BE80005C7C0000D07900005C7C00005C7C0000E1
:10BE90005C7C00005C7C00005C7C00007C7A000024
:10BEA0005C7C00005C7C0000887B00005C7C000007
:10BEB0005C7C00005C7C00005C7C00005C7C000022
:10BEC0005C7C00005C7C00005C7C00005C7C000012
:10BED0005C7C0000507B00007C7B00005C7C0000F0
:10BEE0005C7C00005C7C0000D87B00007C7B000058
:10BEF0005C7C00005C7C0000EC7500005C7C000059
:10BF00004C7A0000CC7B00009C760000EC750000B1
:10BF10005C7C0000F47A00005C7C0000447B000044
:10BF20005C7C00005C7C0000E47B00002020202082
:10BF300020202020202020202020202030303030C1
:10BF400030303030303030303030303000000000B1
:10BF500000000000000000000000000000000000E1
:10BF600000000000000000000000000000000000D1
:10BF700000000000000000000001020203030303B0
:10BF80000404040404040404050505050505050569
:10BF90000505050505050505060606060606060649
:10BFA0000606060606060606060606060606060631
:10BFB0000606060606060606070707070707070719
:10BFC0000707070707070707070707070707070701
:10BFD00007070707070707070707070707070707F1
:10BFE00007070707070707070707070707070707E1
:10BFF00007070707070707070808080808080808C9
:10C0000008080808080808080808080808080808B0
:10C0100008080808080808080808080808080808A0
:10C020000808080808080808080808080808080890
:10C030000808080808080808080808080808080880
:10C040000808080808080808080808080808080870
:10C050000808080808080808080808080808080860
:10C060000808080808080808080808080808080850
:10C0700008080808080808082D431CEBE2361A3F98
:10C08000F902155000000000000000000000F83F19
:10C0900061436F63A787D23FB3C8608B288AC63FCE
:10C0A000FB799F501344D33F000000000000F03F95
:10C0B00000000000000024400000000000001C40C0
:10C0C0000000000000001440000000000000E03FFD
:10C0D000000000CF00000000000000000000E0C1F0
:10C0E0001000000000000000017A5200010401016C
:10C0F0001B0D02001000000018000000D04CFFFFD4
:10C100000C00000000000000100000002C000000E7
:10C11000984DFFFF08000000000000001000000024
:10C12000400000008C4DFFFF0C00000000000000EC
:10C130001000000054000000844DFFFF20000000AC
:10C14000000000001000000068000000904DFFFF9C
:10C150001400000000000000140000007C0000003B
:10C16000904DFFFF1C00000000440E104411017FA1
:10C170001C00000094000000944DFFFF40000000F0
:10C1800000440E104C11087E11097D11017F000042
:10C1900010000000B4000000B44DFFFF28000000B4
:10C1A0000000000010000000C8000000C84DFFFFA4
:10C1B000280000000000000010000000DC0000006B
:10C1C000184CFFFF080000000000000010000000F5
:10C1D000F00000000C4CFFFF080000000000000011
:10C1E0001000000004010000004CFFFF04000000EC
:10C1F000000000001000000018010000F04BFFFFDD
:10C200000800000000000000100000002C010000E9
:10C21000E44BFFFF080000000000000010000000D9
:10C2200040010000D84BFFFF10000000000000009C
:10C230001800000054010000D44BFFFF380000003C
:10C2400000440E104811087E11017F0020000000FC
:10C2500070010000F04BFFFF5000000000440E1082
:10C260005011097D11127C11017F11087E00000020
:10C270001000000094010000244DFFFF0C0000009E
:10C280000000000010000000A80100001C4DFFFF8E
:10C290000C0000000000000010000000BC010000C5
:10C2A000144DFFFF0C00000000000000180000000B
:10C2B000D00100000C4DFFFF3000000000440E10C4
:10C2C0004811017F11087E0014000000EC010000FD
:10C2D000204DFFFF3400000000480E104C11017F7C
:10C2E0001000000004020000C84DFFFF0C00000019
:10C2F000000000001800000018020000284DFFFF99
:10C300008800000000440E104411087E5011017F87
:10C3100010000000340200007C4BFFFF040000000E
:10C320000000000010000000480200006C4BFFFFFE
:10C330000C00000000000000100000005C02000083
:10C34000644BFFFF0400000000000000100000002C
:10C3500070020000584DFFFF0400000000000000C4
:10C360001000000000000000017A520001040101E9
:10C370001B0D02001000000018000000404DFFFFE0
:10C380001000000000000000100000002C00000061
:10C390003C4DFFFF100000000000000010000000F6
:10C3A00000000000017A5200010401011B0D02008F
:10C3B0003400000018000000244DFFFF3C0700007F
:10C3C00000440E306C11097D11137B11017F11089F
:10C3D0007E11127C11147A111579111678111777C4
:10C3E00011187611197500001000000000000000FF
:10C3F000017A5200010401011B0D0200100000002F
:10C40000180000001454FFFF20010000000000008D
:10C410001000000000000000017A52000104010138
:10C420001B0D020010000000180000000C55FFFF5B
:10C430000400000000000000100000002C000000BC
:10C44000FC54FFFF0400000000000000100000008A
:10C4500000000000017A5200010401011B0D0200DE
:10C460001400000018000000D854FFFF4400000032
:10C4700000440E406C1101771400000030000000F1
:10C480000455FFFF54000000004C0E40741101776A
:10C490001000000000000000017A520001040101B8
:10C4A0001B0D02003C000000180000004056FFFF7A
:10C4B000D81C000000440EC0025011017F11087EFC
:10C4C000111876111A747011097D11127C11137BE9
:10C4D00011147A1115791116781117771119751130
:10C4E0001B7300001000000058000000D872FFFF0E
:10C4F0001800000000000000200000006C00000098
:10C50000DC72FFFFC000000000580E8009501108C7
:10C510007E5811097D11127C11017F00100000006E
:10C5200000000000017A5200010401011B0D02000D
:10C530001C000000180000006473FFFF5801000099
:10C54000004C0E104C11087E11097D11017F000076
:10C550001000000000000000017A520001040101F7
:10C560001B0D020028000000180000008874FFFF67
:10C57000E801000000440E204811127C5C11017F8C
:10C5800011087E11097D11137B11147A11157900A0
:10C590003C000000440000004476FFFFBC14000093
:10C5A00000480EA0017411087E11127C11147A113A
:10C5B000197511017F11097D11137B111579111660
:10C5C00078111777111876111A74111B7300000077
:10C5D0001000000000000000017A52000104010177
:10C5E0001B0D02002000000018000000AC8AFFFFB5
:10C5F0009002000000480E205C11087E11137B1190
:10C60000017F11097D11127C180000003C00000020
:10C61000188DFFFF5C00000000440E204811087ECA
:10C6200011017F001000000058000000588DFFFF2E
:10C6300028000000000000001000000000000000C2
:10C64000017A5200010401011B0D020010000000DC
:10C6500018000000588DFFFF0800000000000000D7
:10C66000100000002C0000004C8DFFFF0C000000AB
:10C67000000000002C00000040000000448DFFFF7F
:10C680009001000000440E205011017F11087E111E
:10C69000097D5811127C11137B11147A111579112F
:10C6A000167800001000000070000000A48EFFFF4C
:10C6B00008000000000000002000000084000000CE
:10C6C000988EFFFF7000000000440E104811087E95
:10C6D0005011127C5011097D11017F0024000000CF
:10C6E000A8000000E48EFFFF0C01000000440E20B3
:10C6F0004811127C5811137B11017F11087E11091A
:10C700007D00000010000000D0000000C88FFFFF77
:10C71000140000000000000010000000E400000011
:10C72000C88FFFFF10000000000000001000000094
:10C73000F8000000C48FFFFF0400000000000000AC
:10C74000100000000C010000B48FFFFF0400000087
:10C75000000000001000000020010000A48FFFFF77
:10C760000400000000000000100000003401000080
:10C77000948FFFFF04000000000000001000000084
:10C7800048010000848FFFFF14000000000000003B
:10C79000100000005C010000848FFFFF1400000007
:10C7A000000000001000000000000000017A5200AC
:10C7B000010401011B0D020024000000180000000C
:10C7C000708FFFFF0C01000000440E204411127C0A
:10C7D0004C11087E11097D4C11137B11017F000063
:10C7E00030000000400000005490FFFFE80200000D
:10C7F00000480E104811087E11097D4C11017F027E
:10C80000E80E00C1C8C9440E1011017F11087E1145
:10C81000097D00001000000000000000017A5200B5
:10C82000010401011B0D02002C0000001800000093
:10C83000F492FFFFB000000000440E206011157953
:10C8400011017F11087E11097D11127C11137B11DA
:10C85000147A1116780000002C0000004800000037
:10C860007493FFFFC000000000440E30641116787E
:10C8700011017F11087E11097D11127C11137B11AA
:10C88000147A1115791117771000000000000000CC
:10C89000017A5200010401011B0D02001C0000007E
:10C8A00018000000F093FFFF7800000000440E1015
:10C8B0004C11097D11017F11087E0000100000005D
:10C8C000380000004894FFFF0C000000000000004A
:10C8D000100000004C0000004094FFFF0C0000001E
:10C8E0000000000010000000600000003894FFFF0E
:10C8F0000C000000000000001000000074000000A8
:10C900003094FFFF0800000000000000100000004D
:10C91000880000002494FFFF0C00000000000000CD
:10C92000100000009C0000001C94FFFF1400000099
:10C930000000000010000000B00000001C94FFFF89
:10C940000C000000000000001000000000000000CB
:10C95000017A5200010401011B0D020024000000B5
:10C96000180000000094FFFF9001000000480E90A6
:10C97000014411097D5811017F11087E11127C11AB
:10C98000137B00001000000000000000017A52003C
:10C99000010401011B0D020010000000180000003E
:10C9A0005495FFFFD80000000000000010000000B8
:10C9B00000000000017A5200010401011B0D020079
:10C9C0002000000018000000E096FFFFA400000017
:10C9D00000480E105011087E11097D11017F1112BF
:10C9E0007C000000100000003C0000006097FFFF8A
:10C9F000240000000000000024000000500000009F
:10CA00007097FFFF1001000000440E305011087EA7
:10CA100011097D11127C5411017F11137B0000005C
:10CA200028000000780000005898FFFF0401000073
:10CA300000440E204811137B6411087E11097D11FA
:10CA4000127C11147A11017F111579001000000079
:10CA5000A40000003099FFFF7C00000000000000EF
:10CA600010000000B80000009899FFFFB00000001F
:10CA70000000000018000000CC000000349AFFFF06
:10CA80003400000000440E104411087E4C11017F58
:10CA900024000000E80000004C9AFFFFF0010000B5
:10CAA00000440E204811137B11147A5811097D118E
:10CAB000127C11017F11087E20000000100100008F
:10CAC000149CFFFF3801000000440E205411087E22
:10CAD00011127C11137B11017F11097D28000000C8
:10CAE00034010000289DFFFF5001000000440E208B
:10CAF0004411147A4C11087E5C11097D11127C11CD
:10CB0000137B11157911017F1000000060010000F6
:10CB10004C9EFFFF600000000000000024000000A9
:10CB200074010000989EFFFFF4010000004C0E20ED
:10CB30005811127C11137B11017F11087E11097DA0
:10CB400011147A00100000009C01000064A0FFFF97
:10CB50007C0000000000000028000000B001000080
:10CB6000CCA0FFFF3001000000440E204411087EDD
:10CB70004811097D5011127C5011137B11147A4811
:10CB800011017F0028000000DC010000D0A1FFFFA0
:10CB90004401000000440E304C11087E11097D5400
:10CBA00011127C11137B11147A1115794811017F30
:10CBB0002400000008020000E8A2FFFFAC00000013
:10CBC00000440E304411127C5811017F11087E116F
:10CBD000097D11137B0000002000000030020000DE
:10CBE0006CA3FFFF8000000000440E105011087E6F
:10CBF00011017F11127D11137C0000001000000054
:10CC000054020000C8A3FFFF6800000000000000FD
:10CC100010000000680200001CA4FFFF8400000058
:10CC2000000000001000000000000000017A520027
:10CC3000010401011B0D020010000000180000009B
:10CC400078A4FFFF74000000000000001000000046
:10CC500000000000017A5200010401011B0D0200D6
:10CC60001800000018000000C4A4FFFF7C000000B2
:10CC700000480E104411087E5011017F1000000082
:10CC80003400000024A5FFFF0800000000000000A1
:10CC9000200000004800000018A5FFFF78000000F9
:10CCA00000480E105011087E11097D11127C1101EF
:10CCB0007F000000180000006C0000006CA5FFFF62
:10CCC0006C00000000480E104811087E11017F0022
:10CCD0001000000088000000BCA5FFFF0800000055
:10CCE000000000001000000000000000017A520067
:10CCF000010401011B0D02001000000018000000DB
:10CD00009CA5FFFF90000000000000001000000044
:10CD100000000000017A5200010401011B0D020015
:10CD20002C0000001800000004A6FFFFE80000002F
:10CD300000480E306411167811017F11087E110928
:10CD40007D11127C11137B11147A1115791117774B
:10CD50001000000048000000BCA6FFFF1800000003
:10CD6000000000003C0000005C000000C0A6FFFFC7
:10CD70002C10000000440EF0017411097D1115798A
:10CD8000111A7411017F11087E11127C11137B118D
:10CD9000147A111678111777111876111975111B5D
:10CDA00073000000100000009C000000ACB6FFFF04
:10CDB000180000000000000020000000B00000008B
:10CDC000B0B6FFFFC000000000580E8009501108E7
:10CDD0007E5811097D11127C11017F0010000000A6
:10CDE00000000000017A5200010401011B0D020045
:10CDF000180000001800000038B7FFFFB400000062
:10CE000000480E104811017F11087E00100000003C
:10CE100000000000017A5200010401011B0D020014
:10CE20002800000018000000BCB7FFFFF000000061
:10CE300000480E105011087E11097D11017F11125A
:10CE40007C02EC0E00C1C8C9D20000001000000036
:10CE50004400000080B8FFFF100000000000000048
:10CE60001000000000000000017A520001040101DE
:10CE70001B0D02002C0000001800000068B8FFFF26
:10CE80006001000000440E306011087E11147A1118
:10CE9000157911017F11097D11127C11137B111677
:10CEA00078000000100000004800000098B9FFFF63
:10CEB00028000000000000001C0000005C000000D2
:10CEC000ACB9FFFF8000000000440E204811087E2E
:10CED0004C11097D11017F001000000000000000CE
:10CEE000017A5200010401011B0D020070000000D4
:10CEF00018000000F8B9FFFF9804000000500E3041
:10CF00007011087E11147A11157911017F11097DB4
:10CF100011127C11137B11167811177711187611E5
:10CF20001975111A740388010E00C1C8C9D2D3D46F
:10CF3000D5D6D7D8D9DA4C0E3011017F11087E1121
:10CF4000097D11127C11137B11147A1115791116B8
:10CF500078111777111876111975111A74000000DD
:10CF60001000000000000000017A520001040101DD
:10CF70001B0D0200100000001800000008BEFFFF9B
:10CF80002001000000000000100000000000000070
:10CF9000017A5200010401011B0D02003000000063
:10CFA0001800000000BFFFFF7C05000000440E30A9
:10CFB0006811097D11017F11087E11127C11137B0C
:10CFC00011147A1115791116781117771118760046
:10CFD0001000000000000000017A5200010401016D
:10CFE0001B0D0200200000001800000034C4FFFFE9
:10CFF0006001000000440E205411087E11097D11CB
:10D00000137B11017F11127C100000003C00000016
:10D0100070C5FFFF140000000000000010000000B9
:10D0200000000000017A5200010401011B0D020002
:10D0300024000000180000005CC5FFFFB0000000E5
:10D0400000440E305811097D11127C11017F110826
:10D050007E11137B11147A002400000040000000B0
:10D06000E4C5FFFFB400000000440E305C11097DF0
:10D0700011127C11017F11087E11137B11147A00AB
:10D080001000000000000000017A520001040101BC
:10D090001B0D020010000000180000005CC6FFFF1E
:10D0A0003000000000000000240000002C00000000
:10D0B00078C6FFFF7000000000440E204811087E73
:10D0C0005811017F11097D11127C11137B11147A03
:10D0D0001000000000000000017A5200010401016C
:10D0E0001B0D02001000000018000000ACC6FFFF7E
:10D0F00034000000000000001000000000000000EC
:10D10000017A5200010401011B0D02001000000011
:10D1100018000000B8C6FFFFC801000000000000B2
:10D12000100000002C0000006CC8FFFF5C01000034
:10D13000000000001000000040000000B4C9FFFF24
:10D14000D80000000000000014000000540000009F
:10D1500078CAFFFF4800000000440E505411017FC0
:10D16000140000006C000000A8CAFFFF540000007B
:10D1700000440E505411017F140000008400000090
:10D18000E4CAFFFFA401000000440E505411017FC7
:10D19000140000009C00000070CCFFFF2C01000078
:10D1A00000440E405411017F10000000B400000044
:10D1B00084CDFFFFD4000000000000001400000038
:10D1C000C800000044CEFFFF4000000000440E40B5
:10D1D0005411017F14000000E00000006CCEFFFF3E
:10D1E0005800000000440E405411017F1000000060
:10D1F000F8000000ACCEFFFF0400000000000000BB
:10D20000140000000C0100009CCEFFFF5400000041
:10D2100000440E405411017F100000002401000062
:10D22000D8CEFFFF04000000000000001000000046
:10D2300038010000C8CEFFFF04000000000000001D
:10D24000100000004C010000B8CEFFFF04000000F9
:10D25000000000001400000060010000A8CEFFFFE5
:10D260004800000000440E405411017F18000000E7
:10D2700078010000D8CEFFFFA800000000440E2077
:10D280005011017F11087E001C0000009401000075
:10D2900064CFFFFF9800000000440E204C11017F76
:10D2A00011087E11097D000014000000B401000087
:10D2B000DCCFFFFF8C00000000440E305011017FD6
:10D2C00014000000CC01000050D0FFFF3800000027
:10D2D00000440E305011017F14000000E4010000F2
:10D2E00070D0FFFF2C00000000440E204C11017F85
:10D2F00014000000FC01000084D0FFFF400000008B
:10D3000000440E305011017F1000000000000000AA
:10D31000017A5200010401011B0D020010000000FF
:10D320001800000098D0FFFF50030000000000002C
:10D33000100000002C000000D4D3FFFF44020000C6
:10D3400000000000100000004000000004D6FFFFB5
:10D350002001000000000000140000005400000044
:10D3600010D7FFFF5000000000440E705411017FE1
:10D37000140000006C00000048D7FFFF5C000000B4
:10D3800000440E705411017F14000000840000005E
:10D390008CD7FFFF6402000000440E705811017F1B
:10D3A000140000009C000000D8D9FFFFA401000079
:10D3B00000440E505811017F10000000B40000001E
:10D3C00064DBFFFFE8000000000000001400000024
:10D3D000C800000038DCFFFF4800000000440E5089
:10D3E0005411017F14000000E000000068DCFFFF22
:10D3F0006000000000440E505411017F1000000036
:10D40000F8000000B0DCFFFF040000000000000096
:10D41000140000000C010000A0DCFFFF5C00000015
:10D4200000440E505411017F100000002401000040
:10D43000E4DCFFFF0400000000000000100000001A
:10D4400038010000D4DCFFFF0400000000000000F1
:10D45000100000004C010000C4DCFFFF04000000CD
:10D46000000000001400000060010000B4DCFFFFB9
:10D470005000000000440E505411017F18000000BD
:10D4800078010000ECDCFFFFC400000000440E3017
:10D490005011017F11087E00180000009401000067
:10D4A00094DDFFFF8800000000440E304811017F2A
:10D4B00011087E0014000000B001000000DEFFFF34
:10D4C000BC00000000440E305411017F1400000025
:10D4D000C8010000A4DEFFFF3C00000000440E3045
:10D4E0005411017F14000000E0010000C8DEFFFFBE
:10D4F0003000000000440E304C11017F1400000089
:10D50000F8010000E0DEFFFF5800000000440E308C
:10D510005411017F1000000000000000017A520049
:10D52000010401011B0D02001000000018000000A2
:0CD530000CDFFFFF700000000000000096
:04D53C00AC1000002F
:10D5400000000000000000000000000400000004D3
:10D55000080000040800000410000004100000048B
:10D56000180000041800000420000004200000043B
:10D5700028000004280000043000000430000004EB
:10D58000380000043800000440000004400000049B
:10D59000480000044800000450000004500000044B
:10D5A00058000004580000046000000460000004FB
:10D5B00068000004680000047000000470000004AB
:10D5C000780000047800000480000004800000045B
:10D5D000880000048800000490000004900000040B
:10D5E0009800000498000004A0000004A0000004BB
:10D5F000A8000004A8000004B0000004B00000046B
:10D60000B8000004B8000004C0000004C00000041A
:10D61000C8000004C8000004D0000004D0000004CA
:10D62000D8000004D8000004E0000004E00000047A
:10D63000E8000004E8000004F0000004F00000042A
:10D64000F8000004F80000040001000400010004D8
:10D650000801000408010004100100041001000486
:10D660001801000418010004200100042001000436
:10D6700028010004280100043001000430010004E6
:10D680003801000438010004400100044001000496
:10D690004801000448010004500100045001000446
:10D6A00058010004580100046001000460010004F6
:10D6B00068010004680100047001000470010004A6
:10D6C0007801000478010004800100048001000456
:10D6D0008801000488010004900100049001000406
:10D6E0009801000498010004A0010004A0010004B6
:10D6F000A8010004A8010004B0010004B001000466
:10D70000B8010004B8010004C0010004C001000415
:10D71000C8010004C8010004D0010004D0010004C5
:10D72000D8010004D8010004E0010004E001000475
:10D73000E8010004E8010004F0010004F001000425
:10D74000F8010004F80100040002000400020004D3
:10D750000802000408020004100200041002000481
:10D760001802000418020004200200042002000431
:10D7700028020004280200043002000430020004E1
:10D780003802000438020004400200044002000491
:10D790004802000448020004500200045002000441
:10D7A00058020004580200046002000460020004F1
:10D7B00068020004680200047002000470020004A1
:10D7C0007802000478020004800200048002000451
:10D7D0008802000488020004900200049002000401
:10D7E0009802000498020004A0020004A0020004B1
:10D7F000A8020004A8020004B0020004B002000461
:10D80000B8020004B8020004C0020004C002000410
:10D81000C8020004C8020004D0020004D0020004C0
:10D82000D8020004D8020004E0020004E002000470
:10D83000E8020004E8020004F0020004F002000420
:10D84000F8020004F80200040003000400030004CE
:10D85000080300040803000410030004100300047C
:10D86000180300041803000420030004200300042C
:10D8700028030004280300043003000430030004DC
:10D88000380300043803000440030004400300048C
:10D89000480300044803000450030004500300043C
:10D8A00058030004580300046003000460030004EC
:10D8B000680300046803000470030004700300049C
:10D8C000780300047803000480030004800300044C
:10D8D00088030004880300049003000490030004FC
:10D8E0009803000498030004A0030004A0030004AC
:10D8F000A8030004A8030004B0030004B00300045C
:10D90000B8030004B8030004C0030004C00300040B
:10D91000C8030004C8030004D0030004D0030004BB
:10D92000D8030004D8030004E0030004E00300046B
:10D93000E8030004E8030004F0030004F00300041B
:10D94000F8030004F803000400000000F8060004D7
:10D9500068070004D8070004000000000000000071
:10D9600000000000000000000000000000000000B7
:10D970000000000000000000000000008CBC00005F
:10D980000000000000000000000000000000000097
:10D990000000000000000000000000000000000087
:10D9A0000000000000000000000000000000000077
:10D9B0000000000000000000000000000000000067
:10D9C0000000000000000000000000000000000057
:10D9D0000000000000000000000000000000000047
:10D9E0000000000000000000000000000000000037
:10D9F00001000000000000000E33CDAB34126DE6D4
:10DA0000ECDE05000B00000000000000000000003C
:10DA10000000000000000000000000000000000006
:10DA200000000000000000000000000000000000F6
:10DA300000000000000000000000000000000000E6
:10DA400000000000000000000000000000000000D6
:10DD8000000000000000000041534349490000002A
:10DD90000000000000000000000000000000000083
:10DDA000000000000000000041534349490000000A
:10DDB0000000000000000000000000000000000063
:10DDC000000000000000000098BC00006CB70000DC
:10DDD0006CB700006CB700006CB700006CB70000B7
:10DDE0006CB700006CB700006CB700006CB70000A7
:10DDF000FFFFFFFFFFFFFFFFFFFFFFFFFFFF000031
:10DE00000C090004FFFFFFFF0000020008040004EB
:0CDE10000804000401000000F896000067
:0400000300000200F7
:00000001FF
