:1000000013000000130101F8232031002322110006
:10001000232421002326310023284100232A5100D4
:10002000232C6100232E71002320810223229102C0
:100030002324A1022326B1022328C102232AD102AC
:10004000232CE102232EF102232001052322110596
:10005000232421052326310523284105232A510580
:10006000232C6105232E710523208107232291076C
:100070002324A1072326B1072328C107232AD10758
:10008000232CE107232EF107130000000B4500028B
:10009000EF00807A1300000013000000130000003E
:1000A000832041008321C1000322010183224101F9
:1000B000032381018323C10103240102832441021C
:1000C000032581028325C102032601038326410300
:1000D000032781038327C1030328010483284104E4
:1000E000032981048329C104032A0105832A4105C8
:1000F000032B8105832BC105032C0106832C4106AC
:10010000032D8106832DC106032E0107832E41078F
:10011000032F8107832FC107130101080B00000083
:100120001300000013000000130000001300000083
:100130001300000013000000130000001300000073
:100140001300000013000000130000001300000063
:100150001300000013000000130000001300000053
:100160001300000013000000130000001300000043
:100170001300000013000000130000001300000033
:100180001300000013000000130000001300000023
:100190001300000013000000130000001300000013
:1001A0001300000013000000130000001300000003
:1001B00013000000130000001300000013000000F3
:1001C00013000000130000001300000013000000E3
:1001D00013000000130000001300000013000000D3
:1001E00013000000130000001300000013000000C3
:1001F00013000000130000001300000013000000B3
:10020000930000001301000093010000130200009E
:100210009302000013030000930300001304000086
:10022000930400001305000093050000130600006E
:100230009306000013070000930700001308000056
:10024000930800001309000093090000130A00003E
:10025000930A0000130B0000930B0000130C000026
:10026000930C0000130D0000930D0000130E00000E
:10027000930E0000130F0000930F000017410004BD
:100280001301C1CAEF000002EF0040061305F00F92
:100290000B200504EF10405F130E100073000000E8
:1002A0006F000000130E1000130500009305D0002E
:1002B00017060000130646022320B6000F100000A8
:1002C00013000000130000001300000013000000E2
:1002D000130000001305150063140500678000007B
:1002E000131E1E00136E1E0073000000371500045D
:1002F000B7370004938787121306C58D130101FFDA
:100300003386C740930500001305C58D23261100D1
:10031000EF20503637050004B71700049387C78DC8
:1003200013060500B72501003386C7409385850471
:1003300013050500EF201022B717000483A5078CD2
:10034000371700048320C1009385150023A0B78CC4
:100350008327C78D37F5000013058568938717003D
:100360001386070013010101232EF78C6F20104321
:100370009307803E130000001300000013000000EC
:100380001300000013000000130000001300000021
:100390001300000013000000130000001300000011
:1003A000130000009387F7FFE39607FC67800000C7
:1003B0006F00C0001305000067800000130101FFFB
:1003C00023261100EFF0DFFA8320C100130500009F
:1003D0001301010167800000130101FF23261100B2
:1003E000EFF01FF98320C100130500001301010184
:1003F00067800000130101FF23261100EFF05FF773
:100400008320C10013050000130101016780000073
:1004100093070500130500006382070213F7170016
:10042000B306B50093D717006304070013850600D1
:1004300093951500E39407FE678000006780000035
:10044000B70600F03707FFFF83A74600B3F7E700C2
:10045000E38C07FEB70700F023A0A7006780000029
:10046000130101FF2324810023261100130405003A
:1004700003450500630A050013041400EFF05FFC58
:1004800003450400E31A05FE8320C1000324810014
:100490001301010167800000130101FF2322910075
:1004A00023202101232611002324810013090600A3
:1004B000B384C500630C06001384050003450400E3
:1004C00013041400EFF0DFF7E39A84FE8320C100E9
:1004D000130509000324810083244100032901003E
:1004E0001301010167800000B70700F023A2070491
:1004F00067800000B70700F003A5070467800000CD
:100500006FF05FFF130101FD13061500232C41015D
:10051000130A0500131526009307250123248102E1
:10052000232611022322910223202103232E3101AD
:10053000232A5101232861012326710193F707FF24
:10054000130401033301F14063480A0A93070100D1
:1005500093060100130700009305007D23A0B60059
:100560001307170093864600E31AC7FE6356400937
:10057000372900001305C5FF931A1A0013090971E2
:10058000B7F90000338BA700938AFAFF93050000A8
:100590009389C969930B090013850A0013060B00A0
:1005A00093060A009304000003270600B38796020F
:1005B0001306C6FF9386F6FF33072703B307F7003A
:1005C00033E7A7022322E600B3C4A7021305E5FF21
:1005D000E39C06FCB3C7740313850900130A2AFFC2
:1005E000130B8BFC938A4AFEB385B700EF20101BD8
:1005F000B3E57403E34240FB130104FD8320C10211
:100600000324810283244102032901028329C101B9
:10061000032A8101832A4101032B0101832BC1009D
:100620001301010367800000130101FE9307A0007E
:100630002324F100930750002326F1008327810033
:100640000327C10037F500001305856AB387E70269
:10065000232E11002324F10083258100EF201014A4
:100660008320C1011301010267800000130101FE14
:100670001307F0FF2320E1009307F0002322F1008D
:100680001307F00F2324E100930700002326F10055
:100690000328010083284100032681008326C1002E
:1006A000232C8100B385C80237F40000130484684A
:1006B0001305C402232E1100338306033307C80237
:1006C000B3866500B337C8022320E100B387F60084
:1006D0002322F10003270100032641008327410064
:1006E00093050700EF20900B0326010083264100AD
:1006F0001305C403EF20900A8320C1010324810164
:100700001301010267800000130101FC232C810208
:1007100037F4000013048468032704058327440585
:10072000232E11022328E100232AF10003250101D1
:10073000832541010326010183264101232A9102D9
:100740002328210323263103EFE00050832784056B
:10075000232CA100232EB1002326F1000325C10084
:100760008325C1008329C1001309C405EFD0006DA2
:10077000930404070324C10093850900EFD0006CA3
:1007800093050400EFD0806B2326A100032501010F
:100790008325410103244101EFE0D04F930505007B
:1007A0001306040013050900EF20407F0326010112
:1007B0008326410113850400EF20407E032581013B
:1007C0008325C1010324C101EFE0D04C13060400CE
:1007D0009305050013050900EF20407C03268101E5
:1007E0008326C10113850400EF20407B8320C103D1
:1007F0000324810383244103032901038329C102C4
:100800001301010467800000130101FF9305050037
:1008100023261100EFD080628320C1001301010163
:10082000678000001375F50F230CA0FE67800000A1
:10083000130510006FF01FFF130101FF2324810037
:10084000370400F0832744002326110093F7071094
:10085000638E0700032504001375F50FEFF05FBEEC
:100860008327440093F70710E39607FE8320C10017
:100870000324810013050000130101016FF09FFAAA
:10088000130101FE232C8100232E1100EFF09FC6DF
:10089000930710002322F100232401009307400650
:1008A000130405002326F1008327C1001387F7FFF7
:1008B0002326E100638E0702832741006388070037
:1008C00013000000130000001300000083278100C4
:1008D000E38C07FC1300000013000000130000006D
:1008E0008327C1001387F7FF2326E100E39607FC67
:1008F000EFF05FC0B305854037F500001305857044
:10090000EF20C0698320C10103248101130101028A
:1009100067800000B70700F023A8A70067800000E9
:10092000B70700F003A5070167800000B70700F0D4
:1009300003A507026780000037F50000130101FDE1
:10094000130585712326110223248102232291029B
:1009500023202103232E3101232C4101232A51017D
:10096000EFF01FB037F40000EFF05FFC1304846871
:10097000B714030013750504938404D4B7FA000078
:1009800037FA0000B7F900001309840B6306050A63
:10099000EF00506AEFF09FF91375F5039357154078
:1009A00093871700B3879702130000009387F7FF20
:1009B000E39C07FEEF0010699307A00213850A72FB
:1009C0002324F100EF20805D8325810013058A72C6
:1009D000EF20C05C9305900013850973EF20005C45
:1009E000EFF0DFF41375F503935715409387170065
:1009F000B3879702130000009387F7FFE39C07FE7D
:100A0000EF0010658327040B8325440B2326F10098
:100A10000325C100EFD08042EFD0D033130605008C
:100A20009386050013050900EF204057EFF01FF0F3
:100A300013750504E31E05F48320C102032481021B
:100A400083244102032901028329C101032A810170
:100A5000832A410113010103678000001305A500EB
:100A6000678000009317E50193D7F701638E0704B1
:100A700037B70400B75602002310B5001303E7FF91
:100A80009386F67F9308F7FF13081000139605016D
:100A90009397170033E6C500B307F500130700006E
:100AA00023A0C7001307170093874700E36AD7FE08
:100AB000B307030163886800939717003305F500B7
:100AC0002310B5006780000037B30400B76602004A
:100AD0009386068093080300130800006FF01FFB45
:100AE000130101FB2324810337FC0000130C8C68E5
:100AF0002322910423202105B70700808324CC0CF6
:100B000003290C0E93C7F7FF232A51032320A103C7
:100B10002326110423248104232E3103232C410393
:100B2000232861032326710323229103232EB1017D
:100B30002324A100130D0000232201002326F1002D
:100B4000930A05009305000013850400EFD04025AB
:100B5000930505002320A100EFD0402E930C050043
:100B6000930900006F00405C93050A0013050A001A
:100B7000EFD0002383250100EFD0402C93850400A3
:100B8000EFD00022130A050093850C0013050B001B
:100B9000EFD0802593050400EFD080209305050059
:100BA000930D0500EFD08029130B050093050A0073
:100BB00013050A00EFD0802893050500930B05006C
:100BC00013050B00EFD0C01D93050900EFD0407056
:100BD000635E056093850D0013850D00EFD0401C0A
:100BE00093050A00EFD080259305050013850400C6
:100BF000EFD0001B130A050093850B0013050B00B3
:100C0000EFD0801E93050400EFD0801993050500F6
:100C1000930D0500EFD08022130B050093050A0009
:100C200013050A00EFD0802193050500930B050002
:100C300013050B00EFD0C01693050900EFD04069F3
:100C4000635C055A93850D0013850D00EFD04015A8
:100C500093050A00EFD0801E93050500138504005C
:100C6000EFD00014130A050093850B0013050B0049
:100C7000EFD0801793050400EFD080129305050094
:100C8000930D0500EFD0801B130B050093050A00A0
:100C900013050A00EFD0801A93050500930B050099
:100CA00013050B00EFD0C00F93050900EFD0406291
:100CB000635A055493850D0013850D00EFD0400E47
:100CC00093050A00EFD080179305050013850400F3
:100CD000EFD0000D130A050093850B0013050B00E0
:100CE000EFD0801093050400EFD0800B9305050032
:100CF000930D0500EFD08014130B050093050A0037
:100D000013050A00EFD0801393050500930B05002F
:100D100013050B00EFD0C00893050900EFD0405B2E
:100D20006358054E93850D0013850D00EFD04007E5
:100D300093050A00EFD08010930505001385040089
:100D4000EFD00006130A050093850B0013050B0076
:100D5000EFD0800993050400EFD0800493050500CF
:100D6000930D0500EFD0800D130B050093050A00CD
:100D700013050A00EFD0800C93050500930B0500C6
:100D800013050B00EFD0C00193050900EFD04054CC
:100D90006356054893850D0013850D00EFD0400084
:100DA00093050A00EFD08009930505001385040020
:100DB000EFC0107F130A050093850B0013050B008D
:100DC000EFD0800293050400EFC0907D93050500ED
:100DD000930D0500EFD08006130B050093050A0064
:100DE00013050A00EFD0800593050500930B05005D
:100DF00013050B00EFC0D07A93050900EFD0404DEA
:100E00006354054293850D0013850D00EFC05079A2
:100E100093050A00EFD080029305050013850400B6
:100E2000EFC01078130A050093850B0013050B0023
:100E3000EFC0907B93050400EFC09076930505000A
:100E4000930D0500EFC0907F130B050093050A007A
:100E500013050A00EFC0907E93050500930B050073
:100E600013050B00EFC0D07393050900EFD0404687
:100E70006352053C93850D0013850D00EFC0507241
:100E800093050A00EFC0907B9305050013850400CD
:100E9000EFC01071130A050093850B0013050B00BA
:100EA000EFC0907493050400EFC0906F93050500A8
:100EB000930D0500EFC09078130B050093050A0011
:100EC00013050A00EFC0907793050500930B05000A
:100ED00013050B00EFC0D06C93050900EFD0403F25
:100EE0006350053693850D0013850D00EFC0506BE0
:100EF00093050A00EFC09074930505001385040064
:100F0000EFC0106A130A050093850B0013050B0050
:100F1000EFC0906D93050400EFC090689305050045
:100F2000930D0500EFC09071130B050093050A00A7
:100F300013050A00EFC0907093050500930B0500A0
:100F400013050B00EFC0D06593050900EFD04038C2
:100F5000635E052E93850D0013850D00EFC0506470
:100F600093050A00EFC0906D9305050013850400FA
:100F7000EFC01063130A050093850B0013050B00E7
:100F8000EFC0906693050400EFC0906193050500E3
:100F9000930D0500EFC0906A130B050093050A003E
:100FA00013050A00EFC0906993050500930B050037
:100FB00013050B00EFC0D05E83250C0EEFD040313F
:100FC000635C052893850D0013850D00EFC0505D0F
:100FD00093050A00EFC09066930505001385040091
:100FE000EFC0105C130A050093850B0013050B007E
:100FF000EFC0905F93050400EFC0905A9305050081
:10100000930D0500EFC09063130B050093050A00D4
:1010100013050A00EFC0906293050500930B0500CD
:1010200013050B00EFC0D05783250C0EEFD0402ADC
:10103000635A052293850D0013850D00EFC05056AD
:1010400093050A00EFC0905F930505001385040027
:10105000EFC01055130A050093850B0013050B0014
:10106000EFC0905893050400EFC09053930505001E
:10107000930D0500EFC0905C130B050093050A006B
:1010800013050A00EFC0905B93050500930B050064
:1010900013050B00EFC0D05083250C0EEFD040237A
:1010A0006358051C93850D0013850D00EFC0504F4C
:1010B00093050A00EFC090589305050013850400BE
:1010C000EFC0104E130A050093850B0013050B00AB
:1010D000EFC0905193050400EFC0904C93050500BC
:1010E000EFC0D0551304050093050A0013050A004C
:1010F000EFC0D0549305050013050400EFC0504A1B
:1011000083250C0EEFD0C01C635A0516130DFD008D
:101110009307E0012390FA009389190093070008D0
:10112000938A2A006388F90613850900EFD0801F8F
:10113000B7F7000083A58775EFC05050B7F70000E0
:1011400083A54776EFC0504A9305000013040500BD
:10115000EFC0104593050500130A0500EFC0104EBF
:1011600093850C00130B0500EFC090439305090015
:10117000EFD00016E34A059E930720002390FA0063
:101180009389190093070008130D1D00938A2A0004
:10119000E39CF9F883274100938717002322F1008D
:1011A0006384370F13850700EFD0C01783250C0D1C
:1011B000EFC0D04883254C0DEFC010438327C100FA
:1011C00083258C0D930405003375F500EFD0401096
:1011D0006354050093040000832781009387075020
:1011E0002324F100938A07006FF0DF95130D2D0083
:1011F000930740006FF01FF2130D3D00930760004E
:101200006FF05FF1130D4D00930780006FF09FF0BA
:10121000130D5D009307A0006FF0DFEF130D6D005D
:101220009307C0006FF01FEF130D7D009307E000E0
:101230006FF05FEE130D8D00930700016FF09FEDCF
:10124000130D9D00930720016FF0DFEC130DAD002F
:10125000930740016FF01FEC130DBD009307600171
:101260006FF05FEB130DCD00930780016FF09FEAE5
:10127000130DDD009307A0016FF0DFE9130DED0002
:101280009307C0016FF01FE98320C10413050D000F
:101290000324810483244104032901048329C10315
:1012A000032A8103832A4103032B0103832BC102F9
:1012B000032C8102832C4102032D0102832DC101E5
:1012C0001301010567800000130101FF9305F00180
:1012D00037051000232611002324810023229100CA
:1012E000EFF04FF8EFF00FA1EFF0CFA0EFF08FA0ED
:1012F0001304050037051000EFF08FFE930405007E
:10130000EFF04F9FB3058540B3C6950213860400E6
:101310008320C100032481008324410037F50000AD
:101320001305C576130101016F105047130101FE2B
:10133000232C8100232E1100232A910093074006BD
:101340002320F50093077000130405002322F50005
:101350008327C40093F71700E39C07FE9307300729
:101360002324F4008327C40013F71700E30C07FEBF
:1013700093D717002304F100930710062324F400E9
:101380008327C40013F71700E30C07FE93D7170059
:10139000A304F1009307C0062324F4008327C400AC
:1013A00013F71700E30C07FE93D717002305F1008E
:1013B000930750072324F4008327C40013F7170072
:1013C000E30C07FE93D71700A305F100930740072E
:1013D0002324F4008327C40013F71700E30C07FE4F
:1013E000B7F4000093D71700930581001385847A22
:1013F0002306F100A3060100EF10503A9307000303
:101400002324F40083278400E39E07FE9307100340
:101410002324F40083278400E39E07FE9307200320
:101420002324F40083278400E39E07FE9307300300
:101430002324F40083278400E39E07FE93074003E0
:101440002324F40083278400E39E07FE37F5000081
:101450001305C57AEF1090340328C4000326C40096
:101460008326C4000327C4008327C4001358180030
:101470001356160093D616001357170093D717006C
:10148000930581001385847A23040101A304C1001C
:101490002305D100A305E1002306F100EF10103071
:1014A0008320C1010324810183244101130101022E
:1014B0006780000013071000B70700F023A2E700C1
:1014C0006FF08F82B70600F01307400623A0E608EE
:1014D0001307700023A2E60883A7C60893F7170036
:1014E000E39C07FE9307300723A4F608370600F0B5
:1014F0008327C60893F61700E38C06FE130101FE4E
:1015000093D717002304F100232E1100232C810010
:10151000232A9100930710062324F608370600F0CB
:101520008327C60893F61700E38C06FE93D71700AF
:10153000A304F1009307C0062324F608370600F041
:101540008327C60893F61700E38C06FE93D717008F
:101550002305F100930750072324F608370600F00F
:101560008327C60893F61700E38C06FE93D717006F
:10157000A305F100930740072324F608B70600F0FF
:1015800083A7C6081384060813F71700E30A07FEAB
:10159000B7F4000093D71700930581001385847A70
:1015A0002306F100A3060100EF10501F930700036C
:1015B0002324F400B70600F003A78608E31E07FE05
:1015C0001307100323A4E608B70600F003A7860854
:1015D000E31E07FE1307200323A4E608B70600F066
:1015E00003A78608E31E07FE1307300323A4E608BB
:1015F000B70600F003A78608E31E07FE13074003A3
:1016000023A4E608370700F0832787081304070898
:10161000E39C07FE37F500001305C57AEF1010189C
:101620008327C400930581001385847A93D717001C
:101630002304F1008327C40093D71700A304F1000B
:101640008327C40093D717002305F1008327C40024
:1016500093D71700A305F1008327C40093D7170081
:101660002306F100EF1090138320C10103248101B0
:10167000832441011301010267800000B70600F0D6
:101680001307400623A0E60A1307700023A2E60A08
:1016900083A7C60A93F71700E39C07FE930730075A
:1016A00023A4F60A370600F08327C60A93F617002C
:1016B000E38C06FE130101FE93D717002304F1000B
:1016C000232E1100232C8100232A9100930710065A
:1016D0002324F60A370600F08327C60A93F617007C
:1016E000E38C06FE93D71700A304F1009307C0060E
:1016F0002324F60A370600F08327C60A93F617005C
:10170000E38C06FE93D717002305F10093075007DB
:101710002324F60A370600F08327C60A93F617003B
:10172000E38C06FE93D71700A305F100930740074B
:101730002324F60AB70600F083A7C60A1384060A14
:1017400013F71700E30A07FEB7F4000093D717005A
:10175000930581001385847A2306F100A306010016
:10176000EF10D003930700032324F400B70600F022
:1017700003A7860AE31E07FE1307100323A4E60A45
:10178000B70600F003A7860AE31E07FE130720032F
:1017900023A4E60AB70600F003A7860AE31E07FEA5
:1017A0001307300323A4E60AB70600F003A7860A4E
:1017B000E31E07FE1307400323A4E60A370700F0E1
:1017C0008327870A1304070AE39C07FE37F5000006
:1017D0001305C57AEF10807C8327C4009305810030
:1017E0001385847A93D717002304F1008327C4005C
:1017F00093D71700A304F1008327C40093D71700E1
:101800002305F1008327C40093D71700A305F10037
:101810008327C40093D717002306F100EF10007848
:101820008320C101032481018324410113010102AA
:10183000678000001307F000B70700F023A8E70057
:1018400067800000B70700F023A80700678000004A
:10185000130101FF23248100370401002326110016
:10186000130540071304848613041400EFE05FBDE2
:1018700003450400E31A05FE8320C1000324810010
:101880001301010167800000130101F6232C810878
:1018900037F4000013048468232E1108232A9108CA
:1018A0002328210923263109EFF0DFC08326040E07
:1018B00003278412130660012322C1008327C41268
:1018C0002324D100832641002328E100232AF100AC
:1018D00013000000130000001300000013000000BC
:1018E00013000000130000001300000013000000AC
:1018F000130000001300000013000000130000009C
:1019000013054000EF00504F9307050093050500B5
:10191000130504132326F100EF1040689305C1005E
:101920001305C413EF108067EFF00F8113058414C3
:10193000EFE01FB3EFE0DFF4EFE09FEFEFE0DFCE8B
:10194000EFE0DFD2EFE05FDC13054415EFE05FB1BD
:1019500083254100930404161385040093855500E4
:10196000EF10C06383254100138504009385250093
:10197000EF10C06203260101832641011305C4173D
:10198000EF10C061032601018326410103270101F5
:101990008327410113058418B385E602B388C70283
:1019A0003338E602B38515013306E602B386050136
:1019B000EF10C05E83244419232491000325810085
:1019C000EFE09FE42324A10003258100832581000B
:1019D000EFC0C046EFC0103813060500938605001F
:1019E00013058419EF10805B032581008325810096
:1019F000EFC0C044EFC01036130605009386050003
:101A00001305841AEF108059EF004027232491001A
:101A100083294100032941008324410003258100DB
:101A200093842400EFC0103393063900B3869602E6
:101A300013070500938705001386A9009305841BEF
:101A40001305C101EF10C0611305C101EFE05FA1F3
:101A5000130000001300000013000000130000003A
:101A6000130000001300000013000000130000002A
:101A7000130000001300000013000000130000001A
:101A80001305441DEFE0DF9DEFE05FEA13751500DD
:101A9000630A0500EFF01FA3EFF05FBEEFF0DF82F7
:101AA0006FF05FFF03258100EFC0D01B8320C109C9
:101AB0000324810983244109032901098329C108D9
:101AC0001301010A67800000B717000403C7978F4E
:101AD000930710046304F700678000008327050064
:101AE000371700040327079093879700B387E740D1
:101AF0002320F50067800000B717000403A6879035
:101B000063080600032706002320E50003A687904C
:101B1000B717000483A507901306C6001305A0009D
:101B20006F00500F130101FF23202101371900041A
:101B30002322910083278990832405002324810098
:101B4000232611001304050013870400938607035E
:101B500003A8070003A5470083A5870003A6C700C5
:101B6000232007012322A7002324B7002326C70030
:101B70009387070113070701E39CD7FC93075000E5
:101B80002326F40023A6F400832704001385040011
:101B900023A0F400EFF05FF683A74400638A0704F4
:101BA00083270400130504001387070303A8070015
:101BB00083A5470003A6870083A6C700232005014D
:101BC0002322B5002324C5002326D50093870701CF
:101BD00013050501E39CE7FC8320C1000324810079
:101BE00083244100032901001301010167800000E3
:101BF0009307600023A6F4000325840093858400E6
:101C0000EF0050138327899003A5C4001386C400F6
:101C100083A707008320C1000324810023A0F400D0
:101C200003290100832441009305A0001301010151
:101C30006F00407EB717000483C7978FB716000464
:101C400003A7C68F9387F7FB93B71700B3E7E700A7
:101C500023AEF68E13072004B7170004238CE78EFB
:101C60006780000013071004B7170004A38CE78EE9
:101C7000B717000423AE078E67800000130101F63A
:101C800013050003232E11082328A1072326B107DB
:101C9000232C8108232A910823282109232631098E
:101CA000232441092322510923206109232E71078E
:101CB000232C8107232A9107EF001014B717000483
:101CC00023A2A79013050003EF001013B717000419
:101CD00083A74790371D00042324AD902320F500EF
:101CE000930720002324F500B70501009307800225
:101CF0002326F5001306F0019385058723220500AE
:101D000013050501EF10000537070100930787E170
:101D1000032E87E103A3470083A8870003A8C70019
:101D200083A5070103A6470183A6870103D7C7013F
:101D300083C7E701B71D000437050100231EE10238
:101D4000230FF10213878D929307A000130545AD71
:101D5000232EF7642320C1032322610223241103CD
:101D6000232601032328B102232AC102232CD102F6
:101D7000EF10C0223705010013050589EF1000227E
:101D8000B7070100138547ADEF104021B7170004D6
:101D900083A7478F63800764370501001305058C0F
:101DA000EF10C01FB7070100138547ADEF10001FEC
:101DB000370501001305C591EF10401EB70701005C
:101DC000138547ADEF10801D370501009305800C8A
:101DD00013054595EF10801CEFE08FF237090100E5
:101DE000832789E3370C0100832C8CE52326F1003F
:101DF000B717000423A8A78EB7370004938787037B
:101E000093091000130989E32324F100B714000497
:101E1000B71B000413042000EFF0DFE4EFF09FE1B4
:101E20008347E90103264901032E49000323890062
:101E30008328C90003280901832689010357C901A2
:101E4000832EC100230FF1049305010493071000B2
:101E500013050102232AC104232EF100232A810045
:101E60002320D1052322C105232461042326110543
:101E700023280105232CD104231EE104EF008063F5
:101E80000326410113351500B717000423AEA78EB2
:101E9000634AC40293172600B387C7009387D7FF0E
:101EA000130506009305300013068101232CF10071
:101EB000EF0040560326410113061600232AC100F5
:101EC000E35AC4FC832681010325810093858D920A
:101ED000130A3000EF00005503258D90EFF09FC4EA
:101EE00003C7848F9307000463FEE708930A100476
:101EF0006F00400183C7848F938A1A0093FAFA0F08
:101F000063E257099305300413850A00EF00405837
:101F10008327C101E310F5FE9305C10113050000FD
:101F2000EF00406193078CE583A8470003A8870072
:101F300003A5C70083A5070103A6470183A6870160
:101F400003D7C70183C7E701938A1A0023209105AD
:101F5000230FF10483C7848F232211052324010555
:101F60002326A1042328B104232AC104232CD1044D
:101F7000231EE10423A03B9193FAFA0F138A090070
:101F8000E3F257F983274101032B81011305410136
:101F9000330AFA0293891900B34A6A03232A5101CA
:101FA000EFF09FB29307900CE398F9E6EFE04FD57E
:101FB000371700042326A78E37050100130545981F
:101FC0002326E100EF00907DB7070100138547ADA0
:101FD000EF00D07C3705010013054599EF00107C18
:101FE000B7070100138547ADEF00507B83A50B9029
:101FF000370501001305C59C37040100EF00107A76
:10200000930550001305849EEF005079B717000424
:1020100083A5C78F37050100130545A0EF00107891
:10202000930510001305849EEF005077B717000446
:1020300083C5978F37050100130505A2EF001076C1
:1020400037090100930510041305C9A3EF001075AB
:1020500083C5848F37050100130585A5EF00107433
:10206000930520041305C9A3EF005073B73700048C
:102070009387879283A5077337050100130545A74A
:10208000EF00D071930570001305849EEF0010716E
:10209000B71700049387879283A5C76537050100AA
:1020A000130505A9EF00906F370501001305C5AAB8
:1020B000EF00D06E37050100130585ADEF00106EFF
:1020C00083268D90B7070100138547AE83A50600D0
:1020D0002324F100370C0100EF00506C370501009C
:1020E000130505B0EF00906B83268D9013054CB35C
:1020F000B70B010083A54600B709010037090100AD
:10210000EF00D069930500001305849EEF0010696D
:1021100083268D9013850BB5B70C010083A586002F
:10212000330A6A41B7040100EF00506793052000AD
:102130001305849EEF00906683268D901385C9B6A3
:10214000B71D000483A5C600EF005065930510017C
:102150001305849EEF00906483258D90130589B844
:1021600093850501EF00906313854CBAEF0010636F
:10217000370501001305C5BDEF005062B717000415
:1021800083A647908327810083A50600138547AE69
:10219000EF00D06037050100130505BFEF001060A8
:1021A000B717000483A7479013054CB383A54700D6
:1021B000EF00D05E930500001305849EEF00105ED3
:1021C000B717000483A7479013850BB583A5870035
:1021D000EF00D05C930510001305849EEF00105CA7
:1021E000B717000483A747901385C9B683A5C70016
:1021F000EF00D05A930520011305849EEF00105A7A
:10220000B717000483A54790130589B89385050186
:10221000EF00D05813854CBAEF0050588325410188
:1022200037050100130505C3EF0050579305500013
:102230001305849EEF00905693173A00B3854741EB
:1022400037050100B38555411305C5C4EF0010558E
:102250009305D0001305849EEF005054832581011F
:1022600037050100130585C6EF0050539305700034
:102270001305849EEF0090528325C10137050100AC
:10228000130545C8EF009051930510001305849E77
:10229000EF00D0503705010093050102130505CA70
:1022A000EF00D04F370501001305C5CBEF00104FED
:1022B0003705010093050104130545CFEF00104ECB
:1022C00037050100130505D1EF00504D138544ADCE
:1022D000EF00D04C0327C1008327C78E37170004B7
:1022E0008325078FB385B74023A4BD8E9307301F86
:1022F00063D0B71037050100130505DAEF00104A67
:1023000003A58D8EB719000437190004EFC08001B2
:10231000130A0500EFC00024B707010003A60774E5
:1023200083A6477437040100EFC0D01CEFD000290A
:10233000B707010023A2A98E03A5877493050A009D
:10234000EFB0104A2320A98E37050100130505DBE5
:10235000EF00D04403A5498EEFC0C01F130605004F
:1023600093860500130504DEEF0050433705010096
:10237000130585DEEF0090420325098EEFC0801D16
:102380001306050093860500130504DEEF001041D7
:10239000138544ADEF0090408320C10903248109D7
:1023A00083244109032901098329C108032A8108DB
:1023B000832A4108032B0108832BC107032C8107C3
:1023C000832C4107032D0107832DC1061301010A48
:1023D00067800000370501001305C58EEF00103C33
:1023E000B7070100138547ADEF00503B6FF05F9CCE
:1023F00037050100130585D4EF00503A3705010079
:10240000130505D8EF009039138544ADEF0010395E
:102410006FF09FF813052500B305B5002320B60023
:1024200067800000130856009307800CB307F8027A
:1024300013162600131728003305E5002320D500C6
:102440002322D500232C05073387C7003387E500F7
:1024500083260701232A0701232C070193861600F0
:102460002328D70037170000130707FA8326050033
:10247000B387E700B385F500B385C50013075000A7
:10248000B717000423AAD50023A0E79067800000B7
:102490001375F50F93F5F50F6306B50013050000EE
:1024A00067800000B7170004A38CA78E13051000E7
:1024B00067800000130101FF232481002322910083
:1024C00023261100130405009384050083C53400FE
:1024D00003452400EFF0DFFBE31A05FE93850400BB
:1024E00013050400EF00D03F6354A0028320C10015
:1024F0001307A000B7170004130510000324810080
:102500008324410023A0E7901301010167800000AC
:102510008320C100130500000324810083244100AF
:1025200013010101678000001305E5FF1335150055
:1025300067800000130101FF232481002322910002
:10254000232611001304050093840500EFF0DFFD3E
:10255000630E050223A08400930710006300F404B7
:102560006306040413072000630EE404930740008D
:102570006314F40023A0E4008320C100032481003D
:10258000832441001301010167800000930730009C
:1025900023A0F40093071000E314F4FCB717000421
:1025A00003A707909307400663DAE7028320C10080
:1025B00023A00400032481008324410013010101AE
:1025C000678000008320C10023A0F4000324810061
:1025D0008324410013010101678000008320C100B2
:1025E0009307300023A0F4000324810083244100DA
:1025F0001301010167800000B7170004930505006F
:1026000003A5078D6F004001B7170004930505006F
:1026100003A5078D6F608058130101FD23229102ED
:10262000232E31012326110223248102232021039A
:10263000232C4101232A5101232861012326710102
:1026400023248101232291019384B5009307600123
:102650009309050063FC971A93F484FF63C4042470
:1026600063E2B424EF00D00E9307701F63FC976CF5
:1026700093D7940093060008130500049305F00314
:10268000639A07223709000413090900939626006C
:10269000B306D90003A44600938686FF638A862288
:1026A000832744001306F00093F7C7FF3387974052
:1026B0006340E602635207220324C400638A862033
:1026C0008327440093F7C7FF33879740E354E6FE20
:1026D0009386050003240901130889006302044757
:1026E000832744001306F00093F7C7FF3387974012
:1026F0006342E644232A0901232809016354071E83
:102700001307F01F6366F73C93D737001386170053
:1027100013163600032749003306C90003250600B7
:1027200093D7274093051000B397F500B3E7E70070
:10273000130786FF2326E4002324A4002322F900A4
:10274000232086002326850013D726401306100079
:102750003316E60063E8C71A3377F60063140702FE
:102760001316160093F6C6FF3377F60093864600DD
:10277000631A0700131616003377F6009386460097
:10278000E30A07FE1305F00093983600B38828018A
:10279000938508001383060003A4C500639A85008F
:1027A0006F00803A6354073C0324C400638E85386D
:1027B0008327440093F7C7FF33879740E354E5FE30
:1027C0008327C4008326840013E614002322C40058
:1027D00023A6F60023A4D700B3049400232A99006B
:1027E000232899009367170023A6040123A404015A
:1027F00023A2F400B384E4001385090023A0E400BD
:10280000EF004075130584006F00800693040001FB
:1028100063EAB408EF00C0739307600093062000DA
:10282000370900041309090093972700B307F9003B
:1028300003A44700138787FF6302E4328327440021
:102840008326C4000326840093F7C7FFB307F40070
:1028500003A747002326D60023A4C600136717004A
:102860001385090023A2E700EF00C06E1305840062
:102870008320C1020324810283244102032901022F
:102880008329C101032A8101832A4101032B01010C
:10289000832BC100032C8100832C41001301010311
:1028A000678000009307C00023A0F9001305000013
:1028B0006FF01FFC13074000636AF71E93D5640096
:1028C0001385950393161500938585036FF09FDBA1
:1028D000930605006FF01FE08326C40003268400E2
:1028E0006FF0DFF6B307F40003A747001385090074
:1028F0001367170023A2E700EF00C06513058400EB
:102900006FF01FF7032489008327440093FAC7FF61
:1029100063E89A00B3879A401307F0006344F71600
:10292000B717000403A74791B71C000483A64C8C7B
:102930003387E4009307F0FF330B5401130A0701B8
:10294000638CF600371A0000130AFA00330A4701B5
:1029500037F7FFFF337AEA0013050A00EFB04001B2
:102960009307F0FF930B0500630EF524636A65255A
:10297000373C0004130C0C1003270C003307EA004B
:102980002320EC0063087B3383A64C8C9307F0FF75
:102990006386F634338B6B413307EB002320EC0066
:1029A00013F77B00B7170000630A0700B38BEB40F7
:1029B00093878700938B8B00B387E740371700001E
:1029C0001307F7FF338A4B01337AEA00338A474112
:1029D00013050A00EFA0D0799307F0FF630AF52EE4
:1029E000B3077541B387470193E7170003270C002E
:1029F0002324790123A2FB003307EA002320EC0003
:102A0000630C24031306F000637E562583264400DE
:102A100093874AFF93F787FF93F61600B3E6F60015
:102A20002322D40093055000B306F40023A2B6007D
:102A300023A4B600636AF62AB717000483A6079199
:102A400063F4E60023A8E790B717000483A6C790B5
:102A50000324890063F4E60023A6E79003274400DB
:102A60001377C7FFB3079740636697001307F0001B
:102A7000634AF70013850900EF00C04D13050000FD
:102A80006FF01FDF13E714002322E400B304940067
:102A90002324990093E717001385090023A2F4006B
:102AA000EF00404B130584006FF09FDC13074001DB
:102AB0006376F70E130740056368F71693D5C400D5
:102AC0001385F506931615009385E5066FF09FBBF9
:102AD00013D7970013064000637AE60C13064001F3
:102AE000636CE61A9305C7051306B70593951500A1
:102AF00093952500B305B90003A70500938585FFCD
:102B00006382E514032647001376C6FF63F6C70009
:102B100003278700E398E5FE8325C7008327490044
:102B20002326B4002324E40023A485002326870061
:102B30006FF09FC193E714002322F4006FF0DFC908
:102B4000832749006FF05FC01303130093773300AE
:102B500093858500E39207C46F00800803A4C70033
:102B600093862600E38887B66FF05FCDB307F40045
:102B700003A747008326C4000326840013671700B9
:102B800023A2E7002326D6001385090023A4C6004C
:102B9000EF00403C130584006FF09FCD1385C705FF
:102BA0009385B705931615006FF0DFAD13D6670058
:102BB0009305960393951500130686036FF05FF354
:102BC000E30824DB03248900032744001377C7FFAD
:102BD0006FF05FE983A788009386F6FF6390F8168D
:102BE00093F73600938888FFE39607FE8327490012
:102BF0001347F6FFB377F7002322F90013161600E8
:102C0000E3E2C7D0E30006D03377F6009306030073
:102C1000E31C07B6131616003377F60093864600BA
:102C2000E30A07FE6FF05FB6130740156362F7040F
:102C300093D5F400138585079316150093857507C2
:102C40006FF05FA483274900130710001356264036
:102C50003316C700B367F6002322F9001387050077
:102C60006FF01FEC9307100023A2FB006FF09FE0B2
:102C7000130740559306E00F1305F0079305E0078F
:102C8000E362F7A093D524011385D50793161500A9
:102C90009385C5076FF01F9F130640056360E60626
:102CA00013D6C7009305F606939515001306E6069E
:102CB0006FF01FE493174B01E39807CC832689003C
:102CC000B3874A0193E7170023A2F6006FF0DFD61F
:102CD00093071000130A00006FF05FD1B7170004CC
:102CE00023A2778D6FF0DFCB930584001385090055
:102CF000EF50D06A03270C006FF01FD41306401565
:102D0000636CE60013D6F7009305860793951500CC
:102D1000130676076FF0DFDD130540559305E00FCE
:102D20001306E007E366E5DC13D627019305D60713
:102D3000939515001306C6076FF09FDB83274900A4
:102D40006FF0DFEB93D6340093871600939717004C
:102D50006FF01FADB3C7A50093F73700B308C500E8
:102D60006392070E9307300063FEC70E937735001A
:102D7000639A070413F8C8FF930708FE13070500BA
:102D80006366F506938605009307070063780703DB
:102D900003A60600938747009386460023AEC7FE2E
:102DA000E3E807FF9347F7FF338807011378C8FF6D
:102DB0001308480033070701B38505016368170945
:102DC000678000001307050083C60500130717007E
:102DD00093773700A30FD7FE93851500E39607FE80
:102DE00013F8C8FF930708FEE37EF7F883A30500F6
:102DF00083A2450083AF850003AFC50083AE050104
:102E000003AE450103A3850103A6C50193854502D1
:102E10001307470283A6C5FF232E77FC232057FE06
:102E20002322F7FF2324E7FF2326D7FF2328C7FF0A
:102E3000232A67FE232CC7FE232ED7FEE368F7FA6A
:102E40006FF05FF4130705006374150383C7050073
:102E50001307170093851500A30FF7FEE36817FF0C
:102E60006780000013070500E36215FF6FF05FF550
:102E7000678000001308F00013070500637EC80296
:102E80009377F7006390070A63920508937606FF2D
:102E90001376F600B386E6002320B7002322B7009E
:102EA0002324B7002326B70013070701E366D7FEE4
:102EB0006314060067800000B306C840939626009E
:102EC00097020000B38656006780C6002307B7004C
:102ED000A306B7002306B700A305B7002305B70074
:102EE000A304B7002304B700A303B7002303B7006C
:102EF000A302B7002302B700A301B7002301B70064
:102F0000A300B7002300B7006780000093F5F50F1A
:102F100093968500B3E5D50093960501B3E5D500FA
:102F20006FF0DFF69396270097020000B3865600F5
:102F300093820000E78006FA93800200938707FFE0
:102F40003307F7403306F600E378C8F66FF0DFF397
:102F50006780000067800000130101FC2324C10288
:102F60002326D102232AF1022328E102232C010384
:102F7000232E110313860500832585009307810204
:102F800093860700232E11002326F100EF10106C0A
:102F90008320C1011301010467800000371300047E
:102FA0000323038D130101FC2324C1022326D10234
:102FB000232AF1022322B1022328E102232C010358
:102FC000232E110383258300930741021306050076
:102FD0009386070013050300232E11002326F1001A
:102FE000EF10D0668320C101130101046780000047
:102FF000130101F5130EC1092322F10A37030080E2
:1030000093078020938E05001343F3FF232ED108EE
:10301000231EF100930501019307F0FF93060E00B4
:1030200023261108231FF1002320E10A2324010B8A
:103030002326110B2328D1012320D103232C610047
:10304000232261022326C101EF00C01A8327010158
:10305000238007008320C1081301010B6780000053
:10306000930E050037150004130101F50325058DA6
:10307000130E81092322F10A370300809307802071
:103080001343F3FF232CC108232ED108231EF10084
:10309000138605009307F0FF9305010193060E00C8
:1030A00023261108231FF1002320E10A2324010B0A
:1030B0002326110B2328D1012320D103232C6100C7
:1030C000232261022326C101EF00C01283270101E0
:1030D000238007008320C1081301010B67800000D3
:1030E0003367B5009303F0FF137737006310070CC5
:1030F000378E7F7F130EFEF70326050083A605009B
:10310000B372C6013363C601B382C201B3E2620087
:103110006392720C6316D6040326450083A645000D
:10312000B372C6013363C601B382C201B3E2620067
:10313000639E72086316D6020326850083A6850067
:10314000B372C6013363C601B382C201B3E2620047
:10315000639872081305C5009385C500E30ED6F881
:103160001317060193970601631EF7001357060114
:1031700093D706013305F7409375F50F6390050269
:10318000678000001357070193D707013305F74005
:103190009375F50F63940500678000001377F70FB0
:1031A00093F7F70F3305F7406780000003460500EB
:1031B00083C6050013051500938515006314D6001A
:1031C000E31606FE3305D640678000001305450070
:1031D00093854500E31CD6FC1305000067800000C2
:1031E0001305850093858500E312D6FC13050000C6
:1031F00067800000130101EC232E1112232C811291
:10320000232C811113040600138C05002322D10204
:10321000232A911223282113232631132324411317
:103220002322511323206113232E7111232A91117C
:103230002328A1112326B1112324A104EF50D06526
:1032400083270500138507002328F104EF70402D24
:103250008357CC00232AA10493F70708638807004B
:1032600083270C01639407006F10005EB70701000D
:10327000938787E72324F102B7070100938BC7FDEB
:10328000032A8104B7070100130D010C370901005F
:103290009387C7032326A109232A010823280108AD
:1032A000232C0102232001042322010413030D0017
:1032B00023260104232C0104232C01001309C9FE39
:1032C000232EF1049304040083C704006388076479
:1032D00013075002138404006396E7006F00400553
:1032E0006388E7001304140083470400E39A07FE91
:1032F000B3099440638E090203274109832701091A
:1033000023209300330737019387170023223301CB
:10331000232AE1082328F108130770001303830010
:10332000634AF70E83278101B3873701232CF1000D
:1033300083470400638E070E9307F0FF9304140085
:10334000A30701069305000013050000232AF100DE
:1033500013070000930900009306800513069000F0
:103360001308A00283CA04009384140093870AFE02
:10337000E3EEF6148328810293972700B3871701A1
:1033800083A707006780070093E909016FF09FFD9D
:103390008327410203A70700938747002322F102F6
:1033A000E35207FC3307E04093E949006FF09FFBCD
:1033B000930700032308F10693078007A308F1068B
:1033C00003264101832741022320E102A3070106CE
:1033D0001387470093E6290083A70700E3440612FA
:1033E00093F9F9F72322E10293E92900E394070C0A
:1033F000B7070100938707022326F104930A800789
:1034000083274101130600006388077E93070000AD
:103410006F0000191306C10893050C0013050A007C
:10342000EF7000196312050213030D006FF09FEF98
:1034300083274109638A0700032581041306C10815
:1034400093050C00EF70C0168357CC000325810153
:1034500093F70704638407006F10C0558320C113DE
:103460000324811383244113032901138329C112E7
:10347000032A8112832A4112032B0112832BC111CB
:10348000032C8111832C4111032D0111832DC110B7
:103490001301011467800000930510001305B002AA
:1034A0006FF05FEC2320E102638405006F10901839
:1034B00093F70901638A0750A30701068327410296
:1034C000832641011387470083A7070063CE065078
:1034D0002322E10293F9F9F7E3960740032741011C
:1034E0001306000093070000631407006F10803E6E
:1034F00013040D0013F777001304F4FF13070703F9
:103500002300E40093D73700E39607FE93F71900F2
:10351000638A070A930700036306F70A1307F4FF99
:10352000A30FF4FEB307ED40232EF10013040700B0
:103530006F00C0092320E102638405006F10901022
:10354000B7070100938707022326F10493F70901C7
:10355000638C0752032741028327070013074700A4
:103560002322E10213F71900E300073663940700F2
:103570006F10000183264101130700032308E106B1
:10358000A3085107A307010613E7290063D4060027
:103590006F10C04F93F9F9F793E929001306000063
:1035A0008326C10413040D0013F7F7003387E600E8
:1035B000034707001304F4FF93D747002300E400F8
:1035C000E39407FEB3078D40232EF1000327C101CA
:1035D00083264101930707006354D70093870600B1
:1035E0002328F100232A0102630806008327010132
:1035F000938717002328F10093F729002326F1026F
:103600006388070083270101938727002328F1009F
:1036100093F749082328F102639607728327010272
:1036200003270101B38DE740635EB0711308000109
:10363000232E710383274109032701096350B8072B
:10364000930C0800130B70006F00C000938D0DFFEA
:1036500063D6BC0593870701130717002320730166
:1036600023229301232AF1082328E108130383006E
:10367000E35EEBFC1306C10893050C0013050A007A
:10368000EF601073E31205DC938D0DFF8327410972
:103690000327010913030D00E3CEBCFB8326C103FE
:1036A000B387FD00130717002320D3002322B301A3
:1036B000232AF1082328E10893067000E3C6E62ECA
:1036C0000346F10613038300630A06020327010978
:1036D0009306F1062320D30093871700930610006A
:1036E000130717002322D300232AF1082328E10817
:1036F0009306700013038300E3C8E6180327C10292
:10370000630A070203270109930601072320D30058
:103710009387270093062000130717002322D30066
:10372000232AF1082328E10893067000130383007D
:10373000E3CCE6168326010313070008E382E602C2
:10374000032741018326C101B30CD7406358900B76
:10375000930D0001232621030327010963DE9D0544
:10376000130B70006F00C000938C0CFF63D69D0597
:103770009387070113071700232023012322B30196
:10378000232AF1082328E10813038300E35EEBFCFE
:103790001306C10893050C0013050A00EF60506181
:1037A000E31405CA938C0CFF832741090327010901
:1037B00013030D00E3CE9DFB8326C102B38797015F
:1037C000130717002320D30023229301232AF10893
:1037D0002328E108930670001303830063D0E602F8
:1037E0001306C10893050C0013050A00EF60505C36
:1037F000E31C05C48327410913030D0013F70910C7
:10380000631607648326C10103270109232083006F
:10381000B387D700130717002322D300232AF10808
:103820002328E1089306700063C2E6601303830057
:1038300093F94900638C090A0327010283260101D9
:103840003304D7406354800A93090001232E710387
:103850000327010963DE8904930A70006F00C0002A
:10386000130404FF63D68904938707011307170025
:103870002320730123223301232AF1082328E1089E
:1038800013038300E3DEEAFC1306C10893050C0072
:1038900013050A00EF60D051E31805BA130404FFC2
:1038A000832741090327010913030D00E3CE89FA99
:1038B0008326C103B3878700130717002320D30093
:1038C00023228300232AF1082328E10893067000AD
:1038D00063DEE6001306C10893050C0013050A0019
:1038E000EF60104DE31205B683274109032701025B
:1038F000832601016354D7001387060083268101C4
:103900003387E600232CE1006394077683C7040025
:103910002328010813030D00E39C079A1384040075
:103920006FF01FA1638405006F10404B93F70901EE
:10393000E398071C93F90904E384091C0327410257
:1039400083270700130747002322E1020357810161
:103950002390E7006FF05F9783CA040093841400FC
:1039600063940A016F108044138E0AFD93070000D0
:103970006374C6016F10C01D9384140083CAF4FFE2
:103980009398170093973700B387F800B387C70160
:10399000138E0AFDE372C6FF63D407006F100002A6
:1039A000232AF1006FF09F9C93E909086FF09F9B19
:1039B0002320E102638405006F10C04293E90901EE
:1039C00093F70901E39A07AE93F70904A3070106E9
:1039D000E38607AE83274102832641011387470010
:1039E00083D70700E3D606AE2322E102639C076E6D
:1039F00013060000130700006F0000332320E102CC
:103A0000638405006F10804293E9090193F709016F
:103A1000E38A0708A30701068327410283264101A1
:103A20001387470083A70700E3CE06082322E1029D
:103A300093F9F9F713060000638C071A1307900037
:103A400013040D009306A0006376F72E33F7D70218
:103A50001304F4FFB3D7D702130707032300E400CE
:103A6000E39607FE6FF01FB62320E1026384050092
:103A70006F10403BB70701009387C7002326F1046E
:103A800093F70901E39807AC93F709040327410270
:103A9000E388072C83570700130747002322E1021E
:103AA0006FF05FAC2320E102032741029306100070
:103AB0002328D10083270700A3070106130600006F
:103AC000230CF108930747002322F102232ED10093
:103AD000232A0100232A0102130481096FF0DFB1B8
:103AE0002320E102E38405F2A307A1066FF01FF291
:103AF000E31A058693051000130500026FF09F86F8
:103B00002320E102638405006F10403193F78900A0
:103B1000E3840722832741029387770093F787FF87
:103B2000138787002322E10203A7070083A747002A
:103B30002320E1042322F104832C0104032B4104FC
:103B40002328610013850C0093050B00EF60007FB4
:103B50001304100003230101E31C851813850C00D6
:103B600093050B001306000093060000EFB00078E9
:103B700003230101E346056E0346F1069307700433
:103B8000E3DC5749370401001304040093073000B5
:103B90002328F10093F9F9F7232EF100232A0100DD
:103BA000232A01026FF05FA493E989006FF08FFB75
:103BB0002320E102638405006F10402593E9090189
:103BC00093F709016382076A0327410283270700ED
:103BD000130747002322E10263C6076A0327410156
:103BE0000346F1066344076E93F9F9F7E39807E497
:103BF00083274101E394070E232A0100232E0100AD
:103C000013040D006FF09F9C832741022320E102E3
:103C1000A307010603A40700138B47008327410174
:103C2000E30C045C23286100E3C6075613860700F3
:103C30009305000013050400EF50C0610323010148
:103C4000E300056EB3078540232EF100E3C007565D
:103C50000346F1062328F10023226103232A0100F1
:103C6000232A01026FF05F982320E102E38A05F422
:103C7000A307A1066FF0DFF493E909046FF08FEE5C
:103C800093E919006FF00FEE13070000138E0AFD81
:103C90009384140083CAF4FF931717001317370097
:103CA0003387E7003307EE00138E0AFDE372C6FF89
:103CB0006FF0CFEB37070100130707021306000070
:103CC0002326E104930A80076FF09F8D2320E102F1
:103CD000638405006F108016638C0AF4930710004C
:103CE0002328F100230C5109A30701061306000045
:103CF000232EF100232A0100232A01021304810943
:103D00006FF09F8F2322E10237070100130707029C
:103D1000938906002326E104930A80076390073CF9
:103D200013060000130720009306100093070000FD
:103D3000E318D74A938707031304F10BA30FF10A83
:103D40006FF05F88832741096FF01F9883268103F6
:103D500013071000938717006354D72C832A010997
:103D6000130710002322E300938A1A002320830004
:103D7000232AF10823285109130770001303830035
:103D8000634657710327410583260105938A1A006C
:103D9000B307F7002322E3002320D300232AF108EE
:103DA0002328510913077000930C83006344577153
:103DB0000325010483254104130600009306000037
:103DC000232AF100EFB0C05283274101032781036A
:103DD000630E053E1307F7FFB387E70013041400D3
:103DE000938A1A0023A2EC0023A08C00232AF10856
:103DF0002328510913077000634A5725938C8C00C0
:103E0000832681051307C107938A1A00B387F6003A
:103E100023A0EC0023A2DC00232AF1082328510967
:103E20001307700013838C00E35457A11306C108D5
:103E300093050C0013050A00EF608077631605E018
:103E40008327410913030D006FF09F9E130750064F
:103E5000E35E57EF032501048325410413060000A8
:103E600093060000232E6100232AF100EFB0804862
:103E7000832741010323C101631A05260327010992
:103E80008326C10593871700130717002320D3004B
:103E9000930610002322D300232AF1082328E108E7
:103EA000930670001303830063C6E66E0327410781
:103EB000832681036346D70013F71900E30A0796A8
:103EC000032701058326410513038300232CE3FE0A
:103ED00003270109B387D700232ED3FE130717004A
:103EE000232AF1082328E10893067000E3C4E610B2
:103EF000032781031304F7FFE35C8092930A000118
:103F0000232621030327010963D88A3C930C700000
:103F10006F00C000130404FF63D08A3C938707013D
:103F2000130717002320230123225301232AF1081A
:103F30002328E10813038300E3DEECFC1306C10829
:103F400093050C0013050A00EF608066631E05CE22
:103F5000832741090327010913030D006FF09FFB1D
:103F60000327010283260101B30CD740635A90FD59
:103F7000930D0001232621030327010963DE9D051C
:103F8000130B70006F00C000938C0CFF63D69D056F
:103F90009387070113071700232023012322B3016E
:103FA000232AF1082328E10813038300E35EEBFCD6
:103FB0001306C10893050C0013050A00EF60405F6B
:103FC000631405C8938C0CFF83274109032701095B
:103FD00013030D00E3CE9DFB8326C102B387970137
:103FE000130717002320D30023229301232AF1086B
:103FF0002328E108930670001303830063D2E6F4DC
:104000001306C10893050C0013050A00EF60405A1F
:10401000631C05C28327410913030D006FF04FF2A3
:10402000B3F6E900E39C06D2832A01092322E300C8
:1040300023208300938A1A00232AF1082328510998
:1040400013077000930C8300E35C57DB1306C10871
:1040500093050C0013050A00EF608055631605BE3A
:1040600083274109832A0109930C0D006FF05FD962
:104070001306C10893050C0013050A00EF604053B6
:10408000E30605886FF04FBC1306C10893050C00CA
:1040900013050A00EF60C051631805BA8327410970
:1040A00013030D006FF08FE51306C10893050C0094
:1040B00013050A00EF60C04F631805B88327410954
:1040C00013030D006FF00FE703274101A30701065B
:1040D000E34607C493F9F9F7638407B213060000B7
:1040E0006FF00FCC130600006FF08FC0832A4107DA
:1040F0006354504D0327410383268103930A07002D
:1041000063D4E600938A060063565003032701092F
:10411000B38757012320830013071700232253017D
:10412000232AF1082328E108930670001303830073
:1041300063CAE66EE3C80A0803274103B30A57417E
:1041400063505023930C0001232621030327010908
:1041500063D65C1D930D70006F00C000938A0AFF48
:1041600063DE5C1B938707011307170023202301DD
:1041700023229301232AF1082328E1081303830053
:10418000E3DEEDFC1306C10893050C0013050A00DD
:10419000EF600042631A05AA83274109032701093A
:1041A00013030D006FF09FFB1306C10893050C006D
:1041B00013050A00EF60C03F631805A80346F10627
:1041C0008327410913030D006FF00FD01304F7FF8D
:1041D000E35880C2930D00012326210363D28D068C
:1041E000130770006F00C000130404FF63DA8D042E
:1041F00093870701938A1A0023A02C0123A2BC01F4
:10420000232AF10823285109938C8C00E35E57FD83
:104210001306C10893050C0013050A00232AE100C8
:10422000EF600039631205A2130404FF83274109DC
:10423000832A0109930C0D0003274101E3CA8DFA7B
:104240000327C102B3878700938A1A0023A0EC00DA
:1042500023A28C00232AF108232851091307700098
:10426000E35E57B96FF09FDE93F70904032741021D
:104270006380073083170700130747002322E102FA
:10428000E3DE07941307D002A307E10603274101E9
:10429000B307F040634C077293F9F9F71306D002A5
:1042A0006FF0CFF993F70904A3070106638607F6B9
:1042B00083274102832641011387470083D70700E4
:1042C00063D606F62322E10213060000130710004E
:1042D000E38C07A46FF08FF68326C102B3878700B3
:1042E000232283002320D30013071700232AF10879
:1042F0002328E1089306700063DAE6D26FF01FB35B
:104300000327410283270700130747002322E10206
:104310000327810123A0E7006FE01FFB8326C10272
:10432000B3875701130717002320D300232253011B
:10433000232AF1082328E108930670001303830061
:1043400063D0E6021306C10893050C0013050A00AA
:10435000EF600026631A058E8327410913030D00C1
:104360008326410303274107B30AD4008326810330
:104370006342D70C93F61900639E060A83268103D5
:104380003304D4003387E640330454416354870038
:10439000130407006356800283260109B387870050
:1043A000232053019386160023228300232AF10839
:1043B0002328D10813067000130383006348D64AEC
:1043C0006348046233048740635480C6930A000143
:1043D0002326210303270109E3D08AF0930C700000
:1043E0006F00C000130404FFE3D88AEE938707012F
:1043F000130717002320230123225301232AF10846
:104400002328E10813038300E3DEECFC1306C10854
:1044100093050C0013050A00EF6080196304050082
:104420006FF08F82832741090327010913030D00D1
:104430006FF05FFB8326010503264105130383000C
:10444000232CD3FE83260109B387C700232EC3FE86
:1044500093861600232AF1082328D108130670003A
:10446000E35ED6F01306C10893050C0013050A009D
:10447000EF600014630405006FE01FFD0327410790
:104480008327410913030D006FF05FEF1306C10886
:1044900093050C0013050A00EF608011630405000A
:1044A0006FE09FFA83274109832A010913030D0056
:1044B0006FF05F8D1306C10893050C0013050A0009
:1044C000EF60000F630405006FE01FF883274109C8
:1044D000832A0109930C0D006FF09F8D9307000054
:1044E000938707031304F10BA30FF10A6FF08F8D6D
:1044F000032501048325410423286100EF50106443
:1045000003230101631A05189307700463D8573910
:104510003704010013048400930730002328F100BE
:1045200093F9F9F70346F106232EF100232A01003F
:10453000232A01026FF04F8B832741029387770074
:1045400093F787FF03A70700938787002320E104E1
:1045500003A7C7FF2322F1022322E1046FF0CFDD7E
:1045600083270700130747002322E1026FE09FFF24
:1045700083270700130747002322E1026FF0CFE5EE
:1045800083274101A307010663CC07F893F9F9F7E4
:104590006FE01FE71306C10893050C0013050A001E
:1045A000EF600001630405006FE01FEA8327410903
:1045B00013030D006FF09F8F032701098326C105A8
:1045C00093871700130717002320D30093061000CA
:1045D0002322D300232AF1082328E1089306700040
:1045E0001303830063C2E62C639A0A000327810346
:1045F0006316070013F71900630C07A203270105D0
:104600008326410513038300232CE3FE03270109BE
:10461000B387F600232ED3FE13071700232AF108D1
:104620002328E1089306700063C4E632B30A5041C0
:1046300063565031930C00012326210363DA5C2B6F
:10464000930D70006F00C000938A0AFF63D25C2B49
:1046500093870701130717002320230123229301C7
:10466000232AF1082328E10813038300E3DEEDFC8D
:104670001306C10893050C0013050A00EF50507390
:10468000630405006FE05FDC83274109032701090C
:1046900013030D006FF05FFB032741019307F0FF49
:1046A00013FBFAFD630CF72C93077004630AFB48B5
:1046B0008327410413E709102326E102832C010418
:1046C00063CC0748938D07002328010093076006F9
:1046D0006380FA4A93076004638EFA5A8327410184
:1046E000130EBBFB133E1E00338EC7019307410818
:1046F0002320F10013860C0093070E0093860D0013
:1047000093088107130841071307200013050A00C7
:1047100023286102232EC101EF2050029307700667
:1047200013040500032EC101032301036388FA3635
:10473000930770043308C501638AFA2E13850C00B1
:1047400093850D00130600009306000023286102E4
:10475000232E0101EFA0103A0328C1010323010316
:1047600093070800630205028327410863FE0701DF
:1047700093060003138717002322E1082380D70044
:1047800083274108E3E807FFB3878740232CF10222
:10479000930770046308FB2A9307500663DC57678E
:1047A000930760066382FA4683274107232AF102B2
:1047B0000327410383268103930707006346D740FD
:1047C00093F9190063940942634E0762032741037A
:1047D000930A7006232EE10003270101631A0728BC
:1047E0000346F1062328F1008329C102232A010090
:1047F0006FE09FDF1306C10893050C0013050A0044
:10480000EF50105B630405006FE01FC4832741096C
:1048100013030D006FF0CFED370401001304C4FF44
:104820006FF0CFB61306C10893050C0013050A00FC
:10483000EF501058630405006FE01FC18327410942
:1048400013030D006FF01F8F0325810493050004EF
:10485000EFD09FDC2320AC002328AC00630A05586E
:1048600093070004232AFC006FE05FA01306C10831
:1048700093050C0013050A00EF50905363040500E4
:104880006FE09FBC032741078326810383274109EB
:1048900013030D003387E6406FF09FB23704010029
:1048A000130444006FF05FC71306C10893050C00A2
:1048B00013050A00EF50D04F630405006FE0DFB826
:1048C000832A41078327410913030D00E3980AD285
:1048D0006FF0DFD193F71900130607006386070A0C
:1048E000930700031304F10BA30FF10A6FE09FCDB0
:1048F0008326C102B3875701130717002320D30073
:1049000023225301232AF1082328E108930670008B
:104910001303830063D4E6021306C10893050C0059
:1049200013050A00EF50D048630405006FE0DFB1C3
:10493000832741090327010913030D0083268103FF
:104940001307170023208300B387F6006FE0DFEC26
:104950001306C10893050C0013050A00EF505045DB
:10496000630405006FE05FAE832A41078327410996
:104970000327010913030D006FF05FCB930760005D
:10498000232AF1006FF0DFD2232E010013040D0063
:104990006FE0DFC313050400EF509038232EA10011
:1049A0009307050003230101635405AA9307000040
:1049B0006FF00FAA1305F0FF6FE05FAA9307F0FFF7
:1049C0006FE01FFE930A00006FF00FF71306D0028E
:1049D00013071000930610006314D7006FF00F86C2
:1049E000930620006304D7006FE09FB06FE05FBBC9
:1049F000130400006FF01F9D130760006374F7003D
:104A000093070700232EF10063CC0732370401001F
:104A10002328F1002322610313060000232A01004A
:104A2000232A0102130444036FE01FBD93F719000A
:104A3000639E072883274108B3878740232CF10210
:104A4000631A5B3D832741071307D0FF63C2E70664
:104A500003274101634EF704232AF1026FF05FD56B
:104A60009307D002A307F1061306D0026FF00F914F
:104A70001307D002A307E1062328F1008329C1020E
:104A80001306D002232A01006FE05FB693090700E6
:104A900013060000130720006FF0DFF393F71900EF
:104AA0003308C501E39C07C8832741086FF0DFCDB9
:104AB000938AEAFF9387F7FF232AF106230E510713
:104AC00063CA07281307B002A30EE106130690007D
:104AD000634EF6149387070313070003A30FF10631
:104AE000230FE106930701081307C107B387E740C7
:104AF00003278103232CF104B387E700232EF10061
:104B00009307100063D0E7268327C101938717001E
:104B1000232EF10063C20726232A01026FF0DFCBA8
:104B2000832741010346F106232261032328F10074
:104B3000232EF100232A0100232A01026FE0DFAABD
:104B400083274101E39607B6232A81006FF05FB601
:104B5000232A01006FE09F8103274104B7070080EB
:104B6000B34DF7009307D0022328F1006FF01FB672
:104B7000930741082320F1008327410113084107CF
:104B800013860C0093860D009308810713073000ED
:104B900013050A00232E6100EF20403A83274101CC
:104BA0000323C101130405003308F500138E070029
:104BB00003470400930700036302F714032E410721
:104BC0003308C8016FF09FB7032741039307100014
:104BD000635CE01603278103B387E700232EF1000F
:104BE00063CE0700930A70066FF01FBF832741034F
:104BF00093871700232EF100E3D607FE93070000EA
:104C0000930A70066FF05FBD83274107232AF102E4
:104C10006358F016032741016312070C93F919003A
:104C2000639E090A232EF1006FF01FBB9305B108A4
:104C3000138705001305A000B3E6A7021307F7FFCB
:104C4000B3C7A702938606032300D700E346F6FE08
:104C50009387070393F7F70F9306F7FFA30FF7FE6A
:104C600063FAB6161306E1076F00800083C70600DB
:104C70001306160093861600A30FF6FEE398B6FE01
:104C80009307C108B387E7401307E107B307F700AD
:104C90006FF09FE5930741082320F100832741012E
:104CA00013860C0093860D009308810713084107B3
:104CB0001307300013050A00232E6100EF2000289F
:104CC000032E41010323C10113040500930760046F
:104CD0003308C401E38EFAEC6FF05FA6832741012D
:104CE0000327410393871700B307F700232EF10032
:104CF000E3D407AE930700006FF01FAE13850C00DE
:104D000093850D001306000093060000232A61021C
:104D100023280103232EC101EFA0805D0328010396
:104D200003234103E30C05E8032EC10193071000A0
:104D3000338EC741232AC1073308C8016FF01FA073
:104D4000930700006FF09FCC93072000B387E740E4
:104D50006FF05FE81307D002B307F040A30EE1063F
:104D60006FF0DFD6B3F9F900E39009DA0327C10148
:104D700093070700E35207DA930700006FF0DFD9CB
:104D800083274101639A070093071000B3F9F900E4
:104D9000232EF100E38209A4832741019387270092
:104DA000232EF100E3DA07A26FF0DFF4832741023C
:104DB00083A80700938747002322F102232A1101C9
:104DC00063C408006FE00FDA9307F0FF232AF100B5
:104DD0006FE04FD99307E1076FF01FD1A307A1063A
:104DE0006FE0DFB4A307A10693E909016FE05FBD9F
:104DF000032781049307C0001305F0FF2320F70069
:104E00006FE0CFE5930700006FF05F9CA307A1065A
:104E10006FE0DFDA832741076FF0DFC9A307A10640
:104E20006FE0DFCEA307A1066FE0DFC4A307A106F2
:104E30006FE09FBDA307A1066FE08FE7A307A10660
:104E40006FE09FE9A307A1066FE08FEF130101EC6C
:104E5000232E1112232C8112232C81112328A1111E
:104E6000138C0500130406002324D102232A911277
:104E700023282113232631132324411323225113E2
:104E800023206113232E7111232A91112326B1119E
:104E9000130D0500EF404020832705001385070010
:104EA0002328F104EF50C067232AA10463060D00F4
:104EB00083278D036384072C8316CC009397060108
:104EC00093D70701139727016346070203268C0631
:104ED000B727000037E7FFFFB3E7F6001307F7FF38
:104EE0003377E6002316FC00939707012324EC0692
:104EF00093D7070113F78700630E071A03270C01E6
:104F0000630A071A93F7A7011307A0006386E71C3B
:104F1000B7070100938707042326F102B7070100B2
:104F2000938B471AB7070100930A010C3709010058
:104F30009387C70323265109232A01082328010840
:104F4000232E0102232201042324010413830A00D7
:104F500023260104232C0104232E01001309491BDD
:104F6000232EF1049304040083C704006384076CB8
:104F700013075002138404006396E7006F00400596
:104F80006388E7001304140083470400E39A07FED4
:104F9000B3099440638E090203274109832701095D
:104FA000232093003307370193871700232233010F
:104FB000232AE1082328F108130770001303830054
:104FC000634CF7128327C101B3873701232EF10009
:104FD00083470400638007149307F0FF93041400D1
:104FE000A30701069305000013050000232CF10020
:104FF0001307000093090000930680051306900034
:105000001308A00203CA04009384140093070AFE45
:10501000E3E6F6208328C10293972700B3871701A0
:1050200083A707006780070093E909016FF09FFDE0
:105030008327810203A70700938747002324F102F7
:10504000E35207FC3307E04093E949006FF09FFB10
:10505000930700032308F10693078007A308F106CE
:1050600003268101832781022322E102A30701068F
:105070001387470093E6290083A70700E34C061C2B
:1050800093F9F9F72324E10293E92900E39C071639
:10509000B7070100938707022326F104130A80074C
:1050A00083278101130600006388077E93070000B1
:1050B0006F00007493050C0013050D00EF10103401
:1050C000630405006F10003E8357CC001307A00057
:1050D00093F7A701E39EE7E28317EC00E3CA07E238
:1050E000832681021306040093050C0013050D00AE
:1050F000EF10D0246F00C0041306C10893050C0004
:1051000013050D00EF60804E6312050213830A0041
:105110006FF05FEB83274109638A07001306C1081C
:1051200093050C0013050D00EF60404C8357CC0035
:1051300093F70704638407006F10C0360325C1018D
:105140008320C113032481138324411303290113F2
:105150008329C112032A8112832A4112032B0112CF
:10516000832BC111032C8111832C4111032D0111BB
:10517000832DC110130101146780000013050D0079
:10518000EF30900C6FF05FD3930510001305B00261
:105190006FF05FE72322E102638405006F10901631
:1051A00093F7090163840756A30701068327810249
:1051B000832681011387470083A7070063C806562B
:1051C0002324E10293F9F9F7639807560327810135
:1051D0001306000093070000631407006F10403AA5
:1051E00013840A0013F777001304F4FF130707036F
:1051F0002300E40093D73700E39607FE93F71900E6
:105200006380074A93070003630CF7481307F4FF12
:10521000A30FF4FEB387EA402320F1021304070032
:105220006F00804803CA04009384140063140A01C9
:105230006F109003130E0AFD930700006374C601FC
:105240006F10005C9384140003CAF4FF9398170056
:1052500093973700B387F800B387C701130E0AFD91
:10526000E372C6FF63D407006F10803E232CF10069
:105270006FF0DFD993E909086FF0DFD8E31405D8A0
:1052800093051000130500026FF0DFD793E91900B2
:105290006FF05FD7832781022322E102A307010673
:1052A00003A40700138B47008327810163140400C4
:1052B0006F10003B232A610063D407006F10003792
:1052C000138607009305000013050400EF30907863
:1052D00003234101631405006F10C045B3078540E7
:1052E0002320F10263D407006F1000360346F10655
:1052F000232AF10023246103232C0100232C010223
:10530000630806008327410193871700232AF100D1
:1053100093F729002328F1026388070083274101BE
:1053200093872700232AF10093F74908232AF102E3
:10533000639E07768327410203274101B38DE7402F
:105340006356B077130800012320710583274109B4
:10535000032701096350B807930C0800130B700072
:105360006F00C000938D0DFF63D6BC0593870701C6
:10537000130717002320730123229301232AF10826
:105380002328E10813038300E35EEBFC1306C10846
:1053900093050C0013050D00EF604025E31805D8B8
:1053A000938D0DFF832741090327010913830A0009
:1053B000E3CEBCFB83260104B387FD00130717006F
:1053C0002320D3002322B301232AF1082328E10854
:1053D00093067000E3CAE6320346F1061303830026
:1053E000630A0602032701099306F1062320D3006E
:1053F0009387170093061000130717002322D3008A
:10540000232AF1082328E108930670001303830080
:10541000E3C0E61E03270103630A0702032701090D
:10542000930601072320D3009387270093062000CB
:10543000130717002322D300232AF1082328E108A9
:105440009306700013038300E3C4E61C8326410324
:1054500013070008E38AE606032781018326010279
:10546000B30CD7406358900B930D00012328210300
:105470000327010963DE9D05130B70006F00C00058
:10548000938C0CFF63D69D059387070113071700C4
:10549000232023012322B301232AF1082328E10832
:1054A00013038300E35EEBFC1306C10893050C00B5
:1054B00013050D00EF608013E31A05C6938C0CFFF3
:1054C000832741090327010913830A00E3CE9DFBCB
:1054D00083260103B3879701130717002320D30006
:1054E00023229301232AF1082328E1089306700060
:1054F0001303830063D0E6021306C10893050C0072
:1055000013050D00EF60800EE31205C283274109E9
:1055100013830A0013F70910631E0768832601022C
:105520000327010923208300B387D700130717003F
:105530002322D300232AF1082328E10893067000D0
:1055400063CAE6641303830093F94900638C090A74
:1055500003274102832641013304D7406354800A64
:1055600093090001232071050327010963DE8904E3
:10557000130A70006F00C000130404FF63D689048F
:105580009387070113071700232073012322330198
:10559000232AF1082328E10813038300E35EEAFCD1
:1055A0001306C10893050C0013050D00EF600004FD
:1055B000E31E05B6130404FF8327410903270109ED
:1055C00013830A00E3CE89FA83260104B387870098
:1055D000130717002320D30023228300232AF10876
:1055E0002328E1089306700063DEE6001306C10875
:1055F00093050C0013050D00EF50507FE31805B222
:105600008327410903274102832641016354D700C0
:10561000138706008326C1013387E600232EE100AD
:10562000639C077A83C704002328010813830A00B8
:10563000E3900794138404006FF09F992322E10202
:10564000638405006F10804B93F709016386071090
:10565000A307010683278102832681011387470060
:1056600083A7070063CA06102324E10293F9F9F720
:1056700013060000638E07201307900013840A00AE
:105680009306A000E372F71433F7D7021304F4FF74
:10569000B3D7D702130707032300E400E39607FEFE
:1056A000B3878A402320F102032701028326810168
:1056B000930707006354D70093870600232AF1005D
:1056C000232C01026FF0DFC313070000130E0AFD45
:1056D0009384140003CAF4FF9317170013173700BD
:1056E0003387E7003307EE00130E0AFDE372C6FFAF
:1056F0006FF0DF912322E102638405006F10403FC9
:1057000093E9090193F70901E39007AA93F70904C4
:10571000A3070106E38C07A8832781028326810162
:105720001387470083D70700E3DC06A82324E102A0
:105730001306000063820734130600006FF05FAAAF
:105740002322E102638405006F10C03993E9090147
:1057500093F70901E39E07EE93F70904A3070106F7
:10576000E38A07EE8327810283268101138747009E
:1057700083D70700E3DA06EE2324E10213060000D4
:10578000E39C07EE930710006F00002F2322E10235
:10579000638405006F108034B70701009387C7004A
:1057A0002326F10493F7090163800712032781027E
:1057B00083270700130747002324E10213F719008A
:1057C00063080766E38C073C832681011307000307
:1057D0002308E106A3084107A307010613E72900F0
:1057E000E3CC066E93F9F9F793E92900130600005C
:1057F0008326C10413840A0013F7F7003387E600F9
:10580000034707001304F4FF93D747002300E40085
:10581000E39407FE6FF0DFE82322E1020327810211
:1058200093061000232AD10083270700A30701064F
:1058300013060000230CF108930747002324F1020C
:105840002320D102232C0100232C010213048109FF
:105850006FF01FAC2322E102638405006F10002B60
:1058600093F7090163800714032781028327070048
:10587000130747002324E102E3C40714032781012F
:105880000346F106E34E07EE93F9F9F7E39607DED8
:105890008327810163980772232C010023200102D2
:1058A00013840A006FF05FE02322E10263840500A5
:1058B0006F10C026B7070100938707022326F10463
:1058C00093F70901E39407EE93F709040327810294
:1058D000E386072A83570700130747002324E102C2
:1058E0006FF0DFED2322E102638405006F10802258
:1058F00093F78900E3800726832781029387770047
:1059000093F787FF138787002324E10203A707008B
:1059100083A747002322E1042324F104832C4104BC
:10592000032B8104232A610013850C0093050B00CF
:10593000EF40D0201304100003234101E312850A35
:1059400013850C0093050B0013060000930600005E
:10595000EF90D01903234101E34805580346F106AF
:1059600093077004E3DC4737370401001304040095
:1059700093073000232AF10093F9F9F72320F1026D
:10598000232C0100232C01026FF09F972322E102B8
:10599000638405006F10C00F93E9090193F70901B3
:1059A000E39407EC93F7090403278102E380071EC1
:1059B00083170700130747002324E1026FF0DFEB92
:1059C00093E989006FF00FE4638405006F10001005
:1059D00093F70901639E070A93F90904638A090A88
:1059E0000327810283270700130747002324E102CE
:1059F0000357C1012390E7006FF00FD793E9090423
:105A00006FF04FE03707010013070702130600008D
:105A10002326E104130A80076FF09FDD2322E102B1
:105A2000638405006F10000A63060AEE93071000F6
:105A3000232AF100230C4109A307010613060000E5
:105A40002320F102232C0100232C010213048109DD
:105A50006FF01F8C2324E1023707010013070702B0
:105A6000938906002326E104130A8007639C073C00
:105A70001306000093072000130710006384E75407
:105A8000130720006384E7E2930700006FF04FF5EF
:105A90000327810283270700130747002324E1021D
:105AA0000327C10123A0E7006FF00FCC8327410932
:105AB0006FF01F938326C10313071000938717000D
:105AC0006354D72C032A0109130710002322E30093
:105AD000130A1A0023208300232AF10823284109EE
:105AE00013077000130383006340476703274105D2
:105AF00083260105130A1A00B307F7002322E300E7
:105B00002320D300232AF10823284109130770001A
:105B1000930C830063424769032541048325810474
:105B20001306000093060000232CF100EF90407C48
:105B3000832781010327C103630A053E1307F7FF8B
:105B4000B387E70013041400130A1A0023A2EC0021
:105B500023A08C00232AF108232841091307700091
:105B6000634A4725938C8C00832681051307C10760
:105B7000130A1A00B387F60023A0EC0023A2DC006E
:105B8000232AF108232841091307700013838C008E
:105B9000E35C479B1306C10893050C0013050D0039
:105BA000EF50D024631405D88327410913830A00DA
:105BB0006FF09F9913075006E35E47EF03254104FA
:105BC0008325810413060000930600002320610250
:105BD000232CF100EF90007283278101032301023F
:105BE00063160526032701098326C105938717003D
:105BF000130717002320D300930610002322D3009D
:105C0000232AF1082328E108930670001303830078
:105C100063C0E67A032741078326C1036346D700A2
:105C200013F71900E30207920327010583264105B4
:105C300013038300232CE3FE03270109B387D70056
:105C4000232ED3FE13071700232AF1082328E10887
:105C500093067000E3CAE6140327C1031304F7FF99
:105C6000E354808E130A000123282103032701092E
:105C700063568A32930C70006F00C000130404FF57
:105C8000635E8A30938707011307170023202301DF
:105C900023224301232AF1082328E1081303830068
:105CA000E3DEECFC1306C10893050C0013050D00A0
:105CB000EF50D013631C05C6832741090327010950
:105CC00013830A006FF09FFB0327410283264101E3
:105CD000B30CD740635290F9930D000123282103A0
:105CE0000327010963DE9D05130B70006F00C000E0
:105CF000938C0CFF63D69D0593870701130717004C
:105D0000232023012322B301232AF1082328E108B9
:105D100013038300E35EEBFC1306C10893050C003C
:105D200013050D00EF50900C631205C0938C0CFF0F
:105D3000832741090327010913830A00E3CE9DFB52
:105D400083260103B3879701130717002320D3008D
:105D500023229301232AF1082328E10893067000E7
:105D60001303830063DAE6EE1306C10893050C0003
:105D700013050D00EF509007631A05BA83274109F8
:105D800013830A006FF04FEDB3F6E900E39C06D2EF
:105D9000032A01092322E30023208300130A1A00A7
:105DA000232AF1082328410913077000930C83006C
:105DB000E35C47DB1306C10893050C0013050D00D7
:105DC000EF50D002631405B683274109032A010965
:105DD000938C0A006FF05FD91306C10893050C007D
:105DE00013050D00EF509000E30E05826FF00FB425
:105DF0001306C10893050C0013050D00EF50007F3A
:105E0000631605B28327410913830A006FF08FE000
:105E10001306C10893050C0013050D00EF50007D1B
:105E2000631605B08327410913830A006FF00FE260
:105E300003278101A3070106E34A07C293F9F9F793
:105E4000638007A6130600006FF09F9A032A41079C
:105E500063524059032781038326C103130A0700B5
:105E600063D4E600138A0600635640030327010942
:105E7000B387470123208300130717002322430120
:105E8000232AF1082328E1089306700013038300F6
:105E900063CCE66463420A7C03278103330A4741EB
:105EA000635E4017930C0001232821030327010997
:105EB00063D44C13930D70006F00C000130A0AFFE7
:105EC00063DC4C119387070113071700232023017C
:105ED00023229301232AF1082328E10813038300D6
:105EE000E3DEEDFC1306C10893050C0013050D005D
:105EF000EF50C06F631C05A28327410903270109E6
:105F000013830A006FF09FFB1306C10893050C0072
:105F100013050D00EF50806D631A05A00346F106CE
:105F20008327410913830A006FF08FCB1304F7FF17
:105F3000E35C80C2930D00012328210363DA8D22E4
:105F4000130770006F00C000130404FF63D28D229A
:105F500093870701130A1A0023A02C0123A2BC0176
:105F6000232AF10823284109938C8C00E35E47FD26
:105F70001306C10893050C0013050D00232CE10046
:105F8000EF50C0666314059A83274109032A01096B
:105F9000938C0A00032781016FF01FFB8326010306
:105FA000B3878700232283002320D3001307170021
:105FB000232AF1082328E1089306700063D4E6D869
:105FC0006FF05FBD93070000938707031304F10B85
:105FD000A30FF10A6FF0CFEC83260103B3874701CB
:105FE000130717002320D30023224301232AF1089B
:105FF0002328E108930670001303830063D0E602B0
:106000001306C10893050C0013050D00EF50005E48
:10601000631E05908327410913830A0083268103A9
:1060200003274107330AD4008326C1036342D70CF8
:1060300093F61900639E060A8326C1033304D40035
:106040003387E64033044441635487001304070058
:106050006356800283260109B3878700232043010A
:106060009386160023228300232AF1082328D108CF
:1060700013067000130383006346D64A634C046220
:1060800033048740635280CC130A00012328210384
:1060900003270109E3548AF0930C70006F00C000DD
:1060A000130404FFE35C8AEE9387070113071700CC
:1060B0002320230123224301232AF1082328E10876
:1060C00013038300E3DEECFC1306C10893050C0008
:1060D00013050D00EF508051630405006FF00F852C
:1060E000832741090327010913830A006FF05FFB2F
:1060F000832601050326410513038300232CD3FEC9
:1061000083260109B387C700232EC3FE938616009A
:10611000232AF1082328D10813067000E35ED6F085
:106120001306C10893050C0013050D00EF50004C39
:10613000630405006FE09FFF0327410783274109A0
:1061400013830A006FF05FEF1306C10893050C007C
:1061500013050D00EF508049630405006FE01FFD3B
:1061600083274109032A010913830A006FF01F984E
:1061700003270103B3878700130A1A0023A0EC004A
:1061800023A28C00232AF108232841091307700059
:10619000E35A479D6FF01FC21306C10893050C0018
:1061A00013050D00EF508044630405006FE01FF8F5
:1061B00083274109032A0109938C0A006FF0DF95B8
:1061C0001307D002A307E10603278101B307F040BC
:1061D0006342074C93F9F9F71306D0026FF0CFC969
:1061E0000325410483258104232A6100EF40001523
:1061F00003234101630C052A032781019307F0FF64
:10620000137BFAFD6302F760930770046302FB5E81
:106210008327810413E709102328E102832C41041A
:1062200063C60764938D0700232A01009307600665
:106230006302FA5E93076004630CFA70832781019E
:10624000130EBBFB133E1E00338EC701930741089C
:106250002320F10013860C0093070E0093860D0097
:1062600093088107130841071307200013050D0049
:10627000232A61022320C103EF00504C93077006CC
:1062800013040500032E0102032341036306FA46AB
:10629000930770043308C501E306FA0013850C0068
:1062A00093850D001306000093060000232A610267
:1062B00023200103EF90000403280102032341037C
:1062C00093070800630205028327410863FE070164
:1062D00093060003138717002322E1082380D700C9
:1062E00083274108E3E807FFB3878740232EF102A5
:1062F00093077004630CFB409307500663D0477DFF
:10630000930760066300FA5C83274107232CF102A0
:10631000032781038326C103930707006344D756ED
:1063200093F91900639209586346077A032781039A
:10633000130A70062320E102032741016310073886
:106340000346F106232AF10083290103232C0100CF
:106350006FE01FFB832781029387770093F787FF06
:1063600003A70700938787002322E10403A7C7FF41
:106370002324F1022324E1046FF04FDA832707007E
:10638000130747002324E1026FF04FC38327070060
:10639000130747002324E1026FF00FCE832781010A
:1063A000A307010663C607EC93F9F9F76FE05FCF27
:1063B0001306C10893050C0013050D00EF500023D0
:1063C000630405006FE09FD68327410913830A0009
:1063D0006FF05F84032701098326C10593871700A7
:1063E000130717002320D300930610002322D300A5
:1063F000232AF1082328E108930670001303830081
:1064000063CAE61463040A100327010583264105C5
:1064100013038300232CE3FE03270109B387F6004F
:10642000232ED3FE13071700232AF1082328E1089F
:106430009306700063C8E638330A4041635E401D2E
:10644000930C00012328210363D24C19930D700093
:106450006F00C000130A0AFF63DA4C179387070125
:10646000130717002320230123229301232AF10875
:106470002328E10813038300E3DEEDFC1306C108C3
:1064800093050C0013050D00EF5040166304050042
:106490006FE0DFC9832741090327010913830A003D
:1064A0006FF05FFB1305F0FF6FE09FC99307700467
:1064B00063CC4727370401001304440093073000DE
:1064C000232AF10093F9F9F70346F1062320F1029C
:1064D000232C0100232C01026FE09FE2370401000E
:1064E0001304C4FF6FF0CFC81306C10893050C0056
:1064F00013050D00EF50800F630405006FE01FC30C
:106500008327410913830A006FF0DF980327C10333
:10651000E31C07EE13F71900631407006FF0CF8236
:106520006FF09FEE1306C10893050C0013050D00D4
:10653000EF50C00B630405006FE05FBF0327410706
:106540008326C1038327410913830A003387E6406A
:106550006FF0DFB21306C10893050C0013050D00A0
:10656000EF50C008630405006FE05FBC032A4107D9
:106570008327410913830A00E3180AE86FF01FF923
:1065800093F7190013060700638A070093070003B7
:106590001304F10BA30FF10A6FF08F902320010277
:1065A00013840A006FF04F901306C10893050C0086
:1065B00013050D00EF508003630405006FE01FB763
:1065C0008327410913830A006FF00FE98326010333
:1065D000B3874701130717002320D3002322430169
:1065E000232AF1082328E10893067000130383008F
:1065F00063D4E6021306C10893050C0013050D00D1
:10660000EF40D07E630405006FE05FB2832741094D
:106610000327010913830A008326C1031307170008
:1066200023208300B387F6006FE09FF0130504007A
:10663000EF30106F2320A1029307050003234101CF
:10664000634405006FE09FCA930700006FE01FCA14
:106650009307F0FF6FE09FC1130A00006FF0DF8324
:10666000130760006374F700930707002320F1020B
:1066700063C6073837040100232AF100232461038D
:1066800013060000232C0100232C010213044403F1
:106690006FE01FC81306D002130710009306100006
:1066A0006314D7006FE05FFD930620006302D79468
:1066B0006FE01FB3130400006FF09F9C1307D0021C
:1066C000A307E106232AF100832901031306D00260
:1066D000232C01006FE01FC393090700130600007D
:1066E000130720006FF09FFB9307D002A307F1066A
:1066F0001306D0026FF0CFA693F719003308C50137
:10670000E39E07B8832741086FF01FBE8327410728
:106710001307D0FF63C0E70403278101634CF7022E
:10672000232CF1026FF0DFBE370401001304840054
:106730006FF0DFD8832781010346F106232461032C
:10674000232AF1002320F102232C0100232C010233
:106750006FE01FBB130AEAFF9387F7FF232AF106B6
:10676000230E410763CC072C1307B002A30EE106EA
:1067700013069000634AF616938707031307000376
:10678000A30FF106230FE106930701081307C107C2
:10679000B387E7400327C103232CF104B387E70045
:1067A0002320F1029307100063D2E72A8327010216
:1067B000938717002320F10263C4072A232C0102C8
:1067C0006FF09FB71306C10893050C0013050D0069
:1067D000EF40D061630405006FE05F95032A410735
:1067E000832741090327010913830A006FF0DFC4DF
:1067F00083278101E39E07A0232C81006FF05FA116
:10680000232C01006FE09F8093076000232CF10090
:106810006FF01FA0930741082320F1008327810117
:106820001308410713860C0093860D009308810717
:106830001307300013050D0023206102EF000070E4
:106840008327810103230102130405003308F500A7
:10685000138E07000347040093070003630EF71429
:10686000032E41073308C8016FF05FA3032781049B
:10687000B7070080B34DF7009307D002232AF10039
:106880006FF0DF9A03278103930710006352E01A29
:106890000327C103B387E7002320F10263CE07007B
:1068A000130A70066FF05FA983278103938717008F
:1068B0002320F102E3D607FE93070000130A7006B7
:1068C0006FF09FA783274107232CF102635CF0122E
:1068D000032781016312070C93F91900639E090ACB
:1068E0002320F1026FF05FA59305B108138705001F
:1068F0001305A000B3E6A7021307F7FFB3C7A7026B
:10690000938606032300D700E346F6FE938707032A
:1069100093F7F70F9306F7FFA30FF7FE63F0B61890
:106920001306E1076F00800083C7060013061600F8
:1069300093861600A30FF6FEE398B6FE9307C108F0
:10694000B387E7401307E107B307F7006FF01FE4D1
:10695000930741082320F1008327810113860C004F
:1069600093860D0093088107130841071307300031
:1069700013050D0023206102EF00405C032E81010E
:106980000323010213040500930760043308C401C4
:10699000E302FAEC6FF09F908327810103278103C4
:1069A00093871700B307F7002320F102E3D6079877
:1069B000930700006FF05F9813850C0093850D001E
:1069C0001306000093060000232C6102232A010312
:1069D0002320C103EF80D011032841030323810347
:1069E000E30005E8032E010293071000338EC74130
:1069F000232AC1073308C8016FF05F8A930700009C
:106A00006FF05FC783278101639A07009307100027
:106A1000B3F9F9002320F102E38009928327810171
:106A2000938727002320F102E3D807906FF05FF8E7
:106A300093072000B387E7406FF09FE51307D0026C
:106A4000B307F040A30EE1066FF09FD2B3F9F9004F
:106A5000E39E09D40327010293070700E35007D6FA
:106A6000930700006FF09FD58327810283A807005A
:106A7000938747002324F102232C110163C40800EB
:106A80006FE04FD89307F0FF232CF1006FE08FD712
:106A9000A307A10693E909016FE05FF09307E107FF
:106AA0006FF0DFCE93F71900E39007EE83274108DC
:106AB000B3878740232EF102E30A4BC583274107A2
:106AC0006FF09FC9A307A1066FE01FF6A307A106F9
:106AD0006FE01FF0930700006FF05F85A307A1062A
:106AE0006FE09FCBA307A10693E909016FE05FC6A2
:106AF000A307A10693E909016FE0DFC0A307A10680
:106B00006FE09FB4A307A1066FE08FE9A307A1067A
:106B10006FE01FD5A307A1066FE09FDDA307A106C5
:106B20006FE05FD9B71700049306060013860500CF
:106B30009305050003A5078D6FE04FB183D7C5000E
:106B400003AE850603D3E50083A8C50103A845026B
:106B5000130101B893F7D7FF13070040232C814698
:106B60002316F10013840500930701079305010024
:106B7000232A914623282147232E11461309050075
:106B80002324C10723176100232E110123220103AF
:106B90002320F1002328F1002324E100232AE1002F
:106BA000232C0100EFE08FAA93040500634A05003F
:106BB0009305010013050900EF10102D631C050259
:106BC0008357C10093F70704638807008357C40005
:106BD00093E707042316F4008320C14713850400BC
:106BE00003248147832441470329014713010148B6
:106BF000678000009304F0FF6FF09FFCB71700045C
:106C000083A7078D130101FF232481002322910014
:106C100023261100930405001384050063860700F2
:106C200003A78703630C070C0317C400931707011E
:106C300093D7070193F68700638206048326040135
:106C40006382060613F717006310070893F72700FF
:106C50001307000063940700032744012324E40082
:106C600013050000638E06068320C1000324810003
:106C700083244100130101016780000093F607019E
:106C8000638E060A93F74700639007088326040182
:106C9000936787002316F4009397070193D70701A2
:106CA000E39206FA13F7072813060020E30CC7F84F
:106CB0009305040013850400EF20C0408357C400EF
:106CC000832604016FF01FF8832744012324040066
:106CD00013050000B307F040232CF400E39606F8F8
:106CE0008317C40013F70708E30007F893E70704C6
:106CF0002316F4001305F0FF6FF01FF7138507004C
:106D0000EF1090546FF05FF283250403638E05004B
:106D1000930704046388F50013850400EF101068DE
:106D20000317C40023280402832604011377B7FD48
:106D3000232204002320D4006FF09FF593079000D6
:106D400023A0F400136707042316E4001305F0FFE3
:106D50006FF09FF1130101FE232821018327050114
:106D600003A90501232E1100232C8100232A910061
:106D700023263101232441012322510163CC271B07
:106D80001309F9FF131F290013844501B309E40116
:106D9000130A4501330FEA0183A7090083240F007A
:106DA00093871700B3D4F402638E040A37030100FB
:106DB000930E0400130E0A001306000013070000D0
:106DC0001303F3FF938E4E0003A8CEFF83260E001D
:106DD000130E4E00B3786800B38898021358080168
:106DE000B3F7660093D6060133089802B388C8004B
:106DF00013D60801B3F8680033071741B307F7004B
:106E000013D70741B3F767003306C800337866002D
:106E1000B38606413387E60093160701B3E6F60012
:106E2000232EDEFE1356060113570741E3FCD9F962
:106E300083270F00639807029307CFFF6372FA025C
:106E40000327CFFF630807006F00800103A7070037
:106E5000631807009387C7FF1309F9FFE368FAFE79
:106E600023282501930A0500EF2090576340050A67
:106E7000B70501009384140013060A00930700006D
:106E80009385F5FF130444008326C4FF03270600FF
:106E90001306460033F8B600B38707413378B700CE
:106EA000B387070193D60601135707013307D7406D
:106EB00093D60741B306D7001398060133F7B700FE
:106EC0003367E800232EE6FE93D70641E3FC89FAF8
:106ED000131729003307EA00832707006398070286
:106EE0009307C7FF6372FA020327C7FF630807000F
:106EF0006F00800103A70700631807009387C7FF8F
:106F00001309F9FFE368FAFE23A82A011385040098
:106F10008320C1010324810183244101032901014C
:106F20008329C100032A8100832A41001301010241
:106F300067800000130500006FF09FFD0323050428
:106F4000130101F6232C8108232821092324410958
:106F5000232A9107232E1108232A91082326310979
:106F60002322510923206109232E7107232C810735
:106F70002328A1072326B107232601012320C100CE
:106F80002322D10013040500130A0700938C070085
:106F900013890800630203020327450493071000C6
:106FA00093050300B397E7002322E3002324F300B3
:106FB000EF200042232004048324410063C2040E16
:106FC00023200900B707F07F33F7F4006306F708C2
:106FD00003290100832941001306000093060000E5
:106FE0001305090093850900EF80C030631A050C72
:106FF0000327C100930710002320F7008327010A0D
:10700000638E07620327010AB70701009387D7033E
:10701000B70401002320F7001385C4038320C109AE
:107020000324810983244109032901098329C10813
:10703000032A8108832A4108032B0108832BC107F7
:10704000032C8107832C4107032D0107832DC106E3
:107050001301010A678000000327C100B727000061
:107060009387F7702320F70083270100638A07586E
:10707000370501009304051D8327010AE38E075E8F
:1070800003C73400938734006304070093878400A8
:107090000327010A138504002320F7006FF01FF86F
:1070A00083274100B704008093C4F4FFB3F4F400D5
:1070B000930710002320F900232291006FF09FF026
:1070C0001307C1059307810513060900938609007C
:1070D00013050400EF20D070232CA10013D7440126
:1070E000631A0752032981058329C105930700020A
:1070F000B309390113872943E3DAE7109307000442
:107100003387E7408327010013852941B394E400C6
:1071100033D5A70033659500EF80402FB70710FEE9
:10712000B385B700930710009389F9FF2326F10276
:10713000B707010003A6077583A64775EF70D03522
:10714000B707010003A6877583A6C775EF70903A4D
:10715000B707010003A6077683A64776EF70D02E07
:10716000130B050013850900938B0500EF80C01DEC
:10717000B707010003A6877683A6C776EF7090371E
:10718000130605009386050013050B0093850B007D
:10719000EF70902B130D0500938D0500EF80802F6D
:1071A000930B0500130600009306000013050D0065
:1071B00093850D00EF8080136346057293071000DE
:1071C0002320F1029307600163EA77033707010088
:1071D00093973B001307871FB387E70003A50700BA
:1071E00083A547000326010083264100EF80000AA3
:1071F000E35AA000938BFBFF23200102B30939411E
:107200009389F9FF130D000063C0094463C40B6C3C
:10721000B389790123227103130C000093079000B6
:1072200063EA4743930750001308100063D64701F1
:10723000130ACAFF1308000093073000E30CFA4E4C
:10724000E3DE474593074000E304FA30930710005C
:10725000232EF10093075000E318FA44B3879B01F3
:10726000138B17002324F10213060B0013090B00E4
:10727000E350604323220404930770019305000048
:1072800063F2C7021307100093074000939717009B
:10729000938647019305070013071700E378D6FE8E
:1072A0002322B4041305040023280101EF20000861
:1072B0002320A4049307E0009304050063E4273D22
:1072C000032801016300083C0325010083254100D8
:1072D0002320A1042322B104E35C705513F7FB00C3
:1072E000931637003707010093DA4B401307871FC7
:1072F0003387E60093F60A01032807008328470036
:1073000013092000638A060237070100032687302D
:107310008326C73023280101232A1101EF70D043AF
:10732000032801018328410193FAFA002320A100D8
:107330002322B1001309300063800A0437070100DB
:10734000930D872E93F61A001305080093DA1A405E
:1073500093850800638E060003A60D0083A64D00EA
:1073600013091900EF701019130805009388050020
:10737000938D8D00E3980AFC0325010083254100CD
:107380001306080093860800EF70103D2328A10023
:10739000232AB1008327010263820702B707010095
:1073A00003A6077783A647770325010183254101BB
:1073B000EF70D073635405006F005071130509001E
:1073C000EF7090780326010183264101EF7090123F
:1073D000B707010003A6077883A64778EF70D006A9
:1073E000B707C0FC13080500B388B700E3000B38EB
:1073F0002324710513030B008327C101E382075285
:107400009307F3FF370701001307871F9397370090
:10741000B387E70003A6070083A64700B70701006C
:1074200003A5077983A54779232861022320010159
:1074300023221101EF7050320328010083284100FC
:10744000938D14001306080093860800EF70D00493
:107450002320A1002322B10003250101832541013E
:10746000EF80400313090500EF70106E130605004E
:10747000938605000325010183254101EF70D001AA
:107480001306050093860500130709032328A100AE
:10749000232AB10003250100832541001379F70F4A
:1074A00023802401EF70905E6342A012B70A0100AE
:1074B000032601018326410103A50A7783A54A77A4
:1074C000EF70807D130605009386050003250100FB
:1074D00083254100EF70905B6354A0006F00906BB8
:1074E0000323010313071000E35A67323707010033
:1074F0008327C77703278777232AF1022328E1020E
:1075000083A74A7703A70A77B38A6400232EF10280
:10751000232CE1026F004002032581038325C10370
:10752000EF7080770326010083264100EF70105C26
:10753000E3420566E3845D2F0326010383264103AE
:107540000325010083254100938D1D00EF70807A93
:10755000B707010003A6877783A6C7772320A1007A
:107560002322B1000325010183254101EF708078BA
:10757000232AB1002328A100EF70D0711309050060
:10758000EF70905C03280101832841011306050078
:10759000938605001305080093850800EF70C06FFF
:1075A0001307090303260100832641001379F70F0F
:1075B000A38F2DFF2328A100232AB100EF701053C1
:1075C0000326010183264101E35805F4832B81043E
:1075D0008325810113050400938B1B00EF10505F7E
:1075E0008327C10023800D0023A077018327010A90
:1075F000E384070823A0B701138504006FF01FA2DE
:107600009397C400E39607A6370501009304451C31
:107610006FF09FA6B70710009387F7FFB3F7F90045
:10762000B706F03F13050900B3E5D700930917C06B
:1076300003298105232601026FF09FAFB7040100E3
:107640001385C4036FF09F9D330D304193090000F3
:107650006FF0DFBB23220404930500001305040030
:10766000EF10D04C130BF0FF9307100093040500AC
:107670002320A40423246103930C0000130A0000B8
:10768000232EF1008327C10563C8071E1307E000FE
:107690006344771F370701001307871F93973B0049
:1076A000B387E70003A7070083A747002328E1006B
:1076B000232AF10063CE0C6A0329010083294100CB
:1076C000032A0101832A41011305090013060A0058
:1076D00093860A0093850900EF701008EF70905BA5
:1076E000130C0500EF70504613060A0093860A003B
:1076F000EF7040601306050093860500130509002E
:1077000093850900EF70405993070C032380F40020
:10771000130710001308050093880500938D1400CB
:10772000630CEB0C37070100032687778326C777A6
:107730002320E100EF70005C1306000093060000B8
:10774000130A0500938A0500EF70D03A0327010061
:10775000E30005E88327C777032787771389240089
:107760002322F1002320E100338B64016F004002EB
:10777000EF7040581306000093060000130A05003E
:10778000938A050013091900EF70D036E30205E46F
:10779000832D4101032D010113050A0093860D007D
:1077A00013060D0093850A00EF70007BEF70904E7A
:1077B000130C0500EF70503993860D0013060D0071
:1077C000EF704053130605009386050013050A0069
:1077D00093850A00EF70404C93070C03A30FF9FE4A
:1077E0001308050093880500032601008326410045
:1077F000930D0900E31E2BF713060800938608007B
:107800001305080093850800EF7000441309050074
:1078100093890500130605009386050003250101E1
:1078200083254101EF70902C63420502032501017D
:10783000832541011306090093860900EF70902B00
:10784000E31805D8137C1C00E3040CD803C9FDFF22
:10785000130690036F000001E38A960603C9F6FF42
:10786000938D06009386FDFFE308C9FE13071900F8
:107870002380E6006FF0DFD50327C1016308070806
:1078800013071000635047551307FBFFB30DEC407F
:10789000635EEC0083274102330C8741930D0000A7
:1078A000B38787012322F102130C07002328A101CB
:1078B00093070B00E3440B1E93051000130504000F
:1078C000330DFD00B389F900EF10D066930A05006F
:1078D0006F008004330D7D41330C7041232201027F
:1078E0006FF0DF9313850B00EF7010261306050071
:1078F0009386050013050D0093850D00EF70501F52
:107900003335A000B38BAB406FF05F8B930D0C0051
:107910002328A101930A0000032701019307070010
:1079200063000702635E300163CEE93C0327010177
:10793000330DFD40B389F9403307F7402328E100B8
:1079400003298101635280078327C1016388076887
:1079500063820D0493850A0013860D00130504004D
:10796000EF10907F0326810193050500930A05001F
:1079700013050400EF10505F8325810113090500F2
:10798000330CBC4113050400EF109024630E0C006F
:10799000232C21018325810113060C00130504000B
:1079A000EF10907B130905009305100013050400E8
:1079B000EF10505883274102130C0500638007061F
:1079C000138607009305050013050400EF10D07817
:1079D00093071000130C050063DA4733930D000082
:1079E00083270C019387370093972700B307FC0088
:1079F00003A54700EF105041930700023385A740CD
:107A00006F00C002232001026FF04FFFB384E740F4
:107A100083270100339597006FF00FF09307100054
:107A200063DC4743930D000013850700B30735015E
:107A300093F7F701638A071A130700023307F74029
:107A400093064000E3DEE6181307C001B307F740D2
:107A500003270101330DFD00B389F9003307F70057
:107A60002328E100635CA0019305090013060D00C3
:107A700013050400EF20C00113090500635C300109
:107A800093050C001386090013050400EF20400045
:107A9000130C050083270102639C0714635E604397
:107AA0008327C101638C071883270101635CF00001
:107AB00093850A001386070013050400EF10507D1C
:107AC000930A0500138D0A00639C0D60B38764015F
:107AD000232EF100832701009389140093F71700E8
:107AE0002328F10093050C0013050900EFF08FA681
:107AF000930D050093850A0013050900EF20400E41
:107B0000130B050013060D0093050C00130504006C
:107B1000EF2000138326C5001387F9FF232CE10013
:107B200093070500938C0D0313071000639E060056
:107B3000930505002320A10013050900EF20400A4A
:107B40008327010013070500938507001305040030
:107B50002320E100EF10D00703270100B36747019E
:107B60006396070083270101638A0726634E0B286B
:107B7000336B4B0163160B008327010163860728D3
:107B80006340E0708327C101A38F99FF938D0900A3
:107B90006380377193050900930600001306A00067
:107BA00013050400EF1010051309050093060000EB
:107BB0001306A00093850A00130504006384AA2B12
:107BC000EF10500393050D00930A05009306000083
:107BD0001306A00013050400EF10D001130D0500DB
:107BE000938919006FF01FF09307C0016FF05FE6F3
:107BF00093050C0013050900EF10907EE35005EA91
:107C000093050900930600001306A0001305040065
:107C1000EF10407E8327C10113090500938BFBFF02
:107C20006396077883278102138B07006348F0006F
:107C30009307200063CE477B032B810293890400C6
:107C40006F00C000EF10007B1309050093050C00C6
:107C500013050900EFF00F9093891900930C0503A9
:107C6000A38F99FFB3879940930600001306A000E5
:107C70009305090013050400E3C667FD63586063BC
:107C8000B38D6401930900009305090013061000E9
:107C900013050400EF10D05F93050C00232CA10006
:107CA000EF1010746358A03483C6FDFF13069003D1
:107CB0006F000001630897268346F7FF930D0700C6
:107CC0001387FDFFE388C6FE938616002300D700C6
:107CD00093050C0013050400EF10806FE38A0A8EF1
:107CE000638A09006388590193850900130504001C
:107CF000EF10006E93850A0013050400EF10406D2D
:107D00006FF01F8D938709006FF05FC2832701001A
:107D1000E39607CC83264100930D00001397C6001D
:107D200063100702B707F07FB3F7D700638A070035
:107D300093071000130D1D0093891900938D070000
:107D40008327410213051000E38207CE6FF05FC95D
:107D500093071000232EF1006354901313860C0038
:107D600013890C0023249103138B0C006FF08FD028
:107D7000E3446095631E0B24B707010003A68778D0
:107D800083A6C7780325010183254101130C000058
:107D9000930A0000EF60107603260100832641005D
:107DA000EF70C0486346051693CBFCFF938D04002B
:107DB00093050C0013050400EF108061E38A0A802C
:107DC0006FF05FF30327C1026306074E93873743C3
:107DD000930D0C002328A1016FF01FAE93079003B1
:107DE000638AFC0463546001938C1D038327810123
:107DF00093890A00232C2101938D1700238097017A
:107E0000930A0D006FF0DFECE352E0FE93050900EA
:107E10001306100013050400EF10904793050C00A3
:107E200013090500EF10D05B635AA0569307900327
:107E3000E39CFCFA832781011307900393890A00CE
:107E4000938D17002380E700930A0D00232C210156
:107E5000930690036FF09FE503270100E31407BC2E
:107E60006FF05FEBEF100059930A0500130D05004A
:107E7000938919006FF01FC7138504006FF00F9AE4
:107E80001309100023242103130B0900930C09008C
:107E900023220404930500006FF0CFC0232E0100BD
:107EA00093072000E30AFAEA232204049305000062
:107EB00013050400EF108047130BF0FF9307100029
:107EC000930405002320A40423246103930C0000E1
:107ED000232EF1006FF00FFB93072000E3D247BD84
:107EE000631E0B4493050C0093060000130650001C
:107EF00013050400EF10005093050500130C050056
:107F000013050900EF10D04D232C2101E35EA0E8FA
:107F100013071003938D14002380E400938B1B0040
:107F20006FF01FE913071003938B1B002380E400FD
:107F30006FF01FDA232E01006FF04FB21305090016
:107F4000EF7080400326010183264101EF60905AC3
:107F5000B707010003A6077883A64778EF60D04EE5
:107F6000B707C0FC13080500B388B700B7070100C6
:107F700003A6877883A6C7780325010183254101DD
:107F80002320010123221101EF6010510328010079
:107F9000832841002328A1001306080093860800C7
:107FA000232AB100EF70802E6346A02C0328010025
:107FB000832841000325010183254101B707008083
:107FC00013060800B3C61701EF704032635805046A
:107FD000130C0000930A00006FF01FDD93050900E9
:107FE00013060C0013050400EF1010171309050009
:107FF0006FF09F9B6316050093FC1C00E3960CCA70
:10800000130600036F008000938D060003C7FDFF79
:108010009386FDFFE30AC7FE6FF09FCB03270104A1
:10802000832741042320E1002322F1006FF08FE534
:108030000325010483254104B30770412328A100CF
:10804000232AB10013092000638607B413F7F70051
:10805000B70601009386861F131737003307D70032
:10806000032607008326470093D747402320F100CB
:10807000EF605048832701002328A100232AB10084
:10808000638A07B037070100930D872E93F6170018
:108090000325010193D7174083254101638206021E
:1080A00003A60D0083A64D002320F100130919003B
:1080B000EF605044832701002328A100232AB10048
:1080C000938D8D00E39407FC6FF0CFAC1307000392
:1080D0002380E400938B1B0003C9FDFF6FF00FF9B1
:1080E00083A54A0013050400EF10402403A60A01EB
:1080F000930905009385CA0013062600131626006F
:108100001305C500EFA01FC51306100093850900D5
:1081100013050400EF10D017130D05006FF01F9B1F
:108120009307F3FF370701001307871F2326F10486
:1081300093973700B387E70003A5070083A547009F
:10814000130608009386080023206100EF60903A30
:10815000232CA102232EB102032501018325410115
:10816000938D1400EF70003313090500EF70C01DEC
:1081700013060500938605000325010183254101AF
:1081800013090903EF605031032301002380240108
:1081900013071000130E0500938E05006306E30815
:1081A000370701008327C7770327877713890D00D7
:1081B000232AF102B38764002328E1022328F10077
:1081C000032601038326410313050E0093850E0049
:1081D000EF6050322322B1002320A100EF70802BEA
:1081E000930A0500EF704016032E0100832E410014
:1081F000130605009386050013050E0093850E00F7
:10820000EF609029832701011309190013880A03DD
:10821000A30F09FF130E0500938E0500E39227FBC1
:108220008327C104B38DFD003709010003260979B6
:1082300083264979032581038325C1032320C101B6
:108240002322D101EF605020032E0100832E410034
:1082500013060E0093860E00EF704009032E0100F6
:10826000832E41006350050E03C9FDFF832B81045B
:108270006FF00FDE130C0000930A00006FF05FC96F
:1082800093079003E388FCBA938C1C006FF01FB631
:1082900093890A00930A0D006FF01F9FB3076D4189
:1082A0002328F100930700006FF00FE1130B10007B
:1082B0006FF01F9D8326810593076003930D0C00CB
:1082C000B387D7402328A1016FF00FDFE3080BC667
:1082D000832A8102E35450D53707010003268777AC
:1082E0008326C77703250101832541019387FBFF7F
:1082F0002324F104EF6010202328A10013051900A6
:10830000232AB100EF7040040326010183264101B6
:10831000EF60501EB707010003A6077883A64778D1
:1083200023205101EF605012B707C0FC130805006D
:10833000B388B700032301006FF00F8C232C2101B9
:108340006FF09FA6032681038326C10303250979C5
:10835000832549792320C1012322D101EF60D01365
:10836000032E0100832E410013060E0093860E009B
:10837000EF60D071130600036346A0006FF01FCAC0
:10838000938D060003C7FDFF9386FDFFE30AC7FE3A
:108390006FF0CFA3832B81046FF08FCBE31805A47C
:1083A00093F71C00E38407A46FF05FA893850A008D
:1083B000930600001306A00013050400EF108003CD
:1083C00083278102930A0500138B0700634EF0ECAC
:1083D0009307200063CE4701032B81026FF0CFEC9F
:1083E0006302D7E81307C003B307F7406FF04FE607
:1083F000032B81026FF0DFAE8396C500130101FEEF
:10840000232C8100139706011357070123263101FE
:10841000232E1100232A910023282101937787001E
:108420001384050093090500639A0710B71700002D
:108430009387078003A74500B3E7F6002396F5006E
:108440006356E01C03288402630A080C9397070113
:1084500093D7070183A409001397370123A00900CC
:10846000635C071A032604058326440593F7470037
:108470006382070483274400832504033307F640FF
:1084800093D7F7413335E600B386F640130607006D
:10849000B386A640638005028327C4033307F740F1
:1084A00093D7F741B335E600B386F64013060700CD
:1084B000B386B6408325C401130700001385090065
:1084C000E70008009307F0FF6300F50E8356C40031
:1084D000B7F7FFFF9387F77F03270401B3F7F60091
:1084E0009397070193D707412320E4002316F40054
:1084F00023220400139737016344071083250403E4
:1085000023A09900638C0500930704046386F5009B
:1085100013850900EF00806823280402130500007A
:108520008320C10103248101832441010329010126
:108530008329C100130101026780000003A905011E
:10854000E30E09FC83A405001377370023A025015F
:10855000B3842441930700006314070083A74501F7
:108560002324F400634890006FF05FFB3309A900F7
:10857000E35690FA832744028325C40193860400BE
:108580001306090013850900E7800700B384A4409F
:10859000E34EA0FC8357C4001305F0FF93E70704E4
:1085A0002316F4006FF0DFF7E392A5F203A70900AA
:1085B0009307D001E3E0E7FEB70740209387170059
:1085C000B3D7E70093F71700E38607FC0356C40010
:1085D000B7F7FFFF9387F77F83260401B377F60091
:1085E0009397070193D707412320D4002316F40063
:1085F0002322040093963701E3D206F0E31007F03C
:108600002328A404232AB4046FF05FEF03A7C50353
:10861000E34AE0E26FF09FF08325C40113060000F7
:10862000930600001307100013850900E7000800F7
:108630009307F0FF13060500938605006308F50015
:108640008357C400032884026FF05FE2E39AA5FE1B
:1086500083A70900E38607FE1307D0016386E700BE
:10866000130760016398E70023A099001305000039
:108670006FF01FEB8357C4001385050093E70704D1
:108680002316F4006FF0DFE9130101FE232C8100B3
:10869000232E1100130405006306050083278503BC
:1086A000638A07028397C500639C07008320C1018A
:1086B00013050000032481011301010267800000FB
:1086C000130504008320C101032481011301010269
:1086D0006FF09FD22326B100EF0000378325C10041
:1086E0006FF05FFC9305050063080500B7170004F1
:1086F00003A5078D6FF05FF9B717000403A5C78CBA
:10870000B7850000938585686F00D00213050000CF
:1087100067800000B7C500009385C57B6F0090019E
:10872000130101FEB7870000232E1100232C8100C6
:10873000232A910003244500232821012326310107
:108740002324410123225101232061019387477192
:10875000232EF5021307052F930730002324E52E5F
:108760002322F52E2320052E930740001309050030
:108770002316F40013068000930500002320040054
:1087800023220400232404002324040623170400C6
:1087900023280400232A0400232C040013050406C4
:1087A000EFA04FED37AB000083248900B7AA00008B
:1087B00037AA0000B7A90000130B0B3B938A4A436A
:1087C000130ACA4A9389895123206403232254033C
:1087D0002324440323263403232E8400930790008C
:1087E0002396F400930710002397F40013068000EB
:1087F0009305000023A0040023A2040023A4040086
:1088000023A4040623A8040023AA040023AC040024
:1088100013850406EFA00FE60324C9009307200187
:1088200023A0640323A2540323A4440323A63403F4
:1088300023AE94002316F400930720002317F400BE
:1088400023200400232204002324040023240406FC
:1088500023280400232A0400232C04001305040603
:108860001306800093050000EFA0CFE08320C10134
:1088700023206403232254032324440323263403A4
:10888000232E840093071000232CF9020324810176
:1088900083244101032901018329C100032A8100A6
:1088A000832A4100032B01001301010267800000AD
:1088B0001305000067800000130101FF9387F5FF97
:1088C00023248100139447009397770033848740D3
:1088D0002320210113890500930504082322910018
:1088E00023261100EF905FD3930405006300050277
:1088F0001305050123A0040023A2240123A4A4003E
:108900001306040793050000EFA0CFD68320C10013
:1089100013850400032481008324410003290100FE
:108920001301010167800000130101FEB717000465
:108930002328210103A9C78C23263101232E1100EE
:1089400083278903232C8100232A910093090500A2
:108950006396070013050900EFF09FDC1309092E49
:108960009304F0FF83274900032489009387F7FFCE
:1089700063DA07006F0040089387F7FF13040407CA
:10898000638C97060317C400E31807FE9307F0FFF4
:108990002317F400930710002316F4002324040681
:1089A000232004002324040023220400232804009D
:1089B000232A0400232C04001306800093050000E2
:1089C00013050406EFA00FCB1305040023280402AF
:1089D000232A040223220404232404048320C10143
:1089E0000324810183244101032901018329C1005A
:1089F00013010102678000008327090063860700D6
:108A0000138907006FF01FF69305400013850900D6
:108A1000EFF09FEA2320A900630605001309050073
:108A20006FF05FF49307C00023A0F9001305000066
:108A30006FF0DFFAB717000403A5C78CB7C50000B5
:108A40009385C57B6F00004F8327850363840700F0
:108A5000678000006FF0DFCC678000006780000057
:108A60006780000067800000B717000403A5078D2A
:108A7000B79500009385058B6F00C040B7170004C1
:108A800003A5078DB78500009385C5706F00803FF3
:108A9000130101FE2328210137090004232C810042
:108AA000232A91001384050023263101232E11006F
:108AB0009309050013090900EFA08FC90327890056
:108AC000B71700009385F7FE8324470093F4C4FF93
:108AD000338484403304B4001354C4001304F4FFFB
:108AE0001314C400634CF40013050000EF405068F9
:108AF00083278900B38797006306F5021385090071
:108B0000EFA04FC5130500008320C101032481019C
:108B100083244101032901018329C10013010102BA
:108B20006780000033058040EF4090649307F0FFBA
:108B3000630AF5023737000483270710832689006C
:108B4000B384844093E41400338487401385090080
:108B500023A2960023208710EFA0CFBF130510009B
:108B60006FF09FFA13050000EF4090600327890023
:108B70009306F000B307E540E3D2F6F8B716000419
:108B800083A6468C93E717002322F7003305D540D0
:108B9000B736000423A0A6106FF05FF6638E050EB3
:108BA000130101FF23248100232291001384050077
:108BB0009304050023261100EFA08FB90325C4FFFD
:108BC000930684FFB70500049377E5FF3386F6002C
:108BD000938505000327460003A885001377C7FF88
:108BE000630606152322E6001375150063160502B9
:108BF000032584FFB386A64003A88600B387A70099
:108C00003705000413058500630CA81603A5C600EC
:108C10002326A800232405013305E600032545008B
:108C200013751500630A050C13E7170023A2E6006D
:108C30003387F6002320F7001307F01F6360F70661
:108C400093D73700138717001317370003A6450083
:108C50003387E5000328070093D72740130510004A
:108C6000B317F500B3E7C700130687FF23A6C600B6
:108C700023A4060123A2F5002320D7002326D80031
:108C8000138504008320C100032481008324410054
:108C9000130101016FA00FAC6780000013D797008C
:108CA00013064000636AE61013D7670013059703A5
:108CB0001306870313151500131525003385A5002A
:108CC00003270500130585FF6304E510032647000D
:108CD0001376C6FF63F6C70003278700E318E5FE97
:108CE0000325C70023A6A60023A4E6002324D5005D
:108CF0002326D7006FF0DFF803258600B387E7004F
:108D000037070004130787006304E50E0328C60035
:108D100013E617003387F600232605012324A80055
:108D200023A2C6002320F7006FF01FF11375150072
:108D3000B387E70063100502032584FFB386A640CE
:108D400003A7C60003A68600B387A7002326E60074
:108D50002324C7003717000413E617000327878C66
:108D600023A2C60023A4D500E3ECE7F0B717000464
:108D700083A5479113850400EFF09FD16FF05FF05A
:108D8000B305E60083A5450093F515006392050E33
:108D9000832586000326C600B307F70013E71700F4
:108DA00023A6C5002324B60023A2E600B386F6005E
:108DB00023A0F6006FF0DFEC13064001636CE604BD
:108DC0001305C7051306B705131515006FF0DFEE81
:108DD00083A7450013572640130610003317E600FB
:108DE000B367F70023A2F500130705006FF09FEFAC
:108DF00023AAD50023A8D50013E7170023A6A600B1
:108E000023A4A60023A2E600B386F60023A0F60062
:108E10006FF01FE713064005636CE60013D7C70029
:108E20001305F7061306E706131515006FF0DFE8C4
:108E300013064015636CE60013D7F7001305870788
:108E400013067707131515006FF01FE71308405539
:108E50001305E00F1306E007E360E8E613D72701E8
:108E60001305D7071306C707131515006FF0DFE4C6
:108E700013E7170023A2E600B386F60023A0F6004E
:108E80006FF01FE0130101FE23225101232E110078
:108E9000232C8100232A910023282101232631013C
:108EA0002324410123206101930A052E63800A08CF
:108EB000138B0500130A0000930910001309F0FF3B
:108EC00083A44A0003A48A009384F4FF63C60402C7
:108ED0008357C4009384F4FF63FCF9008317E40014
:108EE0001305040063862701E7000B00336AAA001C
:108EF00013040407E39E24FD83AA0A00E3920AFCFC
:108F00008320C10113050A00032481018324410148
:108F1000032901018329C100032A8100832A41001A
:108F2000032B01001301010267800000130A0000F7
:108F30006FF01FFD130101FD23286101232611029B
:108F4000232481022322910223202103232E310195
:108F5000232C4101232A510123267101130B052ED5
:108F600063060B08938B0500930A0500130A0000A3
:108F7000930910001309F0FF83244B0003248B0096
:108F80009384F4FF63C804028357C4009384F4FFFE
:108F900063FEF9008317E4009305040013850A00BB
:108FA00063862701E7800B00336AAA0013040407D5
:108FB000E39C24FD032B0B00E3100BFC8320C10278
:108FC00013050A00032481028324410203290102BC
:108FD0008329C101032A8101832A4101032B010155
:108FE000832BC1001301010367800000130A0000F6
:108FF0006FF0DFFC130101FF2322910023261100F3
:1090000023248100B704010063000602B7050100B4
:109010009385851D1305060013040600EFA04F8CF1
:10902000B7040100631E05001385441D8320C100A1
:1090300003248100832441001301010167800000A3
:109040009385441D13050400EFA08F89E30E05FCF2
:10905000B7050100938505B313050400EFA04F8801
:10906000E30405FC130500006FF05FFC37150004F6
:109070001305858467800000B717000403A5478D9A
:10908000678000003715000413058586678000009F
:10909000130500006780000037150004130585885C
:1090A00067800000B71700041386050093050500CC
:1090B00003A5078D6FF01FF437150004130585888D
:1090C000678000008397C500130101F723229108F0
:1090D0009394070193D404012326110823248108C3
:1090E00023202109232E310713F724006310070ED4
:1090F000130905000395E50013840500634C05047E
:1091000093050100EF700FAB6340050403270101D5
:10911000B7F70000B7E9FFFFB377F700B38937016E
:109120003787000093B91900638EE70A0357C4001C
:10913000B717000093870780B367F7002316F40082
:10914000930400406F0040038317C4009394070109
:1091500093D40401939484013717000093D4F4410D
:109160001307078093F404C4B3E7E7009384044033
:109170002316F400930900009385040013050900E9
:10918000EF908FC96302050A8357C4003787000038
:1091900013074771232EE90293E707082316F4000B
:1091A0002320A4002328A400232A94006390090606
:1091B0008320C1080324810883244108032901086E
:1091C0008329C107130101096780000093873504D3
:1091D00023A0F50023A8F5009307100023AAF500AB
:1091E0006FF01FFD03278402B7A700009387C74ACB
:1091F000E31EF7F28357C40093040040232694042F
:10920000B3E797002316F4006FF01FF70315E4008F
:10921000EF70CF9AE30E05F88357C40093E7170069
:109220002316F4006FF0DFF88317C40013F707204C
:10923000E31007F893E72700130734042316F4001C
:10924000930710002320E4002328E400232AF400DD
:109250006FF01FF69377350093F6F50F6382070CD6
:109260009307F6FF6300060603470500631CD7005B
:109270006F00800B63880704034705009387F7FF9F
:109280006304D7041305150013773500E31407FEB4
:1092900013063000636CF60263860702034705007D
:1092A0006304D70213071500B307F5006F00000130
:1092B000130717000346F7FF6308D60013050700DE
:1092C000E398E7FE130500006780000093F5F50FB3
:1092D000139785003367B70013130701B708FFFE24
:1092E00037888080336367009388F8EF1308080895
:1092F00093050600032705003347E30033061701F3
:109300001347F7FF3377E60033770701E31807F8D1
:109310009387C7FF13054500E3EEF5FC6FF0DFF719
:10932000930706006FF0DFF6678000008327C5040F
:10933000130101FF23248100232291002326110021
:10934000232021011304050093840500638E070286
:1093500013952400B387A70003A50700630605043F
:109360000327050023A0E700232805002326050086
:109370008320C100032481008324410003290100CC
:1093800013010101678000001306100293054000DD
:10939000EF3080372326A40493070500E31A05FA6B
:1093A000130500006FF0DFFC930510003399950062
:1093B000130659001316260013050400EF30C034BD
:1093C000E30005FE23229500232425016FF0DFF939
:1093D0006380050283A745000327C50493972700F0
:1093E000B307F70003A7070023A0E50023A0B700F9
:1093F00067800000130101FD37080100232481026A
:1094000023229102232021039384050003A4050154
:109410001309050023261102232E310193854501EE
:10942000130500001308F8FF83A705009385450086
:109430001305150033F707013307C70293D7070158
:10944000B387C7023307D700935607013377070165
:10945000B386D700939706013387E70023AEE5FE76
:1094600093D60601E34285FC6382060283A784004B
:10947000635EF4029307440093972700B387F400D8
:1094800023A2D7001304140023A884008320C10260
:10949000138504000324810283244102032901026D
:1094A0008329C101130101036780000083A54400E3
:1094B000130509002326D10093851500EFF01FE75F
:1094C00003A60401930905009385C4001306260032
:1094D0001305C50013162600EF90DF8703A744008D
:1094E0008327C9048326C10013172700B387E70029
:1094F00003A7070023A0E40023A09700938409009A
:109500006FF05FF7130101FE938786002326310178
:109510009389060093069000B3C6D702232C8100DE
:10952000232A91002328210123244101232E110005
:10953000232251019307100013840500130905002D
:10954000130A0600930407009305000063D8D700B0
:109550009397170093851500E3CCD7FE13050900F8
:10956000EFF0DFDC930710002328F500232A950095
:109570009307900063D44709B30AF40093840A0068
:10958000330444019384140083C6F4FF930505005B
:109590001306A000938606FD13050900EFF09FE572
:1095A000E39284FE33844A01130484FF63563A0332
:1095B000B3844941B3049400130414008346F4FFB8
:1095C000930505001306A000938606FD1305090008
:1095D000EFF05FE2E39284FE8320C1010324810166
:1095E00083244101032901018329C100032A810049
:1095F000832A410013010102678000001304A400C4
:10960000138A07006FF09FFAB706FFFFB376D50005
:1096100093070500130700006396060093170501E2
:1096200013070001B70600FFB3F6D70063960600E4
:109630001307870093978700B70600F0B3F6D700AB
:10964000639606001307470093974700B70600C0CC
:10965000B3F6D700639606001307270093972700F9
:1096600063CE0700939617001305000263C406003B
:1096700067800000130517006780000013050700CE
:1096800067800000832705009306050013F7770025
:109690006304070213F7170013050000631207089D
:1096A00013F727006310070893D7270023A0F600BD
:1096B000130520006780000013960701135606016A
:1096C000130700006316060093D707011307000174
:1096D00013F6F70F631606001307870093D787006A
:1096E00013F6F700631606001307470093D74700E9
:1096F00013F63700631606001307270093D72700D9
:1097000013F61700631A060093D71700130500021B
:10971000638807001307170023A0F600130507004E
:109720006780000093D7170023A0F60013051000F0
:1097300067800000130101FF2324810013840500CA
:109740009305100023261100EFF05FBE8320C100B7
:1097500013071000232A85002328E5000324810035
:109760001301010167800000130101FE232631016E
:109770002324410183A90501032A0601232A91001C
:1097800023282101232E1100232C81001389050099
:109790009304060063DC49011387090013090600DE
:1097A00093090A0093840500130A070083278900A0
:1097B0008325490033844901B3A78700B385F500A9
:1097C000EFF0DFB61303450193182400B30813012B
:1097D000930703006378130123A0070093874700D2
:1097E000E3EC17FF13864401131E2A00930E490170
:1097F00013982900B7050100330EC60133880E0106
:109800009385F5FF6374C61183230600B3F4B30098
:10981000638A040693020300938F0E0093070000EF
:109820006F0080009382030083A60F0003AF020045
:109830009383420033F7B6003307970293D60601AD
:109840003379BF00135F0F01938F4F00B3869602E9
:1098500033072701B307F70013D70701B3F7B700A2
:10986000B386E6013387E60093160701B3E7F600F7
:1098700023AEF3FE93570701E3E60FFB23A2F200AA
:109880008323060093D30301638C0306832703001D
:1098900093020300938F0E00138F070093060000BE
:1098A0006F0080009382040003A70F00135F0F0175
:1098B000B3F7B7003377B7003307770293844200DA
:1098C000938F4F003307E701B306D70013970601C4
:1098D000B367F70023AEF4FE03D7EFFF03AF4200F8
:1098E00093D6060133077702B377BF00B307F700BB
:1098F000B387D70093D60701E3E60FFB23A2F2005C
:109900001306460013034300E360C6F1635480026C
:1099100083A7C8FF9388C8FF638807006F00800192
:1099200083A70800639807001304F4FF9388C8FF17
:10993000E31804FE8320C10123288500832441010C
:1099400003248101032901018329C100032A810025
:109950001301010267800000130101FE232C810026
:109960002328210123263101232E1100232A9100CF
:109970009377360013040600930905001389050048
:10998000639E070A135424406306040683A48904D3
:10999000638A040C937714006390070213541440F5
:1099A000630A040403A50400630605069304050086
:1099B00093771400E38407FE1386040093050900DF
:1099C00013850900EFF05FDA630609068327490073
:1099D00003A7C9041354144093972700B307F70053
:1099E00003A707002320E90023A02701130905008E
:1099F000E31A04FA8320C10113050900032481013D
:109A000083244101032901018329C10013010102BB
:109A10006780000013860400938504001385090005
:109A2000EFF09FD423A0A400232005009304050099
:109A30006FF01FF8130905006FF05FF69387F7FFCB
:109A4000370701001307871E93972700B307F70016
:109A500003A6070093060000EFF0DF991309050045
:109A60006FF05FF29305100013850900EFF01F8C73
:109A700093071027232AF500930710002328F500E9
:109A800023A4A90493040500232005006FF09FF090
:109A9000130101FE2324410103AA0501232C8100A7
:109AA00083A7850013545640330A4401232A9100AA
:109AB000232821012326310123225101232E1100C5
:109AC00093041A009389050013090600930A050000
:109AD00083A5450063D897009397170093851500D9
:109AE000E3CC97FE13850A00EFF05F8493074501EE
:109AF0006354800E131724003387E70093874700D1
:109B000023AE07FEE39CE7FE83A809019387490182
:109B10001376F90193982800B388170163080608A3
:109B2000130300023303C340930600006F0080005C
:109B30001307080083A50700130847009387470011
:109B4000B395C500B3E6D500232ED8FE83A6C7FF84
:109B5000B3D66600E3EE17FD2322D7006384060028
:109B600093042A0083A7490003A7CA049384F4FF3F
:109B700093972700B307F70003A707008320C101CD
:109B80002328950023A0E90023A0370103248101A5
:109B900083244101032901018329C100032A810093
:109BA000832A410013010102678000009387470068
:109BB00083A6C7FF13074700232ED7FEE3F417FB46
:109BC0009387470083A6C7FF13074700232ED7FEBE
:109BD000E3EE17FD6FF01FF9138707006FF0DFF258
:109BE0008327050103A70501B387E74063920704B4
:109BF000131727001305450193854501B307E500B9
:109C0000B385E5006F0080006378F5029387C7FF96
:109C10009385C5FF03A7070083A60500E306D7FECB
:109C2000B337D700B307F04013E517006780000093
:109C3000138507006780000013050000678000009F
:109C400083A7050103270601130101FE2328210133
:109C500023263101232E1100232C8100232A910079
:109C600023244101B387E7401389050093090600C7
:109C7000639807041317270013884501130446014E
:109C8000B307E8003307E4006F0080006372F81642
:109C90009387C7FF1307C7FF83A507008326070025
:109CA000E386D5FE63F2D5169307090093040800F6
:109CB00013890900130A1000938907006F004001FF
:109CC00063CC07149304460113844501130A000072
:109CD00083254900EFF08FE5032E090103AF090149
:109CE00037030100931E2E00131F2F00232645016A
:109CF000B30ED401338FE40113084501930600002D
:109D00001303F3FF8325040083A80400130848000D
:109D100033F66500B306D60033F768003387E640B4
:109D200093D5050193D60801B385D54093560741D5
:109D3000B386D5009397060133776700B3E7E70052
:109D400093844400232EF8FE1304440093D6064166
:109D5000E3EAE4FB6370D407370F01001303080044
:109D600093080400130FFFFF83A5080013034300AB
:109D70009388480033F6E501B306D60013D70641B1
:109D800093D505013387E500B3F6E6019317070184
:109D9000B3E7D700232EF3FE93560741E3E6D8FD41
:109DA0001344F4FFB30ED40193FECEFF938E4E0006
:109DB0003308D8011308C8FF639A07001308C8FFC7
:109DC00083270800130EFEFFE38A07FE2328C50140
:109DD0008320C1010324810183244101032901015E
:109DE0008329C100032A810013010102678000005A
:109DF00093050000EFF08FD3930710002328F500A0
:109E0000232A05006FF0DFFC93040400130A00000E
:109E1000130408006FF0DFEB930709009304490176
:109E20001384490113890900130A1000938907005C
:109E30006FF01FEAB707F07FB3F5F500B707C0FC76
:109E4000B385F500635CB00013070000938705003D
:109E5000130507009385070067800000B305B04035
:109E600093D545419307300163D8B7029385C5FE6A
:109E70001306E00193070000930610006346B60046
:109E800093C5F5FFB396B6001387060013050700C8
:109E90009385070067800000B706080013070000DD
:109EA000B3D7B6401305070093850700678000000D
:109EB000130101FE232C810003240501232A9100B4
:109EC00093044501131424003384840023282101C2
:109ED0000329C4FF2326310123244101130509006E
:109EE000138A0500232E1100EFF00FF293070002F2
:109EF0003387A7402320EA001307A0009309C4FF7B
:109F0000634EA7049307B000B387A7403707F03F1D
:109F1000B355F900B3E6E5001307000063F634011A
:109F2000032784FF3357F700930755013315F900D2
:109F30003366E5008320C101130506009385060002
:109F40000324810183244101032901018329C100E4
:109F5000032A8100130101026780000063F43405C5
:109F6000130755FF032584FF63020704B706F03F7C
:109F7000B387E7403319E9003369D9003358F50056
:109F8000930584FFB366090163F6B404832544FF97
:109F90003315E500B3D7F50033E5A7001306050038
:109FA0006FF05FF9130555FF631A0500B707F03F1F
:109FB000B366F900130605006FF0DFF73315A9004B
:109FC000B707F03FB366F500130500001306050060
:109FD0006FF05FF63315E500130605006FF09FF58F
:109FE000130101FD93051000232481022322910215
:109FF0001384060023202103232E3101232C410149
:10A00000232A51019389070023261102130A07000E
:10A01000930A0600EFF08FB193141400B7071000F5
:10A020009386F7FF93D45401130905003374D400C9
:10A03000638404003364F4002326810063840A08E7
:10A040001305810023245101EFF0CFE393070500AE
:10A050000327C1006316050A83268100232AD9003D
:10A06000133417009306200033848640232CE90024
:10A070002328890063980406131724003307E90096
:10A08000032507019387E7BC2320FA00EFF0CFD721
:10A09000131454003305A44023A0A9008320C10257
:10A0A00013050900032481028324410203290102CC
:10A0B0008329C101032A8101832A4101130101037C
:10A0C000678000001305C100EFF0CFDB8327C100DC
:10A0D0001304100023288900232AF900930705029E
:10A0E000E38C04F89384D4BCB384F40013075003C6
:10A0F00023209A00B307F74023A0F9006FF01FFA5E
:10A100009306000203268100B386A640B316D7004B
:10A11000B3E6C6003357A700232AD9002326E1005F
:10A120006FF01FF4130101FD2320210313890500A3
:10A130009305810023261102232481022322910208
:10A14000232E310193090500EFF09FD6130405007B
:10A1500093840500130509009305C100EFF05FD556
:10A160000327090183A70901938605008325C10000
:10A17000B387E74013975700832781001306050034
:10A18000B387B740B307F700635CF00293974701CA
:10A19000B38597009384050013050400938504009C
:10A1A000EF40905B8320C10203248102832441029B
:10A1B000032901028329C101130101036780000003
:10A1C00093974701B388F640938608006FF0DFFC51
:10A1D000130101FF232481002326110023222101E2
:10A1E00023203101930770011304050063D4A704F1
:10A1F000B707010003A5077783A54777B7070100D5
:10A2000003A9877783A9C7771304F4FF130609000E
:10A2100093860900EF40102EE31804FE8320C1004E
:10A220000324810003294100832901001301010156
:10A2300067800000B7070100131435009387871E5D
:10A240003384870003250401832544016FF01FFD3B
:10A25000032706019385F5FF13D85540130818000E
:10A26000930746011317270013182800B386E70049
:10A270003308050163F8D7021307050093874700E9
:10A2800083A5C7FF13074700232EB7FEE3E8D7FED9
:10A29000B387C6409387B7FE93F7C7FF93874700FE
:10A2A0003305F5006378050113054500232E05FEEF
:10A2B000E36C05FF678000008327050113D7554035
:10A2C0009306450163DAE70293972700B387F60008
:10A2D00063F2F60603A5C7FF9387C7FF631A05005D
:10A2E00063F8F6049387C7FF03A70700E30A07FE96
:10A2F00013051000678000006356F70293172700CC
:10A3000093F5F501B387F600E38405FC03A6070087
:10A31000130510003357B600B315B700E30AB6FAB9
:10A320006780000093172700B387F6006FF05FFA8D
:10A3300067800000130500006780000033E7A50078
:10A3400093070500130520006314070067800000D1
:10A35000370700806388E5043707F0FF3387E5009F
:10A36000B706E07F13054000E362D7FE3707F07FB2
:10A370003387E500E36CD7FC370700801347F7FF0E
:10A38000B3F5E5003707100013053000E3E0E5FC06
:10A390003707F07F13050000E39AE5FA13B51700BD
:10A3A0006780000013052000E39807FC6780000029
:10A3B0000395E500130101FF2324810013840500A8
:10A3C000930506001386060023261100EF608F8296
:10A3D000634C050283270405832644051356F54183
:10A3E000B385A7008320C10033B7F500B387C6004B
:10A3F000B307F7002328B404232AF40403248100BC
:10A4000013010101678000000357C400B7F7FFFF85
:10A410008320C1009387F7FFB377F7002316F4007A
:10A42000032481001301010167800000130500006F
:10A43000678000000397C500130101FF23248100FA
:10A440002322910023202101232611009377071056
:10A45000138405009304060013890600638E070029
:10A460000395E50013072000130600009306000083
:10A47000EF509FF60317C400B7F7FFFF9387F7FF6E
:10A48000B377F7000315E4002316F4001306090060
:10A49000938504008320C1000324810083244100AC
:10A4A00003290100130101016F501FFF0395E5000F
:10A4B000130101FF232481002326110013840500CA
:10A4C000EF509FF19307F0FF0357C4006304F502B8
:10A4D0008320C100B7170000B367F7002328A40446
:10A4E0002316F400232AB40403248100130101017C
:10A4F00067800000E39EA5FCB7F7FFFF8320C10043
:10A500009387F7FFB377F7002316F4000324810045
:10A5100013010101678000000395E5006F505FE9BA
:10A520009377350093050500639A0704B7867F7F0C
:10A530009386F6F71306F0FF130545008327C5FF42
:10A5400033F7D7003307D700B3E7D700B367F70077
:10A55000E384C7FE0347C5FFB307B5408346D5FF75
:10A560000346E5FF630E0702638806021385F7FFC3
:10A57000630C060267800000E30A07FA83470500C0
:10A580001305150013773500E39807FE3305B54032
:10A590001305F5FF678000001385D7FF6780000073
:10A5A0001385C7FF678000001385E7FF6780000001
:10A5B00083278600130101FD232A5101232611025E
:10A5C000232481022322910223202103232E3101FF
:10A5D000232C4101232861012326710123248101B9
:10A5E000930A0600638E0714130B050083290600E7
:10A5F00003A5050083A7850093840500930B000045
:10A60000130400006300040E13890700138A070077
:10A610006362F40E03D7C40093770748638A070880
:10A6200003A9440183A5040193061400931719009C
:10A63000338927019357F90133892701330AB5403C
:10A6400013591940B3874601130609006376F900D0
:10A650001389070013860700137707406302070A70
:10A660009305060013050B00EF701FFB130C05008C
:10A670006306050A83A5040113060A00EF808FED27
:10A6800083D7C40093F7F7B793E707082396F4003E
:10A6900033054C01330A494123AA240123A4440170
:10A6A00023A8840123A0A40013090400130A0400B2
:10A6B00013060A0093850B00EF20500A83A784003D
:10A6C00003A5040003A78A00B3872741330545018A
:10A6D00023A4F40023A0A4003304874023A48A0009
:10A6E0006300040683AB090003A449009389890031
:10A6F0006FF05FF113090400130A04006FF05FFBB1
:10A7000013050B00EF209017130C0500E31205F85A
:10A7100083A5040113050B00EFE04FC89307C000A9
:10A720002320FB0083D7C4001305F0FF93E7070441
:10A730002396F40023A40A0023A20A006F00C0009D
:10A7400023A20A00130500008320C1020324810212
:10A7500083244102032901028329C101032A8101C3
:10A76000832A4101032B0101832BC100032C8100AB
:10A77000130101036780000083D7C500130101F1B5
:10A780002320210F2326710D2324810D2326110E52
:10A790002324810E2322910E232E310D232C410DD3
:10A7A000232A510D2328610D2322910D2320A10D71
:10A7B000232EB10B93F70708232AD100938B0500B2
:10A7C000130C0500130906006386070083A7050123
:10A7D000E38A07423707010013070731130A01070D
:10A7E000232CE1001307F106B7090100B7040100AB
:10A7F0003307EA40232E41032322010423200104CE
:10A8000093070A00232E010023280100938949475A
:10A81000938444482326E10203470900E302070624
:10A8200093065002130409006316D7006F00400519
:10A830006308D7001304140003470400E31A07FE5B
:10A84000B30A2441638E0A028326410403270104CC
:10A8500023A02701B38656011307170023A257012F
:10A860002322D1042320E1049306700093878700FC
:10A87000E3CCE61603270101330757012328E10043
:10A8800003470400E302070013091400A30B0102AD
:10A8900013050000130800001304F0FF2322010039
:10A8A000130B000013068005930590009308A00287
:10A8B0008346090013091900138706FE6360E61E2C
:10A8C00003238101131727003307670003270700BD
:10A8D00067000700136B0B016FF09FFD0327410119
:10A8E0008326070013074700232AE1002322D10013
:10A8F000E3D006FC3307D0402322E100136B4B006A
:10A900006FF01FFB13070003230CE10213078007FE
:10A91000A30CE10203274101A30B010213662B00E4
:10A920009306470003270700E34E0424137BFBF73D
:10A93000232AD100136B2B00E30A071AB706010084
:10A940009386060213060000232ED100930D0A0001
:10A950008325C1019376F700938DFDFFB386D50063
:10A9600083C60600135747002380DD00E31207FE6D
:10A970003307BA412326E1006F00000D13051000D4
:10A980001308B0026FF0DFF2E31A053413770B01FE
:10A990006304074403274101A30B01029306470008
:10A9A0000327070063480444232AD100137BFBF7E5
:10A9B000E308070E13060000930D0A009376770054
:10A9C000938DFDFF938606032380DD001357370028
:10A9D000E31607FE13771B00E30C07F813070003C9
:10A9E000E388E6F89386FDFFA38FEDFE3307DA4098
:10A9F0002326E100938D06006F000005136B1B00FA
:10AA00006FF01FEBE318052C136B0B0113770B0191
:10AA1000E30C07048326410103A706009386460042
:10AA2000232AD100E3400706034671036348043834
:10AA3000137BFBF763160722E318041213040000CC
:10AA400023260100930D0A000327C100930C040084
:10AA50006354E400930C07003336C000B38CCC0081
:10AA60006F00C00523220100138706FD032E41005D
:10AA7000130919008346F9FF13131E00931A3E00B1
:10AA8000B30A5301330757012322E100138706FD60
:10AA9000E3FEE5FC138706FEE374E6E2E310052619
:10AAA0006384065E930C10002304D104A30B0102FF
:10AAB00023269101930D81041304000013772B00CA
:10AAC0002320E10263040700938C2C0013774B08CA
:10AAD0002322E1026310073803274100B30A97419C
:10AAE000635A5037130300012324310383264104A2
:10AAF0000327010463525307130D70006F00C00059
:10AB0000938A0AFF635A53059386060113071700B9
:10AB100023A0370123A267002322D1042320E104CC
:10AB200093878700E35EEDFC1306C10393850B005A
:10AB300013050C0023246100EFF09FA76312055654
:10AB400003238100938A0AFF83264104032701041B
:10AB500093070A00E34A53FB03268102B386DA0017
:10AB60001307170023A0C70023A257012322D104F3
:10AB70002320E10413067000938787006350E62EBC
:10AB80001306C10393850B0013050C00EFF05FA2C1
:10AB900063180550832641040327010493070A0024
:10ABA0006F00C02B136B0B086FF09FD0834609001A
:10ABB00013091900E38A160D138706FD130400001C
:10ABC000E3ECE5CE130919008346F9FF13131400D3
:10ABD00013143400330483003304E400138706FDA8
:10ABE000E3F2E5FEE35A04CC1304F0FF6FF0DFCC90
:10ABF000E31E050C13770B0163160770137B0B0420
:10AC000063020B708326410103A70600938646006A
:10AC1000232AD100835601012310D7006FF0DFBF34
:10AC2000E31808C813051000130800026FF05FC88E
:10AC3000E312050C13770B0163000716032741018C
:10AC4000A30B010293064700032707006344041681
:10AC5000232AD100137BFBF713060000E30E07DC69
:10AC600093069000930D0A009305A00063F0E67030
:10AC7000B376B702938DFDFF3357B7029386060371
:10AC80002380DD00E30607CEB376B702938DFDFF88
:10AC90003357B702938606032380DD00E31A07FCCF
:10ACA0006FF01FCD03274101A30B0102832D070085
:10ACB000930A470063840D722324F10063400470FB
:10ACC000130604009305000013850D00EFE08FD8F4
:10ACD00083278100630C05783307B5412326E10003
:10ACE00003467103232A5101130400006FF0DFD5DE
:10ACF00083264101930C1000A30B010203A7060059
:10AD000023269101930D81042304E1041387460057
:10AD1000232AE1006FF05FDA631A057C3707010030
:10AD20001307C700232EE10013770B016308070EFA
:10AD3000032641010327060013064600232AC1000B
:10AD400013761B00630C060E630207501306000304
:10AD5000A30CD102230CC102A30B010293662B00AA
:10AD6000634A046E137BFBF7136B2B001306000082
:10AD70006FF0DFBD136B0B046FF09FB3E30805C8E2
:10AD8000A30B01036FF09FC8631E0570136B0B01CB
:10AD900013770B01E31407EA13770B04A30B0102EB
:10ADA000630A07580327410193064700035707002A
:10ADB000E35004EA232AD10013060000E31207EA55
:10ADC000130710006F00005E631C056E136B0B0110
:10ADD00013770B01E31007BC13770B04A30B0102DD
:10ADE00063000754032741019306470003570700F8
:10ADF000E35C04BA232AD10013060000E31E07BA5D
:10AE00006F00405A6310056E3707010013070702F1
:10AE1000232EE10013770B01E31C07F013770B04DB
:10AE200003264101630A0752035706001306460032
:10AE3000232AC10013761B00E31806F0A30B0102BE
:10AE4000634C0454137BFBF76308074013060000B0
:10AE50006FF0DFAF8326410403270104034671032B
:10AE6000630806021306710323A0C7009386160029
:10AE7000130610001307170023A2C7002322D104D2
:10AE80002320E1041306700093878700634CE636A5
:10AE900003260102630806021306810323A0C700EC
:10AEA00093862600130620001307170023A2C7006D
:10AEB0002322D1042320E104130670009387870026
:10AEC0006344E63683254102130600086380C522E9
:10AED0000326C1003304C440635A800A13080001EA
:10AEE0002320910263508806930A0800130D700016
:10AEF0006F00C000130404FF63D68A049386060122
:10AF00001307170023A0970023A257012322D1047F
:10AF10002320E10493878700E35EEDFC1306C10361
:10AF200093850B0013050C00EFF08FE8631A0516EC
:10AF3000130404FF832641040327010493070A0036
:10AF4000E3CE8AFA03260102B386860013071700B0
:10AF500023A0C70023A287002322D1042320E104D9
:10AF600013067000938787006352E6021306C1033D
:10AF700093850B0013050C00EFF08FE363120512AD
:10AF8000832641040327010493070A000326C10016
:10AF90001307170023A0B701B306D60023A2C700EA
:10AFA0002322D1042320E104130670009387870035
:10AFB0006340E620137B4B00630E0B080327410020
:10AFC0003304974163588008130B00012324310395
:10AFD00003270104635E8B04130D70006F00C00033
:10AFE000130404FF63568B049386060113071700AE
:10AFF00023A0370123A267012322D1042320E104E7
:10B0000093878700E35EEDFC1306C10393850B0075
:10B0100013050C00EFF0CFD963140508130404FFE7
:10B02000832641040327010493070A00E34E8BFAA9
:10B0300003268102B38686001307170023A0C700EA
:10B0400023A287002322D1042320E1049307700068
:10B0500063C0E728832A410063D49A01938A0C00D5
:10B0600083270101B38757012328F1006392061655
:10B07000034709002320010493070A00631207FA1B
:10B08000130409006FF0CFFF83274104638A070090
:10B090001306C10393850B0013050C00EFF04FD18D
:10B0A00083D7CB000325010193F707046392073888
:10B0B0008320C10E0324810E8324410E0329010E37
:10B0C0008329C10D032A810D832A410D032B010D14
:10B0D000832BC10C032C810C832C410C032D010C00
:10B0E000832DC10B1301010F67800000032641006F
:10B0F000B30A9641E35E50DD130300012320910261
:10B1000063525307130D70006F00C000938A0AFF4B
:10B11000635A5305938606011307170023A097006F
:10B1200023A267002322D1042320E1049387870010
:10B13000E35EEDFC1306C10393850B0013050C00C1
:10B1400023246100EFF0CFC6E31C05F40323810044
:10B15000938A0AFF832641040327010493070A0008
:10B16000E34A53FB03260102B38656011307170077
:10B1700023A0C70023A257012322D1042320E104E6
:10B180001306700093878700E354E6D41306C103C7
:10B1900093850B0013050C00EFF08FC1E31205F04F
:10B1A000832641040327010493070A006FF05FD24E
:10B1B0001306C10393850B0013050C00EFF04FBF7E
:10B1C000E31005EE8326410493070A006FF09FDE2B
:10B1D0001306C10393850B0013050C00EFF04FBD60
:10B1E000E30805E86FF0DFEB1306C10393850B005E
:10B1F00013050C00EFF0CFBBE31405EA93070A0038
:10B200006FF04FE71306C10393850B0013050C0085
:10B21000EFF00FBAE31605E8832641040327010483
:10B2200093070A006FF0DFC61306C10393850B0076
:10B2300013050C00EFF0CFB7E31405E683264104B5
:10B240000327010493070A006FF0DFC7A30B010275
:10B25000634A0420137BFBF713060000630004FE1F
:10B26000130700006FF08FEE13770B048326410164
:10B27000630C070C0397060093864600232AD1002F
:10B28000635407FA9306D002A30BD1023307E040C0
:10B290006344041A137BFBF71306D0026FF05F9C24
:10B2A0001306000013070000631804F013771B0057
:10B2B000130604006308071613070003A307E1063B
:10B2C0000327C102930DF1062326E1006FF0CFF7AB
:10B2D0001306C10393850B0013050C00EFF04FAD6F
:10B2E000E31005DC832641046FF0DFD63707010049
:10B2F00013070702232EE10013060000E31204F6F1
:10B300006FF0CFF38326410103A706009386460022
:10B31000232AD100832601012320D7006FF0CFCF4D
:10B32000032741019306470003270700635E04E6F5
:10B330006FF05FAC03274101930647000327070026
:10B34000E35804906FF01FA703A7060093864600FA
:10B35000232AD1006FF00FED0327060013064600E5
:10B36000232AC1006FF0DF9D1307000013070703B6
:10B37000A307E1060327C102930DF1062326E1008E
:10B380006FF08FEC232AD100B706010093860602E6
:10B39000130B0600232ED10013060000631807DAF2
:10B3A0001307200093061000E300D7FC930620004B
:10B3B000E308D7EA130700006FF00FE013850D00D4
:10B3C000EFF00F962326A10003467103232A5101B3
:10B3D00013040000832781006FF00FE7130760005C
:10B3E000637487001304070023268100930C040074
:10B3F00063480408B7080100232A5101938D4803CC
:10B400006FF08FEB93050004EF700FA123A0AB004A
:10B4100023A8AB00630E05089307000423AAFB00D2
:10B420006FF04FBB23260100930D0A006FF0CFE1B0
:10B430001305F0FF6FF0DFC71306D002930610006C
:10B4400093051000E38EB680930520006380B6D08C
:10B450006FF08FD6138B06001306000093062000B2
:10B460006FF01FFE130600006FF09FF3232681008C
:10B4700003467103232A5101130400006FF0CFDC4F
:10B48000930C00006FF01FF703274101032407000E
:10B49000930D4700232AB101635C04C01304F0FF3D
:10B4A0006FF00FC1A30B0103136B0B016FF05F8EE5
:10B4B0009307C0002320FC001305F0FF6FF05FBF6F
:10B4C000A30B0103136B0B016FF09F90A30B010300
:10B4D0006FF04FF2A30B01036FF00FD3A30B010327
:10B4E0006FF0CFCAA30B01036FF01F92A30B0103F0
:10B4F0006FF0DF82A30B01036FF0CFF3A30B010307
:10B500006FF00FDA83A78506130101FD232861017F
:10B5100023261102232481022322910223202103C6
:10B52000232E3101232C4101232A510123267101AD
:10B5300013972701130B06006356070A832786001B
:10B54000138A0500930A0500832B06009309F0FF78
:10B550006386070803A94B0083A40B0013040000B3
:10B5600013592900631809006F00000693844400F2
:10B57000630A890483A5040013060A0013850A00E0
:10B58000EF10C04913041400E31235FF13850900BE
:10B590008320C10223240B0023220B0003248102F9
:10B5A00083244102032901028329C101032A810165
:10B5B000832A4101032B0101832BC10013010103E5
:10B5C0006780000083278B0013192900B387274168
:10B5D0002324FB00938B8B00E39E07F613050000EA
:10B5E0006FF01FFBEF10004E6FF09FFA03278600ED
:10B5F000630407006FF01FF123220600130500000B
:10B6000067800000130101F12322910E232A510DBE
:10B610002320A10D2326110E2324810E2320210F88
:10B62000232E310D232C410D2328610D2326710D6E
:10B630002324810D2322910D232EB10B2324D1002D
:10B64000930A0500138D05009304060063060500A8
:10B6500083278503638A071E8316CD00939706010F
:10B6600093D70701139727016346070203268D0628
:10B67000B727000037E7FFFFB3E7F6001307F7FF30
:10B680003377E6002316FD00939707012324ED0688
:10B6900093D7070113F78700630C071203270D01E7
:10B6A0006308071293F7A7011307A0006382E7144A
:10B6B000370C010093074C49930C01072326F10036
:10B6C0009307F106370E0100B7080100B387FC406D
:10B6D000232E91032322010423200104232E0100A1
:10B6E00023220100130B8E5F138C88602320F1024C
:10B6F00013880C001384040083470400E384074C80
:10B7000013075002130904006396E7006F00400519
:10B710006388E7001309190083470900E39A07FECD
:10B72000B3048940638E0402032741048327010484
:10B73000232088003387E400938717002322980092
:10B740002322E1042320F1049306700013088800EB
:10B7500063C2F60683274100B38797002322F100D6
:10B7600083470900E382070693041900A30B010233
:10B7700013050000930800009306F0FF1309000072
:10B78000930B00001306800593059000930EA00212
:10B7900003C7040013841400930707FE636CF66864
:10B7A0000323C10093972700B387670083A707008F
:10B7B00067800700E314072E2320010413880C0080
:10B7C0006FF05FF993EB0B01930404006FF05FFCE3
:10B7D00093050D0013850A00EFB04FC2E316054A2A
:10B7E0008357CD001307A00093F7A701E392E7EC7E
:10B7F0008317ED00E3CE07EA832681001386040059
:10B8000093050D0013850A00EF0010648320C10E1C
:10B810000324810E8324410E0329010E8329C10DC7
:10B82000032A810D832A410D032B010D832BC10CAB
:10B83000032C810C832C410C032D010C832DC10B97
:10B840001301010F67800000EFD00FA06FF0DFE061
:10B850008327810003A90700938747002324F10071
:10B86000E35409F63309204193EB4B0093040400A1
:10B870006FF01FF293070003230CF1029307800778
:10B88000A30CF10283278100A30B010213E62B0016
:10B890001387470083A70700E3C6062C13FEFBF7B8
:10B8A0002324E100936B2E00E390072EB70D0100D7
:10B8B00093870D02232EF10013060000E39E061E5F
:10B8C00093060000130A0000938D0C009389060074
:10B8D00063D4460193090A003336C000B389C90016
:10B8E00093FF2B0063840F009389290093F44B0886
:10B8F000639E045A33073941635AE05A93080001A2
:10B9000083274104E3DAE83E23268102032501046C
:10B91000232C6101930270002322D1022324F1031E
:10B92000130407006F008001130625001308880028
:10B9300013850600130404FF63DC88029387070164
:10B940009306150023206801232218012322F10405
:10B950002320D104E3DAD2FC639E0750130404FFD2
:10B96000130500001306100013880C00E3C888FCC0
:10B970001307040083264102832F81020324C1029E
:10B9800083258101B307F7002322E8002320B800B4
:10B990002322F1042320C10413077000634EC77AE9
:10B9A000034771031308880093051600631A0750B4
:10B9B00063840F5413078103938727002320E80033
:10B9C000130720002322E8002322F1042320B104DE
:10B9D000130770006358B77CE394070E1307000841
:10B9E000930510001306000013880C00639AE450BE
:10B9F000B304394163569050130F0001E35C9F3646
:10BA000013070400232C810113840400930F70009A
:10BA10002322D102930407006F0080011305260042
:10BA20001308880013060700130404FF635C8F02E9
:10BA30009387070113071600232088012322E801BA
:10BA40002322F1042320E104E3DAEFFC639A076C7C
:10BA5000130404FF130510001306000013880C00E4
:10BA6000E3488FFC832641021387040093040400FB
:10BA70001304070003278101B3879700232298004E
:10BA80002320E8002322F1042320A10413077000DF
:10BA9000E34CA708B38446411308880093051500BA
:10BAA0001306050063429046B307FA002320B8014D
:10BAB000232248012322F1042320B104130770003C
:10BAC000635AB754639607762320010413FE4B0094
:10BAD00063060E00330A3941E34C401B63543901BD
:10BAE0001389090083274100B38727012322F1002E
:10BAF0002320010413880C006FF01FC013051000F1
:10BB00009308B002930404006FF09FC893EB0B08F6
:10BB1000930404006FF0DFC713090000930707FDCB
:10BB2000130414000347F4FF131319001319390009
:10BB30003309230133892701930707FDE3F2F5FE5B
:10BB40006FF09FC5E310052A93EB0B0193F70B01F0
:10BB500063880772032781008327070013074700C4
:10BB60002324E100E3C807080346710363C2066AA1
:10BB700093FBFBF7638E071013079000938D0C0067
:10BB80009305A000637AF71033F7B702938DFDFF9A
:10BB9000B3D7B702130707032380ED00E39607FE30
:10BBA000338ABC416FF09FD2E316052493EB0B015F
:10BBB00093F70B01638E076883278100A30B0102B3
:10BBC0001387470083A7070063C2066A2324E100A6
:10BBD00093FBFBF76392076A1306000093070000CC
:10BBE000E3820622938D0C0013F77700938DFDFFFF
:10BBF000130707032380ED0093D73700E39607FE72
:10BC000093F71B00E38E07F893070003E30AF7F8A6
:10BC10001387FDFFA38FFDFE338AEC40930D0700D1
:10BC20006FF0DFCAE31C051C93F70B016396072234
:10BC300013FE0B0463020E220327810083270700F3
:10BC4000130747002324E100035741002390E70036
:10BC50006FF09FAAE314051893EB0B0193F70B0108
:10BC6000639A075893F70B04A30B0102638A0776C4
:10BC7000832781001387470083D7070063C60658D0
:10BC80002324E10093FBFBF713060000E39607EE85
:10BC9000E38806C29307000093870703A307F10612
:10BCA000032A0102930DF1066FF05FC2E39E08B014
:10BCB0001305100093080002930404006FF05FADB9
:10BCC00093EB1B00930404006FF09FAC832781006B
:10BCD000A30B010283AD070093844700E3860D04A4
:10BCE0002328010163C2067C138606009305000029
:10BCF00013850D002324D100EFD0CFD583268100FA
:10BD000003280101E30E0506330AB541034671031A
:10BD100023249100930600006FF05FBBE30005F45D
:10BD2000A30B11036FF09FF3032781009309100009
:10BD3000A30B010283270700138A0900930D8104D6
:10BD40002304F104930747002324F1009306000025
:10BD50006FF01FB9E30C05DEA30B11036FF01FDFBB
:10BD6000E31A0506B70D01009387CD00232EF100DD
:10BD700093F70B01638007060326810083270600E3
:10BD8000130646002324C10013F61B006304064279
:10BD900063960760A30B010263C2065E93FBFBF789
:10BDA0006FF09FB1E30605E0A30B11036FF05FE0B6
:10BDB00093EB0B04930404006FF09F9DE3180500C0
:10BDC000B70D010093870D02232EF10093F70B01AD
:10BDD000E39407FA93F70B0403268100638A076450
:10BDE00083570600130646002324C1006FF0DFF9D5
:10BDF0000347040013041400630AD77B930707FD6D
:10BE000093060000E3EAF598130414000347F4FFD7
:10BE10001393160093963600B306D300B386F6004C
:10BE2000930707FDE3F2F5FEE3D806969306F0FFCD
:10BE30006FF09F96631C057A63080718930910003A
:10BE40002304E104A30B0102138A0900930D81046A
:10BE5000930600006FF0DFA8032781008327070007
:10BE6000130747002324E1000327410023A0E70034
:10BE70006FF09F881306C10393050D0013850A0018
:10BE8000232A510023281101EFF0CFE7631A05148C
:10BE9000032501048327410413880C0013061500B1
:10BEA00083224101832801016FF0DFA803260104EA
:10BEB000832741049305160003477103E30A07AE85
:10BEC0001307100013067103B387E7002320C8008F
:10BED0002322E8002322F1042320B104130670007A
:10BEE000635EB6286396074063920F2A130600002C
:10BEF0009305070013880C0013070008E38AE4AEDB
:10BF0000B3844641E35290BA93080001232C810187
:10BF100063DA9804130F70006F0080019305260008
:10BF20001308880013060700938404FF63DC98025B
:10BF30009387070113071600232088012322180185
:10BF40002322F1042320E104E35AEFFC6392070467
:10BF5000938404FF930510001306000013880C005F
:10BF6000E3C898FC03278101B38797002322980038
:10BF70002320E8002322F1042320B10413077000DA
:10BF8000634AB70613088800938515006FF0DFB188
:10BF90001306C10393050D0013850A00232AE1014E
:10BFA00023281101EFF00FD6631C050203260104BC
:10BFB0008327410413880C0093051600032F4101C9
:10BFC000832801016FF05FF683274104638A07002D
:10BFD0001306C10393050D0013850A00EFF08FD2FD
:10BFE0008357CD0093F707046390074A0325410068
:10BFF0006FF0DF81639407341307100093070A0082
:10C000002328B107232A4107232241052320E104E5
:10C0100013880C001308880013FE4B0063060E0AF9
:10C02000330A39416352400B9308000163DC4853E3
:10C0300083260104232C6101938B08009304700074
:10C040006F008001138626001308880093060700FE
:10C05000130A0AFF63DC4B0393870701138716005B
:10C0600023206801232278012322F1042320E10404
:10C07000E3DAE4FC63920708130A0AFF13061000D0
:10C080009306000013880C00E3C84BFD03278101D1
:10C09000B3874701232248012320E8002322F1042B
:10C0A0002320C104130770006350C702E38807A26E
:10C0B0001306C10393050D0013850A00EFF08FC42A
:10C0C000E31005F283274104635439011389090001
:10C0D00003274100330727012322E100E38A07A059
:10C0E0001306C10393050D0013850A00EFF08FC1FD
:10C0F000E30005A06FF0DFEE1306C10393050D000A
:10C1000013850A00EFF00FC0E31C05EC8326010441
:10C110008327410413880C00138616006FF05FF329
:10C120001306C10393050D0013850A00232AF101AC
:10C130002328E101EFF00FBDE31405EA0326010413
:10C140008327410413880C0013051600832F410137
:10C15000032F01016FF05F8D639C072E034771036E
:10C160006308072A930710001307710393850700DC
:10C170002328E106232AF10613880C001386050004
:10C1800013088800938515006FF09F8293072000A5
:10C19000130681032328C106232AF106930507000D
:10C1A00013880C001386050013088800938515007A
:10C1B0006FF09FD4A30B010263C0061C93FBFBF737
:10C1C000638C07EE130600008325C101938D0C00DC
:10C1D00013F7F7003387E50003470700938DFDFF52
:10C1E00093D747002380ED00E39407FE338ABC41D8
:10C1F0006FF0CFED83278100A30B01021387470067
:10C2000083A70700E3DE06A62324E100130600004F
:10C21000E39407969307100013071000E38CE7A63A
:10C2200013072000638AE708930700006FF09F9BC5
:10C230001306C10393050D0013850A00EFF08FACC0
:10C24000E31005DA8327410413880C006FF0DFDC6C
:10C2500093F70B04A30B0102638A0716832781005F
:10C260001387470083D70700E3D206962324E10013
:10C2700013060000E38207FA130600006FF09F9692
:10C2800093F70B0403278100638C071A83170700B9
:10C29000130747002324E1006FF0DF8C1306C1036E
:10C2A00093050D0013850A00EFF0CFA5E31A05D220
:10C2B00013880C006FF00FCA930700006FF0DFF0D7
:10C2C0001306C10393050D0013850A002328D1002E
:10C2D000EFF04FA3E31605D00326010483274104A2
:10C2E00013880C0093051600832601016FF0DFC050
:10C2F0001306C10393050D0013850A00232AF101DB
:10C300002328D100EFF00FA0E31C05CC0326010485
:10C310008327410413880C0093051600832F4101E5
:10C32000832601016FF0CFE86390071A9305100090
:10C330001306000013880C006FF09FBC1306C103A6
:10C3400093050D0013850A00EFF0CF9BE31A05C893
:10C35000832501048327410413880C00938515006D
:10C360006FF08FF4B70D01002324E10013870D0255
:10C37000930B0600232EE100E39607E4130600006A
:10C38000930720006FF05FE9B70D010013870D02DE
:10C3900013060000232EE1006FF01FE313060003D5
:10C3A000A30CE102230CC102A30B010213E72B0033
:10C3B00063CC061413FEFBF7936B2E0013060000EC
:10C3C0006FF09FE0130904006FF08FB9832781009D
:10C3D0001387470083A7070063DA06FE6FF01FE9A3
:10C3E000832781001387470083A70700E3DA0688C5
:10C3F0006FF09FE11307D002A30BE102B307F040F7
:10C4000063CA061493FBFBF71306D0026FF0CFF656
:10C4100063840F0893072000130781032328E10694
:10C42000232AF1069305100013880C006FF09FD7A4
:10C4300083270600130646002324C1006FF0DF9413
:10C4400083270700130747002324E1006FF08FF1D3
:10C450001306C10393050D0013850A00232AF10179
:10C460002328D100EFF00F8AE31C05B60326010450
:10C470008327410413880C0093051600832F410184
:10C48000832601016FF05FA31305F0FF6FF00FB873
:10C4900013880C006FF05FB91306000093051000BD
:10C4A00013880C006FF05FA513850D00EFE04F8738
:10C4B000130A05000346710323249100930600002C
:10C4C000032801016FF08FC01306C10393050D000F
:10C4D00013850A002328D100EFF0CF82E31205B0C4
:10C4E000032601048327410413880C0093051600DA
:10C4F000832601016FF0DFA003260104232C6101D4
:10C50000130616006FF0CFC7130600009305200036
:10C51000130510006380A508130520006390A5088B
:10C52000930B07006FF05FCA9307600063F4D700B6
:10C5300093860700138A06009389060063C40606E3
:10C54000B70E010023249100938D4E039306000043
:10C550006FF00FB913870B001306D002930510007C
:10C560006FF01FFB03260104232C61011306160044
:10C570006FF0DFB113850500232C81016FF08FCFA1
:10C58000138A0600034671032324910093060000DA
:10C590006FF0CFB3930B07006FF00FDE930B070024
:10C5A0006FF04FE4930900006FF09FF9832781003B
:10C5B00083A60700938747002324F10063D606A0D3
:10C5C0009306F0FF930404006FF08F9CA30B1103FC
:10C5D0006FF00FFFA30B11036FF0CFF8A30B110344
:10C5E0006FF08FE7A30B11036FF00FD6A30B1103AE
:10C5F0006FF09F84A30B11036FF04FDBA30B1103AC
:10C600006FF08FE293F71B0013860600638C070020
:10C6100093070003A307F106032A0102930DF10615
:10C620006FF0CFAA130A0000938D0C006FF00FAAD1
:10C63000B71700049306060013860500930505004E
:10C6400003A5078D6FE01FFC83D7C50003AE8506E9
:10C6500003D3E50083A8C50103A84502130101B86F
:10C6600093F7D7FF13070040232C81462316F100D0
:10C67000138405009307010793050100232A9146BF
:10C6800023282147232E1146130905002324C1071F
:10C6900023176100232E1101232201032320F1001F
:10C6A0002328F1002324E100232AE100232C0100A8
:10C6B000EFE05FF593040500634A05009305010070
:10C6C00013050900EFB05FFC631C05028357C1002E
:10C6D00093F70704638807008357C40093E70704B0
:10C6E0002316F4008320C1471385040003248147E7
:10C6F0008324414703290147130101486780000053
:10C700009304F0FF6FF09FFCB385C502130101FF96
:10C710002326110023248100EF501FF0630C05082D
:10C720000326C5FF13074002130405001376C6FF56
:10C730001306C6FF636EC704930630019307050016
:10C7400063F8C60223200500232205009307B001E9
:10C7500063FEC70423240500232605009307050173
:10C760006318E6002328050093078501232A0500A6
:10C7700023A0070023A2070023A407001305040039
:10C780008320C100032481001301010167800000A0
:10C7900093050000EF600FEE8320C1001305040035
:10C7A00003248100130101016780000093078500C5
:10C7B0006FF01FFC130500006FF09FFC6384050EF3
:10C7C000130101FF2324810023229100232611005D
:10C7D000232021019304050013840500630605004E
:10C7E000832785036380070A8317C40013050000AD
:10C7F000639E07008320C10003248100832441003D
:10C800000329010013010101678000009305040062
:10C8100013850400EFB05FBE8327C402130905002F
:10C82000638A07008325C40113850400E78007009D
:10C83000634E05048357C40093F70708639C0704FD
:10C8400083250403638C0500930704046386F500C5
:10C8500013850400EFC08FB4232804028325440409
:10C860006388050013850400EFC04FB3232204043E
:10C87000EFC08F9E23160400EFC04F9E13050900E2
:10C880006FF05FF7EFC04F9C6FF01FF61309F0FFDA
:10C890006FF05FFA8325040113850400EFC00FB029
:10C8A0006FF01FFA1305000067800000B71700043F
:10C8B0009305050003A5078D6FF05FF0130101FDDF
:10C8C00023248102232C4101232A51012326110212
:10C8D0002322910223202103232E310123286101E9
:10C8E000930A0500138A050013040600EFC0CFF871
:10C8F000930710006300F5109304C100930604062B
:10C9000013060A009385040013850A00EF001066E1
:10C910009307F0FF930905006308F508630C050E03
:10C920008345C10013090000130BA0006F008002B3
:10C93000832704002380B700832704009387170010
:10C940002320F40013091900938414006374390D33
:10C9500083C50400832784009387F7FF2324F40012
:10C96000E3D807FC0327840163CAE7068327040092
:10C970002380B7008327040003C7070093871700AD
:10C98000E31067FD1306040093050B0013850A00EE
:10C99000EF0090461305150013351500E30405FA62
:10C9A0001305F0FF6F0000018357C40093E70704ED
:10C9B0002316F4008320C102032481028324410250
:10C9C000032901028329C101032A8101832A41012C
:10C9D000032B01011301010367800000130604000B
:10C9E00013850A00EF00504113051500133515009B
:10C9F0006FF0DFFA9307FAFF1307E00FE36EF7EE2D
:10CA00009375FA0F2306B100930905009304C10042
:10CA10006FF05FF113050A006FF0DFF98317C600AE
:10CA2000372700009396270163CC060083268606ED
:10CA3000B3E7E7002316F60033E7E6002324E60613
:10CA40006FF0DFE7130101FEB7170004232C81000C
:10CA500003A4078D232A9100232E110093040500BF
:10CA6000138605006306040083278403638207049A
:10CA70008317C600372700009396270163CC060072
:10CA800083268606B3E7E7002316F60033E7E600C1
:10CA90002324E60693850400130504008320C101C6
:10CAA0000324810183244101130101026FF01FE17E
:10CAB000130504002326B100EFB01FF90326C100BF
:10CAC0006FF01FFB83278600638E071A03D7C5000C
:10CAD000130101FD23248102232C4101232A51014A
:10CAE000232611022322910223202103232E310128
:10CAF000232861012326710123248101232291012E
:10CB00002320A1019377870013840500930A050071
:10CB1000130A06006384070A83A705016380070AD6
:10CB20009377270083240A00638C070A370B008061
:10CB30009309000013090000134B0BC01386090072
:10CB400013850A00630809129306090063742B0118
:10CB500093060B00832744028325C401E780070066
:10CB60006358A01683278A00B389A9003309A94016
:10CB70003385A7402324AA00E31205FC9307000095
:10CB80008320C1021385070003248102832441020C
:10CB9000032901028329C101032A8101832A41015A
:10CBA000032B0101832BC100032C8100832C410046
:10CBB000032D0100130101036780000093050400A9
:10CBC00013850A00EFA08F839307F0FFE31A05FA9D
:10CBD0000357C40083240A0093772700E39807F4DF
:10CBE0009377170063900710370B0080930B0000BA
:10CBF00013090000134BFBFF630609069377072018
:10CC00008329840063860708636E39239377074876
:10CC10006394072603250400138C090013060C00F7
:10CC200093850B00EF0080338327840003260400E4
:10CC300013050900B38937413306860123243401E3
:10CC40002320C40083278A00B38BAB003309A9409B
:10CC5000B389A74023243A01E38209F20357C400B1
:10CC6000E31E09F883AB040003A944009384840005
:10CC70006FF09FF883A9040003A944009384840003
:10CC80006FF0DFEB9307000013850700678000005B
:10CC9000032504008327040163EAA71283274401C4
:10CCA0006366F9129306090063742B0193060B0067
:10CCB000B3C6F602032744028325C40113860B0082
:10CCC00013850A00B386F602E7000700E34CA0F6DE
:10CCD0008317C40093E707042316F4009307F0FFBB
:10CCE0006FF01FEA93090000930C0000130C000082
:10CCF00013090000630C0906638E0C14938B090062
:10CD000063743901930B0900032504008327040190
:10CD1000138B0B008326440163F8A700032D8400C6
:10CD2000338DA601634E7D0563CADB0E8327440263
:10CD30008325C40113060C0013850A00E780070051
:10CD4000130B0500E356A0F8B38969416384090613
:10CD500083278A00330C6C0133096941338B6741A7
:10CD600023246A01E30C0BE0E31809F803AC040088
:10CD700003A94400930C0000938484006FF09FF794
:10CD800093050C0013060D00EF00401D83270400DF
:10CD90009305040013850A00B387A7012320F4003C
:10CDA000EFB09F8EE31605F2130B0D00B3896941B6
:10CDB000E39009FA9305040013850A00EFB0DF8CB5
:10CDC000E31805F0930C00006FF09FF863743901CD
:10CDD000930909001386090093850B00EF000018E2
:10CDE0008327840003270400B387374133073701C3
:10CDF0002324F4002320E400638607001385090040
:10CE00006FF05FE49305040013850A00EFB0DF873D
:10CE1000E31005EC138509006FF0DFE213860B00C9
:10CE200093050C00EF008013032784008327040080
:10CE300033077741B38B77012324E4002320740167
:10CE40006FF09FF00325040093090900130C0900FB
:10CE50006FF0DFDC130609009305A00013050C003A
:10CE6000EFC04FBF630E050C13051500B3098541D4
:10CE7000930C10006FF09FE883294401832504017F
:10CE8000032C040093971900B389370193D7F90154
:10CE9000330CBC40B389370193071C0093D9194068
:10CEA000B38727011386090063F6F9009389070009
:10CEB0001386070013770740630C070493050600E9
:10CEC00013850A00EF504FF5930C05006300050829
:10CED0008325040113060C00EF50DFE78357C400DD
:10CEE00093F7F7B793E707082316F40033858C010F
:10CEF000338C8941232A340123248401232894017B
:10CF00002320A40093090900130C09006FF01FD11E
:10CF100013850A00EF008016930C0500E31805FC4A
:10CF20008325040113850A00EFB05FC78317C4008F
:10CF30001307C00023A0EA0093F7F7F76FF09FD91B
:10CF400093091900930C10006FF05FDB9307C0008A
:10CF500023A0FA008317C4006FF0DFD763F8A5029F
:10CF60003387C5006374E502B307C500B385C740C6
:10CF70006302060E1307F7FF834607009387F7FF48
:10CF80002380D700E398F5FE678000009308F00047
:10CF900063F4C80CB3E7A50093F737006394070C5C
:10CFA0001387050093070500930606000328070072
:10CFB000938707011307070123A807FF032847FFEB
:10CFC000938606FF23AA07FF032887FF23AC07FFEA
:10CFD0000328C7FF23AE07FFE3EAD8FC130706FFC9
:10CFE000137707FF13070701137EF60013033000C2
:10CFF000B307E500B385E500637CC307138805002C
:10D000009386070013070E00130848008328C8FF03
:10D01000938646001307C7FF23AE16FFE366E3FEC1
:10D020001307CEFF1377C7FF1307470013763600A9
:10D03000B387E700B385E500630A06023386C700BD
:10D040009385150003C7F5FF93871700A38FE7FEAD
:10D05000E398C7FE6780000093070500E31006FE13
:10D060006F00C000930705006FF05FFD6780000050
:10D0700013060E00E31406FC6FF05FFF130101FDC1
:10D08000232291022326110223248102232021033B
:10D09000232E3101232C4101232A51012328610130
:10D0A000232671012324810193040600638A051C51
:10D0B0009389050013090500EF509FE983A7C9FF75
:10D0C0001384B40013076001938A89FF13FAC7FF22
:10D0D0006372870C137484FF13070400634C0414F9
:10D0E000636A9414635EEA0A370B0004130B0B00A7
:10D0F00083268B0033864A016300D63083264600A0
:10D1000093F5E6FFB305B60083A5450093F515003A
:10D11000638E050E93F7170063820726938504003C
:10D1200013050900EF504FCF930405006300054A33
:10D1300083A7C9FF130785FF93F7E7FFB387FA00BB
:10D140006300F7421306CAFF9307400263E8C73C37
:10D15000130730016368C73693070500138709007A
:10D160008326070023A0D7008326470023A2D700E9
:10D170000327870023A4E70093850900130509000E
:10D18000EFB0DFA113050900EF50DFDC13850400C9
:10D190006F00C00413070001130407006FF05FF471
:10D1A00093840900B3078A401307F000636CF70803
:10D1B00083A74A0033874A0193F7170033E64701F4
:10D1C00023A2CA008327470093E717002322F70012
:10D1D00013050900EF501FD8138504008320C102F6
:10D1E0000324810283244102032901028329C1010E
:10D1F000032A8101832A4101032B0101832BC100F2
:10D20000032C8100130101036780000093F6C6FF21
:10D21000B386460163C0E60A8327C600032786005B
:10D2200093840900138A06002326F70023A4E7004D
:10D230006FF05FF79307C0002320F900130500008B
:10D240006FF0DFF903A74A00B3858A0093E6170061
:10D25000137717003364870023A28A0023A2D50026
:10D26000B387F50003A747009385850013050900E0
:10D270001367170023A2E700EFB05F926FF05FF52E
:10D280008320C10203248102832441020329010275
:10D290008329C101032A8101832A4101032B010152
:10D2A000832BC100032C81009305060013010103A9
:10D2B0006F508FB693F71700E39207E683AB89FFB1
:10D2C000B38B7A4183A74B0093F7C7FF338BF600EC
:10D2D000634EEB0A8327C600032786001306CAFFA6
:10D2E00093848B002326F70023A4E70003A78B0079
:10D2F00083A7CB002326F70023A4E700930740026F
:10D3000063E4C72213073001938704006376C704E0
:10D3100083A7090023A4FB0083A7490023A6FB00E1
:10D320009307B00163F8C72483A7890023A8FB00F3
:10D3300083A7C90023AAFB00930740026318F60ADB
:10D3400003A7090193870B029389890123ACEB00A2
:10D3500003A7C9FF23AEEB0003A70900130A0B00C4
:10D36000938A0B0023A0E70003A7490023A2E7004C
:10D3700003A7890023A4E7006FF0DFE283AB89FFF6
:10D38000B38B7A4183A74B0093F7C7FF330BFA00A7
:10D39000E346EBD883A7CB0003A78B001306CAFF95
:10D3A000930640022326F70023A4E70093848B0012
:10D3B00063ECC6161307300193870400E37EC7F8B9
:10D3C00083A7090023A4FB0083A7490023A6FB0031
:10D3D0009307B00163F0C71A83A7890023A8FB0055
:10D3E00083A7C90023AAFB00E30CD6F493878B0123
:10D3F000938909016FF05FF6832646001306040146
:10D4000093F6C6FFB386460163D0C60E93F71700A6
:10D41000E39607D083AB89FFB38B7A4183A74B0098
:10D4200093F7C7FF338CD700E342CCF683A7CB003A
:10D4300003A78B001306CAFF930640022326F700BA
:10D4400023A4E70093848B0063EAC614130730011A
:10D45000938704006372C70283A7090023A4FB001B
:10D4600083A7490023A6FB009307B00163E0C7141C
:10D4700093870B019389890003A7090023A0E70084
:10D4800003A7490023A2E70003A7890023A4E7001C
:10D4900033878B00B3078C402324EB0093E71700FE
:10D4A0002322F70083A74B001305090093F7170009
:10D4B00033E4870023A28B00EF50DFA9138504001B
:10D4C0006FF0DFD103A709002320E50003A749007F
:10D4D0002322E5001307B0016364C70693078500A4
:10D4E000138789006FF0DFC7B38A8A00B38786404D
:10D4F00023245B0193E7170023A2FA0083A7C9FF47
:10D500001305090093F7170033E4870023AE89FE63
:10D51000EF505FA4138509006FF05FCC938509007D
:10D52000EFF0DFA36FF05FC593850900138504005A
:10D53000EFF0DFA2130A0B00938A0B006FF09FC677
:10D5400003A789002324E50003A7C9002326E500DB
:10D550006308F60293070501138709016FF05FC0A6
:10D560008327C5FF9384090093F7C7FF330AFA00A6
:10D570006FF05FC393870B01938989006FF0DFDD44
:10D5800083A6090193078501138789012328D50004
:10D5900083A64901232AD5006FF09FBC938509001B
:10D5A00013850400EFF09F9B6FF09FEE83A7890027
:10D5B00023A8FB0083A7C90023AAFB006300D602AF
:10D5C00093878B01938909016FF01FEB1305090005
:10D5D000EF505F98130500006FF05FC003A70901CB
:10D5E00093870B029389890123ACEB0003A7C9FF42
:10D5F00023AEEB006FF05FE8130101FE232C8100E6
:10D60000232A910023263101232E110023282101F2
:10D6100093040500938905001304060063060500C2
:10D6200083278503638207128316C400832784013E
:10D6300013970601135707012324F40093778700FB
:10D640006382070E83270401638E070C13162701DC
:10D6500013F9F90F635606060327040083264401D5
:10D66000B307F74063D6D708938717008326840053
:10D67000130617002320C4009386F6FF2324D4004A
:10D6800023003701032744016302F7088357C400CE
:10D690001305090093F71700638607009307A0009E
:10D6A0006306F9068320C10103248101832441011B
:10D6B000032901018329C1001301010267800000D1
:10D6C0008325840637E7FFFF1307F7FF33F7E500ED
:10D6D00037260000B3E6C6002324E406032704002F
:10D6E0002316D40083264401B307F740E3CED7F6D0
:10D6F0009305040013850400EFA01FF9631A0504C5
:10D7000003270400930710006FF05FF693050400F1
:10D7100013850400EFA05FF7631C050213050900E1
:10D720006FF05FF89305040013850400EF900FCDB0
:10D73000631005028316C4008327040113970601B2
:10D74000135707016FF09FF0EFB00FB06FF0DFEDF0
:10D750001305F0FF6FF01FF5B717000413860500DF
:10D760009305050003A5078D6FF01FE9130101FD67
:10D770002322910223202103232611022324810244
:10D78000232E3101232C4101930405001389060047
:10D7900063820506B717000403AA878D138405006A
:10D7A00093090600EFB09F8C93060500130709004C
:10D7B000138609009305040013850400E7000A009E
:10D7C0009307F0FF6318F500232009009307A008D2
:10D7D00023A0F4008320C102032481028324410298
:10D7E000032901028329C101032A810113010103D5
:10D7F00067800000B717000403A4878DEFB01F8770
:10D800009306050013070900130600009305410065
:10D8100013850400E70004006FF09FFA130101FD77
:10D820002322910223202103B7170004232611028B
:10D8300023248102232E3101232C410113090600E8
:10D8400083A4078D63020506B717000403AA878D1A
:10D850009389050013040500EFB05F81930605006E
:10D8600013070900138609009305040013850400BB
:10D87000E7000A009307F0FF6318F5002320090072
:10D880009307A00823A0F4008320C102032481028F
:10D8900083244102032901028329C101032A810152
:10D8A0001301010367800000B717000403A4878DEC
:10D8B000EFB0CFFB93060500130709001306000025
:10D8C0009305410013850400E70004006FF09FFA00
:10D8D000638C05009307F00F63ECC7002380C5003D
:10D8E000130510006780000013050000678000002A
:10D8F0009307A0082320F5001305F0FF67800000C0
:10D90000130101FEB7170004232C810003A4878DA7
:10D91000232E1100232A91002328210123263101DF
:10D920002324410193040500138A0600138905008E
:10D9300093090600EFB08FF313070A009306050062
:10D9400013860900930509001385040013030400DE
:10D950008320C101032481018324410103290101A2
:10D960008329C100032A810013010102670003001B
:10D970003717000483274792638A07003385A7007F
:10D980002322A7921385070067800000B7370004A1
:10D99000938787123385A7002322A7921385070058
:10D9A0006780000083270500130710006374F70EDB
:10D9B00083A60500637ED70C13084000638C07150F
:10D9C0006388060D13082000638606116382070D25
:10D9D000032E850083A785009306F001832EC500E2
:10D9E0003308FE401353F841B3480301B38868403D
:10D9F00003A3C50063D2160B63CAC711138E0700B9
:10DA0000930E00000327450083A74500630AF70A29
:10DA1000B3876E4063040700B307D34163CA07109E
:10DA2000232206002324C6012326F600B705004062
:10DA30001387F7FF9385E5FF63E4E502032786007C
:10DA40001307F7FF939717009386F7FF1305070057
:10DA50001307F7FFE3F8D5FE2326F6002324A600DC
:10DA6000130730002320E6001305060063D40702E5
:10DA70000327860093D6170093F71700B3E7F60045
:10DA8000130717002326F6002324E6006780000012
:10DA900013850500678000006358000BB31617015B
:10DAA0009386F6FFB3F666003337D0003353130185
:10DAB0003363E30083A7450003274500E31AF7F427
:10DAC000B3876E002322E6002324C6012326F60036
:10DAD0006FF01FF9E390D7FC2320F6008327450061
:10DAE0002322F600032785008326450083A74500EF
:10DAF0002324E6000327C500B3F7F6002322F6002F
:10DB00002326E600130506006780000013030000CB
:10DB10006FF05FEFE390F6F80327450083A7450019
:10DB2000E30AF7F6370501001305856167800000F9
:10DB3000B307F040130710002322E6002324C60198
:10DB40002326F6006FF09FEEE30E08EA3318170164
:10DB50001308F8FF3378D801B3D71E01B33600019C
:10DB6000330E1E01B3EED7006FF0DFE98327050007
:10DB7000130610008326C50083254500637AF60846
:10DB8000130740006380E708130720006382E7045F
:10DB90006380060403278500930720F8634CF70A87
:10DBA0009307F00763C0E706B3F7F6001306000417
:10DBB0006384C7089386F60363C806081307F7074C
:10DBC0009396260093D696001377F70F6F00C00048
:10DBD0001307000093060000B70780009387F7FF44
:10DBE00037068080B3F7F6001306F6FF13177701A8
:10DBF000B3F7C7001395F501B3E7E70033E5A700D6
:10DC0000678000001307F00F930600006FF0DFFC41
:10DC1000B707400013D776009386F7FFB376D70097
:10DC2000B3E6F600B70780009387F7FFB3F6F60078
:10DC30001307F00F6FF05FFA93F70608E38E07F60D
:10DC4000B386C6006FF05FF793D616001307070878
:10DC50006FF01FF73387E74093079001E3CAE7F6B9
:10DC6000B317E6009387F7FFB3F7D700B337F00099
:10DC7000B3D6E600B3E6F60013F7F6079307000401
:10DC80006312F70293F70608639C07023707004008
:10DC900033B7E600139626009356960013471700F5
:10DCA0006FF09FF39387F6033707004093962700A2
:10DCB00033B7E70093D69600134717006FF0DFF1F4
:10DCC000938706046FF05FFE0357250083463500F7
:10DCD000032605001357770093D67600B707800018
:10DCE0009387F7FF1377F70F23A2D500B377F600DA
:10DCF000631C0702638007061307300023A0E500BA
:10DD000093977700130710F8370600409397170092
:10DD1000930607001307F7FFE3EAC7FE23A4D50025
:10DD200023A6F500678000009306F00F630AD70270
:10DD3000130717F893977700B7060040B3E7D700AB
:10DD400023A4E5001307300023A0E50023A6F50077
:10DD5000678000009307200023A0F5006780000083
:10DD60006386070213979700635807021307100092
:10DD700023A0E5003707C0FF1307F7FFB3F7E7005D
:10DD80009397770023A6F500678000009307400073
:10DD900023A0F5006780000023A005006FF09FFD21
:10DDA000130101FB2324A1002326B10013058100E8
:10DDB0009305010123261104EFF01FF193050102E1
:10DDC0001305C100EFF05FF0130601039305010294
:10DDD00013050101EFF01FBDEFF05FD98320C104EF
:10DDE0001301010567800000130101FB2324A1003A
:10DDF0002326B10013058100930501012326110498
:10DE0000EFF09FEC930501021305C100EFF0DFEB8B
:10DE100083274102130601039305010293C71700EC
:10DE2000130501012322F102EFF0DFB7EFF01FD459
:10DE30008320C1041301010567800000130101FB69
:10DE40002324A1002326B1001305810093050101BD
:10DE500023261104EFF05FE7930501021305C100CB
:10DE6000EFF09FE6832701019306100063F4F60E9E
:10DE70000327010263F8E60A930640006388D70C83
:10DE8000630ED708930620006386D70C630CD7086F
:10DE90000327C1018325C1028326810283278101D3
:10DEA0003336B70203284102B387D70083264101E6
:10DEB00013852700232CA102B3860641B336D00078
:10DEC000232AD1023307B70293060600635A060CD1
:10DED0009376160093873700638806001357170060
:10DEE000B70600803367D70093561600232CF10243
:10DEF00093F7F607130600046382C7089307300000
:10DF0000232ED1022328F10213050103EFF01FC6CF
:10DF10008320C1041301010567800000130720005E
:10DF2000638AE706032741028327410113050102A3
:10DF3000B387E740B337F0002322F102EFF01FC3AD
:10DF40008320C104130101056780000093072000AE
:10DF50006302F704032741028327410113050101EE
:10DF6000B387E740B337F000232AF100EFF01FC07A
:10DF70008320C104130101056780000093F70608A0
:10DF8000E39E07F6E30C07F6B386C60093F606F8A1
:10DF90006FF0DFF637050100130585616FF01FF79D
:10DFA00037060040E3F6C6F4938717006F000001C0
:10DFB000131717009387F7FF63F0C60293961600B6
:10DFC00093850700E35607FE93E616001317170024
:10DFD0009387F7FFE3E4C6FE232CB1026FF05FF1F5
:10DFE000130101FC2324A1002326B10013058100A5
:10DFF00093050101232E1102EFF01FCD93050102BD
:10E000001305C100EFF05FCC8326010193071000D8
:10E0100063F6D7080326010263F6C70E8325410184
:10E02000032741029387E6FF93F7D7FF33C7E50045
:10E03000232AE100638E070693074000630AF6086F
:10E0400013072000630AE60A032781018326810261
:10E050008327C1010326C1023307D740232CE100E7
:10E0600063E0C7061307F00193050000B706004000
:10E070001307F7FF63E6C700B3E5D500B387C740D2
:10E0800093D6160093971700E31407FE13F7F507CE
:10E09000930600046306D704232EB1001305010183
:10E0A000EFF0DFAC8320C10313010104678000009F
:10E0B000E396C6FE37050100130585616FF05FFE2C
:10E0C0001307F7FF93971700232CE1006FF09FF9D8
:10E0D000232E0100232C0100130501016FF05FFCCA
:10E0E00013F70508E31A07FAE38807FAB385D500A2
:10E0F00093F505F86FF05FFA2328F100130501018D
:10E100006FF01FFA130501026FF09FF90327050056
:10E11000930710001306050063FEE70683A60500BB
:10E120001385070063F0D704930740006308F704E2
:10E13000638CF602930720006302F7026382F60401
:10E140008327460003A74500638AE7043335F000C0
:10E150003305A04013651500678000006396E60054
:10E16000130500006780000003A545001335150066
:10E170003305A0401365150067800000638AE6043C
:10E18000032546003335A0003305A0401365150074
:10E1900067800000138507006780000083268600E3
:10E1A00003A78500E344D7FA63CCE6008326C600C4
:10E1B00003A7C500E36CD7F813050000E3F4E6FA03
:10E1C00013B517003305A0401365150067800000E4
:10E1D00083A74500032546003385A74067800000DC
:10E1E000130101FC2324A1002326B10013058100A3
:10E1F00093050101232E1102EFF01FAD93050102DB
:10E200001305C100EFF05FAC930501021305010196
:10E21000EFF0DFEF8320C1031301010467800000EA
:10E22000130101FC2324A1002326B1001305810062
:10E2300093050101232E1102EFF01FA91305C10060
:10E2400093050102EFF05FA8032701019307100077
:10E250001305F0FF63FCE7000327010263F8E70002
:10E260009305010213050101EFF05FEA8320C1036A
:10E2700013010104678000006FF09FFA130101FC95
:10E280002324A1002326B100130581009305010179
:10E29000232E1102EFF05FA31305C10093050102C5
:10E2A000EFF09FA28327010113051000637CF500A6
:10E2B000832701026378F50093050102130501012C
:10E2C000EFF0DFE48320C103130101046780000045
:10E2D0006FF0DFFA6FF09FFA6FF05FFA130101FC45
:10E2E0002324A1002326B100130581009305010119
:10E2F000232E1102EFF05F9D1305C100930501026B
:10E30000EFF09F9C83270101130510006376F50051
:10E3100003250102133525008320C10313010104E5
:10E3200067800000130101FE9357F50113073000C9
:10E33000232E1100232C81002320E1002322F10051
:10E3400063120502930720002320F100130501004A
:10E35000EFF0DF818320C101032481011301010259
:10E36000678000009307E0012324F1006348050261
:10E370001304050013050400EF10C0299307F5FFEF
:10E38000638C07021307E0013315F400B307F7406D
:10E390002326A1002324F1006FF05FFBB707008064
:10E3A0006300F5023304A04013050400EF1080263B
:10E3B0009307F5FFE39807FC232681006FF01FF910
:10E3C000B707010003A587796FF0DFF8130101FE9D
:10E3D000232E1100232C8100232A910023220100E7
:10E3E000630A0504930730009304E0012320F10041
:10E3F0001304050023249100EF10C0219307F5FFBB
:10E4000063000504638C07043314F400B384F44000
:10E41000232681002324910013050100EFF00FF55E
:10E420008320C101032481018324410113010102DE
:10E4300067800000930720002320F1006FF0DFFDCC
:10E44000937714001354140033E487009307F0010A
:10E45000232681002324F1006FF01FFC2326810076
:10E460006FF09FFB130101FD2326A100930501011D
:10E470001305C10023261102EFF01F858327010138
:10E4800013072000637EF70413074000638AE70048
:10E490008327810163C607041305E0016350F50279
:10E4A0008327410137050080639407001345F5FF7A
:10E4B0008320C10213010103678000003305F5408A
:10E4C0008327C10133D5A70083274101E38207FEDB
:10E4D0008320C1023305A0401301010367800000BF
:10E4E0008320C102130500001301010367800000AF
:10E4F000130101FD2326A100930501011305C100AD
:10E5000023261102EFF04FFC83274101130501017F
:10E5100093B71700232AF100EFF04FE58320C102E3
:10E520001301010367800000130101FE2320A100F5
:10E5300013050100232E11002322B1002324C10062
:10E540002326D100EFF08FE28320C10113010102E5
:10E5500067800000130101FD2326A100930501013E
:10E560001305C10023261102EFF00FF68327C10126
:10E570000326810183254101032501011397E7014A
:10E5800093D72700EF1080008320C10213010103FD
:10E5900067800000832705009306100063F2F612DF
:10E5A00003A7050063FCE610930640006380D724B0
:10E5B0006306D710930620006302D71C6380D71030
:10E5C000032E850083A6850083280501032F4501BE
:10E5D0003308DE409357F84133C707013307F7404C
:10E5E0009307F00303A3050183AE450163DCE70C49
:10E5F00063C8C61F138E060093080000130F0000A7
:10E600000325450083A745006308F5106300051C3A
:10E61000B3071341B336F3003387EE41B306D74057
:10E6200063C4061E232206002324C6012328F60005
:10E63000232AD6001385F7FF9385F6FF3337F500BD
:10E640003307B700B70500106378B70E9385F5FF61
:10E65000630EB7240325860037030010130EF3FF63
:10E660001305F5FF930EE0FF6F008000630CC715E4
:10E6700013D7F7019395160093971700B365B7006A
:10E680001388F7FF9388F5FF3337F8003307170136
:10E6900093860500930805001305F5FFE36867FC02
:10E6A0002328F60093073000232AB60023241601FE
:10E6B0002320F6001305060067800000138505007F
:10E6C00067800000635A0019937707026382071678
:10E6D00093061000B3DFEE00B396E600930200004D
:10E6E000130700009307F7FF33B7E7009386F6FFA1
:10E6F0003307D700B3F767003377D701B3E7E700F5
:10E70000B337F00033E3FF000325450083A745003E
:10E71000938E0200E31CF5EEB3876800B3B81701CF
:10E720003307DF01B386E8002322A6002324C601B5
:10E730002328F600232AD600130730002320E60002
:10E740003707002063E8E602032786001395F601E9
:10E7500093D51700B365B50093F7170093D616004D
:10E76000B3E7F500130717002328F600232AD60085
:10E770002324E6001305060067800000E392E7F417
:10E780002320F600832745002322F6000327850077
:10E790008326450083A745002324E6000327C50000
:10E7A000B3F7F6002326E600032705012328E60039
:10E7B000032745012322F60013050600232AE6005D
:10E7C00067800000E3F60EEB6FF09FEDB3876840C3
:10E7D000B3B6F8003307DF41B306D7406FF05FE40C
:10E7E00013030000930E00006FF09FE1E31AF7ECB3
:10E7F0000327450083A74500E304F7EC3705010034
:10E800001305856267800000B307F0403337F000DE
:10E81000B306D040B386E640130710002322E6007B
:10E820002324C6012328F600232AD6006FF09FE098
:10E830009346F7FF93971E00B397D700B35FE300AB
:10E8400013081000B3D2EE00B3EFF70193060000F7
:10E850003317E8006FF01FE9E30408DA9377070243
:10E86000330EEE00638207063358EF00930F00006B
:10E870006394070493071000930600003397E700A2
:10E880009307F7FF33B7E7009386F6FF3307D70008
:10E89000B3F717013377E701B3E7E700B337F000C9
:10E8A000B368F800138F0F006FF09FD51307E0FFD8
:10E8B000E372A7DA6FF05FE893061000B396E60004
:10E8C000130700006FF0DFFB93171F009346F7FF5D
:10E8D000B397D70033D8E80033E80701B35FEF0000
:10E8E0006FF05FF9832705009305100003260501EB
:10E8F000032745018328450063FAF50E1303400002
:10E90000638E670C1303200063826706B367E6001B
:10E91000638E070483278500130520C063C0A712F8
:10E920009305F03F63CCF50A9375F60F13050008C5
:10E930006388A50E9305F60733B6C5003307E600D6
:10E9400013860500B7050020637EB7069387F73F5F
:10E9500093158701135686001317470033E6C50049
:10E960001358C70093F7F77F6F000001930700006B
:10E97000130600001308000037071000930500007D
:10E98000B706F0FF1307F7FF3377E800B3F6B600DA
:10E99000B3E6E60013974701B70710809387F7FFA8
:10E9A000B3F7F600B3E7E700370700801347F7FF38
:10E9B0009396F801B3F7E70013050600B3E5D70017
:10E9C000678000009316F7011356160033E6C60061
:10E9D00013571700938707406FF09FF79307F07F57
:10E9E00013060000130800006FF01FF9B7060800B7
:10E9F000135887009387F6FFB377F80033E8D70002
:10EA0000B70710009387F7FF131787011356860087
:10EA10003378F8003366C7009307F07F6FF0DFF5B7
:10EA200093760610E38006F2B306A60033B6C6005E
:10EA30003307E600138606006FF0DFF0B307F540FA
:10EA400093068003E3C4F6F293F607026386060A90
:10EA50003358F700B395F5009306000093070000C4
:10EA60001385F7FFB337F5009385F5FFB385B7003E
:10EA700033F7E500B377C500B3E7E700B337F0003D
:10EA80003366F8001377F60F93070008631AF7024E
:10EA900093770610639607081397460093978601AD
:10EAA000135686001358C7003707001033E6C70017
:10EAB0009307100063ECE60293F717006FF0DFEBAB
:10EAC0009307F60733B6C700B306D6001397460080
:10EAD00013D68700939586011358C7003707001097
:10EAE00033E6C50093071000E3F8E6FC9307000047
:10EAF00093F717006FF05FE893C5F7FF93161700C1
:10EB0000B396B6003358F6001305100033E806013B
:10EB100093050000B356F700B317F5006FF05FF4EC
:10EB2000930706086FF01FFA0347750083566500C8
:10EB3000032845001356770093D64600B707100008
:10EB4000032705009387F7FF93F6F67F23A2C500FE
:10EB5000B377F800639C0604B366F7006386060883
:10EB60009356870193978700B3E7F600930630002A
:10EB700023A0D50013178700930610C03705001097
:10EB80001356F70193971700B367F6001317170092
:10EB9000138606009386F6FFE3E4A7FE23A4C500D0
:10EBA00023A8E50023AAF500678000001306F07F84
:10EBB0006382C6041356870193978700B367F600F4
:10EBC000938616C03706001013178700B3E7C700F7
:10EBD00023A4D5009306300023A0D50023A8E50088
:10EBE00023AAF500678000009307200023A0F5000A
:10EBF00067800000B366F700638E06029396C70035
:10EC000063D006049306100023A0D500B706F8FFD2
:10EC10009386F6FFB3F7D700939787009356870143
:10EC2000B3E7D7001317870023AAF50023A8E50050
:10EC3000678000009307400023A0F5006780000074
:10EC400023A005006FF09FFC130101F92324A1000C
:10EC50002326B100130581009305810123261106A7
:10EC6000232AD1002328C100EFF01FEC93050103F4
:10EC700013050101EFF05FEB130681049305010317
:10EC800013058101EFF01F91EFF0DFC58320C1066E
:10EC90001301010767800000130101F92324A1007B
:10ECA0002326B10013058100930581012326110657
:10ECB000232AD1002328C100EFF01FE793050103A9
:10ECC00013050101EFF05FE683274103130681047A
:10ECD0009305010393C7170013058101232AF1024D
:10ECE000EFF05F8BEFF01FC08320C1061301010717
:10ECF00067800000130101F92324A1002326B1003D
:10ED00001305810093058101232AD10023261106D2
:10ED10002328C100EFF05FE1930501031305010112
:10ED2000EFF09FE0832781019306100063FCF61645
:10ED30000327010363F0E614930640006380D716AF
:10ED40006306D71293062000638ED7146304D7128C
:10ED5000032581020328C102032701040323410480
:10ED60003306E802330FA302B30EE601333EA302DB
:10ED7000B3B7CE003336E8023306C6013386C70088
:10ED8000B305A702B30868023335A702333368021C
:10ED90006360C615630CCE129307000013070000D2
:10EDA000B386AE0063F4A60093071000B308160103
:10EDB00033B8C8000325810303260102B387F80096
:10EDC000B3B817013305A6003306680003234103D7
:10EDD0000328C1013306E6003387C80033086840C2
:10EDE000333800011303450023286104232601055D
:10EDF000B70E002013065500B70F00806368D711C7
:10EE000013F817001315F70193D7170013571700BE
:10EE1000139EF60113D3150093D81600130F0600A6
:10EE200063060800B3656E00B3E6F801B367F5004A
:10EE300013061600E376D7FD2328E10513F6F70F36
:10EE400013050008630CA608232CF1049307300077
:10EE5000232EE1042324F10413058104EFF09FA87D
:10EE60008320C106130101076780000013072000FB
:10EE70006388E708032741038327C10113050103C2
:10EE8000B387E740B337F000232AF102EFF09FA5E4
:10EE90008320C1061301010767800000930720004B
:10EEA0006300F706032741038327C101130581018E
:10EEB000B387E740B337F000232EF100EFF09FA2B5
:10EEC0008320C1061301010767800000E3F6EEED21
:10EED00093070000130710006FF09FEC13F6071064
:10EEE000E31406F6B3E6D500E38006F6B386A70082
:10EEF000B3B7F6003387E70093F706F06FF0DFF45F
:10EF000037050100130585626FF05FF5370E0010BD
:10EF100013053500E374C7F313D8F7011316170070
:10EF20003366C80093D8F501139816001303050043
:10EF3000939717001307060063D4060093E71700A2
:10EF400093951500B3E608011305F5FFE366C6FDCA
:10EF5000232861046FF09FEE130101FB2320A10021
:10EF60002322B10013050100930501012324C100F0
:10EF7000232611042326D100EFF01FBB9305810245
:10EF800013058100EFF05FBA03260101930710001B
:10EF900063FAC70E8326810263FED71483254101DD
:10EFA0000327C1029307E6FF93F7D7FF33C7E500B6
:10EFB000232AE1006382070E930740006386F60E62
:10EFC000130720006382E612032781010326010351
:10EFD000832741028328C1033306C740232CC10085
:10EFE000832601028322810363E617016390F802FE
:10EFF00063FE560093D5F601139717001306F6FF2C
:10F00000B3E7E50093961600232CC1001305D00347
:10F01000930E0000130F000013080000B705001046
:10F02000139EF501135318001305F5FF63E417034E
:10F030003387564033B6E600B38F17416394F80028
:10F0400063EA560093060700B387CF40B3EE0E0184
:10F05000336FBF0013D6F6011397170033686E00A5
:10F0600093D51500B367E60093961600E31A05FAE8
:10F0700013F7FE0F130600086306C7042320D1030D
:10F080002322E10313050101EFF0DF858320C10492
:10F090001301010567800000E316D6FE3705010065
:10F0A000130585626FF05FFE1307000093070000F1
:10F0B0002320E1022322F102232C01001305010188
:10F0C0006FF09FFC13F70E10E31A07FAB3E7F60090
:10F0D000E38607FAB387CE00B3BED701338FEE01C4
:10F0E00093FE07F06FF09FF92328F100130501014B
:10F0F0006FF09FF9130581026FF01FF903270500D8
:10F10000930710001306050063F2E70883A60500C5
:10F110001385070063F2D70493074000630CF704DC
:10F120006380F60493072000630AF7026386F604FF
:10F130008327460003A74500638EE7043335F000BC
:10F140003305A04013651500678000006394E60056
:10F15000636AB6061305000067800000E38CE6FED4
:10F1600003A54500133515003305A04013651500B0
:10F17000678000006380E606032546003335A00063
:10F180003305A04013651500678000001385070054
:10F19000678000008326860003A78500E340D7FA36
:10F1A00063C2E6020327460183A645010326060142
:10F1B00083A50501E3E4E6F86314D700E3E0C5F8AE
:10F1C000E376D7F813B517003305A0401365150093
:10F1D0006780000083A74500032546003385A740CC
:10F1E00067800000130101FB2320A1002322B1004E
:10F1F0001305010093050101232611042324C100F6
:10F200002326D100EFF05F92930581021305810060
:10F21000EFF09F919305810213050101EFF01FEEBE
:10F220008320C1041301010567800000130101FB65
:10F230002320A1002322B100130501009305010141
:10F24000232611042324C1002326D100EFF0DF8DF3
:10F250001305810093058102EFF01F8D0327010143
:10F26000930710001305F0FF63FCE70003278102FA
:10F2700063F8E7009305810213050101EFF01FE831
:10F280008320C10413010105678000006FF01FFA9D
:10F29000130101FB2320A1002322B100130501006B
:10F2A00093050101232611042324C1002326D10044
:10F2B000EFF09F871305810093058102EFF0DF8651
:10F2C0008327010113051000637CF5008327810269
:10F2D0006378F5009305810213050101EFF01FE249
:10F2E0008320C10413010105678000006FF05FFAFD
:10F2F0006FF01FFA6FF0DFF9130101FB2320A1006B
:10F300002322B100130501009305010123261104F6
:10F310002324C1002326D100EFF01F8113058100B3
:10F3200093058102EFF05F80832701011305100030
:10F330006376F50003258102133525008320C1047F
:10F340001301010567800000130101FD9357F501CA
:10F350001307300023261102232481022324E10015
:10F360002326F10063120502930720002324F100F5
:10F3700013058100EFF00FD78320C102032481021F
:10F380001301010367800000634C050213040500AC
:10F3900013050400EF0000281305D501937705023B
:10F3A000638007043314A400232E8100232C010062
:10F3B0009307C0033385A7402328A1006FF05FFBAC
:10F3C000B7070080630CF5023304A0401305040066
:10F3D000EF0040241305D50193770502E39407FC61
:10F3E000935714001347F5FFB3D7E7003314A40075
:10F3F000232EF100232C81006FF09FFBB707010043
:10F4000003A5077A83A5477A6FF01FF7130101FD63
:10F410002326110223248102232601006306050608
:10F42000930730002324F10013040500EF00801E31
:10F430001305D50193770502638A07023314A400EC
:10F44000232E8100232C01009307C0033385A7409E
:10F450002328A10013058100EFF0CFC88320C1024B
:10F4600003248102130101036780000093571400F5
:10F470001347F5FFB3D7E7003314A400232EF100A0
:10F48000232C81006FF05FFC930720002324F10000
:10F490006FF05FFC130101FD2320A1002322B100C6
:10F4A000130501009305810023261102EFF0CFE739
:10F4B00083278100130720006374F70613074000B9
:10F4C000638AE70003250101634C05049307E0010B
:10F4D00063D0A7028327C10037050080639407002B
:10F4E0001345F5FF8320C10213010103678000006B
:10F4F0009307C003B387A74013F70702630A070205
:10F500000325C1013355F5008327C100E38C07FCB7
:10F510008320C1023305A04013010103678000006E
:10F520008320C1021305000013010103678000005E
:10F530000327C1010325810193C6F7FF13171700A5
:10F540003317D7003355F5003365A7006FF0DFFBA5
:10F55000130101FD2320A1002322B10013050100A6
:10F560009305810023261102EFF00FDC8327C100F1
:10F570001305810093B717002326F100EFF08FB633
:10F580008320C1021301010367800000130101FD04
:10F590002324A10013058100232611022326B10094
:10F5A0002328C100232CE100232EF100EFF08FB3BC
:10F5B0008320C1021301010367800000130101FDD4
:10F5C0002320A1002322B10013050100930581002F
:10F5D00023261102EFF04FD5032781018326C101B5
:10F5E0009357E70193962600B3E6F600931727009A
:10F5F0006384070093E61600032601018325C100FA
:10F6000003258100EFE05FF28320C10213010103B3
:10F6100067800000B7070100637CF5029306F00FD6
:10F62000130780019307800063E6A600130700021A
:10F63000930700003355F500B7070100938707646F
:10F64000B307F50003C507003305A7406780000036
:10F65000B70600011307800093078001E37CD5FC07
:10F6600013070001930707003355F500B7070100A2
:10F6700093870764B307F50003C507003305A74068
:10F680006780000000000000343D256420313D25E6
:10F6900064206D69616F75320A0000007069203A5C
:10F6A000202530346400000031302A353D202020F0
:10F6B00025640A006C6F6E673D2025782020202588
:10F6C00078200A006C6F6E673D202549363464202F
:10F6D0000A00000000000000000000A0999901400D
:10F6E00000004040666C6F61743D2025782020202A
:10F6F0002578200A00000000666C6F61743D2025AB
:10F700006620200A000000006C6F6F70506C6179F9
:10F710002025640A00000000486920210A0000003A
:10F720006D69616F750A000034323D25640A00007E
:10F73000393D25640A0000006DE7FB3D00007A4476
:10F74000302E3132332A313030302E303D25660AAA
:10F7500000000000000000C00000003D000000406C
:10F760000000803C00002040000080404D616E643D
:10F77000656C62726F74206379636C65733D256498
:10F780002020696E7465726174696F6E3D25642016
:10F790006379636C657250657249746572617469EE
:10F7A0006F6E3D25640A000025730A0068690A002F
:10F7B0008402280084730000686561703D25780A22
:10F7C00000000000737461636B3D25780A0000003F
:10F7D00053746172743220210A0000004D69616F18
:10F7E0007520210A00000000426F6F6C5F476C6F4C
:10F7F000623A202020202020202020202025640A7A
:10F80000000000006C6C3D256C6C640A0000000078
:10F810006C6C706F773D256C6C640A00CDCC0C402D
:10F82000322E322A322E323D3078202025780A00BE
:10F83000322E322A322E323D202025660A00000068
:10F84000737072696E74662031303D256420363DD8
:10F85000256420322E323D25660A00000A444F4EB0
:10F860004520210A000000007469636B0A00000053
:10F870004448525953544F4E452050524F475241DD
:10F880004D2C20534F4D4520535452494E470000B4
:10F890004468727973746F6E652042656E63686D3B
:10F8A00061726B2C2056657273696F6E20322E3137
:10F8B00020284C616E67756167653A2043290A000C
:10F8C00050726F6772616D20636F6D70696C6564F3
:10F8D0002077697468202772656769737465722779
:10F8E000206174747269627574650A0050726F6782
:10F8F00072616D20636F6D70696C656420776974E7
:10F90000686F757420277265676973746572272044
:10F910006174747269627574650A0000506C656187
:10F920007365206769766520746865206E756D6201
:10F930006572206F662072756E73207468726F75C1
:10F940006768207468652062656E63686D61726BBC
:10F950003A200000457865637574696F6E20737492
:10F96000617274732C2025642072756E7320746824
:10F97000726F756768204468727973746F6E650A78
:10F9800000000000457865637574696F6E20656ED0
:10F9900064730A0046696E616C2076616C756573EC
:10F9A000206F6620746865207661726961626C659B
:10F9B00073207573656420696E20746865206265C4
:10F9C0006E63686D61726B3A0A000000496E745F85
:10F9D000476C6F623A202020202020202020202009
:10F9E0002025640A00000000202020202020202064
:10F9F00073686F756C642062653A20202025640A64
:10FA000000000000426F6F6C5F476C6F623A20200D
:10FA100020202020202020202025640A0000000033
:10FA200043685F315F476C6F623A202020202020BE
:10FA3000202020202025630A000000002020202014
:10FA40002020202073686F756C642062653A202046
:10FA50002025630A0000000043685F325F476C6F37
:10FA6000623A202020202020202020202025630A08
:10FA7000000000004172725F315F476C6F625B385B
:10FA80005D3A2020202020202025640A000000006C
:10FA90004172725F325F476C6F625B385D5B375DEE
:10FAA0003A2020202025640A000000002020202089
:10FAB0002020202073686F756C642062653A2020D6
:10FAC000204E756D6265725F4F665F52756E732072
:10FAD0002B2031300A0000005074725F476C6F6257
:10FAE0002D3E0A0020205074725F436F6D703A20E3
:10FAF00020202020202020202025640A0000000053
:10FB0000202020202020202073686F756C642062E4
:10FB1000653A20202028696D706C656D656E746192
:10FB200074696F6E2D646570656E64656E74290A04
:10FB300000000000202044697363723A20202020D6
:10FB400020202020202020202025640A0000000002
:10FB50002020456E756D5F436F6D703A2020202028
:10FB6000202020202025640A000000002020496E6B
:10FB7000745F436F6D703A202020202020202020C9
:10FB80002025640A0000000020205374725F436F38
:10FB90006D703A2020202020202020202025730A6C
:10FBA00000000000202020202020202073686F7596
:10FBB0006C642062653A2020204448525953544FC7
:10FBC0004E452050524F4752414D2C20534F4D45EA
:10FBD00020535452494E470A000000004E65787485
:10FBE0005F5074725F476C6F622D3E0A0000000028
:10FBF000202020202020202073686F756C642062F4
:10FC0000653A20202028696D706C656D656E7461A1
:10FC100074696F6E2D646570656E64656E74292CF1
:10FC20002073616D652061732061626F76650A00E3
:10FC3000496E745F315F4C6F633A20202020202092
:10FC4000202020202025640A00000000496E745FF7
:10FC5000325F4C6F633A202020202020202020207B
:10FC60002025640A00000000496E745F335F4C6F0A
:10FC7000633A202020202020202020202025640AF4
:10FC800000000000456E756D5F4C6F633A202020C8
:10FC900020202020202020202025640A00000000B1
:10FCA0005374725F315F4C6F633A20202020202014
:10FCB000202020202025730A000000002020202082
:10FCC0002020202073686F756C642062653A2020C4
:10FCD000204448525953544F4E452050524F47529A
:10FCE000414D2C203127535420535452494E470A3A
:10FCF000000000005374725F325F4C6F633A202043
:10FD000020202020202020202025730A0000000031
:10FD1000202020202020202073686F756C642062D2
:10FD2000653A2020204448525953544F4E452050A4
:10FD3000524F4752414D2C2032274E4420535452AB
:10FD4000494E470A000000004D6561737572656495
:10FD50002074696D6520746F6F20736D616C6C2009
:10FD6000746F206F627461696E206D65616E696E7B
:10FD70006766756C20726573756C74730A00000099
:10FD8000506C6561736520696E637265617365208F
:10FD90006E756D626572206F662072756E730A00F3
:10FDA000557365725F54696D653D2564200A0000D6
:10FDB0004D6963726F7365636F6E647320666F72F3
:10FDC000206F6E652072756E207468726F7567683B
:10FDD000204468727973746F6E653A2000000000E9
:10FDE00025362E3166200A004468727973746F6E6E
:10FDF000657320706572205365636F6E643A2020CE
:10FE000020202020202020202020202020202020F2
:10FE100020202020000000004448525953544F4EE7
:10FE2000452050524F4752414D2C203127535420EA
:10FE3000535452494E4700004448525953544F4E70
:10FE4000452050524F4752414D2C2032274E4420DE
:10FE5000535452494E4700004448525953544F4E50
:10FE6000452050524F4752414D2C203327524420B9
:10FE7000535452494E470000F03A0000CC3C000079
:10FE8000CC3C0000803C0000CC3C0000CC3C00009E
:10FE9000CC3C0000CC3C0000CC3C0000CC3C000042
:10FEA0009033000098340000CC3C0000A8330000E0
:10FEB00058390000CC3C0000A8390000883C000004
:10FEC000883C0000883C0000883C0000883C000022
:10FED000883C0000883C0000883C0000883C000012
:10FEE000CC3C0000CC3C0000CC3C0000CC3C0000F2
:10FEF000CC3C0000CC3C0000CC3C0000CC3C0000E2
:10FF0000CC3C0000CC3C0000B03B0000003B0000BB
:10FF1000CC3C0000003B0000CC3C0000CC3C00008E
:10FF2000CC3C0000CC3C0000A83B0000CC3C0000D6
:10FF3000CC3C0000B0390000CC3C0000CC3C0000C0
:10FF4000CC3C0000CC3C0000CC3C0000FC39000064
:10FF5000CC3C0000CC3C0000683A0000CC3C0000E7
:10FF6000CC3C0000CC3C0000CC3C0000CC3C000071
:10FF7000CC3C0000CC3C0000CC3C0000CC3C000061
:10FF8000CC3C0000A43A0000683C0000003B0000AC
:10FF9000003B0000003B0000783C0000683C000093
:10FFA000CC3C0000CC3C000088330000CC3C00007E
:10FFB00024390000A4340000B0330000883300006E
:10FFC000CC3C0000083C0000CC3C0000E03A0000C3
:10FFD000CC3C0000CC3C0000343500002020202028
:10FFE00020202020202020202020202030303030D1
:10FFF000303030303030303030303030494E4600E4
:020000021000EC
:10000000696E66004E414E006E616E0030313233D3
:100010003435363738394142434445460000000004
:10002000303132333435363738396162636465666E
:1000300000000000286E756C6C2900003000000084
:100040007C5200001C5A00001C5A00008C52000018
:100050001C5A00001C5A00001C5A00001C5A0000C8
:100060001C5A00001C5A000030500000885100004B
:100070001C5A000048500000245200001C5A000086
:1000800074520000C8560000C8560000C856000050
:10009000C8560000C8560000C8560000C8560000E8
:1000A000C8560000C85600001C5A00001C5A000028
:1000B0001C5A00001C5A00001C5A00001C5A000068
:1000C0001C5A00001C5A00001C5A00001C5A000058
:1000D0008C590000E45800001C5A0000E45800004D
:1000E0001C5A00001C5A00001C5A00001C5A000038
:1000F000C05900001C5A00001C5A0000F4560000B1
:100100001C5A00001C5A00001C5A00001C5A000017
:100110001C5A0000405700001C5A00001C5A0000E6
:100120008C5700001C5A00001C5A00001C5A00008A
:100130001C5A00001C5A00001C5A00001C5A0000E7
:100140001C5A00001C5A00001C5A000018580000DD
:1001500054580000E4580000E4580000E45800003F
:10016000FC590000545800001C5A00001C5A0000A2
:10017000285000001C5A0000C8590000945100008B
:1001800050500000285000001C5A000094520000FB
:100190001C5A00003C5600001C5A00001C5A00006B
:1001A000A8580000202020202020202020202020CF
:1001B000202020203030303030303030303030307F
:1001C00030303030496E66696E6974790000000025
:1001D0004E614E0043000000504F5349580000004C
:1001E0002E000000000000000500000019000000C3
:1001F0007D00000000000000000000000000F03F53
:1002000000000000000024400000000000005940F1
:100210000000000000408F40000000000088C34044
:1002200000000000006AF8400000000080842E41B9
:1002300000000000D01263410000000084D7974105
:100240000000000065CDCD41000000205FA002420B
:10025000000000E876483742000000A2941A6D4280
:10026000000040E59C30A2420000901EC4BCD64273
:1002700000003426F56B0C430080E03779C341431E
:1002800000A0D8855734764300C84E676DC1AB4394
:10029000003D9160E458E143408CB5781DAF1544B2
:1002A00050EFE2D6E41A4B4492D54D06CFF080448D
:1002B000F64AE1C7022DB544B49DD9794378EA44A2
:1002C000BC89D897B2D29C3C33A7A8D523F649392C
:1002D0003DA7F444FD0FA5329D978CCF08BA5B254E
:1002E000436FAC642806C80A0080E03779C34143F5
:1002F000176E05B5B5B89346F5F93FE9034F384D8C
:10030000321D30F94877825A3CBF737FDD4F157537
:1003100020AC00009CAA00009CAA0000FCA90000E0
:100320009CAA00009CAA00009CAA00009CAA0000B5
:100330009CAA00009CAA0000DCA800007CA9000088
:100340009CAA0000FCA80000ACAB00009CAA000026
:10035000A4AB000064AA000064AA000064AA000024
:1003600064AA000064AA000064AA000064AA000055
:1003700064AA000064AA00009CAA00009CAA0000D5
:100380009CAA00009CAA00009CAA00009CAA000055
:100390009CAA00009CAA00009CAA00009CAA000045
:1003A00004AA00009CAA00009CAA00009CAA0000CD
:1003B0009CAA00009CAA00009CAA00009CAA000025
:1003C0009CAA00009CAA00009CAA0000C8AD0000E6
:1003D0009CAA00009CAA00009CAA00009CAA000005
:1003E0009CAA000088AD00009CAA00009CAA000006
:1003F00018AD00009CAA00009CAA00009CAA000066
:100400009CAA00009CAA00009CAA00009CAA0000D4
:100410009CAA00009CAA00009CAA0000F0AC00006E
:100420007CAD00009CAA00009CAA00009CAA0000D1
:1004300074AD00007CAD00009CAA00009CAA0000E6
:10044000D4A800009CAA0000F0AB000088A900001E
:1004500004A90000D4A800009CAA0000A4AC0000DD
:100460009CAA000030AC00009CAA00009CAA0000DE
:1004700004AE00002020202020202020202020204A
:1004800020202020303030303030303030303030AC
:1004900030303030ACBC000034BE000034BE000050
:1004A000C0BC000034BE000034BE000034BE0000FA
:1004B00034BE000034BE000034BE000050B800005E
:1004C000FCBA000034BE000068B80000F0BD0000B7
:1004D00034BE00000CBB000018BB000018BB0000BD
:1004E00018BB000018BB000018BB000018BB0000C0
:1004F00018BB000018BB000018BB000034BE000091
:1005000034BE000034BE000034BE000034BE000023
:1005100034BE000034BE000034BE000034BE000013
:1005200034BE000044BB000034BE000034BE0000F6
:1005300034BE000034BE000034BE000034BE0000F3
:1005400034BE000034BE000034BE000034BE0000E3
:10055000A8BB000034BE000034BE000034BE000062
:1005600034BE000034BE000054BC000034BE0000A5
:1005700034BE000060BD000034BE000034BE000088
:1005800034BE000034BE000034BE000034BE0000A3
:1005900034BE000034BE000034BE000034BE000093
:1005A00028BD000054BD000034BE000034BE000071
:1005B00034BE0000B0BD000054BD000034BE0000D9
:1005C00034BE0000C4B7000034BE000024BC0000EC
:1005D000A4BD000074B80000C4B7000034BE000021
:1005E000CCBC000034BE00001CBD000034BE0000C6
:1005F00034BE0000BCBD0000202020202020202090
:10060000202020202020202030303030303030306A
:10061000303030303030303000000000000000005A
:1006200000000000000000000000000000000000CA
:1006300000000000000000000000000000000000BA
:100640000001020203030303040404040404040479
:10065000050505050505050505050505050505054A
:10066000060606060606060606060606060606062A
:10067000060606060606060606060606060606061A
:1006800007070707070707070707070707070707FA
:1006900007070707070707070707070707070707EA
:1006A00007070707070707070707070707070707DA
:1006B00007070707070707070707070707070707CA
:1006C00008080808080808080808080808080808AA
:1006D000080808080808080808080808080808089A
:1006E000080808080808080808080808080808088A
:1006F000080808080808080808080808080808087A
:100700000808080808080808080808080808080869
:100710000808080808080808080808080808080859
:100720000808080808080808080808080808080849
:100730000808080808080808080808080808080839
:100740007B14AE47E17A743F20BC3E4D00000000B0
:10075000000000000000F83F61436F63A787D23FAD
:10076000B3C8608B288AC63FFB799F501344D33FA0
:10077000000000000000F03F0000000000002440E6
:100780000000000000001C400000000000001440B9
:10079000000000000000E03F000000CF000000006B
:1007A000000000000000E0C1100000000000000098
:1007B000017A5200010401011B0D02001400000027
:1007C0001800000028FBFEFF8400000000540E10FB
:1007D0005011017F100000003000000094FBFEFF6C
:1007E0004000000000000000100000004400000075
:1007F000C0FBFEFF0400000000000000100000002D
:1008000058000000B0FBFEFF0800000000000000E0
:10081000140000006C000000A4FBFEFF1C000000A0
:1008200000440E104411017F1400000084000000F9
:10083000A8FBFEFF1C00000000440E104411017FC5
:10084000140000009C000000ACFBFEFF1C00000038
:1008500000440E104411017F10000000B40000009D
:10086000B0FBFEFF300000000000000010000000A0
:10087000C8000000CCFBFEFF2000000000000000CC
:1008800018000000DC000000D8FBFEFF380000006C
:1008900000440E104811087E11017F002000000066
:1008A000F8000000F4FBFEFF5000000000440E10B2
:1008B0005011097D11127C11017F11087E0000008A
:1008C000100000001C01000020FCFEFF0C000000D6
:1008D00000000000100000003001000018FCFEFFC6
:1008E0000C000000000000001000000044010000A7
:1008F00010FCFEFF040000000000000034000000B7
:100900005801000000FCFEFF2401000000440E30EE
:100910004811147A7011087E11017F11097D11129E
:100920007C11137B111579111678111777440C0877
:10093000000000001400000090010000ECFCFEFF2D
:100940004400000000440E206811017F18000000E0
:10095000A801000018FDFEFF9C00000000440E20CE
:100960007811087E5011017F24000000C4010000AE
:1009700098FDFEFF0001000000440E404411087E77
:100980007811017F11097D11127C11137B00000089
:1009900014000000EC01000070FEFEFF1C000000CF
:1009A00000440E104811017F1000000004020000F6
:1009B00074FEFEFF0C0000000000000010000000AC
:1009C000180200006CFEFEFF08000000000000009E
:1009D000180000002C02000060FEFEFF480000002E
:1009E00000440E104411087E4C11017F18000000D5
:1009F000480200008CFEFEFF9400000000440E2020
:100A00004811087E11017F00100000006402000000
:100A100004FFFEFF0C0000000000000010000000BA
:100A200078020000FCFEFEFF0C0000000000000049
:100A3000100000008C020000F4FEFEFF0C0000001D
:100A40000000000028000000A0020000ECFEFEFFF5
:100A50002401000000480E306011017F11087E1152
:100A6000097D11127C11137B11147A111579000084
:100A700010000000CC020000E4FFFEFF08000000B0
:100A80000000000010000000E0020000D8FFFEFFA0
:100A90007C000000000000003C000000F4020000A8
:100AA0004000FFFFE807000000440E504411187694
:100AB0005411097D11127C74111579111A741101E8
:100AC0007F11087E11137B11147A11167811177794
:100AD000111975111B7300001C0000003403000085
:100AE000E807FFFF6400000000440E105411017F6E
:100AF00011087E11097D00001C0000005403000055
:100B00002C08FFFF8801000000440E204C11087ED5
:100B100011017F11097D0000100000007403000026
:100B20009409FFFF100000000000000024000000F6
:100B300088030000540DFFFF4002000000440EA097
:100B4000014411087E5811017F11097D11127C1199
:100B5000137B00001C000000B00300006809FFFFC9
:100B6000B8010000007C0E205411017F11087E1195
:100B7000097D00001C000000D0030000000BFFFFF7
:100B8000B8010000007C0E205411017F11087E1175
:100B9000097D000010000000F0030000980CFFFF2A
:100BA000100000000000000010000000040400001D
:100BB000940CFFFF0C000000000000001800000073
:100BC000180400008C0CFFFF3800000000440E10D9
:100BD0004411087E4811017F100000000000000051
:100BE000017A5200010401011B0D020010000000F7
:100BF00018000000D40EFFFF3000000000000000CD
:100C0000100000002C000000F00EFFFF2C00000080
:100C1000000000002000000040000000080FFFFF5F
:100C20001001000000440E104411127C4C11097D8B
:100C30004C11087E11017F001000000064000000CC
:100C4000F40FFFFF30000000000000001000000063
:100C5000780000001010FFFF1800000000000000E6
:100C60003C0000008C0000001410FFFF98070000FB
:100C700000440EA0017811017F111A74111B731129
:100C8000087E11097D11127C11137B11147A111544
:100C9000791116781117771118761119750000005F
:100CA0001000000000000000017A52000104010160
:100CB0001B0D020010000000180000005817FFFF75
:100CC0001000000000000000100000002C000000D8
:100CD0005417FFFF6C00000000000000100000002F
:100CE00040000000AC17FFFF2400000000000000DF
:100CF0001C00000054000000BC17FFFF740000003F
:100D000000440E104C11087E11097D11017F000076
:100D100010000000740000001018FFFF0C0000001D
:100D2000000000001C000000880000000818FFFF01
:100D3000C400000000440E104C11087E11097D1102
:100D4000017F00001000000000000000017A520046
:100D5000010401011B0D020010000000180000003A
:100D60009818FFFF100000000000000010000000B5
:100D70002C0000009418FFFF10000000000000008D
:100D80001000000000000000017A5200010401017F
:100D90001B0D020034000000180000007C18FFFF4B
:100DA0003C07000000440E306C11097D11137B11CB
:100DB000017F11087E11127C11147A111579111618
:100DC00078111777111876111975000010000000BE
:100DD00000000000017A5200010401011B0D020015
:100DE00010000000180000006C1FFFFF2001000031
:100DF000000000001000000000000000017A520016
:100E0000010401011B0D0200100000001800000089
:100E10004021FFFF0400000000000000100000005F
:100E20002C0000003021FFFF040000000000000043
:100E30001000000000000000017A520001040101CE
:100E40001B0D020014000000180000000C21FFFF21
:100E50004400000000440E406C11017714000000B3
:100E6000300000003821FFFF54000000004C0E400D
:100E7000741101771000000000000000017A520098
:100E8000010401011B0D0200180000001800000001
:100E90006021FFFF7000000000440EB001701101DE
:100EA000770000001800000034000000B421FFFFAC
:100EB00080000000004C0EB00178110177000000A6
:100EC0001000000000000000017A5200010401013E
:100ED0001B0D02003C000000180000001823FFFF5B
:100EE000581C000000440EC0024C11017F11087E06
:100EF0001118767411097D11127C11137B11147A6B
:100F0000111579111678111777111975111A7411B5
:100F10001B7300001000000000000000017A520066
:100F2000010401011B0D02003C000000180000003C
:100F30001C3FFFFFD81C000000440EC002501101EE
:100F40007F11087E111876111A747011097D111223
:100F50007C11137B11147A111579111678111777FA
:100F6000111975111B7300001000000058000000DB
:100F7000B45BFFFF1800000000000000200000002C
:100F80006C000000B85BFFFFC000000000580E803E
:100F9000095011087E5811097D11127C11017F0042
:100FA0001000000000000000017A5200010401015D
:100FB0001B0D02001C00000018000000405CFFFF39
:100FC00058010000004C0E104C11087E11097D11D3
:100FD000017F00001000000000000000017A5200B4
:100FE000010401011B0D0200280000001800000090
:100FF000645DFFFFE801000000440E204811127CF0
:101000005C11017F11087E11097D11137B11147A87
:10101000111579003C00000044000000205FFFFF34
:10102000BC14000000480EA0017411087E11127C4F
:1010300011147A11197511017F11097D11137B119A
:101040001579111678111777111876111A74111B6A
:10105000730000001000000000000000017A520040
:10106000010401011B0D0200200000001800000017
:101070008873FFFF9002000000480E205C11087E7C
:1010800011137B11017F11097D11127C18000000E2
:101090003C000000F475FFFF5C00000000440E20DF
:1010A0004811087E11017F00100000005800000068
:1010B0003476FFFF28000000000000001000000050
:1010C00000000000017A5200010401011B0D020022
:1010D00010000000180000003476FFFF0800000038
:1010E00000000000100000002C0000002876FFFF28
:1010F0000C000000000000002C0000004000000078
:101100002076FFFF9001000000440E205011017F67
:1011100011087E11097D5811127C11137B11147A6C
:101120001115791116780000100000007000000001
:101130008077FFFF08000000000000002000000092
:10114000840000007477FFFF7000000000440E1060
:101150004811087E5011127C5011097D11017F0049
:1011600024000000A8000000C077FFFF0C01000071
:1011700000440E204811127C5811137B11017F117D
:10118000087E11097D00000010000000D000000062
:10119000A478FFFF14000000000000001000000011
:1011A000E4000000A478FFFF100000000000000031
:1011B00010000000F8000000A078FFFF040000000D
:1011C00000000000100000000C0100009078FFFFFC
:1011D00004000000000000001000000020010000DA
:1011E0008078FFFF040000000000000010000000F5
:1011F000340100007078FFFF0400000000000000D0
:1012000010000000480100006078FFFF140000009B
:1012100000000000100000005C0100006078FFFF8B
:10122000140000000000000010000000000000009A
:10123000017A5200010401011B0D0200240000008C
:10124000180000004C78FFFF0C01000000440E2045
:101250004411127C4C11087E11097D4C11137B1135
:10126000017F000030000000400000003079FFFFE7
:10127000E802000000480E104811087E11097D4C5C
:1012800011017F02E80E00C1C8C9440E1011017F90
:1012900011087E11097D0000100000000000000010
:1012A000017A5200010401011B0D02002C00000014
:1012B00018000000D07BFFFFB000000000440E20AB
:1012C0006011157911017F11087E11097D11127CC1
:1012D00011137B11147A1116780000002C00000005
:1012E00048000000507CFFFFC000000000440E30AA
:1012F0006411167811017F11087E11097D11127C8D
:1013000011137B11147A1115791117771000000051
:1013100000000000017A5200010401011B0D0200CF
:101320001C00000018000000CC7CFFFF78000000CB
:1013300000440E104C11097D11017F11087E000040
:101340001000000038000000247DFFFF0C000000AA
:1013500000000000100000004C0000001C7DFFFF9A
:101360000C00000000000000100000006000000001
:10137000147DFFFF0C0000000000000010000000C2
:10138000740000000C7DFFFF08000000000000005A
:101390001000000088000000007DFFFF0C0000002E
:1013A00000000000100000009C000000F87CFFFF1F
:1013B000140000000000000010000000B000000059
:1013C000F87CFFFF0C00000000000000100000008F
:1013D00000000000017A5200010401011B0D02000F
:1013E0002400000018000000DC7CFFFF90010000DA
:1013F00000480E90014411097D5811017F11087EAB
:1014000011127C11137B000010000000000000008E
:10141000017A5200010401011B0D020010000000BE
:1014200018000000307EFFFFD80000000000000020
:101430001000000000000000017A520001040101C8
:101440001B0D02002000000018000000E07EFFFFDE
:10145000A400000000480E105011087E11097D11F3
:10146000017F11127C000000100000003C00000011
:10147000607FFFFF24000000000000002400000047
:1014800050000000707FFFFF1001000000440E308C
:101490005011087E11097D11127C5411017F111326
:1014A0007B00000028000000780000005880FFFF4B
:1014B0000401000000440E204811137B6411087ED3
:1014C00011097D11127C11147A11017F1115790017
:1014D00010000000A40000003081FFFF7C0000002D
:1014E0000000000010000000B80000009881FFFF1D
:1014F000B00000000000000018000000CC00000058
:101500003482FFFF3400000000440E104411087EB6
:101510004C11017F24000000E80000004C82FFFF16
:10152000F001000000440E204811137B11147A587A
:1015300011097D11127C11017F11087E200000002D
:10154000100100001484FFFF3801000000440E2049
:101550005411087E11127C11137B11017F11097D3A
:1015600028000000340100002885FFFF5001000022
:1015700000440E204411147A4C11087E5C11097D40
:1015800011127C11137B11157911017F10000000DD
:10159000600100004C86FFFF6000000000000000BA
:1015A00024000000740100009886FFFFF401000091
:1015B000004C0E205811127C11137B11017F110871
:1015C0007E11097D11147A00100000009C010000BA
:1015D0006488FFFF7C00000000000000280000007D
:1015E000B0010000CC88FFFF3001000000440E2055
:1015F0004411087E4811097D5011127C5011137B53
:1016000011147A4811017F0028000000DC0100005D
:10161000D089FFFF4401000000440E304C11087EC9
:1016200011097D5411127C11137B11147A11157953
:101630004811017F2400000008020000E88AFFFF33
:10164000AC00000000440E304411127C5811017FA0
:1016500011087E11097D11137B000000200000009D
:10166000300200006C8BFFFF8000000000440E1071
:101670005011087E11017F11127D11137C000000B2
:101680001000000054020000C88BFFFF680000003B
:101690000000000010000000680200001C8CFFFF2A
:1016A00084000000000000001000000000000000A6
:1016B000017A5200010401011B0D0200100000001C
:1016C00018000000788CFFFF74000000000000008C
:1016D0001000000000000000017A52000104010126
:1016E0001B0D02001800000018000000C48CFFFF52
:1016F0007C00000000480E104411087E5011017F4C
:101700001000000034000000248DFFFF08000000DE
:10171000000000002000000048000000188DFFFFBE
:101720007800000000480E105011087E11097D114C
:10173000127C11017F000000180000006C00000006
:101740006C8DFFFF6C00000000480E104811087EF1
:1017500011017F001000000088000000BC8DFFFF19
:101760000800000000000000100000000000000061
:10177000017A5200010401011B0D0200100000005B
:10178000180000009C8DFFFF90000000000000008A
:101790001000000000000000017A52000104010165
:1017A0001B0D02003000000018000000048EFFFF37
:1017B000C801000000480E306811157911017F1131
:1017C000087E11097D11127C11137B11147A1116F8
:1017D00078111777111876003C0000004C000000CB
:1017E000988FFFFF8C0D000000480EF0017411125D
:1017F0007C11177711187611017F11087E11097D70
:1018000011137B11147A11157911167811197511AC
:101810001A74111B7300000010000000000000008B
:10182000017A5200010401011B0D02002C0000008E
:1018300018000000D09CFFFFE800000000480E30B8
:101840006411167811017F11087E11097D11127C37
:1018500011137B11147A11157911177710000000FC
:1018600048000000889DFFFF1800000000000000F5
:101870003C0000005C0000008C9DFFFF2C1000006D
:1018800000440EF0017411097D111579111A7411BB
:10189000017F11087E11127C11137B11147A11162D
:1018A00078111777111876111975111B7300000044
:1018B000100000009C00000078ADFFFF1800000041
:1018C0000000000020000000B00000007CADFFFF21
:1018D000C000000000580E80095011087E58110900
:1018E0007D11127C11017F0010000000000000003B
:1018F000017A5200010401011B0D020018000000D2
:101900001800000004AEFFFFB400000000480E10F5
:101910004811017F11087E00100000000000000047
:10192000017A5200010401011B0D02002800000091
:101930001800000088AEFFFFF000000000480E1005
:101940005011087E11097D11017F11127C02EC0EED
:1019500000C1C8C9D200000010000000440000000F
:101960004CAFFFFF1000000000000000100000005E
:1019700000000000017A5200010401011B0D020069
:101980002C0000001800000034AFFFFF60010000D1
:1019900000440E306011087E11147A11157911017E
:1019A0007F11097D11127C11137B11167800000044
:1019B000100000004800000064B0FFFF2800000095
:1019C000000000001C0000005C00000078B0FFFF79
:1019D0008000000000440E204811087E4C11097D53
:1019E00011017F001000000000000000017A520089
:1019F000010401011B0D020070000000180000002E
:101A0000C4B0FFFF9804000000500E307011087E33
:101A100011147A11157911017F11097D11127C11B0
:101A2000137B111678111777111876111975111A81
:101A3000740388010E00C1C8C9D2D3D4D5D6D7D873
:101A4000D9DA4C0E3011017F11087E11097D111277
:101A50007C11137B11147A111579111678111777EF
:101A6000111876111975111A740000001000000089
:101A700000000000017A5200010401011B0D020068
:101A80001000000018000000D4B4FFFF2001000087
:101A9000000000001000000000000000017A520069
:101AA000010401011B0D02003000000018000000BD
:101AB000CCB5FFFF7C05000000440E306811097DA5
:101AC00011017F11087E11127C11137B11147A1100
:101AD000157911167811177711187600100000008B
:101AE00000000000017A5200010401011B0D0200F8
:101AF000200000001800000000BBFFFF6001000094
:101B000000440E205411087E11097D11137B110130
:101B10007F11127C100000003C0000003CBCFFFF65
:101B20001400000000000000100000000000000091
:101B3000017A5200010401011B0D02002400000083
:101B40001800000028BCFFFFB000000000440E3069
:101B50005811097D11127C11017F11087E11137B30
:101B600011147A002400000040000000B0BCFFFF08
:101B7000B400000000440E305C11097D11127C118C
:101B8000017F11087E11137B11147A0010000000F0
:101B900000000000017A5200010401011B0D020047
:101BA000100000001800000028BDFFFF30000000FA
:101BB00000000000240000002C00000044BDFFFFD6
:101BC0007000000000440E204811087E5811017F6B
:101BD00011097D11127C11137B11147A1000000081
:101BE00000000000017A5200010401011B0D0200F7
:101BF000100000001800000078BDFFFF3400000056
:101C0000000000001000000000000000017A5200F7
