:10010000731005347325203463440514170F000061
:10011000130F8F42F32F10346306FF07170F0000F1
:10012000130F4FEE63120F02170F0000130F8FED26
:1001300063040F006FF0DFEC6F0080041300000019
:10014000732F2034E35E0FFA730050301300000069
:100150001300000013000000130000001300000053
:100160001300000013000000130000001300000043
:100170001300000013000000130000001300000033
:10018000136E9E5373100E786FF0DFFF13000000A4
:100190001300000013000000130000001300000013
:1001A0001300000013000000130000001300000003
:1001B00013000000130000001300000013000000F3
:1001C000170F0000130F4F37F32F1034E30CFFFB12
:1001D000170F0000130F0FE363040F006FF05FE2CF
:1001E0006FF01FFA1300000013000000130000005E
:1001F00013000000130000001300000013000000B3
:10020000732500F163100500732500F063580500A5
:100210000F00F00F130E10006F00C031130E00001E
:1002200097020000938202DE638402007390121032
:100230009302801F73B0023013050008732045300D
:100240007325107013052500731015326F0080029E
:1002500013151500135515001305F5FFE31805EAEE
:1002600073251070130525007310153273250034A3
:1002700073000010970200009382420173901234C1
:10028000732500F17300001097900000938080E3C5
:1002900083A10000B70EFF00938EFE0F130E200007
:1002A000639AD127979000009380C0E183A140001A
:1002B000B70E01FF938E0EF0130E3000639CD12514
:1002C00097900000938000E083A18000B71EF00F9C
:1002D000938E0EFF130E4000639ED1239790000073
:1002E000938040DE83A1C000B7FE0FF0938EFE0026
:1002F000130E50006390D12397900000938040DD4F
:1003000083A140FFB70EFF00938EFE0F130E600017
:100310006392D12197900000938080DB83A180FFBE
:10032000B70E01FF938E0EF0130E70006394D11F71
:10033000979000009380C0D983A1C0FFB71EF00F33
:10034000938E0EFF130E80006396D11D97900000D0
:10035000938000D883A10000B7FE0FF0938EFE00BB
:10036000130E90006398D11B97900000938080D566
:10037000938000FE83A10002B70EFF00938EFE0F54
:10038000130EA0006398D11997900000938080D33A
:100390009380D0FF83A17000B70E01FF938E0EF003
:1003A000130EB0006398D117130EC00013020000A3
:1003B00097900000938040D183A1400013830100F7
:1003C000B71EF00F938E0EFF6316D31513021200A3
:1003D00093022000E31E52FC130ED0001302000013
:1003E00097900000938080CE83A14000130000000E
:1003F00013830100B7FE0FF0938EFE00631CD31130
:100400001302120093022000E31C52FC130EE000C2
:1004100013020000979000009380C0CA83A140009F
:10042000130000001300000013830100B70E01FF4A
:10043000938E0EF06310D30F13021200930220006C
:10044000E31A52FC130EF000130200009790000014
:10045000938080C783A14000B71EF00F938E0EFFDC
:10046000639AD10B1302120093022000E31052FE94
:10047000130E00011302000097900000938000C546
:100480001300000083A14000B7FE0FF0938EFE0022
:100490006392D1091302120093022000E31E52FC62
:1004A000130E10011302000097900000938080C18A
:1004B000130000001300000083A14000B70E01FFED
:1004C000938E0EF06398D105130212009302200060
:1004D000E31C52FC979100009381C1BE03A101006F
:1004E00013012000930E2000130E20016314D1038A
:1004F00097910000938101BD03A10100130000004A
:1005000013012000930E2000130E30016314D1015B
:10051000631CC0010F00F00F63000E00131E1E00CD
:10052000136E1E006F0000010F00F00F130E10007D
:0C0530006F004000730000006FF0DFFF60
:10100000BEBAFECAEFBEADDEBEBAFECAEFBEADDEF0
:10101000BEBAFECAEFBEADDEBEBAFECAEFBEADDEE0
:10102000BEBAFECAEFBEADDEBEBAFECAEFBEADDED0
:10103000BEBAFECAEFBEADDEBEBAFECAEFBEADDEC0
:10104000BEBAFECAEFBEADDEBEBAFECAEFBEADDEB0
:10105000BEBAFECAEFBEADDEBEBAFECAEFBEADDEA0
:10106000BEBAFECAEFBEADDEBEBAFECAEFBEADDE90
:10107000BEBAFECAEFBEADDEBEBAFECAEFBEADDE80
:10108000BEBAFECAEFBEADDEBEBAFECAEFBEADDE70
:10109000BEBAFECAEFBEADDEBEBAFECAEFBEADDE60
:1010A000BEBAFECAEFBEADDEBEBAFECAEFBEADDE50
:1010B000BEBAFECAEFBEADDEBEBAFECAEFBEADDE40
:1010C0000000000000000000000000000000000020
:1010D0000000000000000000000000000000000010
:1010E0000000000000000000000000000000000000
:1010F00000000000000000000000000000000000F0
:1090C000FF00FF0000FF00FFF00FF00F0FF00FF0A8
:0400000300000100F8
:00000001FF
