:10010000731005347325203463440514170F000061
:10011000130FCF65F32F10346306FF07170F00008E
:10012000130F4FEE63120F02170F0000130F8FED26
:1001300063040F006FF0DFEC6F0080041300000019
:10014000732F2034E35E0FFA730050301300000069
:100150001300000013000000130000001300000053
:100160001300000013000000130000001300000043
:100170001300000013000000130000001300000033
:10018000136E9E5373100E786FF0DFFF13000000A4
:100190001300000013000000130000001300000013
:1001A0001300000013000000130000001300000003
:1001B00013000000130000001300000013000000F3
:1001C000170F0000130F8F5AF32F1034E30CFFFBAF
:1001D000170F0000130F0FE363040F006FF05FE2CF
:1001E0006FF01FFA1300000013000000130000005E
:1001F00013000000130000001300000013000000B3
:10020000732500F163100500732500F063580500A5
:100210000F00F00F130E10006F000055130E0000BA
:1002200097020000938202DE638402007390121032
:100230009302801F73B0023013050008732045300D
:100240007325107013052500731015326F0080029E
:1002500013151500135515001305F5FFE31805EAEE
:1002600073251070130525007310153273250034A3
:1002700073000010970200009382420173901234C1
:10028000732500F173000010B70001FF938000F0A8
:1002900037110F0F1301F1F0B3C12000B7FE0FF0BB
:1002A000938EFE00130E20006390D14BB710F00F19
:1002B000938000FF37F1F0F01301010FB3C120006C
:1002C000B70E01FF938E0EF0130E3000639ED147E0
:1002D000B700FF009380F00F37110F0F1301F1F0FB
:1002E000B3C12000B71EF00F938E0EFF130E400017
:1002F000639CD145B7F00FF09380F00037F1F0F038
:100300001301010FB3C12000B70EFF00938EFE0F43
:10031000130E5000639AD143B70001FF938000F0A1
:1003200037110F0F1301F1F0B3C02000B7FE0FF02B
:10033000938EFE00130E60006398D041B70001FF5A
:10034000938000F037110F0F1301F1F033C120003B
:10035000B7FE0FF0938EFE00130E70006316D13FB0
:10036000B70001FF938000F0B3C01000930E0000AF
:10037000130E8000639AD03D13020000B70001FF06
:10038000938000F037110F0F1301F1F0B3C120007B
:10039000138301001302120093022000E31052FEA7
:1003A000B7FE0FF0938EFE00130E9000631ED3393C
:1003B00013020000B710F00F938000FF37F1F0F048
:1003C0001301010FB3C120001300000013830100CB
:1003D0001302120093022000E31E52FCB70E01FF2D
:1003E000938E0EF0130EA0006310D337130200009B
:1003F000B700FF009380F00F37110F0F1301F1F0DA
:10040000B3C120001300000013000000138301009B
:100410001302120093022000E31C52FCB71EF00FDF
:10042000938E0EFF130EB0006310D333130200003F
:10043000B70001FF938000F037110F0F1301F1F0A7
:10044000B3C120001302120093022000E31252FEF7
:10045000B7FE0FF0938EFE00130EC0006396D12FEF
:1004600013020000B710F00F938000FF37F1F0F097
:100470001301010F13000000B3C12000130212008A
:1004800093022000E31052FEB70E01FF938E0EF090
:10049000130ED000639AD12B13020000B700FF00A7
:1004A0009380F00F37110F0F1301F1F013000000CC
:1004B00013000000B3C120001302120093022000B9
:1004C000E31E52FCB71EF00F938E0EFF130EE000DA
:1004D000639CD12713020000B70001FF938000F056
:1004E0001300000037110F0F1301F1F0B3C120000A
:1004F0001302120093022000E31052FEB7FE0FF029
:10050000938EFE00130EF0006390D12513020000BD
:10051000B710F00F938000FF1300000037F1F0F0E8
:100520001301010F13000000B3C1200013021200D9
:1005300093022000E31E52FCB70E01FF938E0EF0D3
:10054000130E00016392D12113020000B700FF00D7
:100550009380F00F130000001300000037110F0FFD
:100560001301F1F0B3C12000130212009302200026
:10057000E31E52FCB71EF00F938E0EFF130E1001F8
:100580006394D11D1302000037110F0F1301F1F016
:10059000B70001FF938000F0B3C1200013021200E6
:1005A00093022000E31252FEB7FE0FF0938EFE007E
:1005B000130E2001639AD1191302000037F1F0F0F5
:1005C0001301010FB710F00F938000FF130000001C
:1005D000B3C120001302120093022000E31052FE68
:1005E000B70E01FF938E0EF0130E3001639ED115EE
:1005F0001302000037110F0F1301F1F0B700FF00D5
:100600009380F00F1300000013000000B3C120001E
:100610001302120093022000E31E52FCB71EF00FDB
:10062000938E0EFF130E40016390D113130200004E
:1006300037110F0F1301F1F013000000B70001FF95
:10064000938000F0B3C12000130212009302200037
:10065000E31052FEB7FE0FF0938EFE00130E500112
:100660006394D10F1302000037F1F0F01301010F72
:1006700013000000B710F00F938000FF130000007C
:10068000B3C120001302120093022000E31E52FCAB
:10069000B70E01FF938E0EF0130E60016396D10B1F
:1006A0001302000037110F0F1301F1F013000000C7
:1006B00013000000B700FF009380F00FB3C12000CB
:1006C0001302120093022000E31E52FCB71EF00F2B
:1006D000938E0EFF130E70016398D107B70001FFD0
:1006E000938000F033411000B70E01FF938E0EF09F
:1006F000130E8001631AD105B700FF009380F00F3D
:1007000033C10000B70EFF00938EFE0F130E900151
:10071000631CD103B3400000930E0000130EA00130
:100720006394D003B7101111938010113721222246
:100730001301212233C02000930E0000130EB001DC
:100740006314D001631CC0010F00F00F63000E00A2
:10075000131E1E00136E1E006F0000010F00F00F2D
:10076000130E10006F004000730000006FF0DFFFF9
:10100000BEBAFECAEFBEADDEBEBAFECAEFBEADDEF0
:10101000BEBAFECAEFBEADDEBEBAFECAEFBEADDEE0
:10102000BEBAFECAEFBEADDEBEBAFECAEFBEADDED0
:10103000BEBAFECAEFBEADDEBEBAFECAEFBEADDEC0
:10104000BEBAFECAEFBEADDEBEBAFECAEFBEADDEB0
:10105000BEBAFECAEFBEADDEBEBAFECAEFBEADDEA0
:10106000BEBAFECAEFBEADDEBEBAFECAEFBEADDE90
:10107000BEBAFECAEFBEADDEBEBAFECAEFBEADDE80
:10108000BEBAFECAEFBEADDEBEBAFECAEFBEADDE70
:10109000BEBAFECAEFBEADDEBEBAFECAEFBEADDE60
:1010A000BEBAFECAEFBEADDEBEBAFECAEFBEADDE50
:1010B000BEBAFECAEFBEADDEBEBAFECAEFBEADDE40
:1010C0000000000000000000000000000000000020
:1010D0000000000000000000000000000000000010
:1010E0000000000000000000000000000000000000
:1010F00000000000000000000000000000000000F0
:0400000300000100F8
:00000001FF
