:10010000731005347325203463440514170F000061
:10011000130F0F38F32F10346306FF07170F00007B
:10012000130F4FEE63120F02170F0000130F8FED26
:1001300063040F006FF0DFEC6F0080041300000019
:10014000732F2034E35E0FFA730050301300000069
:100150001300000013000000130000001300000053
:100160001300000013000000130000001300000043
:100170001300000013000000130000001300000033
:10018000136E9E5373100E786FF0DFFF13000000A4
:100190001300000013000000130000001300000013
:1001A0001300000013000000130000001300000003
:1001B00013000000130000001300000013000000F3
:1001C000170F0000130FCF2CF32F1034E30CFFFB9D
:1001D000170F0000130F0FE363040F006FF05FE2CF
:1001E0006FF01FFA1300000013000000130000005E
:1001F00013000000130000001300000013000000B3
:10020000732500F163100500732500F063580500A5
:100210000F00F00F130E10006F004027130E0000A8
:1002200097020000938202DE638402007390121032
:100230009302801F73B0023013050008732045300D
:100240007325107013052500731015326F0080029E
:1002500013151500135515001305F5FFE31805EAEE
:1002600073251070130525007310153273250034A3
:1002700073000010970200009382420173901234C1
:10028000732500F173000010B710FF00938000F099
:1002900093C1F0F0B7FE00FF938EFE00130E200016
:1002A0006396D11DB710F00F938000FF93C1000F2C
:1002B000B71EF00F938E0EF0130E30006398D11B13
:1002C000B710FF009380F08F93C1F070B71EFF004E
:1002D000938E0EFF130E4000639AD119B7F00FF002
:1002E0009380F00093C1000FB7FE0FF0938EFE0FC6
:1002F000130E5000639CD117B7F000FF938000707D
:1003000093C0F070B7FE00FF938EFE00130E6000E6
:10031000639ED01513020000B710F00F938000FF0A
:1003200093C1000F138301001302120093022000F7
:10033000E31452FEB71EF00F938E0EF0130E7000F2
:100340006316D31313020000B710FF009380F08FE1
:1003500093C1F07013000000138301001302120018
:1003600093022000E31252FEB71EFF00938E0EFF91
:10037000130E8000631CD30F13020000B7F00FF0C0
:100380009380F00093C1000F1300000013000000E1
:10039000138301001302120093022000E31052FEA7
:1003A000B7FE0FF0938EFE0F130E90006310D30D67
:1003B00013020000B710F00F938000FF93C1000FED
:1003C0001302120093022000E31652FEB71EF00F34
:1003D000938E0EF0130EA000639AD1091302000051
:1003E000B710FF009380F0FF1300000093C1F000EE
:1003F0001302120093022000E31452FEB71EFF0006
:10040000938E0EFF130EB0006392D107130200000B
:10041000B7F00FF09380F00013000000130000000D
:1004200093C1000F1302120093022000E31252FE48
:10043000B7FE0FF0938EFE0F130EC0006398D1032A
:100440009340000F930E000F130ED0006390D00363
:10045000B700FF009380F00F13C0F070930E000000
:10046000130EE0006314D001631CC0010F00F00FF5
:1004700063000E00131E1E00136E1E006F000001AD
:100480000F00F00F130E10006F004000730000000B
:040490006FF0DFFF2B
:10100000BEBAFECAEFBEADDEBEBAFECAEFBEADDEF0
:10101000BEBAFECAEFBEADDEBEBAFECAEFBEADDEE0
:10102000BEBAFECAEFBEADDEBEBAFECAEFBEADDED0
:10103000BEBAFECAEFBEADDEBEBAFECAEFBEADDEC0
:10104000BEBAFECAEFBEADDEBEBAFECAEFBEADDEB0
:10105000BEBAFECAEFBEADDEBEBAFECAEFBEADDEA0
:10106000BEBAFECAEFBEADDEBEBAFECAEFBEADDE90
:10107000BEBAFECAEFBEADDEBEBAFECAEFBEADDE80
:10108000BEBAFECAEFBEADDEBEBAFECAEFBEADDE70
:10109000BEBAFECAEFBEADDEBEBAFECAEFBEADDE60
:1010A000BEBAFECAEFBEADDEBEBAFECAEFBEADDE50
:1010B000BEBAFECAEFBEADDEBEBAFECAEFBEADDE40
:1010C0000000000000000000000000000000000020
:1010D0000000000000000000000000000000000010
:1010E0000000000000000000000000000000000000
:1010F00000000000000000000000000000000000F0
:0400000300000100F8
:00000001FF
