:10010000731005347325203463440514170F000061
:10011000130FCF67F32F10346306FF07170F00008C
:10012000130F4FEE63120F02170F0000130F8FED26
:1001300063040F006FF0DFEC6F0080041300000019
:10014000732F2034E35E0FFA730050301300000069
:100150001300000013000000130000001300000053
:100160001300000013000000130000001300000043
:100170001300000013000000130000001300000033
:10018000136E9E5373100E786FF0DFFF13000000A4
:100190001300000013000000130000001300000013
:1001A0001300000013000000130000001300000003
:1001B00013000000130000001300000013000000F3
:1001C000170F0000130F8F5CF32F1034E30CFFFBAD
:1001D000170F0000130F0FE363040F006FF05FE2CF
:1001E0006FF01FFA1300000013000000130000005E
:1001F00013000000130000001300000013000000B3
:10020000732500F163100500732500F063580500A5
:100210000F00F00F130E10006F000057130E0000B8
:1002200097020000938202DE638402007390121032
:100230009302801F73B0023013050008732045300D
:100240007325107013052500731015326F0080029E
:1002500013151500135515001305F5FFE31805EAEE
:1002600073251070130525007310153273250034A3
:1002700073000010970200009382420173901234C1
:10028000732500F1730000109300000013010000BB
:10029000B3812000930E0000130E20006396D14D11
:1002A0009300100013011000B3812000930E200072
:1002B000130E3000639AD14B93003000130170008D
:1002C000B3812000930EA000130E4000639ED1491D
:1002D000930000003781FFFFB3812000B78EFFFF3E
:1002E000130E50006392D149B70000801301000043
:1002F000B3812000B70E0080130E60006396D147D3
:10030000B70000803781FFFFB3812000B78EFF7FE9
:10031000130E7000639AD1459300000037810000EE
:100320001301F1FFB3812000B78E0000938EFEFF12
:10033000130E8000639AD143B70000809380F0FFD2
:1003400013010000B3812000B70E0080938EFEFFE2
:10035000130E9000639AD141B70000809380F0FFA4
:10036000378100001301F1FFB3812000B78E0080B8
:10037000938EEEFF130EA0006398D13FB70000806C
:10038000378100001301F1FFB3812000B78E008098
:10039000938EFEFF130EB0006398D13DB70000802E
:1003A0009380F0FF3781FFFFB3812000B78EFF7F7E
:1003B000938EFEFF130EC0006398D13B93000000A4
:1003C0001301F0FFB3812000930EF0FF130ED00055
:1003D000639CD1399300F0FF13011000B38120001A
:1003E000930E0000130EE0006390D1399300F0FFEC
:1003F0001301F0FFB3812000930EE0FF130EF00015
:100400006394D13793001000370100801301F1FF8E
:10041000B3812000B70E0080130E00016396D13522
:100420009300D0001301B000B3802000930E800130
:10043000130E1001639AD0339300E0001301B00053
:1004400033812000930E9001130E2001631ED131E1
:100450009300D000B3801000930EA001130E300162
:100460006394D031130200009300D0001301B00058
:10047000B3812000138301001302120093022000B5
:10048000E31452FE930E8001130E4001631ED32D20
:10049000130200009300E0001301B000B3812000BC
:1004A00013000000138301001302120093022000C6
:1004B000E31252FE930E9001130E50016316D32BDC
:1004C000130200009300F0001301B000B38120007C
:1004D0001300000013000000138301001302120038
:1004E00093022000E31052FE930EA001130E600150
:1004F000631CD327130200009300D0001301B00047
:10050000B38120001302120093022000E31652FE72
:10051000930E8001130E70016398D1251302000021
:100520009300E0001301B00013000000B38120002D
:100530001302120093022000E31452FE930E900166
:10054000130E80016392D123130200009300F00088
:100550001301B0001300000013000000B38120005D
:100560001302120093022000E31252FE930EA00128
:10057000130E9001639AD11F130200009300D00064
:10058000130000001301B000B38120001302120019
:1005900093022000E31452FE930E8001130EA0017B
:1005A0006394D11D130200009300E00013000000CB
:1005B0001301B00013000000B381200013021200E9
:1005C00093022000E31252FE930E9001130EB0012D
:1005D000639CD119130200009300F0001300000087
:1005E000130000001301B000B381200013021200B9
:1005F00093022000E31252FE930EA001130EC001DD
:100600006394D117130200001301B0009300D000CF
:10061000B38120001302120093022000E31652FE61
:10062000930E8001130ED0016390D11513020000C8
:100630001301B0009300E00013000000B38120001C
:100640001302120093022000E31452FE930E900155
:10065000130EE001639AD111130200001301B000E0
:100660009300F0001300000013000000B38120008D
:100670001302120093022000E31252FE930EA00117
:10068000130EF0016392D10F130200001301B000AA
:10069000130000009300D000B38120001302120069
:1006A00093022000E31452FE930E8001130E000209
:1006B000639CD10B130200001301B0001300000073
:1006C0009300E00013000000B38120001302120029
:1006D00093022000E31252FE930E9001130E1002BB
:1006E0006394D109130200001301B000130000004D
:1006F000130000009300F000B381200013021200E9
:1007000093022000E31252FE930EA001130E20026A
:10071000639CD1059300F00033011000930EF000AC
:10072000130E30026312D1059300000233810000E2
:10073000930E0002130E40026318D103B3000000B1
:10074000930E0000130E50026390D003930000013B
:100750001301E00133802000930E0000130E6002AD
:100760006314D001631CC0010F00F00F63000E0082
:10077000131E1E00136E1E006F0000010F00F00F0D
:10078000130E10006F004000730000006FF0DFFFD9
:10100000BEBAFECAEFBEADDEBEBAFECAEFBEADDEF0
:10101000BEBAFECAEFBEADDEBEBAFECAEFBEADDEE0
:10102000BEBAFECAEFBEADDEBEBAFECAEFBEADDED0
:10103000BEBAFECAEFBEADDEBEBAFECAEFBEADDEC0
:10104000BEBAFECAEFBEADDEBEBAFECAEFBEADDEB0
:10105000BEBAFECAEFBEADDEBEBAFECAEFBEADDEA0
:10106000BEBAFECAEFBEADDEBEBAFECAEFBEADDE90
:10107000BEBAFECAEFBEADDEBEBAFECAEFBEADDE80
:10108000BEBAFECAEFBEADDEBEBAFECAEFBEADDE70
:10109000BEBAFECAEFBEADDEBEBAFECAEFBEADDE60
:1010A000BEBAFECAEFBEADDEBEBAFECAEFBEADDE50
:1010B000BEBAFECAEFBEADDEBEBAFECAEFBEADDE40
:1010C0000000000000000000000000000000000020
:1010D0000000000000000000000000000000000010
:1010E0000000000000000000000000000000000000
:1010F00000000000000000000000000000000000F0
:0400000300000100F8
:00000001FF
