:10010000731005347325203463440514170F000061
:10011000130F0F4FF32F10346306FF07170F000064
:10012000130F4FEE63120F02170F0000130F8FED26
:1001300063040F006FF0DFEC6F0080041300000019
:10014000732F2034E35E0FFA730050301300000069
:100150001300000013000000130000001300000053
:100160001300000013000000130000001300000043
:100170001300000013000000130000001300000033
:10018000136E9E5373100E786FF0DFFF13000000A4
:100190001300000013000000130000001300000013
:1001A0001300000013000000130000001300000003
:1001B00013000000130000001300000013000000F3
:1001C000170F0000130FCF43F32F1034E30CFFFB86
:1001D000170F0000130F0FE363040F006FF05FE2CF
:1001E0006FF01FFA1300000013000000130000005E
:1001F00013000000130000001300000013000000B3
:10020000732500F163100500732500F063580500A5
:100210000F00F00F130E10006F00403E130E000091
:1002200097020000938202DE638402007390121032
:100230009302801F73B0023013050008732045300D
:100240007325107013052500731015326F0080029E
:1002500013151500135515001305F5FFE31805EAEE
:1002600073251070130525007310153273250034A3
:1002700073000010970200009382420173901234C1
:10028000732500F173000010130E2000930000008E
:100290001301000063F620006312C0356316C0012D
:1002A000E3FE20FE631CC033130E300093001000E9
:1002B0001301100063F620006312C0336316C001FF
:1002C000E3FE20FE631CC031130E40009300F0FFDC
:1002D0001301F0FF63F620006312C0316316C00102
:1002E000E3FE20FE631CC02F130E5000930010008D
:1002F0001301000063F620006312C02F6316C001D3
:10030000E3FE20FE631CC02D130E60009300F0FF7F
:100310001301E0FF63F620006312C02D6316C001D5
:10032000E3FE20FE631CC02B130E70009300F0FF51
:100330001301000063F620006312C02B6316C00196
:10034000E3FE20FE631CC029130E80009300000012
:100350001301100063F420006314C0016310C0296E
:10036000E3FE20FE130E90009300E0FF1301F0FF68
:1003700063F420006314C0016312C027E3FE20FE73
:10038000130EA000930000001301F0FF63F420009F
:100390006314C0016314C025E3FE20FE130EB000F9
:1003A000B70000809380F0FF3701008063F42000E5
:1003B0006314C0016314C023E3FE20FE130EC000CB
:1003C00013020000B70000F09380F0FF370100F047
:1003D00063F620201302120093022000E31452FE61
:1003E000130ED00013020000B70000F09380F0FF5E
:1003F000370100F01300000063F2201E1302120008
:1004000093022000E31252FE130EE00013020000DC
:10041000B70000F09380F0FF370100F013000000F8
:100420001300000063FC201A130212009302200044
:10043000E31052FE130EF00013020000B70000F0AC
:100440009380F0FF13000000370100F063F82018DC
:100450001302120093022000E31252FE130E000159
:1004600013020000B70000F09380F0FF13000000BB
:10047000370100F01300000063F22016130212008F
:1004800093022000E31052FE130E1001130200002D
:10049000B70000F09380F0FF13000000130000008D
:1004A000370100F063FC20121302120093022000B7
:1004B000E31052FE130E200113020000B70000F0FB
:1004C0009380F0FF370100F063FA2010130212004E
:1004D00093022000E31452FE130E300113020000B9
:1004E000B70000F09380F0FF370100F01300000028
:1004F00063F6200E1302120093022000E31252FE54
:10050000130E400113020000B70000F09380F0FFCB
:10051000370100F0130000001300000063F0200C0E
:100520001302120093022000E31052FE130E50013A
:1005300013020000B70000F09380F0FF13000000EA
:10054000370100F063FC2008130212009302200020
:10055000E31252FE130E600113020000B70000F018
:100560009380F0FF13000000370100F0130000003B
:1005700063F620061302120093022000E31052FEDD
:10058000130E700113020000B70000F09380F0FF1B
:100590001300000013000000370100F063F0200496
:1005A0001302120093022000E31052FE9300100089
:1005B00063FA000093801000938010009380100075
:1005C000938010009380100093801000930E3000F1
:1005D000130E80016394D001631CC0010F00F00F63
:1005E00063000E00131E1E00136E1E006F0000013C
:1005F0000F00F00F130E10006F004000730000009A
:040600006FF0DFFFB9
:10100000BEBAFECAEFBEADDEBEBAFECAEFBEADDEF0
:10101000BEBAFECAEFBEADDEBEBAFECAEFBEADDEE0
:10102000BEBAFECAEFBEADDEBEBAFECAEFBEADDED0
:10103000BEBAFECAEFBEADDEBEBAFECAEFBEADDEC0
:10104000BEBAFECAEFBEADDEBEBAFECAEFBEADDEB0
:10105000BEBAFECAEFBEADDEBEBAFECAEFBEADDEA0
:10106000BEBAFECAEFBEADDEBEBAFECAEFBEADDE90
:10107000BEBAFECAEFBEADDEBEBAFECAEFBEADDE80
:10108000BEBAFECAEFBEADDEBEBAFECAEFBEADDE70
:10109000BEBAFECAEFBEADDEBEBAFECAEFBEADDE60
:1010A000BEBAFECAEFBEADDEBEBAFECAEFBEADDE50
:1010B000BEBAFECAEFBEADDEBEBAFECAEFBEADDE40
:1010C0000000000000000000000000000000000020
:1010D0000000000000000000000000000000000010
:1010E0000000000000000000000000000000000000
:1010F00000000000000000000000000000000000F0
:0400000300000100F8
:00000001FF
