:10010000731005347325203463440514170F000061
:10011000130F0F45F32F10346306FF07170F00006E
:10012000130F4FEE63120F02170F0000130F8FED26
:1001300063040F006FF0DFEC6F0080041300000019
:10014000732F2034E35E0FFA730050301300000069
:100150001300000013000000130000001300000053
:100160001300000013000000130000001300000043
:100170001300000013000000130000001300000033
:10018000136E9E5373100E786FF0DFFF13000000A4
:100190001300000013000000130000001300000013
:1001A0001300000013000000130000001300000003
:1001B00013000000130000001300000013000000F3
:1001C000170F0000130FCF39F32F1034E30CFFFB90
:1001D000170F0000130F0FE363040F006FF05FE2CF
:1001E0006FF01FFA1300000013000000130000005E
:1001F00013000000130000001300000013000000B3
:10020000732500F163100500732500F063580500A5
:100210000F00F00F130E10006F004034130E00009B
:1002200097020000938202DE638402007390121032
:100230009302801F73B0023013050008732045300D
:100240007325107013052500731015326F0080029E
:1002500013151500135515001305F5FFE31805EAEE
:1002600073251070130525007310153273250034A3
:1002700073000010970200009382420173901234C1
:10028000732500F173000010B780FFFF93D10000C9
:10029000B78EFFFF130E20006392D12BB780FFFFB4
:1002A00093D11000B7CEFF7F130E30006398D12991
:1002B000B780FFFF93D17000B70E0002938E0EF04F
:1002C000130E4000639CD127B780FFFF93D1E0005D
:1002D000B70E0400938EEEFF130E50006390D127EB
:1002E000B780FFFF9380100093D1F000B70E02009B
:1002F000938EFEFF130E60006392D1259300F0FFF2
:1003000093D10000930EF0FF130E70006398D12379
:100310009300F0FF93D11000B70E0080938EFEFF84
:10032000130E8000639CD1219300F0FF93D17000E5
:10033000B70E0002938EFEFF130E90006390D12142
:100340009300F0FF93D1E000B70E0400938EFEFF00
:10035000130EA0006394D11F9300F0FF93D1F0011E
:10036000930E1000130EB000639AD11DB720212107
:100370009380101293D10000B72E2121938E1E126C
:10038000130EC000639CD11BB72021219380101253
:1003900093D11000B79E9010938E0E09130ED000CB
:1003A000639ED119B72021219380101293D1700040
:1003B000B74E4200938E2E24130EE0006390D119A5
:1003C000B72021219380101293D1E000B78E000056
:1003D000938E4E48130EF0006392D117B72021215F
:1003E0009380101293D1F001930E0000130E0001C0
:1003F0006396D115B780FFFF93D01000B7CEFF7F73
:10040000130E5001639CD01313020000B780FFFF4E
:1004100093D11000138301001302120093022000F5
:10042000E31652FEB7CEFF7F130E60016318D3119F
:1004300013020000B780FFFF93D1E000130000001B
:10044000138301001302120093022000E31452FEF2
:10045000B70E0400938EEEFF130E70016310D30FDE
:1004600013020000B780FFFF93D1F00013000000DB
:1004700013000000138301001302120093022000F6
:10048000E31252FEB70E0200938EFEFF130E8001A0
:100490006316D30B13020000B780FFFF93D1100047
:1004A0001302120093022000E31852FEB7CEFF7F22
:1004B000130E90016394D10913020000B780FFFF6F
:1004C0001300000093D1E0001302120093022000F9
:1004D000E31652FEB70E0400938EEEFF130EA0013A
:1004E000639ED10513020000B780FFFF13000000D8
:1004F0001300000093D1F0001302120093022000B9
:10050000E31452FEB70E0200938EFEFF130EB001ED
:100510006396D1039350F001930E0000130EC001B7
:10052000639ED0019300100213D04001930E00008F
:10053000130ED0016314D001631CC0010F00F00F33
:1005400063000E00131E1E00136E1E006F000001DC
:100550000F00F00F130E10006F004000730000003A
:040560006FF0DFFF5A
:10100000BEBAFECAEFBEADDEBEBAFECAEFBEADDEF0
:10101000BEBAFECAEFBEADDEBEBAFECAEFBEADDEE0
:10102000BEBAFECAEFBEADDEBEBAFECAEFBEADDED0
:10103000BEBAFECAEFBEADDEBEBAFECAEFBEADDEC0
:10104000BEBAFECAEFBEADDEBEBAFECAEFBEADDEB0
:10105000BEBAFECAEFBEADDEBEBAFECAEFBEADDEA0
:10106000BEBAFECAEFBEADDEBEBAFECAEFBEADDE90
:10107000BEBAFECAEFBEADDEBEBAFECAEFBEADDE80
:10108000BEBAFECAEFBEADDEBEBAFECAEFBEADDE70
:10109000BEBAFECAEFBEADDEBEBAFECAEFBEADDE60
:1010A000BEBAFECAEFBEADDEBEBAFECAEFBEADDE50
:1010B000BEBAFECAEFBEADDEBEBAFECAEFBEADDE40
:1010C0000000000000000000000000000000000020
:1010D0000000000000000000000000000000000010
:1010E0000000000000000000000000000000000000
:1010F00000000000000000000000000000000000F0
:0400000300000100F8
:00000001FF
