:10010000731005347325203463440514170F000061
:10011000130F4F66F32F10346306FF07170F00000D
:10012000130F4FEE63120F02170F0000130F8FED26
:1001300063040F006FF0DFEC6F0080041300000019
:10014000732F2034E35E0FFA730050301300000069
:100150001300000013000000130000001300000053
:100160001300000013000000130000001300000043
:100170001300000013000000130000001300000033
:10018000136E9E5373100E786FF0DFFF13000000A4
:100190001300000013000000130000001300000013
:1001A0001300000013000000130000001300000003
:1001B00013000000130000001300000013000000F3
:1001C000170F0000130F0F5BF32F1034E30CFFFB2E
:1001D000170F0000130F0FE363040F006FF05FE2CF
:1001E0006FF01FFA1300000013000000130000005E
:1001F00013000000130000001300000013000000B3
:10020000732500F163100500732500F063580500A5
:100210000F00F00F130E10006F008055130E00003A
:1002200097020000938202DE638402007390121032
:100230009302801F73B0023013050008732045300D
:100240007325107013052500731015326F0080029E
:1002500013151500135515001305F5FFE31805EAEE
:1002600073251070130525007310153273250034A3
:1002700073000010970200009382420173901234C1
:10028000732500F1730000109300000013010000BB
:10029000B3912002930E0000130E2000639AD14BFD
:1002A0009300100013011000B3912002930E000080
:1002B000130E3000639ED14993003000130170008B
:1002C000B3912002930E0000130E40006392D149B7
:1002D000930000003781FFFFB3912002930E0000CE
:1002E000130E50006396D147B70000801301000041
:1002F000B3912002930E0000130E6000639AD14563
:10030000B700008013010000B3912002930E00009B
:10031000130E7000639ED143B7B0AAAA9380B0AA0F
:10032000370103001301D1E7B3912002B70EFFFF9D
:10033000938E1E08130EE001639CD141B7000300A9
:100340009380D0E737B1AAAA1301B1AAB3912002D2
:10035000B70EFFFF938E1E08130EF001639AD13F74
:10036000B70000FF370100FFB3912002B70E010074
:10037000130E0002639ED13D9300F0FF1301F0FFC6
:10038000B3912002930E0000130E10026392D13D30
:100390009300F0FF13011000B3912002930EF0FFC1
:1003A000130E20026396D13B930010001301F0FF5F
:1003B000B3912002930EF0FF130E3002639AD139ED
:1003C000B700D0003701B000B3902002B79E000004
:1003D000938E0EF0130E8000639CD037B700E000C0
:1003E0003701B00033912002B7AE0000938E0EA00B
:1003F000130E9000631ED135B700D000B3901002E9
:10040000B7BE0000938E0E90130EA0006392D035FD
:1004100013020000B700D0003701B000B3912002F2
:10042000138301001302120093022000E31452FE12
:10043000B79E0000938E0EF0130EB000631AD331F6
:1004400013020000B700E0003701B000B3912002B2
:100450001300000013830100130212009302200016
:10046000E31252FEB7AE0000938E0EA0130EC00032
:100470006310D32F13020000B700F0003701B00063
:10048000B391200213000000130000001383010049
:100490001302120093022000E31052FEB7AE0000D8
:1004A000938E0E50130ED0006314D32B1302000052
:1004B000B700D0003701B000B39120021302120040
:1004C00093022000E31652FEB79E0000938E0EF0BA
:1004D000130EE000639ED12713020000B700E00076
:1004E0003701B00013000000B39120021302120084
:1004F00093022000E31452FEB7AE0000938E0EA0CC
:10050000130EF0006396D12513020000B700F0002F
:100510003701B0001300000013000000B391200267
:100520001302120093022000E31252FEB7AE000045
:10053000938E0E50130E0001639CD1211302000014
:10054000B700D000130000003701B000B3912002C3
:100550001302120093022000E31452FEB79E000023
:10056000938E0EF0130E10016394D11F130200003E
:10057000B700E000130000003701B00013000000D6
:10058000B39120021302120093022000E31252FEE4
:10059000B7AE0000938E0EA0130E2001639AD11BFC
:1005A00013020000B700F000130000001300000069
:1005B0003701B000B3912002130212009302200011
:1005C000E31252FEB7AE0000938E0E50130E3001B0
:1005D0006390D119130200003701B000B700D000BA
:1005E000B39120021302120093022000E31652FE80
:1005F000B79E0000938E0EF0130E4001639AD11542
:10060000130200003701B000B700E0001300000043
:10061000B39120021302120093022000E31452FE51
:10062000B7AE0000938E0EA0130E50016392D1134B
:10063000130200003701B000B700F0001300000003
:1006400013000000B3912002130212009302200055
:10065000E31252FEB7AE0000938E0E50130E6001EF
:100660006398D10F130200003701B000130000009F
:10067000B700D000B39120021302120093022000B1
:10068000E31452FEB79E0000938E0EF0130E70011D
:100690006390D10D130200003701B0001300000079
:1006A000B700E00013000000B39120021302120013
:1006B00093022000E31252FEB7AE0000938E0EA00C
:1006C000130E80016396D109130200003701B000B8
:1006D0001300000013000000B700F000B3912002E7
:1006E0001302120093022000E31252FEB7AE000084
:1006F000938E0E50130E9001639CD105B700007CC1
:1007000033111002930E0000130EA0016312D105E5
:10071000B700008033910002930E0000130EB00169
:100720006318D103B3100002930E0000130EC00132
:100730006390D003B70010023701200233902002EB
:10074000930E0000130ED0016314D001631CC0018E
:100750000F00F00F63000E00131E1E00136E1E002C
:100760006F0000010F00F00F130E10006F0040002B
:08077000730000006FF0DFFFD1
:10100000BEBAFECAEFBEADDEBEBAFECAEFBEADDEF0
:10101000BEBAFECAEFBEADDEBEBAFECAEFBEADDEE0
:10102000BEBAFECAEFBEADDEBEBAFECAEFBEADDED0
:10103000BEBAFECAEFBEADDEBEBAFECAEFBEADDEC0
:10104000BEBAFECAEFBEADDEBEBAFECAEFBEADDEB0
:10105000BEBAFECAEFBEADDEBEBAFECAEFBEADDEA0
:10106000BEBAFECAEFBEADDEBEBAFECAEFBEADDE90
:10107000BEBAFECAEFBEADDEBEBAFECAEFBEADDE80
:10108000BEBAFECAEFBEADDEBEBAFECAEFBEADDE70
:10109000BEBAFECAEFBEADDEBEBAFECAEFBEADDE60
:1010A000BEBAFECAEFBEADDEBEBAFECAEFBEADDE50
:1010B000BEBAFECAEFBEADDEBEBAFECAEFBEADDE40
:1010C0000000000000000000000000000000000020
:1010D0000000000000000000000000000000000010
:1010E0000000000000000000000000000000000000
:1010F00000000000000000000000000000000000F0
:0400000300000100F8
:00000001FF
