:10010000731005347325203463440514170F000061
:10011000130FCF1FF32F10346306FF07170F0000D4
:10012000130F4FEE63120F02170F0000130F8FED26
:1001300063040F006FF0DFEC6F0080041300000019
:10014000732F2034E35E0FFA730050301300000069
:100150001300000013000000130000001300000053
:100160001300000013000000130000001300000043
:100170001300000013000000130000001300000033
:10018000136E9E5373100E786FF0DFFF13000000A4
:100190001300000013000000130000001300000013
:1001A0001300000013000000130000001300000003
:1001B00013000000130000001300000013000000F3
:1001C000170F0000130F8F14F32F1034E30CFFFBF5
:1001D000170F0000130F0FE363040F006FF05FE2CF
:1001E0006FF01FFA1300000013000000130000005E
:1001F00013000000130000001300000013000000B3
:10020000732500F163100500732500F063580500A5
:100210000F00F00F130E10006F00000F130E000000
:1002200097020000938202DE638402007390121032
:100230009302801F73B0023013050008732045300D
:100240007325107013052500731015326F0080029E
:1002500013151500135515001305F5FFE31805EAEE
:1002600073251070130525007310153273250034A3
:1002700073000010970200009382420173901234C1
:10028000732500F17300001037050080930500808E
:1002900097960000938606E323A0A6002FA7B6E05A
:1002A000B70E0080130E20006310D70583A7060049
:1002B000930E0080130E30006398D7039305F0FF70
:1002C00023A006002FA7B6E0930E0000130E4000F7
:1002D000631CD70183A70600930EF0FF130E500096
:1002E0006394D701631CC0010F00F00F63000E0080
:1002F000131E1E00136E1E006F0000010F00F00F92
:10030000130E10006F004000730000006FF0DFFF5D
:10100000BEBAFECAEFBEADDEBEBAFECAEFBEADDEF0
:10101000BEBAFECAEFBEADDEBEBAFECAEFBEADDEE0
:10102000BEBAFECAEFBEADDEBEBAFECAEFBEADDED0
:10103000BEBAFECAEFBEADDEBEBAFECAEFBEADDEC0
:10104000BEBAFECAEFBEADDEBEBAFECAEFBEADDEB0
:10105000BEBAFECAEFBEADDEBEBAFECAEFBEADDEA0
:10106000BEBAFECAEFBEADDEBEBAFECAEFBEADDE90
:10107000BEBAFECAEFBEADDEBEBAFECAEFBEADDE80
:10108000BEBAFECAEFBEADDEBEBAFECAEFBEADDE70
:10109000BEBAFECAEFBEADDEBEBAFECAEFBEADDE60
:1010A000BEBAFECAEFBEADDEBEBAFECAEFBEADDE50
:1010B000BEBAFECAEFBEADDEBEBAFECAEFBEADDE40
:1010C0000000000000000000000000000000000020
:1010D0000000000000000000000000000000000010
:1010E0000000000000000000000000000000000000
:1010F00000000000000000000000000000000000F0
:0400000300000100F8
:00000001FF
