:10010000731005347325203463440514170F000061
:10011000130FCF45F32F10346306FF07170F0000AE
:10012000130F4FEE63120F02170F0000130F8FED26
:1001300063040F006FF0DFEC6F0080041300000019
:10014000732F2034E35E0FFA730050301300000069
:100150001300000013000000130000001300000053
:100160001300000013000000130000001300000043
:100170001300000013000000130000001300000033
:10018000136E9E5373100E786FF0DFFF13000000A4
:100190001300000013000000130000001300000013
:1001A0001300000013000000130000001300000003
:1001B00013000000130000001300000013000000F3
:1001C000170F0000130F8F3AF32F1034E30CFFFBCF
:1001D000170F0000130F0FE363040F006FF05FE2CF
:1001E0006FF01FFA1300000013000000130000005E
:1001F00013000000130000001300000013000000B3
:10020000732500F163100500732500F063580500A5
:100210000F00F00F130E10006F000035130E0000DA
:1002200097020000938202DE638402007390121032
:100230009302801F73B0023013050008732045300D
:100240007325107013052500731015326F0080029E
:1002500013151500135515001305F5FFE31805EAEE
:1002600073251070130525007310153273250034A3
:1002700073000010970200009382420173901234C1
:10028000732500F173000010130E2000930000008E
:100290001301100063C620006318C02B6316C00151
:1002A000E3CE20FE6312C02B130E30009300F0FF4C
:1002B0001301100063C620006318C0296316C00133
:1002C000E3CE20FE6312C029130E40009300E0FF2E
:1002D0001301F0FF63C620006318C0276316C00136
:1002E000E3CE20FE6312C027130E500093001000CF
:1002F0001301000063C420006314C0016316C0250D
:10030000E3CE20FE130E6000930010001301F0FFF7
:1003100063C420006314C0016318C023E3CE20FE31
:10032000130E70009300F0FF1301E0FF63C4200080
:100330006314C001631AC021E3CE20FE130E8000B7
:10034000930010001301E0FF63C420006314C00198
:10035000631CC01FE3CE20FE130E900013020000AA
:10036000930000001301F0FF63C0201E130212006F
:1003700093022000E31652FE130EA00013020000A9
:10038000930000001301F0FF1300000063CE201A59
:100390001302120093022000E31452FE130EB00069
:1003A00013020000930000001301F0FF130000008F
:1003B0001300000063CA20181302120093022000E9
:1003C000E31252FE130EC00013020000930000005F
:1003D000130000001301F0FF63C82016130212007F
:1003E00093022000E31452FE130ED000130200000B
:1003F00093000000130000001301F0FF1300000041
:1004000063C420141302120093022000E31252FE70
:10041000130EE00013020000930000001300000020
:10042000130000001301F0FF63C02012130212003A
:1004300093022000E31252FE130EF000130200009C
:10044000930000001301F0FF63C02010130212009C
:1004500093022000E31652FE130E00011302000067
:10046000930000001301F0FF1300000063CE200C86
:100470001302120093022000E31452FE130E100127
:1004800013020000930000001301F0FF13000000AE
:100490001300000063CA200A130212009302200016
:1004A000E31252FE130E200113020000930000001D
:1004B000130000001301F0FF63C8200813021200AC
:1004C00093022000E31452FE130E300113020000C9
:1004D00093000000130000001301F0FF1300000060
:1004E00063C420061302120093022000E31252FE9E
:1004F000130E4001130200009300000013000000DF
:10050000130000001301F0FF63C020041302120067
:1005100093022000E31252FE93001000634A100081
:10052000938010009380100093801000938010003F
:100530009380100093801000930E3000130E500132
:100540006394D001631CC0010F00F00F63000E0024
:10055000131E1E00136E1E006F0000010F00F00F2F
:10056000130E10006F004000730000006FF0DFFFFB
:10100000BEBAFECAEFBEADDEBEBAFECAEFBEADDEF0
:10101000BEBAFECAEFBEADDEBEBAFECAEFBEADDEE0
:10102000BEBAFECAEFBEADDEBEBAFECAEFBEADDED0
:10103000BEBAFECAEFBEADDEBEBAFECAEFBEADDEC0
:10104000BEBAFECAEFBEADDEBEBAFECAEFBEADDEB0
:10105000BEBAFECAEFBEADDEBEBAFECAEFBEADDEA0
:10106000BEBAFECAEFBEADDEBEBAFECAEFBEADDE90
:10107000BEBAFECAEFBEADDEBEBAFECAEFBEADDE80
:10108000BEBAFECAEFBEADDEBEBAFECAEFBEADDE70
:10109000BEBAFECAEFBEADDEBEBAFECAEFBEADDE60
:1010A000BEBAFECAEFBEADDEBEBAFECAEFBEADDE50
:1010B000BEBAFECAEFBEADDEBEBAFECAEFBEADDE40
:1010C0000000000000000000000000000000000020
:1010D0000000000000000000000000000000000010
:1010E0000000000000000000000000000000000000
:1010F00000000000000000000000000000000000F0
:0400000300000100F8
:00000001FF
