:10010000731005347325203463440514170F000061
:10011000130F8F3EF32F10346306FF07170F0000F5
:10012000130F4FEE63120F02170F0000130F8FED26
:1001300063040F006FF0DFEC6F0080041300000019
:10014000732F2034E35E0FFA730050301300000069
:100150001300000013000000130000001300000053
:100160001300000013000000130000001300000043
:100170001300000013000000130000001300000033
:10018000136E9E5373100E786FF0DFFF13000000A4
:100190001300000013000000130000001300000013
:1001A0001300000013000000130000001300000003
:1001B00013000000130000001300000013000000F3
:1001C000170F0000130F4F33F32F1034E30CFFFB16
:1001D000170F0000130F0FE363040F006FF05FE2CF
:1001E0006FF01FFA1300000013000000130000005E
:1001F00013000000130000001300000013000000B3
:10020000732500F163100500732500F063580500A5
:100210000F00F00F130E10006F00C02D130E000022
:1002200097020000938202DE638402007390121032
:100230009302801F73B0023013050008732045300D
:100240007325107013052500731015326F0080029E
:1002500013151500135515001305F5FFE31805EAEE
:1002600073251070130525007310153273250034A3
:1002700073000010970200009382420173901234C1
:10028000732500F17300001097900000938080E3C5
:1002900083C10000930EF00F130E2000639CD12346
:1002A00097900000938000E283C11000930E00003D
:1002B000130E30006390D12397900000938080E06C
:1002C00083C12000930E000F130E40006394D121D0
:1002D00097900000938000DF83C13000930EF00000
:1002E000130E50006398D11F979000009380B0DDEB
:1002F00083C1D0FF930EF00F130E6000639CD11DDD
:1003000097900000938030DC83C1E0FF930E0000E3
:10031000130E70006390D11D979000009380B0DAA7
:1003200083C1F0FF930E000F130E80006394D11B66
:1003300097900000938030D983C10000930EF000A5
:10034000130E90006398D11997900000938080D786
:10035000938000FE83C10002930EF00F130EA000E5
:10036000639AD117979000009380C0D59380A0FF27
:1003700083C17000930E0000130EB000639CD11572
:10038000130EC0001302000097900000938090D3DA
:1003900083C1100013830100930E000F631CD3135D
:1003A0001302120093022000E31052FE130ED0003D
:1003B00013020000979000009380E0D083C11000EA
:1003C0001300000013830100930EF0006314D31197
:1003D0001302120093022000E31E52FC130EE000F1
:1003E00013020000979000009380C0CD83C11000DD
:1003F000130000001300000013830100930E00009F
:10040000631AD30D1302120093022000E31C52FC66
:10041000130EF0001302000097900000938090CA22
:1004200083C11000930E000F6396D10B13021200CC
:1004300093022000E31252FE130E0001130200008B
:1004400097900000938020C81300000083C1100023
:10045000930EF0006390D109130212009302200062
:10046000E31052FE130E10011302000097900000DB
:10047000938040C5130000001300000083C11000EA
:10048000930E00006398D10513021200930220001E
:10049000E31E52FC979100009381C1C203C1010089
:1004A00013012000930E2000130E20016314D103CA
:1004B00097910000938101C103C101001300000066
:1004C00013012000930E2000130E30016314D1019C
:1004D000631CC0010F00F00F63000E00131E1E000E
:1004E000136E1E006F0000010F00F00F130E1000BE
:0C04F0006F004000730000006FF0DFFFA1
:10100000BEBAFECAEFBEADDEBEBAFECAEFBEADDEF0
:10101000BEBAFECAEFBEADDEBEBAFECAEFBEADDEE0
:10102000BEBAFECAEFBEADDEBEBAFECAEFBEADDED0
:10103000BEBAFECAEFBEADDEBEBAFECAEFBEADDEC0
:10104000BEBAFECAEFBEADDEBEBAFECAEFBEADDEB0
:10105000BEBAFECAEFBEADDEBEBAFECAEFBEADDEA0
:10106000BEBAFECAEFBEADDEBEBAFECAEFBEADDE90
:10107000BEBAFECAEFBEADDEBEBAFECAEFBEADDE80
:10108000BEBAFECAEFBEADDEBEBAFECAEFBEADDE70
:10109000BEBAFECAEFBEADDEBEBAFECAEFBEADDE60
:1010A000BEBAFECAEFBEADDEBEBAFECAEFBEADDE50
:1010B000BEBAFECAEFBEADDEBEBAFECAEFBEADDE40
:1010C0000000000000000000000000000000000020
:1010D0000000000000000000000000000000000010
:1010E0000000000000000000000000000000000000
:1010F00000000000000000000000000000000000F0
:1090C000FF00F00F000000000000000000000000A2
:0400000300000100F8
:00000001FF
