:10010000731005347325203463440514170F000061
:10011000130F4F66F32F10346306FF07170F00000D
:10012000130F4FEE63120F02170F0000130F8FED26
:1001300063040F006FF0DFEC6F0080041300000019
:10014000732F2034E35E0FFA730050301300000069
:100150001300000013000000130000001300000053
:100160001300000013000000130000001300000043
:100170001300000013000000130000001300000033
:10018000136E9E5373100E786FF0DFFF13000000A4
:100190001300000013000000130000001300000013
:1001A0001300000013000000130000001300000003
:1001B00013000000130000001300000013000000F3
:1001C000170F0000130F0F5BF32F1034E30CFFFB2E
:1001D000170F0000130F0FE363040F006FF05FE2CF
:1001E0006FF01FFA1300000013000000130000005E
:1001F00013000000130000001300000013000000B3
:10020000732500F163100500732500F063580500A5
:100210000F00F00F130E10006F008055130E00003A
:1002200097020000938202DE638402007390121032
:100230009302801F73B0023013050008732045300D
:100240007325107013052500731015326F0080029E
:1002500013151500135515001305F5FFE31805EAEE
:1002600073251070130525007310153273250034A3
:1002700073000010970200009382420173901234C1
:10028000732500F1730000109300000013010000BB
:10029000B3A12000930E0000130E2000639AD14BEF
:1002A0009300100013011000B3A12000930E000072
:1002B000130E3000639ED14993003000130170008B
:1002C000B3A12000930E1000130E40006392D14999
:1002D0009300700013013000B3A12000930E0000C2
:1002E000130E50006396D147930000003781FFFF43
:1002F000B3A12000930E0000130E6000639AD14555
:10030000B700008013010000B3A12000930E10007D
:10031000130E7000639ED143B70000803781FFFF4A
:10032000B3A12000930E1000130E80006392D143FE
:1003300093000000378100001301F1FFB3A12000FA
:10034000930E1000130E90006394D141B70000800B
:100350009380F0FF13010000B3A12000930E000072
:10036000130EA0006396D13FB70000809380F0FF8A
:10037000378100001301F1FFB3A12000930E0000AC
:10038000130EB0006396D13DB700008037810000A6
:100390001301F1FFB3A12000930E1000130EC00053
:1003A0006398D13BB70000809380F0FF3781FFFF57
:1003B000B3A12000930E0000130ED000639AD13930
:1003C000930000001301F0FFB3A12000930E000082
:1003D000130EE000639ED1379300F0FF130110006D
:1003E000B3A12000930E1000130EF0006392D137DA
:1003F0009300F0FF1301F0FFB3A12000930E000063
:10040000130E00016396D1359300E0001301D00074
:10041000B3A02000930E0000130E1001639AD03396
:100420009300B0001301D00033A12000930E100000
:10043000130E2001631ED1319300D000B3A0100031
:10044000930E0000130E30016394D03113020000AC
:100450009300B0001301D000B3A12000138301006A
:100460001302120093022000E31452FE930E1000B8
:10047000130E4001631ED32D130200009300E00011
:100480001301D000B3A1200013000000138301006A
:100490001302120093022000E31252FE930E00009A
:1004A000130E50016316D32B130200009300C000FB
:1004B0001301D000B3A120001300000013000000BE
:1004C000138301001302120093022000E31052FE76
:1004D000930E1000130E6001631CD327130200005B
:1004E0009300E0001301D000B3A12000130212001A
:1004F00093022000E31652FE930E0000130E7001CB
:100500006398D125130200009300B0001301D000BE
:1005100013000000B3A12000130212009302200078
:10052000E31452FE930E1000130E80016392D12348
:10053000130200009300F0001301D000130000002C
:1005400013000000B3A12000130212009302200048
:10055000E31252FE930E0000130E9001639AD11F16
:10056000130200009300A000130000001301D0004C
:10057000B3A120001302120093022000E31452FEE4
:10058000930E1000130EA0016394D11D13020000FE
:1005900093000001130000001301D00013000000BD
:1005A000B3A120001302120093022000E31252FEB6
:1005B000930E0000130EB001639CD11913020000CA
:1005C0009300900013000000130000001301D000FE
:1005D000B3A120001302120093022000E31252FE86
:1005E000930E1000130EC0016394D1171302000084
:1005F0001301D00093001001B3A1200013021200D8
:1006000093022000E31652FE930E0000130ED00159
:100610006390D115130200001301D00093008000F5
:1006200013000000B3A12000130212009302200067
:10063000E31452FE930E1000130EE001639AD111E1
:10064000130200001301D0009300200113000000EA
:1006500013000000B3A12000130212009302200037
:10066000E31252FE930E0000130EF0016392D10FBD
:10067000130200001301D00013000000930070006B
:10068000B3A120001302120093022000E31452FED3
:10069000930E1000130E0002639CD10B1302000096
:1006A0001301D0001300000093003001130000007C
:1006B000B3A120001302120093022000E31252FEA5
:1006C000930E0000130E10026394D1091302000070
:1006D0001301D0001300000013000000930060001D
:1006E000B3A120001302120093022000E31252FE75
:1006F000930E1000130E2002639CD1059300F0FFAF
:1007000033211000930E0000130E30026312D10546
:100710009300F0FF33A10000930E1000130E40026F
:100720006318D103B3200000930E0000130E500293
:100730006390D003930000011301E00133A0200077
:10074000930E0000130E60026314D001631CC001FD
:100750000F00F00F63000E00131E1E00136E1E002C
:100760006F0000010F00F00F130E10006F0040002B
:08077000730000006FF0DFFFD1
:10100000BEBAFECAEFBEADDEBEBAFECAEFBEADDEF0
:10101000BEBAFECAEFBEADDEBEBAFECAEFBEADDEE0
:10102000BEBAFECAEFBEADDEBEBAFECAEFBEADDED0
:10103000BEBAFECAEFBEADDEBEBAFECAEFBEADDEC0
:10104000BEBAFECAEFBEADDEBEBAFECAEFBEADDEB0
:10105000BEBAFECAEFBEADDEBEBAFECAEFBEADDEA0
:10106000BEBAFECAEFBEADDEBEBAFECAEFBEADDE90
:10107000BEBAFECAEFBEADDEBEBAFECAEFBEADDE80
:10108000BEBAFECAEFBEADDEBEBAFECAEFBEADDE70
:10109000BEBAFECAEFBEADDEBEBAFECAEFBEADDE60
:1010A000BEBAFECAEFBEADDEBEBAFECAEFBEADDE50
:1010B000BEBAFECAEFBEADDEBEBAFECAEFBEADDE40
:1010C0000000000000000000000000000000000020
:1010D0000000000000000000000000000000000010
:1010E0000000000000000000000000000000000000
:1010F00000000000000000000000000000000000F0
:0400000300000100F8
:00000001FF
