:10010000731005347325203463440514170F000061
:10011000130FCF65F32F10346306FF07170F00008E
:10012000130F4FEE63120F02170F0000130F8FED26
:1001300063040F006FF0DFEC6F0080041300000019
:10014000732F2034E35E0FFA730050301300000069
:100150001300000013000000130000001300000053
:100160001300000013000000130000001300000043
:100170001300000013000000130000001300000033
:10018000136E9E5373100E786FF0DFFF13000000A4
:100190001300000013000000130000001300000013
:1001A0001300000013000000130000001300000003
:1001B00013000000130000001300000013000000F3
:1001C000170F0000130F8F5AF32F1034E30CFFFBAF
:1001D000170F0000130F0FE363040F006FF05FE2CF
:1001E0006FF01FFA1300000013000000130000005E
:1001F00013000000130000001300000013000000B3
:10020000732500F163100500732500F063580500A5
:100210000F00F00F130E10006F000055130E0000BA
:1002200097020000938202DE638402007390121032
:100230009302801F73B0023013050008732045300D
:100240007325107013052500731015326F0080029E
:1002500013151500135515001305F5FFE31805EAEE
:1002600073251070130525007310153273250034A3
:1002700073000010970200009382420173901234C1
:10028000732500F1730000109300000013010000BB
:10029000B3812040930E0000130E20006396D14BD3
:1002A0009300100013011000B3812040930E000052
:1002B000130E3000639AD14993003000130170008F
:1002C000B3812040930EC0FF130E4000639ED147C0
:1002D000930000003781FFFFB3812040B78E0000FC
:1002E000130E50006392D147B70000801301000045
:1002F000B3812040B70E0080130E60006396D14595
:10030000B70000803781FFFFB3812040B78E0080A7
:10031000130E7000639AD1439300000037810000F0
:100320001301F1FFB3812040B78EFFFF938E1E00B3
:10033000130E8000639AD141B70000809380F0FFD4
:1003400013010000B3812040B70E0080938EFEFFA2
:10035000130E9000639AD13FB70000809380F0FFA6
:10036000378100001301F1FFB3812040B78EFF7F7A
:10037000130EA000639AD13DB700008037810000C2
:100380001301F1FFB3812040B78EFF7F938E1E00D3
:10039000130EB000639AD13BB70000809380F0FF4A
:1003A0003781FFFFB3812040B78E0080938EFEFF20
:1003B000130EC000639AD139930000001301F0FFBF
:1003C000B3812040930E1000130ED000639ED137EE
:1003D0009300F0FF13011000B3812040930EE0FF63
:1003E000130EE0006392D1379300F0FF1301F0FF8A
:1003F000B3812040930E0000130EF0006396D135B8
:100400009300D0001301B000B3802040930E200071
:10041000130E0001639AD0339300E0001301B00083
:1004200033812040930E3000130E1001631ED13132
:100430009300D000B3801040930E0000130E2001F3
:100440006394D031130200009300D0001301B00078
:10045000B381204013830100130212009302200095
:10046000E31452FE930E2000130E3001631ED32DB1
:10047000130200009300E0001301B000B38120409C
:1004800013000000138301001302120093022000E6
:10049000E31252FE930E3000130E40016316D32B6D
:1004A000130200009300F0001301B000B38120405C
:1004B0001300000013000000138301001302120058
:1004C00093022000E31052FE930E4000130E5001E1
:1004D000631CD327130200009300D0001301B00067
:1004E000B38120401302120093022000E31652FE53
:1004F000930E2000130E60016398D12513020000B3
:100500009300E0001301B00013000000B38120400D
:100510001302120093022000E31452FE930E3000E7
:10052000130E70016392D123130200009300F000B8
:100530001301B0001300000013000000B38120403D
:100540001302120093022000E31252FE930E4000A9
:10055000130E8001639AD11F130200009300D00094
:10056000130000001301B000B381204013021200F9
:1005700093022000E31452FE930E2000130E90010C
:100580006394D11D130200009300E00013000000EB
:100590001301B00013000000B381204013021200C9
:1005A00093022000E31252FE930E3000130EA001BE
:1005B000639CD119130200009300F00013000000A7
:1005C000130000001301B000B38120401302120099
:1005D00093022000E31252FE930E4000130EB0016E
:1005E0006394D117130200001301B0009300D000F0
:1005F000B38120401302120093022000E31652FE42
:10060000930E2000130EC0016390D1151302000059
:100610001301B0009300E00013000000B3812040FC
:100620001302120093022000E31452FE930E3000D6
:10063000130ED001639AD111130200001301B00010
:100640009300F0001300000013000000B38120406D
:100650001302120093022000E31252FE930E400098
:10066000130EE0016392D10F130200001301B000DA
:10067000130000009300D000B38120401302120049
:1006800093022000E31452FE930E2000130EF0019B
:10069000639CD10B130200001301B0001300000093
:1006A0009300E00013000000B38120401302120009
:1006B00093022000E31252FE930E3000130E00024C
:1006C0006394D109130200001301B000130000006D
:1006D000130000009300F000B381204013021200C9
:1006E00093022000E31252FE930E4000130E1002FC
:1006F000639CD105930010FF33011040930EF0006E
:10070000130E20026312D1059300000233810040D2
:10071000930E0002130E30026318D103B3000040A1
:10072000930E0000130E40026390D003930000016B
:100730001301E00133802040930E0000130E50029D
:100740006314D001631CC0010F00F00F63000E00A2
:10075000131E1E00136E1E006F0000010F00F00F2D
:10076000130E10006F004000730000006FF0DFFFF9
:10100000BEBAFECAEFBEADDEBEBAFECAEFBEADDEF0
:10101000BEBAFECAEFBEADDEBEBAFECAEFBEADDEE0
:10102000BEBAFECAEFBEADDEBEBAFECAEFBEADDED0
:10103000BEBAFECAEFBEADDEBEBAFECAEFBEADDEC0
:10104000BEBAFECAEFBEADDEBEBAFECAEFBEADDEB0
:10105000BEBAFECAEFBEADDEBEBAFECAEFBEADDEA0
:10106000BEBAFECAEFBEADDEBEBAFECAEFBEADDE90
:10107000BEBAFECAEFBEADDEBEBAFECAEFBEADDE80
:10108000BEBAFECAEFBEADDEBEBAFECAEFBEADDE70
:10109000BEBAFECAEFBEADDEBEBAFECAEFBEADDE60
:1010A000BEBAFECAEFBEADDEBEBAFECAEFBEADDE50
:1010B000BEBAFECAEFBEADDEBEBAFECAEFBEADDE40
:1010C0000000000000000000000000000000000020
:1010D0000000000000000000000000000000000010
:1010E0000000000000000000000000000000000000
:1010F00000000000000000000000000000000000F0
:0400000300000100F8
:00000001FF
