:10010000731005347325203463440514170F000061
:10011000130FCF41F32F10346306FF07170F0000B2
:10012000130F4FEE63120F02170F0000130F8FED26
:1001300063040F006FF0DFEC6F0080041300000019
:10014000732F2034E35E0FFA730050301300000069
:100150001300000013000000130000001300000053
:100160001300000013000000130000001300000043
:100170001300000013000000130000001300000033
:10018000136E9E5373100E786FF0DFFF13000000A4
:100190001300000013000000130000001300000013
:1001A0001300000013000000130000001300000003
:1001B00013000000130000001300000013000000F3
:1001C000170F0000130F8F36F32F1034E30CFFFBD3
:1001D000170F0000130F0FE363040F006FF05FE2CF
:1001E0006FF01FFA1300000013000000130000005E
:1001F00013000000130000001300000013000000B3
:10020000732500F163100500732500F063580500A5
:100210000F00F00F130E10006F000031130E0000DE
:1002200097020000938202DE638402007390121032
:100230009302801F73B0023013050008732045300D
:100240007325107013052500731015326F0080029E
:1002500013151500135515001305F5FFE31805EAEE
:1002600073251070130525007310153273250034A3
:1002700073000010970200009382420173901234C1
:10028000732500F17300001097900000938080E3C5
:1002900083D10000930EF00F130E20006396D12738
:1002A00097900000938000E283D12000B70E0100F8
:1002B000938E0EF0130E30006398D12597900000B6
:1002C000938040E083D14000B71E0000938E0EFF64
:1002D000130E4000639AD12397900000938080DE34
:1002E00083D16000B7FE0000938EFE00130E500015
:1002F000639CD12197900000938020DD83D1A0FFE3
:10030000930EF00F130E60006390D12197900000C0
:100310009380A0DB83D1C0FFB70E0100938E0EF057
:10032000130E70006392D11F979000009380E0D964
:1003300083D1E0FFB71E0000938E0EFF130E8000E6
:100340006394D11D97900000938020D883D1000042
:10035000B7FE0000938EFE00130E90006396D11B33
:1003600097900000938000D6938000FE83D1000216
:10037000930EF00F130EA0006398D1199790000010
:10038000938040D49380B0FF83D17000B70E0100FA
:10039000938E0EF0130EB0006398D117130EC000A9
:1003A00013020000979000009380E0D183D12000D9
:1003B00013830100B71E0000938E0EFF6316D31542
:1003C0001302120093022000E31E52FC130ED00011
:1003D0001302000097900000938000CF83D120008B
:1003E0001300000013830100B7FE0000938EFE008F
:1003F000631CD3111302120093022000E31C52FC71
:10040000130EE0001302000097900000938080CB51
:1004100083D12000130000001300000013830100AB
:10042000B70E0100938E0EF06310D30F130212006B
:1004300093022000E31A52FC130EF0001302000096
:1004400097900000938020C883D12000B71E000041
:10045000938E0EFF639AD10B1302120093022000B9
:10046000E31052FE130E00011302000097900000EB
:10047000938080C51300000083D12000B7FE0000E8
:10048000938EFE006392D1091302120093022000A2
:10049000E31E52FC130E100113020000979000009F
:1004A000938040C2130000001300000083D120009D
:1004B000B70E0100938E0EF06398D105130212005F
:1004C00093022000E31C52FC97910000938181BFAE
:1004D00003D1010013012000930E2000130E200110
:1004E0006314D103979100009381C1BD03D1010032
:1004F0001300000013012000930E2000130E3001A2
:100500006314D101631CC0010F00F00F63000E00E3
:10051000131E1E00136E1E006F0000010F00F00F6F
:10052000130E10006F004000730000006FF0DFFF3B
:10100000BEBAFECAEFBEADDEBEBAFECAEFBEADDEF0
:10101000BEBAFECAEFBEADDEBEBAFECAEFBEADDEE0
:10102000BEBAFECAEFBEADDEBEBAFECAEFBEADDED0
:10103000BEBAFECAEFBEADDEBEBAFECAEFBEADDEC0
:10104000BEBAFECAEFBEADDEBEBAFECAEFBEADDEB0
:10105000BEBAFECAEFBEADDEBEBAFECAEFBEADDEA0
:10106000BEBAFECAEFBEADDEBEBAFECAEFBEADDE90
:10107000BEBAFECAEFBEADDEBEBAFECAEFBEADDE80
:10108000BEBAFECAEFBEADDEBEBAFECAEFBEADDE70
:10109000BEBAFECAEFBEADDEBEBAFECAEFBEADDE60
:1010A000BEBAFECAEFBEADDEBEBAFECAEFBEADDE50
:1010B000BEBAFECAEFBEADDEBEBAFECAEFBEADDE40
:1010C0000000000000000000000000000000000020
:1010D0000000000000000000000000000000000010
:1010E0000000000000000000000000000000000000
:1010F00000000000000000000000000000000000F0
:1090C000FF0000FFF00F0FF00000000000000000A4
:0400000300000100F8
:00000001FF
